{
  "data": {
    "bytecode": {
      "linkReferences": {},
      "object": "608060405234801561001057600080fd5b50604051612cad380380612cad833981810160405281019061003291906102ae565b806001600081905550600073ffffffffffffffffffffffffffffffffffffffff168173ffffffffffffffffffffffffffffffffffffffff16036100ad5760006040517f1e4fbdf70000000000000000000000000000000000000000000000000000000081526004016100a49190610324565b60405180910390fd5b6100bc8161014f60201b60201c565b5083600660006101000a81548173ffffffffffffffffffffffffffffffffffffffff021916908373ffffffffffffffffffffffffffffffffffffffff16021790555082600760006101000a81548173ffffffffffffffffffffffffffffffffffffffff021916908373ffffffffffffffffffffffffffffffffffffffff160217905550816003819055505050505061033f565b6000600160009054906101000a900473ffffffffffffffffffffffffffffffffffffffff16905081600160006101000a81548173ffffffffffffffffffffffffffffffffffffffff021916908373ffffffffffffffffffffffffffffffffffffffff1602179055508173ffffffffffffffffffffffffffffffffffffffff168173ffffffffffffffffffffffffffffffffffffffff167f8be0079c531659141344cd1fd0a4f28419497f9722a3daafe3b4186f6b6457e060405160405180910390a35050565b600080fd5b600073ffffffffffffffffffffffffffffffffffffffff82169050919050565b60006102458261021a565b9050919050565b6102558161023a565b811461026057600080fd5b50565b6000815190506102728161024c565b92915050565b6000819050919050565b61028b81610278565b811461029657600080fd5b50565b6000815190506102a881610282565b92915050565b600080600080608085870312156102c8576102c7610215565b5b60006102d687828801610263565b94505060206102e787828801610263565b93505060406102f887828801610299565b925050606061030987828801610263565b91505092959194509250565b61031e8161023a565b82525050565b60006020820190506103396000830184610315565b92915050565b61295f8061034e6000396000f3fe608060405234801561001057600080fd5b50600436106100ea5760003560e01c8063715018a61161008c5780639e319063116100665780639e3190631461022b578063c9d27afe1461025d578063f2fde38b14610279578063f96dae0a14610295576100ea565b8063715018a6146101e55780638acee3cf146101ef5780638da5cb5b1461020d576100ea565b8063132002fc116100c8578063132002fc1461015f578063275e69a61461017d5780633b4d01a7146101995780635bcfadb5146101c9576100ea565b8063013cf08b146100ef5780630c0512e9146101255780630d61b51914610143575b600080fd5b61010960048036038101906101049190611687565b6102b3565b60405161011c97969594939291906118ad565b60405180910390f35b61012d6105dd565b60405161013a9190611923565b60405180910390f35b61015d60048036038101906101589190611687565b6105e3565b005b61016761085f565b6040516101749190611923565b60405180910390f35b61019760048036038101906101929190611c0f565b610865565b005b6101b360048036038101906101ae9190611687565b610b9d565b6040516101c09190611df2565b60405180910390f35b6101e360048036038101906101de9190611687565b610efc565b005b6101ed610f51565b005b6101f7610f65565b6040516102049190611e73565b60405180910390f35b610215610f8b565b6040516102229190611e9d565b60405180910390f35b61024560048036038101906102409190611eb8565b610fb5565b60405161025493929190611ef8565b60405180910390f35b61027760048036038101906102729190611f5b565b611006565b005b610293600480360381019061028e9190611f9b565b61133e565b005b61029d6113c4565b6040516102aa9190611fe9565b60405180910390f35b60046020528060005260406000206000915090508060000154908060010154908060020154908060030154908060040154908060050160009054906101000a900460ff169080600601604051806101400160405290816000820160009054906101000a900473ffffffffffffffffffffffffffffffffffffffff1673ffffffffffffffffffffffffffffffffffffffff1673ffffffffffffffffffffffffffffffffffffffff16815260200160018201805461036e90612033565b80601f016020809104026020016040519081016040528092919081815260200182805461039a90612033565b80156103e75780601f106103bc576101008083540402835291602001916103e7565b820191906000526020600020905b8154815290600101906020018083116103ca57829003601f168201915b505050505081526020016002820154815260200160038201805461040a90612033565b80601f016020809104026020016040519081016040528092919081815260200182805461043690612033565b80156104835780601f1061045857610100808354040283529160200191610483565b820191906000526020600020905b81548152906001019060200180831161046657829003601f168201915b5050505050815260200160048201548152602001600582015481526020016006820180546104b090612033565b80601f01602080910402602001604051908101604052809291908181526020018280546104dc90612033565b80156105295780601f106104fe57610100808354040283529160200191610529565b820191906000526020600020905b81548152906001019060200180831161050c57829003601f168201915b5050505050815260200160078201805461054290612033565b80601f016020809104026020016040519081016040528092919081815260200182805461056e90612033565b80156105bb5780601f10610590576101008083540402835291602001916105bb565b820191906000526020600020905b81548152906001019060200180831161059e57829003601f168201915b5050505050815260200160088201548152602001600982015481525050905087565b60025481565b6105eb6113ea565b600060046000838152602001908152602001600020905080600401544211610648576040517f08c379a000000000000000000000000000000000000000000000000000000000815260040161063f906120c1565b60405180910390fd5b8060050160009054906101000a900460ff161561069a576040517f08c379a00000000000000000000000000000000000000000000000000000000081526004016106919061212d565b60405180910390fd5b60018160050160006101000a81548160ff02191690831515021790555080600201548160010154111561081957600760009054906101000a900473ffffffffffffffffffffffffffffffffffffffff1673ffffffffffffffffffffffffffffffffffffffff166347fea81e826006016008015483600601600901548460060160000160009054906101000a900473ffffffffffffffffffffffffffffffffffffffff166040518463ffffffff1660e01b815260040161075b9392919061214d565b602060405180830381865afa158015610778573d6000803e3d6000fd5b505050506040513d601f19601f8201168201806040525081019061079c9190612199565b6107db576040517f08c379a00000000000000000000000000000000000000000000000000000000081526004016107d290612212565b60405180910390fd5b817f948f4a9cd986f1118c3fbd459f7a22b23c0693e1ca3ef06a6a8be5aa7d39cc03600160405161080c9190612232565b60405180910390a2610853565b817f948f4a9cd986f1118c3fbd459f7a22b23c0693e1ca3ef06a6a8be5aa7d39cc03600060405161084a9190612232565b60405180910390a25b5061085c611430565b50565b60035481565b600760009054906101000a900473ffffffffffffffffffffffffffffffffffffffff1673ffffffffffffffffffffffffffffffffffffffff166325f11e8d8261010001516040518263ffffffff1660e01b81526004016108c59190611923565b602060405180830381865afa1580156108e2573d6000803e3d6000fd5b505050506040513d601f19601f820116820180604052508101906109069190612199565b610945576040517f08c379a000000000000000000000000000000000000000000000000000000000815260040161093c90612299565b60405180910390fd5b60008161012001511161098d576040517f08c379a00000000000000000000000000000000000000000000000000000000081526004016109849061232b565b60405180910390fd5b600260008154809291906109a09061237a565b91905055506040518060e0016040528060025481526020016000815260200160008152602001428152602001600354426109da91906123c2565b815260200160001515815260200182815250600460006002548152602001908152602001600020600082015181600001556020820151816001015560408201518160020155606082015181600301556080820151816004015560a08201518160050160006101000a81548160ff02191690831515021790555060c08201518160060160008201518160000160006101000a81548173ffffffffffffffffffffffffffffffffffffffff021916908373ffffffffffffffffffffffffffffffffffffffff1602179055506020820151816001019081610ab89190612598565b50604082015181600201556060820151816003019081610ad89190612598565b506080820151816004015560a0820151816005015560c0820151816006019081610b029190612598565b5060e0820151816007019081610b189190612598565b50610100820151816008015561012082015181600901555050905050806000015173ffffffffffffffffffffffffffffffffffffffff166002547fbd04b5479c6dd97d2cc7727f90a20fe21ccf7121f4f9fdc04a755ee528efeb448360c001518460600151856101200151604051610b92939291906126a3565b60405180910390a350565b610ba561158f565b600460008381526020019081526020016000206040518060e001604052908160008201548152602001600182015481526020016002820154815260200160038201548152602001600482015481526020016005820160009054906101000a900460ff1615151515815260200160068201604051806101400160405290816000820160009054906101000a900473ffffffffffffffffffffffffffffffffffffffff1673ffffffffffffffffffffffffffffffffffffffff1673ffffffffffffffffffffffffffffffffffffffff168152602001600182018054610c8790612033565b80601f0160208091040260200160405190810160405280929190818152602001828054610cb390612033565b8015610d005780601f10610cd557610100808354040283529160200191610d00565b820191906000526020600020905b815481529060010190602001808311610ce357829003601f168201915b5050505050815260200160028201548152602001600382018054610d2390612033565b80601f0160208091040260200160405190810160405280929190818152602001828054610d4f90612033565b8015610d9c5780601f10610d7157610100808354040283529160200191610d9c565b820191906000526020600020905b815481529060010190602001808311610d7f57829003601f168201915b505050505081526020016004820154815260200160058201548152602001600682018054610dc990612033565b80601f0160208091040260200160405190810160405280929190818152602001828054610df590612033565b8015610e425780601f10610e1757610100808354040283529160200191610e42565b820191906000526020600020905b815481529060010190602001808311610e2557829003601f168201915b50505050508152602001600782018054610e5b90612033565b80601f0160208091040260200160405190810160405280929190818152602001828054610e8790612033565b8015610ed45780601f10610ea957610100808354040283529160200191610ed4565b820191906000526020600020905b815481529060010190602001808311610eb757829003601f168201915b5050505050815260200160088201548152602001600982015481525050815250509050919050565b610f0461143a565b60008111610f47576040517f08c379a0000000000000000000000000000000000000000000000000000000008152600401610f3e9061275a565b60405180910390fd5b8060038190555050565b610f5961143a565b610f6360006114c1565b565b600760009054906101000a900473ffffffffffffffffffffffffffffffffffffffff1681565b6000600160009054906101000a900473ffffffffffffffffffffffffffffffffffffffff16905090565b6005602052816000526040600020602052806000526040600020600091509150508060000160009054906101000a900460ff16908060000160019054906101000a900460ff16908060010154905083565b60006004600084815260200190815260200160002090508060040154421115611064576040517f08c379a000000000000000000000000000000000000000000000000000000000815260040161105b906127c6565b60405180910390fd5b6005600084815260200190815260200160002060003373ffffffffffffffffffffffffffffffffffffffff1673ffffffffffffffffffffffffffffffffffffffff16815260200190815260200160002060000160009054906101000a900460ff1615611105576040517f08c379a00000000000000000000000000000000000000000000000000000000081526004016110fc90612832565b60405180910390fd5b6000600660009054906101000a900473ffffffffffffffffffffffffffffffffffffffff1673ffffffffffffffffffffffffffffffffffffffff166370a08231336040518263ffffffff1660e01b81526004016111629190611e9d565b602060405180830381865afa15801561117f573d6000803e3d6000fd5b505050506040513d601f19601f820116820180604052508101906111a39190612867565b9050600081116111e8576040517f08c379a00000000000000000000000000000000000000000000000000000000081526004016111df906128e0565b60405180910390fd5b60405180606001604052806001151581526020018415158152602001828152506005600086815260200190815260200160002060003373ffffffffffffffffffffffffffffffffffffffff1673ffffffffffffffffffffffffffffffffffffffff16815260200190815260200160002060008201518160000160006101000a81548160ff02191690831515021790555060208201518160000160016101000a81548160ff0219169083151502179055506040820151816001015590505082156112cb57808260010160008282546112bf91906123c2565b925050819055506112e7565b808260020160008282546112df91906123c2565b925050819055505b833373ffffffffffffffffffffffffffffffffffffffff167f877856338e13f63d0c36822ff0ef736b80934cd90574a3a5bc9262c39d217c468584604051611330929190612900565b60405180910390a350505050565b61134661143a565b600073ffffffffffffffffffffffffffffffffffffffff168173ffffffffffffffffffffffffffffffffffffffff16036113b85760006040517f1e4fbdf70000000000000000000000000000000000000000000000000000000081526004016113af9190611e9d565b60405180910390fd5b6113c1816114c1565b50565b600660009054906101000a900473ffffffffffffffffffffffffffffffffffffffff1681565b600260005403611426576040517f3ee5aeb500000000000000000000000000000000000000000000000000000000815260040160405180910390fd5b6002600081905550565b6001600081905550565b611442611587565b73ffffffffffffffffffffffffffffffffffffffff16611460610f8b565b73ffffffffffffffffffffffffffffffffffffffff16146114bf57611483611587565b6040517f118cdaa70000000000000000000000000000000000000000000000000000000081526004016114b69190611e9d565b60405180910390fd5b565b6000600160009054906101000a900473ffffffffffffffffffffffffffffffffffffffff16905081600160006101000a81548173ffffffffffffffffffffffffffffffffffffffff021916908373ffffffffffffffffffffffffffffffffffffffff1602179055508173ffffffffffffffffffffffffffffffffffffffff168173ffffffffffffffffffffffffffffffffffffffff167f8be0079c531659141344cd1fd0a4f28419497f9722a3daafe3b4186f6b6457e060405160405180910390a35050565b600033905090565b6040518060e0016040528060008152602001600081526020016000815260200160008152602001600081526020016000151581526020016115ce6115d4565b81525090565b604051806101400160405280600073ffffffffffffffffffffffffffffffffffffffff1681526020016060815260200160008152602001606081526020016000815260200160008152602001606081526020016060815260200160008152602001600081525090565b6000604051905090565b600080fd5b600080fd5b6000819050919050565b61166481611651565b811461166f57600080fd5b50565b6000813590506116818161165b565b92915050565b60006020828403121561169d5761169c611647565b5b60006116ab84828501611672565b91505092915050565b6116bd81611651565b82525050565b60008115159050919050565b6116d8816116c3565b82525050565b600073ffffffffffffffffffffffffffffffffffffffff82169050919050565b6000611709826116de565b9050919050565b611719816116fe565b82525050565b600081519050919050565b600082825260208201905092915050565b60005b8381101561175957808201518184015260208101905061173e565b60008484015250505050565b6000601f19601f8301169050919050565b60006117818261171f565b61178b818561172a565b935061179b81856020860161173b565b6117a481611765565b840191505092915050565b6117b881611651565b82525050565b6000610140830160008301516117d76000860182611710565b50602083015184820360208601526117ef8282611776565b915050604083015161180460408601826117af565b506060830151848203606086015261181c8282611776565b915050608083015161183160808601826117af565b5060a083015161184460a08601826117af565b5060c083015184820360c086015261185c8282611776565b91505060e083015184820360e08601526118768282611776565b91505061010083015161188d6101008601826117af565b506101208301516118a26101208601826117af565b508091505092915050565b600060e0820190506118c2600083018a6116b4565b6118cf60208301896116b4565b6118dc60408301886116b4565b6118e960608301876116b4565b6118f660808301866116b4565b61190360a08301856116cf565b81810360c083015261191581846117be565b905098975050505050505050565b600060208201905061193860008301846116b4565b92915050565b600080fd5b7f4e487b7100000000000000000000000000000000000000000000000000000000600052604160045260246000fd5b61197b82611765565b810181811067ffffffffffffffff8211171561199a57611999611943565b5b80604052505050565b60006119ad61163d565b90506119b98282611972565b919050565b600080fd5b6119cc816116fe565b81146119d757600080fd5b50565b6000813590506119e9816119c3565b92915050565b600080fd5b600080fd5b600067ffffffffffffffff821115611a1457611a13611943565b5b611a1d82611765565b9050602081019050919050565b82818337600083830152505050565b6000611a4c611a47846119f9565b6119a3565b905082815260208101848484011115611a6857611a676119f4565b5b611a73848285611a2a565b509392505050565b600082601f830112611a9057611a8f6119ef565b5b8135611aa0848260208601611a39565b91505092915050565b60006101408284031215611ac057611abf61193e565b5b611acb6101406119a3565b90506000611adb848285016119da565b600083015250602082013567ffffffffffffffff811115611aff57611afe6119be565b5b611b0b84828501611a7b565b6020830152506040611b1f84828501611672565b604083015250606082013567ffffffffffffffff811115611b4357611b426119be565b5b611b4f84828501611a7b565b6060830152506080611b6384828501611672565b60808301525060a0611b7784828501611672565b60a08301525060c082013567ffffffffffffffff811115611b9b57611b9a6119be565b5b611ba784828501611a7b565b60c08301525060e082013567ffffffffffffffff811115611bcb57611bca6119be565b5b611bd784828501611a7b565b60e083015250610100611bec84828501611672565b61010083015250610120611c0284828501611672565b6101208301525092915050565b600060208284031215611c2557611c24611647565b5b600082013567ffffffffffffffff811115611c4357611c4261164c565b5b611c4f84828501611aa9565b91505092915050565b611c61816116c3565b82525050565b600061014083016000830151611c806000860182611710565b5060208301518482036020860152611c988282611776565b9150506040830151611cad60408601826117af565b5060608301518482036060860152611cc58282611776565b9150506080830151611cda60808601826117af565b5060a0830151611ced60a08601826117af565b5060c083015184820360c0860152611d058282611776565b91505060e083015184820360e0860152611d1f8282611776565b915050610100830151611d366101008601826117af565b50610120830151611d4b6101208601826117af565b508091505092915050565b600060e083016000830151611d6e60008601826117af565b506020830151611d8160208601826117af565b506040830151611d9460408601826117af565b506060830151611da760608601826117af565b506080830151611dba60808601826117af565b5060a0830151611dcd60a0860182611c58565b5060c083015184820360c0860152611de58282611c67565b9150508091505092915050565b60006020820190508181036000830152611e0c8184611d56565b905092915050565b6000819050919050565b6000611e39611e34611e2f846116de565b611e14565b6116de565b9050919050565b6000611e4b82611e1e565b9050919050565b6000611e5d82611e40565b9050919050565b611e6d81611e52565b82525050565b6000602082019050611e886000830184611e64565b92915050565b611e97816116fe565b82525050565b6000602082019050611eb26000830184611e8e565b92915050565b60008060408385031215611ecf57611ece611647565b5b6000611edd85828601611672565b9250506020611eee858286016119da565b9150509250929050565b6000606082019050611f0d60008301866116cf565b611f1a60208301856116cf565b611f2760408301846116b4565b949350505050565b611f38816116c3565b8114611f4357600080fd5b50565b600081359050611f5581611f2f565b92915050565b60008060408385031215611f7257611f71611647565b5b6000611f8085828601611672565b9250506020611f9185828601611f46565b9150509250929050565b600060208284031215611fb157611fb0611647565b5b6000611fbf848285016119da565b91505092915050565b6000611fd382611e40565b9050919050565b611fe381611fc8565b82525050565b6000602082019050611ffe6000830184611fda565b92915050565b7f4e487b7100000000000000000000000000000000000000000000000000000000600052602260045260246000fd5b6000600282049050600182168061204b57607f821691505b60208210810361205e5761205d612004565b5b50919050565b600082825260208201905092915050565b7f566f74696e6720706572696f64206973207374696c6c20616374697665000000600082015250565b60006120ab601d83612064565b91506120b682612075565b602082019050919050565b600060208201905081810360008301526120da8161209e565b9050919050565b7f50726f706f73616c20616c726561647920657865637574656400000000000000600082015250565b6000612117601983612064565b9150612122826120e1565b602082019050919050565b600060208201905081810360008301526121468161210a565b9050919050565b600060608201905061216260008301866116b4565b61216f60208301856116b4565b61217c6040830184611e8e565b949350505050565b60008151905061219381611f2f565b92915050565b6000602082840312156121af576121ae611647565b5b60006121bd84828501612184565b91505092915050565b7f4572726f7220436c61696d696e67207061790000000000000000000000000000600082015250565b60006121fc601283612064565b9150612207826121c6565b602082019050919050565b6000602082019050818103600083015261222b816121ef565b9050919050565b600060208201905061224760008301846116cf565b92915050565b7f506f6f6c20646f6573206e6f7420657869737400000000000000000000000000600082015250565b6000612283601383612064565b915061228e8261224d565b602082019050919050565b600060208201905081810360008301526122b281612276565b9050919050565b7f436c61696d20616d6f756e74206d75737420626520677265617465722074686160008201527f6e20300000000000000000000000000000000000000000000000000000000000602082015250565b6000612315602383612064565b9150612320826122b9565b604082019050919050565b6000602082019050818103600083015261234481612308565b9050919050565b7f4e487b7100000000000000000000000000000000000000000000000000000000600052601160045260246000fd5b600061238582611651565b91507fffffffffffffffffffffffffffffffffffffffffffffffffffffffffffffffff82036123b7576123b661234b565b5b600182019050919050565b60006123cd82611651565b91506123d883611651565b92508282019050808211156123f0576123ef61234b565b5b92915050565b60008190508160005260206000209050919050565b60006020601f8301049050919050565b600082821b905092915050565b6000600883026124587fffffffffffffffffffffffffffffffffffffffffffffffffffffffffffffffff8261241b565b612462868361241b565b95508019841693508086168417925050509392505050565b600061249561249061248b84611651565b611e14565b611651565b9050919050565b6000819050919050565b6124af8361247a565b6124c36124bb8261249c565b848454612428565b825550505050565b600090565b6124d86124cb565b6124e38184846124a6565b505050565b5b81811015612507576124fc6000826124d0565b6001810190506124e9565b5050565b601f82111561254c5761251d816123f6565b6125268461240b565b81016020851015612535578190505b6125496125418561240b565b8301826124e8565b50505b505050565b600082821c905092915050565b600061256f60001984600802612551565b1980831691505092915050565b6000612588838361255e565b9150826002028217905092915050565b6125a18261171f565b67ffffffffffffffff8111156125ba576125b9611943565b5b6125c48254612033565b6125cf82828561250b565b600060209050601f83116001811461260257600084156125f0578287015190505b6125fa858261257c565b865550612662565b601f198416612610866123f6565b60005b8281101561263857848901518255600182019150602085019450602081019050612613565b868310156126555784890151612651601f89168261255e565b8355505b6001600288020188555050505b505050505050565b60006126758261171f565b61267f8185612064565b935061268f81856020860161173b565b61269881611765565b840191505092915050565b600060608201905081810360008301526126bd818661266a565b905081810360208301526126d1818561266a565b90506126e060408301846116b4565b949350505050565b7f566f74696e67206475726174696f6e206d75737420626520677265617465722060008201527f7468616e20300000000000000000000000000000000000000000000000000000602082015250565b6000612744602683612064565b915061274f826126e8565b604082019050919050565b6000602082019050818103600083015261277381612737565b9050919050565b7f566f74696e6720706572696f642068617320656e646564000000000000000000600082015250565b60006127b0601783612064565b91506127bb8261277a565b602082019050919050565b600060208201905081810360008301526127df816127a3565b9050919050565b7f416c726561647920766f74656400000000000000000000000000000000000000600082015250565b600061281c600d83612064565b9150612827826127e6565b602082019050919050565b6000602082019050818103600083015261284b8161280f565b9050919050565b6000815190506128618161165b565b92915050565b60006020828403121561287d5761287c611647565b5b600061288b84828501612852565b91505092915050565b7f4e6f20766f74696e672077656967687400000000000000000000000000000000600082015250565b60006128ca601083612064565b91506128d582612894565b602082019050919050565b600060208201905081810360008301526128f9816128bd565b9050919050565b600060408201905061291560008301856116cf565b61292260208301846116b4565b939250505056fea264697066735822122009d8e8829782a9abb80c0f3868abbe08527d9d5a1d7a38f5edae6596acaff2a864736f6c634300081a0033",
      "opcodes": "PUSH1 0x80 PUSH1 0x40 MSTORE CALLVALUE DUP1 ISZERO PUSH2 0x10 JUMPI PUSH1 0x0 DUP1 REVERT JUMPDEST POP PUSH1 0x40 MLOAD PUSH2 0x2CAD CODESIZE SUB DUP1 PUSH2 0x2CAD DUP4 CODECOPY DUP2 DUP2 ADD PUSH1 0x40 MSTORE DUP2 ADD SWAP1 PUSH2 0x32 SWAP2 SWAP1 PUSH2 0x2AE JUMP JUMPDEST DUP1 PUSH1 0x1 PUSH1 0x0 DUP2 SWAP1 SSTORE POP PUSH1 0x0 PUSH20 0xFFFFFFFFFFFFFFFFFFFFFFFFFFFFFFFFFFFFFFFF AND DUP2 PUSH20 0xFFFFFFFFFFFFFFFFFFFFFFFFFFFFFFFFFFFFFFFF AND SUB PUSH2 0xAD JUMPI PUSH1 0x0 PUSH1 0x40 MLOAD PUSH32 0x1E4FBDF700000000000000000000000000000000000000000000000000000000 DUP2 MSTORE PUSH1 0x4 ADD PUSH2 0xA4 SWAP2 SWAP1 PUSH2 0x324 JUMP JUMPDEST PUSH1 0x40 MLOAD DUP1 SWAP2 SUB SWAP1 REVERT JUMPDEST PUSH2 0xBC DUP2 PUSH2 0x14F PUSH1 0x20 SHL PUSH1 0x20 SHR JUMP JUMPDEST POP DUP4 PUSH1 0x6 PUSH1 0x0 PUSH2 0x100 EXP DUP2 SLOAD DUP2 PUSH20 0xFFFFFFFFFFFFFFFFFFFFFFFFFFFFFFFFFFFFFFFF MUL NOT AND SWAP1 DUP4 PUSH20 0xFFFFFFFFFFFFFFFFFFFFFFFFFFFFFFFFFFFFFFFF AND MUL OR SWAP1 SSTORE POP DUP3 PUSH1 0x7 PUSH1 0x0 PUSH2 0x100 EXP DUP2 SLOAD DUP2 PUSH20 0xFFFFFFFFFFFFFFFFFFFFFFFFFFFFFFFFFFFFFFFF MUL NOT AND SWAP1 DUP4 PUSH20 0xFFFFFFFFFFFFFFFFFFFFFFFFFFFFFFFFFFFFFFFF AND MUL OR SWAP1 SSTORE POP DUP2 PUSH1 0x3 DUP2 SWAP1 SSTORE POP POP POP POP POP PUSH2 0x33F JUMP JUMPDEST PUSH1 0x0 PUSH1 0x1 PUSH1 0x0 SWAP1 SLOAD SWAP1 PUSH2 0x100 EXP SWAP1 DIV PUSH20 0xFFFFFFFFFFFFFFFFFFFFFFFFFFFFFFFFFFFFFFFF AND SWAP1 POP DUP2 PUSH1 0x1 PUSH1 0x0 PUSH2 0x100 EXP DUP2 SLOAD DUP2 PUSH20 0xFFFFFFFFFFFFFFFFFFFFFFFFFFFFFFFFFFFFFFFF MUL NOT AND SWAP1 DUP4 PUSH20 0xFFFFFFFFFFFFFFFFFFFFFFFFFFFFFFFFFFFFFFFF AND MUL OR SWAP1 SSTORE POP DUP2 PUSH20 0xFFFFFFFFFFFFFFFFFFFFFFFFFFFFFFFFFFFFFFFF AND DUP2 PUSH20 0xFFFFFFFFFFFFFFFFFFFFFFFFFFFFFFFFFFFFFFFF AND PUSH32 0x8BE0079C531659141344CD1FD0A4F28419497F9722A3DAAFE3B4186F6B6457E0 PUSH1 0x40 MLOAD PUSH1 0x40 MLOAD DUP1 SWAP2 SUB SWAP1 LOG3 POP POP JUMP JUMPDEST PUSH1 0x0 DUP1 REVERT JUMPDEST PUSH1 0x0 PUSH20 0xFFFFFFFFFFFFFFFFFFFFFFFFFFFFFFFFFFFFFFFF DUP3 AND SWAP1 POP SWAP2 SWAP1 POP JUMP JUMPDEST PUSH1 0x0 PUSH2 0x245 DUP3 PUSH2 0x21A JUMP JUMPDEST SWAP1 POP SWAP2 SWAP1 POP JUMP JUMPDEST PUSH2 0x255 DUP2 PUSH2 0x23A JUMP JUMPDEST DUP2 EQ PUSH2 0x260 JUMPI PUSH1 0x0 DUP1 REVERT JUMPDEST POP JUMP JUMPDEST PUSH1 0x0 DUP2 MLOAD SWAP1 POP PUSH2 0x272 DUP2 PUSH2 0x24C JUMP JUMPDEST SWAP3 SWAP2 POP POP JUMP JUMPDEST PUSH1 0x0 DUP2 SWAP1 POP SWAP2 SWAP1 POP JUMP JUMPDEST PUSH2 0x28B DUP2 PUSH2 0x278 JUMP JUMPDEST DUP2 EQ PUSH2 0x296 JUMPI PUSH1 0x0 DUP1 REVERT JUMPDEST POP JUMP JUMPDEST PUSH1 0x0 DUP2 MLOAD SWAP1 POP PUSH2 0x2A8 DUP2 PUSH2 0x282 JUMP JUMPDEST SWAP3 SWAP2 POP POP JUMP JUMPDEST PUSH1 0x0 DUP1 PUSH1 0x0 DUP1 PUSH1 0x80 DUP6 DUP8 SUB SLT ISZERO PUSH2 0x2C8 JUMPI PUSH2 0x2C7 PUSH2 0x215 JUMP JUMPDEST JUMPDEST PUSH1 0x0 PUSH2 0x2D6 DUP8 DUP3 DUP9 ADD PUSH2 0x263 JUMP JUMPDEST SWAP5 POP POP PUSH1 0x20 PUSH2 0x2E7 DUP8 DUP3 DUP9 ADD PUSH2 0x263 JUMP JUMPDEST SWAP4 POP POP PUSH1 0x40 PUSH2 0x2F8 DUP8 DUP3 DUP9 ADD PUSH2 0x299 JUMP JUMPDEST SWAP3 POP POP PUSH1 0x60 PUSH2 0x309 DUP8 DUP3 DUP9 ADD PUSH2 0x263 JUMP JUMPDEST SWAP2 POP POP SWAP3 SWAP6 SWAP2 SWAP5 POP SWAP3 POP JUMP JUMPDEST PUSH2 0x31E DUP2 PUSH2 0x23A JUMP JUMPDEST DUP3 MSTORE POP POP JUMP JUMPDEST PUSH1 0x0 PUSH1 0x20 DUP3 ADD SWAP1 POP PUSH2 0x339 PUSH1 0x0 DUP4 ADD DUP5 PUSH2 0x315 JUMP JUMPDEST SWAP3 SWAP2 POP POP JUMP JUMPDEST PUSH2 0x295F DUP1 PUSH2 0x34E PUSH1 0x0 CODECOPY PUSH1 0x0 RETURN INVALID PUSH1 0x80 PUSH1 0x40 MSTORE CALLVALUE DUP1 ISZERO PUSH2 0x10 JUMPI PUSH1 0x0 DUP1 REVERT JUMPDEST POP PUSH1 0x4 CALLDATASIZE LT PUSH2 0xEA JUMPI PUSH1 0x0 CALLDATALOAD PUSH1 0xE0 SHR DUP1 PUSH4 0x715018A6 GT PUSH2 0x8C JUMPI DUP1 PUSH4 0x9E319063 GT PUSH2 0x66 JUMPI DUP1 PUSH4 0x9E319063 EQ PUSH2 0x22B JUMPI DUP1 PUSH4 0xC9D27AFE EQ PUSH2 0x25D JUMPI DUP1 PUSH4 0xF2FDE38B EQ PUSH2 0x279 JUMPI DUP1 PUSH4 0xF96DAE0A EQ PUSH2 0x295 JUMPI PUSH2 0xEA JUMP JUMPDEST DUP1 PUSH4 0x715018A6 EQ PUSH2 0x1E5 JUMPI DUP1 PUSH4 0x8ACEE3CF EQ PUSH2 0x1EF JUMPI DUP1 PUSH4 0x8DA5CB5B EQ PUSH2 0x20D JUMPI PUSH2 0xEA JUMP JUMPDEST DUP1 PUSH4 0x132002FC GT PUSH2 0xC8 JUMPI DUP1 PUSH4 0x132002FC EQ PUSH2 0x15F JUMPI DUP1 PUSH4 0x275E69A6 EQ PUSH2 0x17D JUMPI DUP1 PUSH4 0x3B4D01A7 EQ PUSH2 0x199 JUMPI DUP1 PUSH4 0x5BCFADB5 EQ PUSH2 0x1C9 JUMPI PUSH2 0xEA JUMP JUMPDEST DUP1 PUSH4 0x13CF08B EQ PUSH2 0xEF JUMPI DUP1 PUSH4 0xC0512E9 EQ PUSH2 0x125 JUMPI DUP1 PUSH4 0xD61B519 EQ PUSH2 0x143 JUMPI JUMPDEST PUSH1 0x0 DUP1 REVERT JUMPDEST PUSH2 0x109 PUSH1 0x4 DUP1 CALLDATASIZE SUB DUP2 ADD SWAP1 PUSH2 0x104 SWAP2 SWAP1 PUSH2 0x1687 JUMP JUMPDEST PUSH2 0x2B3 JUMP JUMPDEST PUSH1 0x40 MLOAD PUSH2 0x11C SWAP8 SWAP7 SWAP6 SWAP5 SWAP4 SWAP3 SWAP2 SWAP1 PUSH2 0x18AD JUMP JUMPDEST PUSH1 0x40 MLOAD DUP1 SWAP2 SUB SWAP1 RETURN JUMPDEST PUSH2 0x12D PUSH2 0x5DD JUMP JUMPDEST PUSH1 0x40 MLOAD PUSH2 0x13A SWAP2 SWAP1 PUSH2 0x1923 JUMP JUMPDEST PUSH1 0x40 MLOAD DUP1 SWAP2 SUB SWAP1 RETURN JUMPDEST PUSH2 0x15D PUSH1 0x4 DUP1 CALLDATASIZE SUB DUP2 ADD SWAP1 PUSH2 0x158 SWAP2 SWAP1 PUSH2 0x1687 JUMP JUMPDEST PUSH2 0x5E3 JUMP JUMPDEST STOP JUMPDEST PUSH2 0x167 PUSH2 0x85F JUMP JUMPDEST PUSH1 0x40 MLOAD PUSH2 0x174 SWAP2 SWAP1 PUSH2 0x1923 JUMP JUMPDEST PUSH1 0x40 MLOAD DUP1 SWAP2 SUB SWAP1 RETURN JUMPDEST PUSH2 0x197 PUSH1 0x4 DUP1 CALLDATASIZE SUB DUP2 ADD SWAP1 PUSH2 0x192 SWAP2 SWAP1 PUSH2 0x1C0F JUMP JUMPDEST PUSH2 0x865 JUMP JUMPDEST STOP JUMPDEST PUSH2 0x1B3 PUSH1 0x4 DUP1 CALLDATASIZE SUB DUP2 ADD SWAP1 PUSH2 0x1AE SWAP2 SWAP1 PUSH2 0x1687 JUMP JUMPDEST PUSH2 0xB9D JUMP JUMPDEST PUSH1 0x40 MLOAD PUSH2 0x1C0 SWAP2 SWAP1 PUSH2 0x1DF2 JUMP JUMPDEST PUSH1 0x40 MLOAD DUP1 SWAP2 SUB SWAP1 RETURN JUMPDEST PUSH2 0x1E3 PUSH1 0x4 DUP1 CALLDATASIZE SUB DUP2 ADD SWAP1 PUSH2 0x1DE SWAP2 SWAP1 PUSH2 0x1687 JUMP JUMPDEST PUSH2 0xEFC JUMP JUMPDEST STOP JUMPDEST PUSH2 0x1ED PUSH2 0xF51 JUMP JUMPDEST STOP JUMPDEST PUSH2 0x1F7 PUSH2 0xF65 JUMP JUMPDEST PUSH1 0x40 MLOAD PUSH2 0x204 SWAP2 SWAP1 PUSH2 0x1E73 JUMP JUMPDEST PUSH1 0x40 MLOAD DUP1 SWAP2 SUB SWAP1 RETURN JUMPDEST PUSH2 0x215 PUSH2 0xF8B JUMP JUMPDEST PUSH1 0x40 MLOAD PUSH2 0x222 SWAP2 SWAP1 PUSH2 0x1E9D JUMP JUMPDEST PUSH1 0x40 MLOAD DUP1 SWAP2 SUB SWAP1 RETURN JUMPDEST PUSH2 0x245 PUSH1 0x4 DUP1 CALLDATASIZE SUB DUP2 ADD SWAP1 PUSH2 0x240 SWAP2 SWAP1 PUSH2 0x1EB8 JUMP JUMPDEST PUSH2 0xFB5 JUMP JUMPDEST PUSH1 0x40 MLOAD PUSH2 0x254 SWAP4 SWAP3 SWAP2 SWAP1 PUSH2 0x1EF8 JUMP JUMPDEST PUSH1 0x40 MLOAD DUP1 SWAP2 SUB SWAP1 RETURN JUMPDEST PUSH2 0x277 PUSH1 0x4 DUP1 CALLDATASIZE SUB DUP2 ADD SWAP1 PUSH2 0x272 SWAP2 SWAP1 PUSH2 0x1F5B JUMP JUMPDEST PUSH2 0x1006 JUMP JUMPDEST STOP JUMPDEST PUSH2 0x293 PUSH1 0x4 DUP1 CALLDATASIZE SUB DUP2 ADD SWAP1 PUSH2 0x28E SWAP2 SWAP1 PUSH2 0x1F9B JUMP JUMPDEST PUSH2 0x133E JUMP JUMPDEST STOP JUMPDEST PUSH2 0x29D PUSH2 0x13C4 JUMP JUMPDEST PUSH1 0x40 MLOAD PUSH2 0x2AA SWAP2 SWAP1 PUSH2 0x1FE9 JUMP JUMPDEST PUSH1 0x40 MLOAD DUP1 SWAP2 SUB SWAP1 RETURN JUMPDEST PUSH1 0x4 PUSH1 0x20 MSTORE DUP1 PUSH1 0x0 MSTORE PUSH1 0x40 PUSH1 0x0 KECCAK256 PUSH1 0x0 SWAP2 POP SWAP1 POP DUP1 PUSH1 0x0 ADD SLOAD SWAP1 DUP1 PUSH1 0x1 ADD SLOAD SWAP1 DUP1 PUSH1 0x2 ADD SLOAD SWAP1 DUP1 PUSH1 0x3 ADD SLOAD SWAP1 DUP1 PUSH1 0x4 ADD SLOAD SWAP1 DUP1 PUSH1 0x5 ADD PUSH1 0x0 SWAP1 SLOAD SWAP1 PUSH2 0x100 EXP SWAP1 DIV PUSH1 0xFF AND SWAP1 DUP1 PUSH1 0x6 ADD PUSH1 0x40 MLOAD DUP1 PUSH2 0x140 ADD PUSH1 0x40 MSTORE SWAP1 DUP2 PUSH1 0x0 DUP3 ADD PUSH1 0x0 SWAP1 SLOAD SWAP1 PUSH2 0x100 EXP SWAP1 DIV PUSH20 0xFFFFFFFFFFFFFFFFFFFFFFFFFFFFFFFFFFFFFFFF AND PUSH20 0xFFFFFFFFFFFFFFFFFFFFFFFFFFFFFFFFFFFFFFFF AND PUSH20 0xFFFFFFFFFFFFFFFFFFFFFFFFFFFFFFFFFFFFFFFF AND DUP2 MSTORE PUSH1 0x20 ADD PUSH1 0x1 DUP3 ADD DUP1 SLOAD PUSH2 0x36E SWAP1 PUSH2 0x2033 JUMP JUMPDEST DUP1 PUSH1 0x1F ADD PUSH1 0x20 DUP1 SWAP2 DIV MUL PUSH1 0x20 ADD PUSH1 0x40 MLOAD SWAP1 DUP2 ADD PUSH1 0x40 MSTORE DUP1 SWAP3 SWAP2 SWAP1 DUP2 DUP2 MSTORE PUSH1 0x20 ADD DUP3 DUP1 SLOAD PUSH2 0x39A SWAP1 PUSH2 0x2033 JUMP JUMPDEST DUP1 ISZERO PUSH2 0x3E7 JUMPI DUP1 PUSH1 0x1F LT PUSH2 0x3BC JUMPI PUSH2 0x100 DUP1 DUP4 SLOAD DIV MUL DUP4 MSTORE SWAP2 PUSH1 0x20 ADD SWAP2 PUSH2 0x3E7 JUMP JUMPDEST DUP3 ADD SWAP2 SWAP1 PUSH1 0x0 MSTORE PUSH1 0x20 PUSH1 0x0 KECCAK256 SWAP1 JUMPDEST DUP2 SLOAD DUP2 MSTORE SWAP1 PUSH1 0x1 ADD SWAP1 PUSH1 0x20 ADD DUP1 DUP4 GT PUSH2 0x3CA JUMPI DUP3 SWAP1 SUB PUSH1 0x1F AND DUP3 ADD SWAP2 JUMPDEST POP POP POP POP POP DUP2 MSTORE PUSH1 0x20 ADD PUSH1 0x2 DUP3 ADD SLOAD DUP2 MSTORE PUSH1 0x20 ADD PUSH1 0x3 DUP3 ADD DUP1 SLOAD PUSH2 0x40A SWAP1 PUSH2 0x2033 JUMP JUMPDEST DUP1 PUSH1 0x1F ADD PUSH1 0x20 DUP1 SWAP2 DIV MUL PUSH1 0x20 ADD PUSH1 0x40 MLOAD SWAP1 DUP2 ADD PUSH1 0x40 MSTORE DUP1 SWAP3 SWAP2 SWAP1 DUP2 DUP2 MSTORE PUSH1 0x20 ADD DUP3 DUP1 SLOAD PUSH2 0x436 SWAP1 PUSH2 0x2033 JUMP JUMPDEST DUP1 ISZERO PUSH2 0x483 JUMPI DUP1 PUSH1 0x1F LT PUSH2 0x458 JUMPI PUSH2 0x100 DUP1 DUP4 SLOAD DIV MUL DUP4 MSTORE SWAP2 PUSH1 0x20 ADD SWAP2 PUSH2 0x483 JUMP JUMPDEST DUP3 ADD SWAP2 SWAP1 PUSH1 0x0 MSTORE PUSH1 0x20 PUSH1 0x0 KECCAK256 SWAP1 JUMPDEST DUP2 SLOAD DUP2 MSTORE SWAP1 PUSH1 0x1 ADD SWAP1 PUSH1 0x20 ADD DUP1 DUP4 GT PUSH2 0x466 JUMPI DUP3 SWAP1 SUB PUSH1 0x1F AND DUP3 ADD SWAP2 JUMPDEST POP POP POP POP POP DUP2 MSTORE PUSH1 0x20 ADD PUSH1 0x4 DUP3 ADD SLOAD DUP2 MSTORE PUSH1 0x20 ADD PUSH1 0x5 DUP3 ADD SLOAD DUP2 MSTORE PUSH1 0x20 ADD PUSH1 0x6 DUP3 ADD DUP1 SLOAD PUSH2 0x4B0 SWAP1 PUSH2 0x2033 JUMP JUMPDEST DUP1 PUSH1 0x1F ADD PUSH1 0x20 DUP1 SWAP2 DIV MUL PUSH1 0x20 ADD PUSH1 0x40 MLOAD SWAP1 DUP2 ADD PUSH1 0x40 MSTORE DUP1 SWAP3 SWAP2 SWAP1 DUP2 DUP2 MSTORE PUSH1 0x20 ADD DUP3 DUP1 SLOAD PUSH2 0x4DC SWAP1 PUSH2 0x2033 JUMP JUMPDEST DUP1 ISZERO PUSH2 0x529 JUMPI DUP1 PUSH1 0x1F LT PUSH2 0x4FE JUMPI PUSH2 0x100 DUP1 DUP4 SLOAD DIV MUL DUP4 MSTORE SWAP2 PUSH1 0x20 ADD SWAP2 PUSH2 0x529 JUMP JUMPDEST DUP3 ADD SWAP2 SWAP1 PUSH1 0x0 MSTORE PUSH1 0x20 PUSH1 0x0 KECCAK256 SWAP1 JUMPDEST DUP2 SLOAD DUP2 MSTORE SWAP1 PUSH1 0x1 ADD SWAP1 PUSH1 0x20 ADD DUP1 DUP4 GT PUSH2 0x50C JUMPI DUP3 SWAP1 SUB PUSH1 0x1F AND DUP3 ADD SWAP2 JUMPDEST POP POP POP POP POP DUP2 MSTORE PUSH1 0x20 ADD PUSH1 0x7 DUP3 ADD DUP1 SLOAD PUSH2 0x542 SWAP1 PUSH2 0x2033 JUMP JUMPDEST DUP1 PUSH1 0x1F ADD PUSH1 0x20 DUP1 SWAP2 DIV MUL PUSH1 0x20 ADD PUSH1 0x40 MLOAD SWAP1 DUP2 ADD PUSH1 0x40 MSTORE DUP1 SWAP3 SWAP2 SWAP1 DUP2 DUP2 MSTORE PUSH1 0x20 ADD DUP3 DUP1 SLOAD PUSH2 0x56E SWAP1 PUSH2 0x2033 JUMP JUMPDEST DUP1 ISZERO PUSH2 0x5BB JUMPI DUP1 PUSH1 0x1F LT PUSH2 0x590 JUMPI PUSH2 0x100 DUP1 DUP4 SLOAD DIV MUL DUP4 MSTORE SWAP2 PUSH1 0x20 ADD SWAP2 PUSH2 0x5BB JUMP JUMPDEST DUP3 ADD SWAP2 SWAP1 PUSH1 0x0 MSTORE PUSH1 0x20 PUSH1 0x0 KECCAK256 SWAP1 JUMPDEST DUP2 SLOAD DUP2 MSTORE SWAP1 PUSH1 0x1 ADD SWAP1 PUSH1 0x20 ADD DUP1 DUP4 GT PUSH2 0x59E JUMPI DUP3 SWAP1 SUB PUSH1 0x1F AND DUP3 ADD SWAP2 JUMPDEST POP POP POP POP POP DUP2 MSTORE PUSH1 0x20 ADD PUSH1 0x8 DUP3 ADD SLOAD DUP2 MSTORE PUSH1 0x20 ADD PUSH1 0x9 DUP3 ADD SLOAD DUP2 MSTORE POP POP SWAP1 POP DUP8 JUMP JUMPDEST PUSH1 0x2 SLOAD DUP2 JUMP JUMPDEST PUSH2 0x5EB PUSH2 0x13EA JUMP JUMPDEST PUSH1 0x0 PUSH1 0x4 PUSH1 0x0 DUP4 DUP2 MSTORE PUSH1 0x20 ADD SWAP1 DUP2 MSTORE PUSH1 0x20 ADD PUSH1 0x0 KECCAK256 SWAP1 POP DUP1 PUSH1 0x4 ADD SLOAD TIMESTAMP GT PUSH2 0x648 JUMPI PUSH1 0x40 MLOAD PUSH32 0x8C379A000000000000000000000000000000000000000000000000000000000 DUP2 MSTORE PUSH1 0x4 ADD PUSH2 0x63F SWAP1 PUSH2 0x20C1 JUMP JUMPDEST PUSH1 0x40 MLOAD DUP1 SWAP2 SUB SWAP1 REVERT JUMPDEST DUP1 PUSH1 0x5 ADD PUSH1 0x0 SWAP1 SLOAD SWAP1 PUSH2 0x100 EXP SWAP1 DIV PUSH1 0xFF AND ISZERO PUSH2 0x69A JUMPI PUSH1 0x40 MLOAD PUSH32 0x8C379A000000000000000000000000000000000000000000000000000000000 DUP2 MSTORE PUSH1 0x4 ADD PUSH2 0x691 SWAP1 PUSH2 0x212D JUMP JUMPDEST PUSH1 0x40 MLOAD DUP1 SWAP2 SUB SWAP1 REVERT JUMPDEST PUSH1 0x1 DUP2 PUSH1 0x5 ADD PUSH1 0x0 PUSH2 0x100 EXP DUP2 SLOAD DUP2 PUSH1 0xFF MUL NOT AND SWAP1 DUP4 ISZERO ISZERO MUL OR SWAP1 SSTORE POP DUP1 PUSH1 0x2 ADD SLOAD DUP2 PUSH1 0x1 ADD SLOAD GT ISZERO PUSH2 0x819 JUMPI PUSH1 0x7 PUSH1 0x0 SWAP1 SLOAD SWAP1 PUSH2 0x100 EXP SWAP1 DIV PUSH20 0xFFFFFFFFFFFFFFFFFFFFFFFFFFFFFFFFFFFFFFFF AND PUSH20 0xFFFFFFFFFFFFFFFFFFFFFFFFFFFFFFFFFFFFFFFF AND PUSH4 0x47FEA81E DUP3 PUSH1 0x6 ADD PUSH1 0x8 ADD SLOAD DUP4 PUSH1 0x6 ADD PUSH1 0x9 ADD SLOAD DUP5 PUSH1 0x6 ADD PUSH1 0x0 ADD PUSH1 0x0 SWAP1 SLOAD SWAP1 PUSH2 0x100 EXP SWAP1 DIV PUSH20 0xFFFFFFFFFFFFFFFFFFFFFFFFFFFFFFFFFFFFFFFF AND PUSH1 0x40 MLOAD DUP5 PUSH4 0xFFFFFFFF AND PUSH1 0xE0 SHL DUP2 MSTORE PUSH1 0x4 ADD PUSH2 0x75B SWAP4 SWAP3 SWAP2 SWAP1 PUSH2 0x214D JUMP JUMPDEST PUSH1 0x20 PUSH1 0x40 MLOAD DUP1 DUP4 SUB DUP2 DUP7 GAS STATICCALL ISZERO DUP1 ISZERO PUSH2 0x778 JUMPI RETURNDATASIZE PUSH1 0x0 DUP1 RETURNDATACOPY RETURNDATASIZE PUSH1 0x0 REVERT JUMPDEST POP POP POP POP PUSH1 0x40 MLOAD RETURNDATASIZE PUSH1 0x1F NOT PUSH1 0x1F DUP3 ADD AND DUP3 ADD DUP1 PUSH1 0x40 MSTORE POP DUP2 ADD SWAP1 PUSH2 0x79C SWAP2 SWAP1 PUSH2 0x2199 JUMP JUMPDEST PUSH2 0x7DB JUMPI PUSH1 0x40 MLOAD PUSH32 0x8C379A000000000000000000000000000000000000000000000000000000000 DUP2 MSTORE PUSH1 0x4 ADD PUSH2 0x7D2 SWAP1 PUSH2 0x2212 JUMP JUMPDEST PUSH1 0x40 MLOAD DUP1 SWAP2 SUB SWAP1 REVERT JUMPDEST DUP2 PUSH32 0x948F4A9CD986F1118C3FBD459F7A22B23C0693E1CA3EF06A6A8BE5AA7D39CC03 PUSH1 0x1 PUSH1 0x40 MLOAD PUSH2 0x80C SWAP2 SWAP1 PUSH2 0x2232 JUMP JUMPDEST PUSH1 0x40 MLOAD DUP1 SWAP2 SUB SWAP1 LOG2 PUSH2 0x853 JUMP JUMPDEST DUP2 PUSH32 0x948F4A9CD986F1118C3FBD459F7A22B23C0693E1CA3EF06A6A8BE5AA7D39CC03 PUSH1 0x0 PUSH1 0x40 MLOAD PUSH2 0x84A SWAP2 SWAP1 PUSH2 0x2232 JUMP JUMPDEST PUSH1 0x40 MLOAD DUP1 SWAP2 SUB SWAP1 LOG2 JUMPDEST POP PUSH2 0x85C PUSH2 0x1430 JUMP JUMPDEST POP JUMP JUMPDEST PUSH1 0x3 SLOAD DUP2 JUMP JUMPDEST PUSH1 0x7 PUSH1 0x0 SWAP1 SLOAD SWAP1 PUSH2 0x100 EXP SWAP1 DIV PUSH20 0xFFFFFFFFFFFFFFFFFFFFFFFFFFFFFFFFFFFFFFFF AND PUSH20 0xFFFFFFFFFFFFFFFFFFFFFFFFFFFFFFFFFFFFFFFF AND PUSH4 0x25F11E8D DUP3 PUSH2 0x100 ADD MLOAD PUSH1 0x40 MLOAD DUP3 PUSH4 0xFFFFFFFF AND PUSH1 0xE0 SHL DUP2 MSTORE PUSH1 0x4 ADD PUSH2 0x8C5 SWAP2 SWAP1 PUSH2 0x1923 JUMP JUMPDEST PUSH1 0x20 PUSH1 0x40 MLOAD DUP1 DUP4 SUB DUP2 DUP7 GAS STATICCALL ISZERO DUP1 ISZERO PUSH2 0x8E2 JUMPI RETURNDATASIZE PUSH1 0x0 DUP1 RETURNDATACOPY RETURNDATASIZE PUSH1 0x0 REVERT JUMPDEST POP POP POP POP PUSH1 0x40 MLOAD RETURNDATASIZE PUSH1 0x1F NOT PUSH1 0x1F DUP3 ADD AND DUP3 ADD DUP1 PUSH1 0x40 MSTORE POP DUP2 ADD SWAP1 PUSH2 0x906 SWAP2 SWAP1 PUSH2 0x2199 JUMP JUMPDEST PUSH2 0x945 JUMPI PUSH1 0x40 MLOAD PUSH32 0x8C379A000000000000000000000000000000000000000000000000000000000 DUP2 MSTORE PUSH1 0x4 ADD PUSH2 0x93C SWAP1 PUSH2 0x2299 JUMP JUMPDEST PUSH1 0x40 MLOAD DUP1 SWAP2 SUB SWAP1 REVERT JUMPDEST PUSH1 0x0 DUP2 PUSH2 0x120 ADD MLOAD GT PUSH2 0x98D JUMPI PUSH1 0x40 MLOAD PUSH32 0x8C379A000000000000000000000000000000000000000000000000000000000 DUP2 MSTORE PUSH1 0x4 ADD PUSH2 0x984 SWAP1 PUSH2 0x232B JUMP JUMPDEST PUSH1 0x40 MLOAD DUP1 SWAP2 SUB SWAP1 REVERT JUMPDEST PUSH1 0x2 PUSH1 0x0 DUP2 SLOAD DUP1 SWAP3 SWAP2 SWAP1 PUSH2 0x9A0 SWAP1 PUSH2 0x237A JUMP JUMPDEST SWAP2 SWAP1 POP SSTORE POP PUSH1 0x40 MLOAD DUP1 PUSH1 0xE0 ADD PUSH1 0x40 MSTORE DUP1 PUSH1 0x2 SLOAD DUP2 MSTORE PUSH1 0x20 ADD PUSH1 0x0 DUP2 MSTORE PUSH1 0x20 ADD PUSH1 0x0 DUP2 MSTORE PUSH1 0x20 ADD TIMESTAMP DUP2 MSTORE PUSH1 0x20 ADD PUSH1 0x3 SLOAD TIMESTAMP PUSH2 0x9DA SWAP2 SWAP1 PUSH2 0x23C2 JUMP JUMPDEST DUP2 MSTORE PUSH1 0x20 ADD PUSH1 0x0 ISZERO ISZERO DUP2 MSTORE PUSH1 0x20 ADD DUP3 DUP2 MSTORE POP PUSH1 0x4 PUSH1 0x0 PUSH1 0x2 SLOAD DUP2 MSTORE PUSH1 0x20 ADD SWAP1 DUP2 MSTORE PUSH1 0x20 ADD PUSH1 0x0 KECCAK256 PUSH1 0x0 DUP3 ADD MLOAD DUP2 PUSH1 0x0 ADD SSTORE PUSH1 0x20 DUP3 ADD MLOAD DUP2 PUSH1 0x1 ADD SSTORE PUSH1 0x40 DUP3 ADD MLOAD DUP2 PUSH1 0x2 ADD SSTORE PUSH1 0x60 DUP3 ADD MLOAD DUP2 PUSH1 0x3 ADD SSTORE PUSH1 0x80 DUP3 ADD MLOAD DUP2 PUSH1 0x4 ADD SSTORE PUSH1 0xA0 DUP3 ADD MLOAD DUP2 PUSH1 0x5 ADD PUSH1 0x0 PUSH2 0x100 EXP DUP2 SLOAD DUP2 PUSH1 0xFF MUL NOT AND SWAP1 DUP4 ISZERO ISZERO MUL OR SWAP1 SSTORE POP PUSH1 0xC0 DUP3 ADD MLOAD DUP2 PUSH1 0x6 ADD PUSH1 0x0 DUP3 ADD MLOAD DUP2 PUSH1 0x0 ADD PUSH1 0x0 PUSH2 0x100 EXP DUP2 SLOAD DUP2 PUSH20 0xFFFFFFFFFFFFFFFFFFFFFFFFFFFFFFFFFFFFFFFF MUL NOT AND SWAP1 DUP4 PUSH20 0xFFFFFFFFFFFFFFFFFFFFFFFFFFFFFFFFFFFFFFFF AND MUL OR SWAP1 SSTORE POP PUSH1 0x20 DUP3 ADD MLOAD DUP2 PUSH1 0x1 ADD SWAP1 DUP2 PUSH2 0xAB8 SWAP2 SWAP1 PUSH2 0x2598 JUMP JUMPDEST POP PUSH1 0x40 DUP3 ADD MLOAD DUP2 PUSH1 0x2 ADD SSTORE PUSH1 0x60 DUP3 ADD MLOAD DUP2 PUSH1 0x3 ADD SWAP1 DUP2 PUSH2 0xAD8 SWAP2 SWAP1 PUSH2 0x2598 JUMP JUMPDEST POP PUSH1 0x80 DUP3 ADD MLOAD DUP2 PUSH1 0x4 ADD SSTORE PUSH1 0xA0 DUP3 ADD MLOAD DUP2 PUSH1 0x5 ADD SSTORE PUSH1 0xC0 DUP3 ADD MLOAD DUP2 PUSH1 0x6 ADD SWAP1 DUP2 PUSH2 0xB02 SWAP2 SWAP1 PUSH2 0x2598 JUMP JUMPDEST POP PUSH1 0xE0 DUP3 ADD MLOAD DUP2 PUSH1 0x7 ADD SWAP1 DUP2 PUSH2 0xB18 SWAP2 SWAP1 PUSH2 0x2598 JUMP JUMPDEST POP PUSH2 0x100 DUP3 ADD MLOAD DUP2 PUSH1 0x8 ADD SSTORE PUSH2 0x120 DUP3 ADD MLOAD DUP2 PUSH1 0x9 ADD SSTORE POP POP SWAP1 POP POP DUP1 PUSH1 0x0 ADD MLOAD PUSH20 0xFFFFFFFFFFFFFFFFFFFFFFFFFFFFFFFFFFFFFFFF AND PUSH1 0x2 SLOAD PUSH32 0xBD04B5479C6DD97D2CC7727F90A20FE21CCF7121F4F9FDC04A755EE528EFEB44 DUP4 PUSH1 0xC0 ADD MLOAD DUP5 PUSH1 0x60 ADD MLOAD DUP6 PUSH2 0x120 ADD MLOAD PUSH1 0x40 MLOAD PUSH2 0xB92 SWAP4 SWAP3 SWAP2 SWAP1 PUSH2 0x26A3 JUMP JUMPDEST PUSH1 0x40 MLOAD DUP1 SWAP2 SUB SWAP1 LOG3 POP JUMP JUMPDEST PUSH2 0xBA5 PUSH2 0x158F JUMP JUMPDEST PUSH1 0x4 PUSH1 0x0 DUP4 DUP2 MSTORE PUSH1 0x20 ADD SWAP1 DUP2 MSTORE PUSH1 0x20 ADD PUSH1 0x0 KECCAK256 PUSH1 0x40 MLOAD DUP1 PUSH1 0xE0 ADD PUSH1 0x40 MSTORE SWAP1 DUP2 PUSH1 0x0 DUP3 ADD SLOAD DUP2 MSTORE PUSH1 0x20 ADD PUSH1 0x1 DUP3 ADD SLOAD DUP2 MSTORE PUSH1 0x20 ADD PUSH1 0x2 DUP3 ADD SLOAD DUP2 MSTORE PUSH1 0x20 ADD PUSH1 0x3 DUP3 ADD SLOAD DUP2 MSTORE PUSH1 0x20 ADD PUSH1 0x4 DUP3 ADD SLOAD DUP2 MSTORE PUSH1 0x20 ADD PUSH1 0x5 DUP3 ADD PUSH1 0x0 SWAP1 SLOAD SWAP1 PUSH2 0x100 EXP SWAP1 DIV PUSH1 0xFF AND ISZERO ISZERO ISZERO ISZERO DUP2 MSTORE PUSH1 0x20 ADD PUSH1 0x6 DUP3 ADD PUSH1 0x40 MLOAD DUP1 PUSH2 0x140 ADD PUSH1 0x40 MSTORE SWAP1 DUP2 PUSH1 0x0 DUP3 ADD PUSH1 0x0 SWAP1 SLOAD SWAP1 PUSH2 0x100 EXP SWAP1 DIV PUSH20 0xFFFFFFFFFFFFFFFFFFFFFFFFFFFFFFFFFFFFFFFF AND PUSH20 0xFFFFFFFFFFFFFFFFFFFFFFFFFFFFFFFFFFFFFFFF AND PUSH20 0xFFFFFFFFFFFFFFFFFFFFFFFFFFFFFFFFFFFFFFFF AND DUP2 MSTORE PUSH1 0x20 ADD PUSH1 0x1 DUP3 ADD DUP1 SLOAD PUSH2 0xC87 SWAP1 PUSH2 0x2033 JUMP JUMPDEST DUP1 PUSH1 0x1F ADD PUSH1 0x20 DUP1 SWAP2 DIV MUL PUSH1 0x20 ADD PUSH1 0x40 MLOAD SWAP1 DUP2 ADD PUSH1 0x40 MSTORE DUP1 SWAP3 SWAP2 SWAP1 DUP2 DUP2 MSTORE PUSH1 0x20 ADD DUP3 DUP1 SLOAD PUSH2 0xCB3 SWAP1 PUSH2 0x2033 JUMP JUMPDEST DUP1 ISZERO PUSH2 0xD00 JUMPI DUP1 PUSH1 0x1F LT PUSH2 0xCD5 JUMPI PUSH2 0x100 DUP1 DUP4 SLOAD DIV MUL DUP4 MSTORE SWAP2 PUSH1 0x20 ADD SWAP2 PUSH2 0xD00 JUMP JUMPDEST DUP3 ADD SWAP2 SWAP1 PUSH1 0x0 MSTORE PUSH1 0x20 PUSH1 0x0 KECCAK256 SWAP1 JUMPDEST DUP2 SLOAD DUP2 MSTORE SWAP1 PUSH1 0x1 ADD SWAP1 PUSH1 0x20 ADD DUP1 DUP4 GT PUSH2 0xCE3 JUMPI DUP3 SWAP1 SUB PUSH1 0x1F AND DUP3 ADD SWAP2 JUMPDEST POP POP POP POP POP DUP2 MSTORE PUSH1 0x20 ADD PUSH1 0x2 DUP3 ADD SLOAD DUP2 MSTORE PUSH1 0x20 ADD PUSH1 0x3 DUP3 ADD DUP1 SLOAD PUSH2 0xD23 SWAP1 PUSH2 0x2033 JUMP JUMPDEST DUP1 PUSH1 0x1F ADD PUSH1 0x20 DUP1 SWAP2 DIV MUL PUSH1 0x20 ADD PUSH1 0x40 MLOAD SWAP1 DUP2 ADD PUSH1 0x40 MSTORE DUP1 SWAP3 SWAP2 SWAP1 DUP2 DUP2 MSTORE PUSH1 0x20 ADD DUP3 DUP1 SLOAD PUSH2 0xD4F SWAP1 PUSH2 0x2033 JUMP JUMPDEST DUP1 ISZERO PUSH2 0xD9C JUMPI DUP1 PUSH1 0x1F LT PUSH2 0xD71 JUMPI PUSH2 0x100 DUP1 DUP4 SLOAD DIV MUL DUP4 MSTORE SWAP2 PUSH1 0x20 ADD SWAP2 PUSH2 0xD9C JUMP JUMPDEST DUP3 ADD SWAP2 SWAP1 PUSH1 0x0 MSTORE PUSH1 0x20 PUSH1 0x0 KECCAK256 SWAP1 JUMPDEST DUP2 SLOAD DUP2 MSTORE SWAP1 PUSH1 0x1 ADD SWAP1 PUSH1 0x20 ADD DUP1 DUP4 GT PUSH2 0xD7F JUMPI DUP3 SWAP1 SUB PUSH1 0x1F AND DUP3 ADD SWAP2 JUMPDEST POP POP POP POP POP DUP2 MSTORE PUSH1 0x20 ADD PUSH1 0x4 DUP3 ADD SLOAD DUP2 MSTORE PUSH1 0x20 ADD PUSH1 0x5 DUP3 ADD SLOAD DUP2 MSTORE PUSH1 0x20 ADD PUSH1 0x6 DUP3 ADD DUP1 SLOAD PUSH2 0xDC9 SWAP1 PUSH2 0x2033 JUMP JUMPDEST DUP1 PUSH1 0x1F ADD PUSH1 0x20 DUP1 SWAP2 DIV MUL PUSH1 0x20 ADD PUSH1 0x40 MLOAD SWAP1 DUP2 ADD PUSH1 0x40 MSTORE DUP1 SWAP3 SWAP2 SWAP1 DUP2 DUP2 MSTORE PUSH1 0x20 ADD DUP3 DUP1 SLOAD PUSH2 0xDF5 SWAP1 PUSH2 0x2033 JUMP JUMPDEST DUP1 ISZERO PUSH2 0xE42 JUMPI DUP1 PUSH1 0x1F LT PUSH2 0xE17 JUMPI PUSH2 0x100 DUP1 DUP4 SLOAD DIV MUL DUP4 MSTORE SWAP2 PUSH1 0x20 ADD SWAP2 PUSH2 0xE42 JUMP JUMPDEST DUP3 ADD SWAP2 SWAP1 PUSH1 0x0 MSTORE PUSH1 0x20 PUSH1 0x0 KECCAK256 SWAP1 JUMPDEST DUP2 SLOAD DUP2 MSTORE SWAP1 PUSH1 0x1 ADD SWAP1 PUSH1 0x20 ADD DUP1 DUP4 GT PUSH2 0xE25 JUMPI DUP3 SWAP1 SUB PUSH1 0x1F AND DUP3 ADD SWAP2 JUMPDEST POP POP POP POP POP DUP2 MSTORE PUSH1 0x20 ADD PUSH1 0x7 DUP3 ADD DUP1 SLOAD PUSH2 0xE5B SWAP1 PUSH2 0x2033 JUMP JUMPDEST DUP1 PUSH1 0x1F ADD PUSH1 0x20 DUP1 SWAP2 DIV MUL PUSH1 0x20 ADD PUSH1 0x40 MLOAD SWAP1 DUP2 ADD PUSH1 0x40 MSTORE DUP1 SWAP3 SWAP2 SWAP1 DUP2 DUP2 MSTORE PUSH1 0x20 ADD DUP3 DUP1 SLOAD PUSH2 0xE87 SWAP1 PUSH2 0x2033 JUMP JUMPDEST DUP1 ISZERO PUSH2 0xED4 JUMPI DUP1 PUSH1 0x1F LT PUSH2 0xEA9 JUMPI PUSH2 0x100 DUP1 DUP4 SLOAD DIV MUL DUP4 MSTORE SWAP2 PUSH1 0x20 ADD SWAP2 PUSH2 0xED4 JUMP JUMPDEST DUP3 ADD SWAP2 SWAP1 PUSH1 0x0 MSTORE PUSH1 0x20 PUSH1 0x0 KECCAK256 SWAP1 JUMPDEST DUP2 SLOAD DUP2 MSTORE SWAP1 PUSH1 0x1 ADD SWAP1 PUSH1 0x20 ADD DUP1 DUP4 GT PUSH2 0xEB7 JUMPI DUP3 SWAP1 SUB PUSH1 0x1F AND DUP3 ADD SWAP2 JUMPDEST POP POP POP POP POP DUP2 MSTORE PUSH1 0x20 ADD PUSH1 0x8 DUP3 ADD SLOAD DUP2 MSTORE PUSH1 0x20 ADD PUSH1 0x9 DUP3 ADD SLOAD DUP2 MSTORE POP POP DUP2 MSTORE POP POP SWAP1 POP SWAP2 SWAP1 POP JUMP JUMPDEST PUSH2 0xF04 PUSH2 0x143A JUMP JUMPDEST PUSH1 0x0 DUP2 GT PUSH2 0xF47 JUMPI PUSH1 0x40 MLOAD PUSH32 0x8C379A000000000000000000000000000000000000000000000000000000000 DUP2 MSTORE PUSH1 0x4 ADD PUSH2 0xF3E SWAP1 PUSH2 0x275A JUMP JUMPDEST PUSH1 0x40 MLOAD DUP1 SWAP2 SUB SWAP1 REVERT JUMPDEST DUP1 PUSH1 0x3 DUP2 SWAP1 SSTORE POP POP JUMP JUMPDEST PUSH2 0xF59 PUSH2 0x143A JUMP JUMPDEST PUSH2 0xF63 PUSH1 0x0 PUSH2 0x14C1 JUMP JUMPDEST JUMP JUMPDEST PUSH1 0x7 PUSH1 0x0 SWAP1 SLOAD SWAP1 PUSH2 0x100 EXP SWAP1 DIV PUSH20 0xFFFFFFFFFFFFFFFFFFFFFFFFFFFFFFFFFFFFFFFF AND DUP2 JUMP JUMPDEST PUSH1 0x0 PUSH1 0x1 PUSH1 0x0 SWAP1 SLOAD SWAP1 PUSH2 0x100 EXP SWAP1 DIV PUSH20 0xFFFFFFFFFFFFFFFFFFFFFFFFFFFFFFFFFFFFFFFF AND SWAP1 POP SWAP1 JUMP JUMPDEST PUSH1 0x5 PUSH1 0x20 MSTORE DUP2 PUSH1 0x0 MSTORE PUSH1 0x40 PUSH1 0x0 KECCAK256 PUSH1 0x20 MSTORE DUP1 PUSH1 0x0 MSTORE PUSH1 0x40 PUSH1 0x0 KECCAK256 PUSH1 0x0 SWAP2 POP SWAP2 POP POP DUP1 PUSH1 0x0 ADD PUSH1 0x0 SWAP1 SLOAD SWAP1 PUSH2 0x100 EXP SWAP1 DIV PUSH1 0xFF AND SWAP1 DUP1 PUSH1 0x0 ADD PUSH1 0x1 SWAP1 SLOAD SWAP1 PUSH2 0x100 EXP SWAP1 DIV PUSH1 0xFF AND SWAP1 DUP1 PUSH1 0x1 ADD SLOAD SWAP1 POP DUP4 JUMP JUMPDEST PUSH1 0x0 PUSH1 0x4 PUSH1 0x0 DUP5 DUP2 MSTORE PUSH1 0x20 ADD SWAP1 DUP2 MSTORE PUSH1 0x20 ADD PUSH1 0x0 KECCAK256 SWAP1 POP DUP1 PUSH1 0x4 ADD SLOAD TIMESTAMP GT ISZERO PUSH2 0x1064 JUMPI PUSH1 0x40 MLOAD PUSH32 0x8C379A000000000000000000000000000000000000000000000000000000000 DUP2 MSTORE PUSH1 0x4 ADD PUSH2 0x105B SWAP1 PUSH2 0x27C6 JUMP JUMPDEST PUSH1 0x40 MLOAD DUP1 SWAP2 SUB SWAP1 REVERT JUMPDEST PUSH1 0x5 PUSH1 0x0 DUP5 DUP2 MSTORE PUSH1 0x20 ADD SWAP1 DUP2 MSTORE PUSH1 0x20 ADD PUSH1 0x0 KECCAK256 PUSH1 0x0 CALLER PUSH20 0xFFFFFFFFFFFFFFFFFFFFFFFFFFFFFFFFFFFFFFFF AND PUSH20 0xFFFFFFFFFFFFFFFFFFFFFFFFFFFFFFFFFFFFFFFF AND DUP2 MSTORE PUSH1 0x20 ADD SWAP1 DUP2 MSTORE PUSH1 0x20 ADD PUSH1 0x0 KECCAK256 PUSH1 0x0 ADD PUSH1 0x0 SWAP1 SLOAD SWAP1 PUSH2 0x100 EXP SWAP1 DIV PUSH1 0xFF AND ISZERO PUSH2 0x1105 JUMPI PUSH1 0x40 MLOAD PUSH32 0x8C379A000000000000000000000000000000000000000000000000000000000 DUP2 MSTORE PUSH1 0x4 ADD PUSH2 0x10FC SWAP1 PUSH2 0x2832 JUMP JUMPDEST PUSH1 0x40 MLOAD DUP1 SWAP2 SUB SWAP1 REVERT JUMPDEST PUSH1 0x0 PUSH1 0x6 PUSH1 0x0 SWAP1 SLOAD SWAP1 PUSH2 0x100 EXP SWAP1 DIV PUSH20 0xFFFFFFFFFFFFFFFFFFFFFFFFFFFFFFFFFFFFFFFF AND PUSH20 0xFFFFFFFFFFFFFFFFFFFFFFFFFFFFFFFFFFFFFFFF AND PUSH4 0x70A08231 CALLER PUSH1 0x40 MLOAD DUP3 PUSH4 0xFFFFFFFF AND PUSH1 0xE0 SHL DUP2 MSTORE PUSH1 0x4 ADD PUSH2 0x1162 SWAP2 SWAP1 PUSH2 0x1E9D JUMP JUMPDEST PUSH1 0x20 PUSH1 0x40 MLOAD DUP1 DUP4 SUB DUP2 DUP7 GAS STATICCALL ISZERO DUP1 ISZERO PUSH2 0x117F JUMPI RETURNDATASIZE PUSH1 0x0 DUP1 RETURNDATACOPY RETURNDATASIZE PUSH1 0x0 REVERT JUMPDEST POP POP POP POP PUSH1 0x40 MLOAD RETURNDATASIZE PUSH1 0x1F NOT PUSH1 0x1F DUP3 ADD AND DUP3 ADD DUP1 PUSH1 0x40 MSTORE POP DUP2 ADD SWAP1 PUSH2 0x11A3 SWAP2 SWAP1 PUSH2 0x2867 JUMP JUMPDEST SWAP1 POP PUSH1 0x0 DUP2 GT PUSH2 0x11E8 JUMPI PUSH1 0x40 MLOAD PUSH32 0x8C379A000000000000000000000000000000000000000000000000000000000 DUP2 MSTORE PUSH1 0x4 ADD PUSH2 0x11DF SWAP1 PUSH2 0x28E0 JUMP JUMPDEST PUSH1 0x40 MLOAD DUP1 SWAP2 SUB SWAP1 REVERT JUMPDEST PUSH1 0x40 MLOAD DUP1 PUSH1 0x60 ADD PUSH1 0x40 MSTORE DUP1 PUSH1 0x1 ISZERO ISZERO DUP2 MSTORE PUSH1 0x20 ADD DUP5 ISZERO ISZERO DUP2 MSTORE PUSH1 0x20 ADD DUP3 DUP2 MSTORE POP PUSH1 0x5 PUSH1 0x0 DUP7 DUP2 MSTORE PUSH1 0x20 ADD SWAP1 DUP2 MSTORE PUSH1 0x20 ADD PUSH1 0x0 KECCAK256 PUSH1 0x0 CALLER PUSH20 0xFFFFFFFFFFFFFFFFFFFFFFFFFFFFFFFFFFFFFFFF AND PUSH20 0xFFFFFFFFFFFFFFFFFFFFFFFFFFFFFFFFFFFFFFFF AND DUP2 MSTORE PUSH1 0x20 ADD SWAP1 DUP2 MSTORE PUSH1 0x20 ADD PUSH1 0x0 KECCAK256 PUSH1 0x0 DUP3 ADD MLOAD DUP2 PUSH1 0x0 ADD PUSH1 0x0 PUSH2 0x100 EXP DUP2 SLOAD DUP2 PUSH1 0xFF MUL NOT AND SWAP1 DUP4 ISZERO ISZERO MUL OR SWAP1 SSTORE POP PUSH1 0x20 DUP3 ADD MLOAD DUP2 PUSH1 0x0 ADD PUSH1 0x1 PUSH2 0x100 EXP DUP2 SLOAD DUP2 PUSH1 0xFF MUL NOT AND SWAP1 DUP4 ISZERO ISZERO MUL OR SWAP1 SSTORE POP PUSH1 0x40 DUP3 ADD MLOAD DUP2 PUSH1 0x1 ADD SSTORE SWAP1 POP POP DUP3 ISZERO PUSH2 0x12CB JUMPI DUP1 DUP3 PUSH1 0x1 ADD PUSH1 0x0 DUP3 DUP3 SLOAD PUSH2 0x12BF SWAP2 SWAP1 PUSH2 0x23C2 JUMP JUMPDEST SWAP3 POP POP DUP2 SWAP1 SSTORE POP PUSH2 0x12E7 JUMP JUMPDEST DUP1 DUP3 PUSH1 0x2 ADD PUSH1 0x0 DUP3 DUP3 SLOAD PUSH2 0x12DF SWAP2 SWAP1 PUSH2 0x23C2 JUMP JUMPDEST SWAP3 POP POP DUP2 SWAP1 SSTORE POP JUMPDEST DUP4 CALLER PUSH20 0xFFFFFFFFFFFFFFFFFFFFFFFFFFFFFFFFFFFFFFFF AND PUSH32 0x877856338E13F63D0C36822FF0EF736B80934CD90574A3A5BC9262C39D217C46 DUP6 DUP5 PUSH1 0x40 MLOAD PUSH2 0x1330 SWAP3 SWAP2 SWAP1 PUSH2 0x2900 JUMP JUMPDEST PUSH1 0x40 MLOAD DUP1 SWAP2 SUB SWAP1 LOG3 POP POP POP POP JUMP JUMPDEST PUSH2 0x1346 PUSH2 0x143A JUMP JUMPDEST PUSH1 0x0 PUSH20 0xFFFFFFFFFFFFFFFFFFFFFFFFFFFFFFFFFFFFFFFF AND DUP2 PUSH20 0xFFFFFFFFFFFFFFFFFFFFFFFFFFFFFFFFFFFFFFFF AND SUB PUSH2 0x13B8 JUMPI PUSH1 0x0 PUSH1 0x40 MLOAD PUSH32 0x1E4FBDF700000000000000000000000000000000000000000000000000000000 DUP2 MSTORE PUSH1 0x4 ADD PUSH2 0x13AF SWAP2 SWAP1 PUSH2 0x1E9D JUMP JUMPDEST PUSH1 0x40 MLOAD DUP1 SWAP2 SUB SWAP1 REVERT JUMPDEST PUSH2 0x13C1 DUP2 PUSH2 0x14C1 JUMP JUMPDEST POP JUMP JUMPDEST PUSH1 0x6 PUSH1 0x0 SWAP1 SLOAD SWAP1 PUSH2 0x100 EXP SWAP1 DIV PUSH20 0xFFFFFFFFFFFFFFFFFFFFFFFFFFFFFFFFFFFFFFFF AND DUP2 JUMP JUMPDEST PUSH1 0x2 PUSH1 0x0 SLOAD SUB PUSH2 0x1426 JUMPI PUSH1 0x40 MLOAD PUSH32 0x3EE5AEB500000000000000000000000000000000000000000000000000000000 DUP2 MSTORE PUSH1 0x4 ADD PUSH1 0x40 MLOAD DUP1 SWAP2 SUB SWAP1 REVERT JUMPDEST PUSH1 0x2 PUSH1 0x0 DUP2 SWAP1 SSTORE POP JUMP JUMPDEST PUSH1 0x1 PUSH1 0x0 DUP2 SWAP1 SSTORE POP JUMP JUMPDEST PUSH2 0x1442 PUSH2 0x1587 JUMP JUMPDEST PUSH20 0xFFFFFFFFFFFFFFFFFFFFFFFFFFFFFFFFFFFFFFFF AND PUSH2 0x1460 PUSH2 0xF8B JUMP JUMPDEST PUSH20 0xFFFFFFFFFFFFFFFFFFFFFFFFFFFFFFFFFFFFFFFF AND EQ PUSH2 0x14BF JUMPI PUSH2 0x1483 PUSH2 0x1587 JUMP JUMPDEST PUSH1 0x40 MLOAD PUSH32 0x118CDAA700000000000000000000000000000000000000000000000000000000 DUP2 MSTORE PUSH1 0x4 ADD PUSH2 0x14B6 SWAP2 SWAP1 PUSH2 0x1E9D JUMP JUMPDEST PUSH1 0x40 MLOAD DUP1 SWAP2 SUB SWAP1 REVERT JUMPDEST JUMP JUMPDEST PUSH1 0x0 PUSH1 0x1 PUSH1 0x0 SWAP1 SLOAD SWAP1 PUSH2 0x100 EXP SWAP1 DIV PUSH20 0xFFFFFFFFFFFFFFFFFFFFFFFFFFFFFFFFFFFFFFFF AND SWAP1 POP DUP2 PUSH1 0x1 PUSH1 0x0 PUSH2 0x100 EXP DUP2 SLOAD DUP2 PUSH20 0xFFFFFFFFFFFFFFFFFFFFFFFFFFFFFFFFFFFFFFFF MUL NOT AND SWAP1 DUP4 PUSH20 0xFFFFFFFFFFFFFFFFFFFFFFFFFFFFFFFFFFFFFFFF AND MUL OR SWAP1 SSTORE POP DUP2 PUSH20 0xFFFFFFFFFFFFFFFFFFFFFFFFFFFFFFFFFFFFFFFF AND DUP2 PUSH20 0xFFFFFFFFFFFFFFFFFFFFFFFFFFFFFFFFFFFFFFFF AND PUSH32 0x8BE0079C531659141344CD1FD0A4F28419497F9722A3DAAFE3B4186F6B6457E0 PUSH1 0x40 MLOAD PUSH1 0x40 MLOAD DUP1 SWAP2 SUB SWAP1 LOG3 POP POP JUMP JUMPDEST PUSH1 0x0 CALLER SWAP1 POP SWAP1 JUMP JUMPDEST PUSH1 0x40 MLOAD DUP1 PUSH1 0xE0 ADD PUSH1 0x40 MSTORE DUP1 PUSH1 0x0 DUP2 MSTORE PUSH1 0x20 ADD PUSH1 0x0 DUP2 MSTORE PUSH1 0x20 ADD PUSH1 0x0 DUP2 MSTORE PUSH1 0x20 ADD PUSH1 0x0 DUP2 MSTORE PUSH1 0x20 ADD PUSH1 0x0 DUP2 MSTORE PUSH1 0x20 ADD PUSH1 0x0 ISZERO ISZERO DUP2 MSTORE PUSH1 0x20 ADD PUSH2 0x15CE PUSH2 0x15D4 JUMP JUMPDEST DUP2 MSTORE POP SWAP1 JUMP JUMPDEST PUSH1 0x40 MLOAD DUP1 PUSH2 0x140 ADD PUSH1 0x40 MSTORE DUP1 PUSH1 0x0 PUSH20 0xFFFFFFFFFFFFFFFFFFFFFFFFFFFFFFFFFFFFFFFF AND DUP2 MSTORE PUSH1 0x20 ADD PUSH1 0x60 DUP2 MSTORE PUSH1 0x20 ADD PUSH1 0x0 DUP2 MSTORE PUSH1 0x20 ADD PUSH1 0x60 DUP2 MSTORE PUSH1 0x20 ADD PUSH1 0x0 DUP2 MSTORE PUSH1 0x20 ADD PUSH1 0x0 DUP2 MSTORE PUSH1 0x20 ADD PUSH1 0x60 DUP2 MSTORE PUSH1 0x20 ADD PUSH1 0x60 DUP2 MSTORE PUSH1 0x20 ADD PUSH1 0x0 DUP2 MSTORE PUSH1 0x20 ADD PUSH1 0x0 DUP2 MSTORE POP SWAP1 JUMP JUMPDEST PUSH1 0x0 PUSH1 0x40 MLOAD SWAP1 POP SWAP1 JUMP JUMPDEST PUSH1 0x0 DUP1 REVERT JUMPDEST PUSH1 0x0 DUP1 REVERT JUMPDEST PUSH1 0x0 DUP2 SWAP1 POP SWAP2 SWAP1 POP JUMP JUMPDEST PUSH2 0x1664 DUP2 PUSH2 0x1651 JUMP JUMPDEST DUP2 EQ PUSH2 0x166F JUMPI PUSH1 0x0 DUP1 REVERT JUMPDEST POP JUMP JUMPDEST PUSH1 0x0 DUP2 CALLDATALOAD SWAP1 POP PUSH2 0x1681 DUP2 PUSH2 0x165B JUMP JUMPDEST SWAP3 SWAP2 POP POP JUMP JUMPDEST PUSH1 0x0 PUSH1 0x20 DUP3 DUP5 SUB SLT ISZERO PUSH2 0x169D JUMPI PUSH2 0x169C PUSH2 0x1647 JUMP JUMPDEST JUMPDEST PUSH1 0x0 PUSH2 0x16AB DUP5 DUP3 DUP6 ADD PUSH2 0x1672 JUMP JUMPDEST SWAP2 POP POP SWAP3 SWAP2 POP POP JUMP JUMPDEST PUSH2 0x16BD DUP2 PUSH2 0x1651 JUMP JUMPDEST DUP3 MSTORE POP POP JUMP JUMPDEST PUSH1 0x0 DUP2 ISZERO ISZERO SWAP1 POP SWAP2 SWAP1 POP JUMP JUMPDEST PUSH2 0x16D8 DUP2 PUSH2 0x16C3 JUMP JUMPDEST DUP3 MSTORE POP POP JUMP JUMPDEST PUSH1 0x0 PUSH20 0xFFFFFFFFFFFFFFFFFFFFFFFFFFFFFFFFFFFFFFFF DUP3 AND SWAP1 POP SWAP2 SWAP1 POP JUMP JUMPDEST PUSH1 0x0 PUSH2 0x1709 DUP3 PUSH2 0x16DE JUMP JUMPDEST SWAP1 POP SWAP2 SWAP1 POP JUMP JUMPDEST PUSH2 0x1719 DUP2 PUSH2 0x16FE JUMP JUMPDEST DUP3 MSTORE POP POP JUMP JUMPDEST PUSH1 0x0 DUP2 MLOAD SWAP1 POP SWAP2 SWAP1 POP JUMP JUMPDEST PUSH1 0x0 DUP3 DUP3 MSTORE PUSH1 0x20 DUP3 ADD SWAP1 POP SWAP3 SWAP2 POP POP JUMP JUMPDEST PUSH1 0x0 JUMPDEST DUP4 DUP2 LT ISZERO PUSH2 0x1759 JUMPI DUP1 DUP3 ADD MLOAD DUP2 DUP5 ADD MSTORE PUSH1 0x20 DUP2 ADD SWAP1 POP PUSH2 0x173E JUMP JUMPDEST PUSH1 0x0 DUP5 DUP5 ADD MSTORE POP POP POP POP JUMP JUMPDEST PUSH1 0x0 PUSH1 0x1F NOT PUSH1 0x1F DUP4 ADD AND SWAP1 POP SWAP2 SWAP1 POP JUMP JUMPDEST PUSH1 0x0 PUSH2 0x1781 DUP3 PUSH2 0x171F JUMP JUMPDEST PUSH2 0x178B DUP2 DUP6 PUSH2 0x172A JUMP JUMPDEST SWAP4 POP PUSH2 0x179B DUP2 DUP6 PUSH1 0x20 DUP7 ADD PUSH2 0x173B JUMP JUMPDEST PUSH2 0x17A4 DUP2 PUSH2 0x1765 JUMP JUMPDEST DUP5 ADD SWAP2 POP POP SWAP3 SWAP2 POP POP JUMP JUMPDEST PUSH2 0x17B8 DUP2 PUSH2 0x1651 JUMP JUMPDEST DUP3 MSTORE POP POP JUMP JUMPDEST PUSH1 0x0 PUSH2 0x140 DUP4 ADD PUSH1 0x0 DUP4 ADD MLOAD PUSH2 0x17D7 PUSH1 0x0 DUP7 ADD DUP3 PUSH2 0x1710 JUMP JUMPDEST POP PUSH1 0x20 DUP4 ADD MLOAD DUP5 DUP3 SUB PUSH1 0x20 DUP7 ADD MSTORE PUSH2 0x17EF DUP3 DUP3 PUSH2 0x1776 JUMP JUMPDEST SWAP2 POP POP PUSH1 0x40 DUP4 ADD MLOAD PUSH2 0x1804 PUSH1 0x40 DUP7 ADD DUP3 PUSH2 0x17AF JUMP JUMPDEST POP PUSH1 0x60 DUP4 ADD MLOAD DUP5 DUP3 SUB PUSH1 0x60 DUP7 ADD MSTORE PUSH2 0x181C DUP3 DUP3 PUSH2 0x1776 JUMP JUMPDEST SWAP2 POP POP PUSH1 0x80 DUP4 ADD MLOAD PUSH2 0x1831 PUSH1 0x80 DUP7 ADD DUP3 PUSH2 0x17AF JUMP JUMPDEST POP PUSH1 0xA0 DUP4 ADD MLOAD PUSH2 0x1844 PUSH1 0xA0 DUP7 ADD DUP3 PUSH2 0x17AF JUMP JUMPDEST POP PUSH1 0xC0 DUP4 ADD MLOAD DUP5 DUP3 SUB PUSH1 0xC0 DUP7 ADD MSTORE PUSH2 0x185C DUP3 DUP3 PUSH2 0x1776 JUMP JUMPDEST SWAP2 POP POP PUSH1 0xE0 DUP4 ADD MLOAD DUP5 DUP3 SUB PUSH1 0xE0 DUP7 ADD MSTORE PUSH2 0x1876 DUP3 DUP3 PUSH2 0x1776 JUMP JUMPDEST SWAP2 POP POP PUSH2 0x100 DUP4 ADD MLOAD PUSH2 0x188D PUSH2 0x100 DUP7 ADD DUP3 PUSH2 0x17AF JUMP JUMPDEST POP PUSH2 0x120 DUP4 ADD MLOAD PUSH2 0x18A2 PUSH2 0x120 DUP7 ADD DUP3 PUSH2 0x17AF JUMP JUMPDEST POP DUP1 SWAP2 POP POP SWAP3 SWAP2 POP POP JUMP JUMPDEST PUSH1 0x0 PUSH1 0xE0 DUP3 ADD SWAP1 POP PUSH2 0x18C2 PUSH1 0x0 DUP4 ADD DUP11 PUSH2 0x16B4 JUMP JUMPDEST PUSH2 0x18CF PUSH1 0x20 DUP4 ADD DUP10 PUSH2 0x16B4 JUMP JUMPDEST PUSH2 0x18DC PUSH1 0x40 DUP4 ADD DUP9 PUSH2 0x16B4 JUMP JUMPDEST PUSH2 0x18E9 PUSH1 0x60 DUP4 ADD DUP8 PUSH2 0x16B4 JUMP JUMPDEST PUSH2 0x18F6 PUSH1 0x80 DUP4 ADD DUP7 PUSH2 0x16B4 JUMP JUMPDEST PUSH2 0x1903 PUSH1 0xA0 DUP4 ADD DUP6 PUSH2 0x16CF JUMP JUMPDEST DUP2 DUP2 SUB PUSH1 0xC0 DUP4 ADD MSTORE PUSH2 0x1915 DUP2 DUP5 PUSH2 0x17BE JUMP JUMPDEST SWAP1 POP SWAP9 SWAP8 POP POP POP POP POP POP POP POP JUMP JUMPDEST PUSH1 0x0 PUSH1 0x20 DUP3 ADD SWAP1 POP PUSH2 0x1938 PUSH1 0x0 DUP4 ADD DUP5 PUSH2 0x16B4 JUMP JUMPDEST SWAP3 SWAP2 POP POP JUMP JUMPDEST PUSH1 0x0 DUP1 REVERT JUMPDEST PUSH32 0x4E487B7100000000000000000000000000000000000000000000000000000000 PUSH1 0x0 MSTORE PUSH1 0x41 PUSH1 0x4 MSTORE PUSH1 0x24 PUSH1 0x0 REVERT JUMPDEST PUSH2 0x197B DUP3 PUSH2 0x1765 JUMP JUMPDEST DUP2 ADD DUP2 DUP2 LT PUSH8 0xFFFFFFFFFFFFFFFF DUP3 GT OR ISZERO PUSH2 0x199A JUMPI PUSH2 0x1999 PUSH2 0x1943 JUMP JUMPDEST JUMPDEST DUP1 PUSH1 0x40 MSTORE POP POP POP JUMP JUMPDEST PUSH1 0x0 PUSH2 0x19AD PUSH2 0x163D JUMP JUMPDEST SWAP1 POP PUSH2 0x19B9 DUP3 DUP3 PUSH2 0x1972 JUMP JUMPDEST SWAP2 SWAP1 POP JUMP JUMPDEST PUSH1 0x0 DUP1 REVERT JUMPDEST PUSH2 0x19CC DUP2 PUSH2 0x16FE JUMP JUMPDEST DUP2 EQ PUSH2 0x19D7 JUMPI PUSH1 0x0 DUP1 REVERT JUMPDEST POP JUMP JUMPDEST PUSH1 0x0 DUP2 CALLDATALOAD SWAP1 POP PUSH2 0x19E9 DUP2 PUSH2 0x19C3 JUMP JUMPDEST SWAP3 SWAP2 POP POP JUMP JUMPDEST PUSH1 0x0 DUP1 REVERT JUMPDEST PUSH1 0x0 DUP1 REVERT JUMPDEST PUSH1 0x0 PUSH8 0xFFFFFFFFFFFFFFFF DUP3 GT ISZERO PUSH2 0x1A14 JUMPI PUSH2 0x1A13 PUSH2 0x1943 JUMP JUMPDEST JUMPDEST PUSH2 0x1A1D DUP3 PUSH2 0x1765 JUMP JUMPDEST SWAP1 POP PUSH1 0x20 DUP2 ADD SWAP1 POP SWAP2 SWAP1 POP JUMP JUMPDEST DUP3 DUP2 DUP4 CALLDATACOPY PUSH1 0x0 DUP4 DUP4 ADD MSTORE POP POP POP JUMP JUMPDEST PUSH1 0x0 PUSH2 0x1A4C PUSH2 0x1A47 DUP5 PUSH2 0x19F9 JUMP JUMPDEST PUSH2 0x19A3 JUMP JUMPDEST SWAP1 POP DUP3 DUP2 MSTORE PUSH1 0x20 DUP2 ADD DUP5 DUP5 DUP5 ADD GT ISZERO PUSH2 0x1A68 JUMPI PUSH2 0x1A67 PUSH2 0x19F4 JUMP JUMPDEST JUMPDEST PUSH2 0x1A73 DUP5 DUP3 DUP6 PUSH2 0x1A2A JUMP JUMPDEST POP SWAP4 SWAP3 POP POP POP JUMP JUMPDEST PUSH1 0x0 DUP3 PUSH1 0x1F DUP4 ADD SLT PUSH2 0x1A90 JUMPI PUSH2 0x1A8F PUSH2 0x19EF JUMP JUMPDEST JUMPDEST DUP2 CALLDATALOAD PUSH2 0x1AA0 DUP5 DUP3 PUSH1 0x20 DUP7 ADD PUSH2 0x1A39 JUMP JUMPDEST SWAP2 POP POP SWAP3 SWAP2 POP POP JUMP JUMPDEST PUSH1 0x0 PUSH2 0x140 DUP3 DUP5 SUB SLT ISZERO PUSH2 0x1AC0 JUMPI PUSH2 0x1ABF PUSH2 0x193E JUMP JUMPDEST JUMPDEST PUSH2 0x1ACB PUSH2 0x140 PUSH2 0x19A3 JUMP JUMPDEST SWAP1 POP PUSH1 0x0 PUSH2 0x1ADB DUP5 DUP3 DUP6 ADD PUSH2 0x19DA JUMP JUMPDEST PUSH1 0x0 DUP4 ADD MSTORE POP PUSH1 0x20 DUP3 ADD CALLDATALOAD PUSH8 0xFFFFFFFFFFFFFFFF DUP2 GT ISZERO PUSH2 0x1AFF JUMPI PUSH2 0x1AFE PUSH2 0x19BE JUMP JUMPDEST JUMPDEST PUSH2 0x1B0B DUP5 DUP3 DUP6 ADD PUSH2 0x1A7B JUMP JUMPDEST PUSH1 0x20 DUP4 ADD MSTORE POP PUSH1 0x40 PUSH2 0x1B1F DUP5 DUP3 DUP6 ADD PUSH2 0x1672 JUMP JUMPDEST PUSH1 0x40 DUP4 ADD MSTORE POP PUSH1 0x60 DUP3 ADD CALLDATALOAD PUSH8 0xFFFFFFFFFFFFFFFF DUP2 GT ISZERO PUSH2 0x1B43 JUMPI PUSH2 0x1B42 PUSH2 0x19BE JUMP JUMPDEST JUMPDEST PUSH2 0x1B4F DUP5 DUP3 DUP6 ADD PUSH2 0x1A7B JUMP JUMPDEST PUSH1 0x60 DUP4 ADD MSTORE POP PUSH1 0x80 PUSH2 0x1B63 DUP5 DUP3 DUP6 ADD PUSH2 0x1672 JUMP JUMPDEST PUSH1 0x80 DUP4 ADD MSTORE POP PUSH1 0xA0 PUSH2 0x1B77 DUP5 DUP3 DUP6 ADD PUSH2 0x1672 JUMP JUMPDEST PUSH1 0xA0 DUP4 ADD MSTORE POP PUSH1 0xC0 DUP3 ADD CALLDATALOAD PUSH8 0xFFFFFFFFFFFFFFFF DUP2 GT ISZERO PUSH2 0x1B9B JUMPI PUSH2 0x1B9A PUSH2 0x19BE JUMP JUMPDEST JUMPDEST PUSH2 0x1BA7 DUP5 DUP3 DUP6 ADD PUSH2 0x1A7B JUMP JUMPDEST PUSH1 0xC0 DUP4 ADD MSTORE POP PUSH1 0xE0 DUP3 ADD CALLDATALOAD PUSH8 0xFFFFFFFFFFFFFFFF DUP2 GT ISZERO PUSH2 0x1BCB JUMPI PUSH2 0x1BCA PUSH2 0x19BE JUMP JUMPDEST JUMPDEST PUSH2 0x1BD7 DUP5 DUP3 DUP6 ADD PUSH2 0x1A7B JUMP JUMPDEST PUSH1 0xE0 DUP4 ADD MSTORE POP PUSH2 0x100 PUSH2 0x1BEC DUP5 DUP3 DUP6 ADD PUSH2 0x1672 JUMP JUMPDEST PUSH2 0x100 DUP4 ADD MSTORE POP PUSH2 0x120 PUSH2 0x1C02 DUP5 DUP3 DUP6 ADD PUSH2 0x1672 JUMP JUMPDEST PUSH2 0x120 DUP4 ADD MSTORE POP SWAP3 SWAP2 POP POP JUMP JUMPDEST PUSH1 0x0 PUSH1 0x20 DUP3 DUP5 SUB SLT ISZERO PUSH2 0x1C25 JUMPI PUSH2 0x1C24 PUSH2 0x1647 JUMP JUMPDEST JUMPDEST PUSH1 0x0 DUP3 ADD CALLDATALOAD PUSH8 0xFFFFFFFFFFFFFFFF DUP2 GT ISZERO PUSH2 0x1C43 JUMPI PUSH2 0x1C42 PUSH2 0x164C JUMP JUMPDEST JUMPDEST PUSH2 0x1C4F DUP5 DUP3 DUP6 ADD PUSH2 0x1AA9 JUMP JUMPDEST SWAP2 POP POP SWAP3 SWAP2 POP POP JUMP JUMPDEST PUSH2 0x1C61 DUP2 PUSH2 0x16C3 JUMP JUMPDEST DUP3 MSTORE POP POP JUMP JUMPDEST PUSH1 0x0 PUSH2 0x140 DUP4 ADD PUSH1 0x0 DUP4 ADD MLOAD PUSH2 0x1C80 PUSH1 0x0 DUP7 ADD DUP3 PUSH2 0x1710 JUMP JUMPDEST POP PUSH1 0x20 DUP4 ADD MLOAD DUP5 DUP3 SUB PUSH1 0x20 DUP7 ADD MSTORE PUSH2 0x1C98 DUP3 DUP3 PUSH2 0x1776 JUMP JUMPDEST SWAP2 POP POP PUSH1 0x40 DUP4 ADD MLOAD PUSH2 0x1CAD PUSH1 0x40 DUP7 ADD DUP3 PUSH2 0x17AF JUMP JUMPDEST POP PUSH1 0x60 DUP4 ADD MLOAD DUP5 DUP3 SUB PUSH1 0x60 DUP7 ADD MSTORE PUSH2 0x1CC5 DUP3 DUP3 PUSH2 0x1776 JUMP JUMPDEST SWAP2 POP POP PUSH1 0x80 DUP4 ADD MLOAD PUSH2 0x1CDA PUSH1 0x80 DUP7 ADD DUP3 PUSH2 0x17AF JUMP JUMPDEST POP PUSH1 0xA0 DUP4 ADD MLOAD PUSH2 0x1CED PUSH1 0xA0 DUP7 ADD DUP3 PUSH2 0x17AF JUMP JUMPDEST POP PUSH1 0xC0 DUP4 ADD MLOAD DUP5 DUP3 SUB PUSH1 0xC0 DUP7 ADD MSTORE PUSH2 0x1D05 DUP3 DUP3 PUSH2 0x1776 JUMP JUMPDEST SWAP2 POP POP PUSH1 0xE0 DUP4 ADD MLOAD DUP5 DUP3 SUB PUSH1 0xE0 DUP7 ADD MSTORE PUSH2 0x1D1F DUP3 DUP3 PUSH2 0x1776 JUMP JUMPDEST SWAP2 POP POP PUSH2 0x100 DUP4 ADD MLOAD PUSH2 0x1D36 PUSH2 0x100 DUP7 ADD DUP3 PUSH2 0x17AF JUMP JUMPDEST POP PUSH2 0x120 DUP4 ADD MLOAD PUSH2 0x1D4B PUSH2 0x120 DUP7 ADD DUP3 PUSH2 0x17AF JUMP JUMPDEST POP DUP1 SWAP2 POP POP SWAP3 SWAP2 POP POP JUMP JUMPDEST PUSH1 0x0 PUSH1 0xE0 DUP4 ADD PUSH1 0x0 DUP4 ADD MLOAD PUSH2 0x1D6E PUSH1 0x0 DUP7 ADD DUP3 PUSH2 0x17AF JUMP JUMPDEST POP PUSH1 0x20 DUP4 ADD MLOAD PUSH2 0x1D81 PUSH1 0x20 DUP7 ADD DUP3 PUSH2 0x17AF JUMP JUMPDEST POP PUSH1 0x40 DUP4 ADD MLOAD PUSH2 0x1D94 PUSH1 0x40 DUP7 ADD DUP3 PUSH2 0x17AF JUMP JUMPDEST POP PUSH1 0x60 DUP4 ADD MLOAD PUSH2 0x1DA7 PUSH1 0x60 DUP7 ADD DUP3 PUSH2 0x17AF JUMP JUMPDEST POP PUSH1 0x80 DUP4 ADD MLOAD PUSH2 0x1DBA PUSH1 0x80 DUP7 ADD DUP3 PUSH2 0x17AF JUMP JUMPDEST POP PUSH1 0xA0 DUP4 ADD MLOAD PUSH2 0x1DCD PUSH1 0xA0 DUP7 ADD DUP3 PUSH2 0x1C58 JUMP JUMPDEST POP PUSH1 0xC0 DUP4 ADD MLOAD DUP5 DUP3 SUB PUSH1 0xC0 DUP7 ADD MSTORE PUSH2 0x1DE5 DUP3 DUP3 PUSH2 0x1C67 JUMP JUMPDEST SWAP2 POP POP DUP1 SWAP2 POP POP SWAP3 SWAP2 POP POP JUMP JUMPDEST PUSH1 0x0 PUSH1 0x20 DUP3 ADD SWAP1 POP DUP2 DUP2 SUB PUSH1 0x0 DUP4 ADD MSTORE PUSH2 0x1E0C DUP2 DUP5 PUSH2 0x1D56 JUMP JUMPDEST SWAP1 POP SWAP3 SWAP2 POP POP JUMP JUMPDEST PUSH1 0x0 DUP2 SWAP1 POP SWAP2 SWAP1 POP JUMP JUMPDEST PUSH1 0x0 PUSH2 0x1E39 PUSH2 0x1E34 PUSH2 0x1E2F DUP5 PUSH2 0x16DE JUMP JUMPDEST PUSH2 0x1E14 JUMP JUMPDEST PUSH2 0x16DE JUMP JUMPDEST SWAP1 POP SWAP2 SWAP1 POP JUMP JUMPDEST PUSH1 0x0 PUSH2 0x1E4B DUP3 PUSH2 0x1E1E JUMP JUMPDEST SWAP1 POP SWAP2 SWAP1 POP JUMP JUMPDEST PUSH1 0x0 PUSH2 0x1E5D DUP3 PUSH2 0x1E40 JUMP JUMPDEST SWAP1 POP SWAP2 SWAP1 POP JUMP JUMPDEST PUSH2 0x1E6D DUP2 PUSH2 0x1E52 JUMP JUMPDEST DUP3 MSTORE POP POP JUMP JUMPDEST PUSH1 0x0 PUSH1 0x20 DUP3 ADD SWAP1 POP PUSH2 0x1E88 PUSH1 0x0 DUP4 ADD DUP5 PUSH2 0x1E64 JUMP JUMPDEST SWAP3 SWAP2 POP POP JUMP JUMPDEST PUSH2 0x1E97 DUP2 PUSH2 0x16FE JUMP JUMPDEST DUP3 MSTORE POP POP JUMP JUMPDEST PUSH1 0x0 PUSH1 0x20 DUP3 ADD SWAP1 POP PUSH2 0x1EB2 PUSH1 0x0 DUP4 ADD DUP5 PUSH2 0x1E8E JUMP JUMPDEST SWAP3 SWAP2 POP POP JUMP JUMPDEST PUSH1 0x0 DUP1 PUSH1 0x40 DUP4 DUP6 SUB SLT ISZERO PUSH2 0x1ECF JUMPI PUSH2 0x1ECE PUSH2 0x1647 JUMP JUMPDEST JUMPDEST PUSH1 0x0 PUSH2 0x1EDD DUP6 DUP3 DUP7 ADD PUSH2 0x1672 JUMP JUMPDEST SWAP3 POP POP PUSH1 0x20 PUSH2 0x1EEE DUP6 DUP3 DUP7 ADD PUSH2 0x19DA JUMP JUMPDEST SWAP2 POP POP SWAP3 POP SWAP3 SWAP1 POP JUMP JUMPDEST PUSH1 0x0 PUSH1 0x60 DUP3 ADD SWAP1 POP PUSH2 0x1F0D PUSH1 0x0 DUP4 ADD DUP7 PUSH2 0x16CF JUMP JUMPDEST PUSH2 0x1F1A PUSH1 0x20 DUP4 ADD DUP6 PUSH2 0x16CF JUMP JUMPDEST PUSH2 0x1F27 PUSH1 0x40 DUP4 ADD DUP5 PUSH2 0x16B4 JUMP JUMPDEST SWAP5 SWAP4 POP POP POP POP JUMP JUMPDEST PUSH2 0x1F38 DUP2 PUSH2 0x16C3 JUMP JUMPDEST DUP2 EQ PUSH2 0x1F43 JUMPI PUSH1 0x0 DUP1 REVERT JUMPDEST POP JUMP JUMPDEST PUSH1 0x0 DUP2 CALLDATALOAD SWAP1 POP PUSH2 0x1F55 DUP2 PUSH2 0x1F2F JUMP JUMPDEST SWAP3 SWAP2 POP POP JUMP JUMPDEST PUSH1 0x0 DUP1 PUSH1 0x40 DUP4 DUP6 SUB SLT ISZERO PUSH2 0x1F72 JUMPI PUSH2 0x1F71 PUSH2 0x1647 JUMP JUMPDEST JUMPDEST PUSH1 0x0 PUSH2 0x1F80 DUP6 DUP3 DUP7 ADD PUSH2 0x1672 JUMP JUMPDEST SWAP3 POP POP PUSH1 0x20 PUSH2 0x1F91 DUP6 DUP3 DUP7 ADD PUSH2 0x1F46 JUMP JUMPDEST SWAP2 POP POP SWAP3 POP SWAP3 SWAP1 POP JUMP JUMPDEST PUSH1 0x0 PUSH1 0x20 DUP3 DUP5 SUB SLT ISZERO PUSH2 0x1FB1 JUMPI PUSH2 0x1FB0 PUSH2 0x1647 JUMP JUMPDEST JUMPDEST PUSH1 0x0 PUSH2 0x1FBF DUP5 DUP3 DUP6 ADD PUSH2 0x19DA JUMP JUMPDEST SWAP2 POP POP SWAP3 SWAP2 POP POP JUMP JUMPDEST PUSH1 0x0 PUSH2 0x1FD3 DUP3 PUSH2 0x1E40 JUMP JUMPDEST SWAP1 POP SWAP2 SWAP1 POP JUMP JUMPDEST PUSH2 0x1FE3 DUP2 PUSH2 0x1FC8 JUMP JUMPDEST DUP3 MSTORE POP POP JUMP JUMPDEST PUSH1 0x0 PUSH1 0x20 DUP3 ADD SWAP1 POP PUSH2 0x1FFE PUSH1 0x0 DUP4 ADD DUP5 PUSH2 0x1FDA JUMP JUMPDEST SWAP3 SWAP2 POP POP JUMP JUMPDEST PUSH32 0x4E487B7100000000000000000000000000000000000000000000000000000000 PUSH1 0x0 MSTORE PUSH1 0x22 PUSH1 0x4 MSTORE PUSH1 0x24 PUSH1 0x0 REVERT JUMPDEST PUSH1 0x0 PUSH1 0x2 DUP3 DIV SWAP1 POP PUSH1 0x1 DUP3 AND DUP1 PUSH2 0x204B JUMPI PUSH1 0x7F DUP3 AND SWAP2 POP JUMPDEST PUSH1 0x20 DUP3 LT DUP2 SUB PUSH2 0x205E JUMPI PUSH2 0x205D PUSH2 0x2004 JUMP JUMPDEST JUMPDEST POP SWAP2 SWAP1 POP JUMP JUMPDEST PUSH1 0x0 DUP3 DUP3 MSTORE PUSH1 0x20 DUP3 ADD SWAP1 POP SWAP3 SWAP2 POP POP JUMP JUMPDEST PUSH32 0x566F74696E6720706572696F64206973207374696C6C20616374697665000000 PUSH1 0x0 DUP3 ADD MSTORE POP JUMP JUMPDEST PUSH1 0x0 PUSH2 0x20AB PUSH1 0x1D DUP4 PUSH2 0x2064 JUMP JUMPDEST SWAP2 POP PUSH2 0x20B6 DUP3 PUSH2 0x2075 JUMP JUMPDEST PUSH1 0x20 DUP3 ADD SWAP1 POP SWAP2 SWAP1 POP JUMP JUMPDEST PUSH1 0x0 PUSH1 0x20 DUP3 ADD SWAP1 POP DUP2 DUP2 SUB PUSH1 0x0 DUP4 ADD MSTORE PUSH2 0x20DA DUP2 PUSH2 0x209E JUMP JUMPDEST SWAP1 POP SWAP2 SWAP1 POP JUMP JUMPDEST PUSH32 0x50726F706F73616C20616C726561647920657865637574656400000000000000 PUSH1 0x0 DUP3 ADD MSTORE POP JUMP JUMPDEST PUSH1 0x0 PUSH2 0x2117 PUSH1 0x19 DUP4 PUSH2 0x2064 JUMP JUMPDEST SWAP2 POP PUSH2 0x2122 DUP3 PUSH2 0x20E1 JUMP JUMPDEST PUSH1 0x20 DUP3 ADD SWAP1 POP SWAP2 SWAP1 POP JUMP JUMPDEST PUSH1 0x0 PUSH1 0x20 DUP3 ADD SWAP1 POP DUP2 DUP2 SUB PUSH1 0x0 DUP4 ADD MSTORE PUSH2 0x2146 DUP2 PUSH2 0x210A JUMP JUMPDEST SWAP1 POP SWAP2 SWAP1 POP JUMP JUMPDEST PUSH1 0x0 PUSH1 0x60 DUP3 ADD SWAP1 POP PUSH2 0x2162 PUSH1 0x0 DUP4 ADD DUP7 PUSH2 0x16B4 JUMP JUMPDEST PUSH2 0x216F PUSH1 0x20 DUP4 ADD DUP6 PUSH2 0x16B4 JUMP JUMPDEST PUSH2 0x217C PUSH1 0x40 DUP4 ADD DUP5 PUSH2 0x1E8E JUMP JUMPDEST SWAP5 SWAP4 POP POP POP POP JUMP JUMPDEST PUSH1 0x0 DUP2 MLOAD SWAP1 POP PUSH2 0x2193 DUP2 PUSH2 0x1F2F JUMP JUMPDEST SWAP3 SWAP2 POP POP JUMP JUMPDEST PUSH1 0x0 PUSH1 0x20 DUP3 DUP5 SUB SLT ISZERO PUSH2 0x21AF JUMPI PUSH2 0x21AE PUSH2 0x1647 JUMP JUMPDEST JUMPDEST PUSH1 0x0 PUSH2 0x21BD DUP5 DUP3 DUP6 ADD PUSH2 0x2184 JUMP JUMPDEST SWAP2 POP POP SWAP3 SWAP2 POP POP JUMP JUMPDEST PUSH32 0x4572726F7220436C61696D696E67207061790000000000000000000000000000 PUSH1 0x0 DUP3 ADD MSTORE POP JUMP JUMPDEST PUSH1 0x0 PUSH2 0x21FC PUSH1 0x12 DUP4 PUSH2 0x2064 JUMP JUMPDEST SWAP2 POP PUSH2 0x2207 DUP3 PUSH2 0x21C6 JUMP JUMPDEST PUSH1 0x20 DUP3 ADD SWAP1 POP SWAP2 SWAP1 POP JUMP JUMPDEST PUSH1 0x0 PUSH1 0x20 DUP3 ADD SWAP1 POP DUP2 DUP2 SUB PUSH1 0x0 DUP4 ADD MSTORE PUSH2 0x222B DUP2 PUSH2 0x21EF JUMP JUMPDEST SWAP1 POP SWAP2 SWAP1 POP JUMP JUMPDEST PUSH1 0x0 PUSH1 0x20 DUP3 ADD SWAP1 POP PUSH2 0x2247 PUSH1 0x0 DUP4 ADD DUP5 PUSH2 0x16CF JUMP JUMPDEST SWAP3 SWAP2 POP POP JUMP JUMPDEST PUSH32 0x506F6F6C20646F6573206E6F7420657869737400000000000000000000000000 PUSH1 0x0 DUP3 ADD MSTORE POP JUMP JUMPDEST PUSH1 0x0 PUSH2 0x2283 PUSH1 0x13 DUP4 PUSH2 0x2064 JUMP JUMPDEST SWAP2 POP PUSH2 0x228E DUP3 PUSH2 0x224D JUMP JUMPDEST PUSH1 0x20 DUP3 ADD SWAP1 POP SWAP2 SWAP1 POP JUMP JUMPDEST PUSH1 0x0 PUSH1 0x20 DUP3 ADD SWAP1 POP DUP2 DUP2 SUB PUSH1 0x0 DUP4 ADD MSTORE PUSH2 0x22B2 DUP2 PUSH2 0x2276 JUMP JUMPDEST SWAP1 POP SWAP2 SWAP1 POP JUMP JUMPDEST PUSH32 0x436C61696D20616D6F756E74206D757374206265206772656174657220746861 PUSH1 0x0 DUP3 ADD MSTORE PUSH32 0x6E20300000000000000000000000000000000000000000000000000000000000 PUSH1 0x20 DUP3 ADD MSTORE POP JUMP JUMPDEST PUSH1 0x0 PUSH2 0x2315 PUSH1 0x23 DUP4 PUSH2 0x2064 JUMP JUMPDEST SWAP2 POP PUSH2 0x2320 DUP3 PUSH2 0x22B9 JUMP JUMPDEST PUSH1 0x40 DUP3 ADD SWAP1 POP SWAP2 SWAP1 POP JUMP JUMPDEST PUSH1 0x0 PUSH1 0x20 DUP3 ADD SWAP1 POP DUP2 DUP2 SUB PUSH1 0x0 DUP4 ADD MSTORE PUSH2 0x2344 DUP2 PUSH2 0x2308 JUMP JUMPDEST SWAP1 POP SWAP2 SWAP1 POP JUMP JUMPDEST PUSH32 0x4E487B7100000000000000000000000000000000000000000000000000000000 PUSH1 0x0 MSTORE PUSH1 0x11 PUSH1 0x4 MSTORE PUSH1 0x24 PUSH1 0x0 REVERT JUMPDEST PUSH1 0x0 PUSH2 0x2385 DUP3 PUSH2 0x1651 JUMP JUMPDEST SWAP2 POP PUSH32 0xFFFFFFFFFFFFFFFFFFFFFFFFFFFFFFFFFFFFFFFFFFFFFFFFFFFFFFFFFFFFFFFF DUP3 SUB PUSH2 0x23B7 JUMPI PUSH2 0x23B6 PUSH2 0x234B JUMP JUMPDEST JUMPDEST PUSH1 0x1 DUP3 ADD SWAP1 POP SWAP2 SWAP1 POP JUMP JUMPDEST PUSH1 0x0 PUSH2 0x23CD DUP3 PUSH2 0x1651 JUMP JUMPDEST SWAP2 POP PUSH2 0x23D8 DUP4 PUSH2 0x1651 JUMP JUMPDEST SWAP3 POP DUP3 DUP3 ADD SWAP1 POP DUP1 DUP3 GT ISZERO PUSH2 0x23F0 JUMPI PUSH2 0x23EF PUSH2 0x234B JUMP JUMPDEST JUMPDEST SWAP3 SWAP2 POP POP JUMP JUMPDEST PUSH1 0x0 DUP2 SWAP1 POP DUP2 PUSH1 0x0 MSTORE PUSH1 0x20 PUSH1 0x0 KECCAK256 SWAP1 POP SWAP2 SWAP1 POP JUMP JUMPDEST PUSH1 0x0 PUSH1 0x20 PUSH1 0x1F DUP4 ADD DIV SWAP1 POP SWAP2 SWAP1 POP JUMP JUMPDEST PUSH1 0x0 DUP3 DUP3 SHL SWAP1 POP SWAP3 SWAP2 POP POP JUMP JUMPDEST PUSH1 0x0 PUSH1 0x8 DUP4 MUL PUSH2 0x2458 PUSH32 0xFFFFFFFFFFFFFFFFFFFFFFFFFFFFFFFFFFFFFFFFFFFFFFFFFFFFFFFFFFFFFFFF DUP3 PUSH2 0x241B JUMP JUMPDEST PUSH2 0x2462 DUP7 DUP4 PUSH2 0x241B JUMP JUMPDEST SWAP6 POP DUP1 NOT DUP5 AND SWAP4 POP DUP1 DUP7 AND DUP5 OR SWAP3 POP POP POP SWAP4 SWAP3 POP POP POP JUMP JUMPDEST PUSH1 0x0 PUSH2 0x2495 PUSH2 0x2490 PUSH2 0x248B DUP5 PUSH2 0x1651 JUMP JUMPDEST PUSH2 0x1E14 JUMP JUMPDEST PUSH2 0x1651 JUMP JUMPDEST SWAP1 POP SWAP2 SWAP1 POP JUMP JUMPDEST PUSH1 0x0 DUP2 SWAP1 POP SWAP2 SWAP1 POP JUMP JUMPDEST PUSH2 0x24AF DUP4 PUSH2 0x247A JUMP JUMPDEST PUSH2 0x24C3 PUSH2 0x24BB DUP3 PUSH2 0x249C JUMP JUMPDEST DUP5 DUP5 SLOAD PUSH2 0x2428 JUMP JUMPDEST DUP3 SSTORE POP POP POP POP JUMP JUMPDEST PUSH1 0x0 SWAP1 JUMP JUMPDEST PUSH2 0x24D8 PUSH2 0x24CB JUMP JUMPDEST PUSH2 0x24E3 DUP2 DUP5 DUP5 PUSH2 0x24A6 JUMP JUMPDEST POP POP POP JUMP JUMPDEST JUMPDEST DUP2 DUP2 LT ISZERO PUSH2 0x2507 JUMPI PUSH2 0x24FC PUSH1 0x0 DUP3 PUSH2 0x24D0 JUMP JUMPDEST PUSH1 0x1 DUP2 ADD SWAP1 POP PUSH2 0x24E9 JUMP JUMPDEST POP POP JUMP JUMPDEST PUSH1 0x1F DUP3 GT ISZERO PUSH2 0x254C JUMPI PUSH2 0x251D DUP2 PUSH2 0x23F6 JUMP JUMPDEST PUSH2 0x2526 DUP5 PUSH2 0x240B JUMP JUMPDEST DUP2 ADD PUSH1 0x20 DUP6 LT ISZERO PUSH2 0x2535 JUMPI DUP2 SWAP1 POP JUMPDEST PUSH2 0x2549 PUSH2 0x2541 DUP6 PUSH2 0x240B JUMP JUMPDEST DUP4 ADD DUP3 PUSH2 0x24E8 JUMP JUMPDEST POP POP JUMPDEST POP POP POP JUMP JUMPDEST PUSH1 0x0 DUP3 DUP3 SHR SWAP1 POP SWAP3 SWAP2 POP POP JUMP JUMPDEST PUSH1 0x0 PUSH2 0x256F PUSH1 0x0 NOT DUP5 PUSH1 0x8 MUL PUSH2 0x2551 JUMP JUMPDEST NOT DUP1 DUP4 AND SWAP2 POP POP SWAP3 SWAP2 POP POP JUMP JUMPDEST PUSH1 0x0 PUSH2 0x2588 DUP4 DUP4 PUSH2 0x255E JUMP JUMPDEST SWAP2 POP DUP3 PUSH1 0x2 MUL DUP3 OR SWAP1 POP SWAP3 SWAP2 POP POP JUMP JUMPDEST PUSH2 0x25A1 DUP3 PUSH2 0x171F JUMP JUMPDEST PUSH8 0xFFFFFFFFFFFFFFFF DUP2 GT ISZERO PUSH2 0x25BA JUMPI PUSH2 0x25B9 PUSH2 0x1943 JUMP JUMPDEST JUMPDEST PUSH2 0x25C4 DUP3 SLOAD PUSH2 0x2033 JUMP JUMPDEST PUSH2 0x25CF DUP3 DUP3 DUP6 PUSH2 0x250B JUMP JUMPDEST PUSH1 0x0 PUSH1 0x20 SWAP1 POP PUSH1 0x1F DUP4 GT PUSH1 0x1 DUP2 EQ PUSH2 0x2602 JUMPI PUSH1 0x0 DUP5 ISZERO PUSH2 0x25F0 JUMPI DUP3 DUP8 ADD MLOAD SWAP1 POP JUMPDEST PUSH2 0x25FA DUP6 DUP3 PUSH2 0x257C JUMP JUMPDEST DUP7 SSTORE POP PUSH2 0x2662 JUMP JUMPDEST PUSH1 0x1F NOT DUP5 AND PUSH2 0x2610 DUP7 PUSH2 0x23F6 JUMP JUMPDEST PUSH1 0x0 JUMPDEST DUP3 DUP2 LT ISZERO PUSH2 0x2638 JUMPI DUP5 DUP10 ADD MLOAD DUP3 SSTORE PUSH1 0x1 DUP3 ADD SWAP2 POP PUSH1 0x20 DUP6 ADD SWAP5 POP PUSH1 0x20 DUP2 ADD SWAP1 POP PUSH2 0x2613 JUMP JUMPDEST DUP7 DUP4 LT ISZERO PUSH2 0x2655 JUMPI DUP5 DUP10 ADD MLOAD PUSH2 0x2651 PUSH1 0x1F DUP10 AND DUP3 PUSH2 0x255E JUMP JUMPDEST DUP4 SSTORE POP JUMPDEST PUSH1 0x1 PUSH1 0x2 DUP9 MUL ADD DUP9 SSTORE POP POP POP JUMPDEST POP POP POP POP POP POP JUMP JUMPDEST PUSH1 0x0 PUSH2 0x2675 DUP3 PUSH2 0x171F JUMP JUMPDEST PUSH2 0x267F DUP2 DUP6 PUSH2 0x2064 JUMP JUMPDEST SWAP4 POP PUSH2 0x268F DUP2 DUP6 PUSH1 0x20 DUP7 ADD PUSH2 0x173B JUMP JUMPDEST PUSH2 0x2698 DUP2 PUSH2 0x1765 JUMP JUMPDEST DUP5 ADD SWAP2 POP POP SWAP3 SWAP2 POP POP JUMP JUMPDEST PUSH1 0x0 PUSH1 0x60 DUP3 ADD SWAP1 POP DUP2 DUP2 SUB PUSH1 0x0 DUP4 ADD MSTORE PUSH2 0x26BD DUP2 DUP7 PUSH2 0x266A JUMP JUMPDEST SWAP1 POP DUP2 DUP2 SUB PUSH1 0x20 DUP4 ADD MSTORE PUSH2 0x26D1 DUP2 DUP6 PUSH2 0x266A JUMP JUMPDEST SWAP1 POP PUSH2 0x26E0 PUSH1 0x40 DUP4 ADD DUP5 PUSH2 0x16B4 JUMP JUMPDEST SWAP5 SWAP4 POP POP POP POP JUMP JUMPDEST PUSH32 0x566F74696E67206475726174696F6E206D757374206265206772656174657220 PUSH1 0x0 DUP3 ADD MSTORE PUSH32 0x7468616E20300000000000000000000000000000000000000000000000000000 PUSH1 0x20 DUP3 ADD MSTORE POP JUMP JUMPDEST PUSH1 0x0 PUSH2 0x2744 PUSH1 0x26 DUP4 PUSH2 0x2064 JUMP JUMPDEST SWAP2 POP PUSH2 0x274F DUP3 PUSH2 0x26E8 JUMP JUMPDEST PUSH1 0x40 DUP3 ADD SWAP1 POP SWAP2 SWAP1 POP JUMP JUMPDEST PUSH1 0x0 PUSH1 0x20 DUP3 ADD SWAP1 POP DUP2 DUP2 SUB PUSH1 0x0 DUP4 ADD MSTORE PUSH2 0x2773 DUP2 PUSH2 0x2737 JUMP JUMPDEST SWAP1 POP SWAP2 SWAP1 POP JUMP JUMPDEST PUSH32 0x566F74696E6720706572696F642068617320656E646564000000000000000000 PUSH1 0x0 DUP3 ADD MSTORE POP JUMP JUMPDEST PUSH1 0x0 PUSH2 0x27B0 PUSH1 0x17 DUP4 PUSH2 0x2064 JUMP JUMPDEST SWAP2 POP PUSH2 0x27BB DUP3 PUSH2 0x277A JUMP JUMPDEST PUSH1 0x20 DUP3 ADD SWAP1 POP SWAP2 SWAP1 POP JUMP JUMPDEST PUSH1 0x0 PUSH1 0x20 DUP3 ADD SWAP1 POP DUP2 DUP2 SUB PUSH1 0x0 DUP4 ADD MSTORE PUSH2 0x27DF DUP2 PUSH2 0x27A3 JUMP JUMPDEST SWAP1 POP SWAP2 SWAP1 POP JUMP JUMPDEST PUSH32 0x416C726561647920766F74656400000000000000000000000000000000000000 PUSH1 0x0 DUP3 ADD MSTORE POP JUMP JUMPDEST PUSH1 0x0 PUSH2 0x281C PUSH1 0xD DUP4 PUSH2 0x2064 JUMP JUMPDEST SWAP2 POP PUSH2 0x2827 DUP3 PUSH2 0x27E6 JUMP JUMPDEST PUSH1 0x20 DUP3 ADD SWAP1 POP SWAP2 SWAP1 POP JUMP JUMPDEST PUSH1 0x0 PUSH1 0x20 DUP3 ADD SWAP1 POP DUP2 DUP2 SUB PUSH1 0x0 DUP4 ADD MSTORE PUSH2 0x284B DUP2 PUSH2 0x280F JUMP JUMPDEST SWAP1 POP SWAP2 SWAP1 POP JUMP JUMPDEST PUSH1 0x0 DUP2 MLOAD SWAP1 POP PUSH2 0x2861 DUP2 PUSH2 0x165B JUMP JUMPDEST SWAP3 SWAP2 POP POP JUMP JUMPDEST PUSH1 0x0 PUSH1 0x20 DUP3 DUP5 SUB SLT ISZERO PUSH2 0x287D JUMPI PUSH2 0x287C PUSH2 0x1647 JUMP JUMPDEST JUMPDEST PUSH1 0x0 PUSH2 0x288B DUP5 DUP3 DUP6 ADD PUSH2 0x2852 JUMP JUMPDEST SWAP2 POP POP SWAP3 SWAP2 POP POP JUMP JUMPDEST PUSH32 0x4E6F20766F74696E672077656967687400000000000000000000000000000000 PUSH1 0x0 DUP3 ADD MSTORE POP JUMP JUMPDEST PUSH1 0x0 PUSH2 0x28CA PUSH1 0x10 DUP4 PUSH2 0x2064 JUMP JUMPDEST SWAP2 POP PUSH2 0x28D5 DUP3 PUSH2 0x2894 JUMP JUMPDEST PUSH1 0x20 DUP3 ADD SWAP1 POP SWAP2 SWAP1 POP JUMP JUMPDEST PUSH1 0x0 PUSH1 0x20 DUP3 ADD SWAP1 POP DUP2 DUP2 SUB PUSH1 0x0 DUP4 ADD MSTORE PUSH2 0x28F9 DUP2 PUSH2 0x28BD JUMP JUMPDEST SWAP1 POP SWAP2 SWAP1 POP JUMP JUMPDEST PUSH1 0x0 PUSH1 0x40 DUP3 ADD SWAP1 POP PUSH2 0x2915 PUSH1 0x0 DUP4 ADD DUP6 PUSH2 0x16CF JUMP JUMPDEST PUSH2 0x2922 PUSH1 0x20 DUP4 ADD DUP5 PUSH2 0x16B4 JUMP JUMPDEST SWAP4 SWAP3 POP POP POP JUMP INVALID LOG2 PUSH5 0x6970667358 0x22 SLT KECCAK256 MULMOD 0xD8 0xE8 DUP3 SWAP8 DUP3 0xA9 0xAB 0xB8 0xC 0xF CODESIZE PUSH9 0xABBE08527D9D5A1D7A CODESIZE CREATE2 0xED 0xAE PUSH6 0x96ACAFF2A864 PUSH20 0x6F6C634300081A00330000000000000000000000 "
    },
    "gasEstimates": {
      "creation": {
        "codeDepositCost": "2118200",
        "executionCost": "infinite",
        "totalCost": "infinite"
      },
      "external": {
        "createProposal((address,string,uint256,string,uint256,uint256,string,string,uint256,uint256))": "infinite",
        "executeProposal(uint256)": "infinite",
        "getProposalDetails(uint256)": "infinite",
        "governanceToken()": "infinite",
        "lpContract()": "infinite",
        "owner()": "2589",
        "proposalCounter()": "2475",
        "proposals(uint256)": "infinite",
        "renounceOwnership()": "infinite",
        "setVotingDuration(uint256)": "infinite",
        "transferOwnership(address)": "infinite",
        "vote(uint256,bool)": "infinite",
        "voters(uint256,address)": "infinite",
        "votingDuration()": "2452"
      }
    },
    "methodIdentifiers": {
      "createProposal((address,string,uint256,string,uint256,uint256,string,string,uint256,uint256))": "275e69a6",
      "executeProposal(uint256)": "0d61b519",
      "getProposalDetails(uint256)": "3b4d01a7",
      "governanceToken()": "f96dae0a",
      "lpContract()": "8acee3cf",
      "owner()": "8da5cb5b",
      "proposalCounter()": "0c0512e9",
      "proposals(uint256)": "013cf08b",
      "renounceOwnership()": "715018a6",
      "setVotingDuration(uint256)": "5bcfadb5",
      "transferOwnership(address)": "f2fde38b",
      "vote(uint256,bool)": "c9d27afe",
      "voters(uint256,address)": "9e319063",
      "votingDuration()": "132002fc"
    }
  },
  "abi": [
    {
      "inputs": [
        {
          "internalType": "address",
          "name": "_governanceToken",
          "type": "address"
        },
        {
          "internalType": "address",
          "name": "_insurancePool",
          "type": "address"
        },
        {
          "internalType": "uint256",
          "name": "_votingDuration",
          "type": "uint256"
        },
        {
          "internalType": "address",
          "name": "_initialOwner",
          "type": "address"
        }
      ],
      "stateMutability": "nonpayable",
      "type": "constructor"
    },
    {
      "inputs": [
        {
          "internalType": "address",
          "name": "owner",
          "type": "address"
        }
      ],
      "name": "OwnableInvalidOwner",
      "type": "error"
    },
    {
      "inputs": [
        {
          "internalType": "address",
          "name": "account",
          "type": "address"
        }
      ],
      "name": "OwnableUnauthorizedAccount",
      "type": "error"
    },
    {
      "inputs": [],
      "name": "ReentrancyGuardReentrantCall",
      "type": "error"
    },
    {
      "anonymous": false,
      "inputs": [
        {
          "indexed": true,
          "internalType": "address",
          "name": "previousOwner",
          "type": "address"
        },
        {
          "indexed": true,
          "internalType": "address",
          "name": "newOwner",
          "type": "address"
        }
      ],
      "name": "OwnershipTransferred",
      "type": "event"
    },
    {
      "anonymous": false,
      "inputs": [
        {
          "indexed": true,
          "internalType": "uint256",
          "name": "proposalId",
          "type": "uint256"
        },
        {
          "indexed": true,
          "internalType": "address",
          "name": "creator",
          "type": "address"
        },
        {
          "indexed": false,
          "internalType": "string",
          "name": "description",
          "type": "string"
        },
        {
          "indexed": false,
          "internalType": "string",
          "name": "riskType",
          "type": "string"
        },
        {
          "indexed": false,
          "internalType": "uint256",
          "name": "claimAmount",
          "type": "uint256"
        }
      ],
      "name": "ProposalCreated",
      "type": "event"
    },
    {
      "anonymous": false,
      "inputs": [
        {
          "indexed": true,
          "internalType": "uint256",
          "name": "proposalId",
          "type": "uint256"
        },
        {
          "indexed": false,
          "internalType": "bool",
          "name": "approved",
          "type": "bool"
        }
      ],
      "name": "ProposalExecuted",
      "type": "event"
    },
    {
      "anonymous": false,
      "inputs": [
        {
          "indexed": true,
          "internalType": "address",
          "name": "voter",
          "type": "address"
        },
        {
          "indexed": true,
          "internalType": "uint256",
          "name": "proposalId",
          "type": "uint256"
        },
        {
          "indexed": false,
          "internalType": "bool",
          "name": "vote",
          "type": "bool"
        },
        {
          "indexed": false,
          "internalType": "uint256",
          "name": "weight",
          "type": "uint256"
        }
      ],
      "name": "VoteCast",
      "type": "event"
    },
    {
      "inputs": [
        {
          "components": [
            {
              "internalType": "address",
              "name": "user",
              "type": "address"
            },
            {
              "internalType": "string",
              "name": "validatorAddress",
              "type": "string"
            },
            {
              "internalType": "uint256",
              "name": "validator_score",
              "type": "uint256"
            },
            {
              "internalType": "string",
              "name": "riskType",
              "type": "string"
            },
            {
              "internalType": "uint256",
              "name": "coverEndDay",
              "type": "uint256"
            },
            {
              "internalType": "uint256",
              "name": "coverValue",
              "type": "uint256"
            },
            {
              "internalType": "string",
              "name": "description",
              "type": "string"
            },
            {
              "internalType": "string",
              "name": "txHash",
              "type": "string"
            },
            {
              "internalType": "uint256",
              "name": "poolId",
              "type": "uint256"
            },
            {
              "internalType": "uint256",
              "name": "claimAmount",
              "type": "uint256"
            }
          ],
          "internalType": "struct Governance.ProposalParams",
          "name": "params",
          "type": "tuple"
        }
      ],
      "name": "createProposal",
      "outputs": [],
      "stateMutability": "nonpayable",
      "type": "function"
    },
    {
      "inputs": [
        {
          "internalType": "uint256",
          "name": "_proposalId",
          "type": "uint256"
        }
      ],
      "name": "executeProposal",
      "outputs": [],
      "stateMutability": "nonpayable",
      "type": "function"
    },
    {
      "inputs": [
        {
          "internalType": "uint256",
          "name": "_proposalId",
          "type": "uint256"
        }
      ],
      "name": "getProposalDetails",
      "outputs": [
        {
          "components": [
            {
              "internalType": "uint256",
              "name": "id",
              "type": "uint256"
            },
            {
              "internalType": "uint256",
              "name": "votesFor",
              "type": "uint256"
            },
            {
              "internalType": "uint256",
              "name": "votesAgainst",
              "type": "uint256"
            },
            {
              "internalType": "uint256",
              "name": "createdAt",
              "type": "uint256"
            },
            {
              "internalType": "uint256",
              "name": "deadline",
              "type": "uint256"
            },
            {
              "internalType": "bool",
              "name": "executed",
              "type": "bool"
            },
            {
              "components": [
                {
                  "internalType": "address",
                  "name": "user",
                  "type": "address"
                },
                {
                  "internalType": "string",
                  "name": "validatorAddress",
                  "type": "string"
                },
                {
                  "internalType": "uint256",
                  "name": "validator_score",
                  "type": "uint256"
                },
                {
                  "internalType": "string",
                  "name": "riskType",
                  "type": "string"
                },
                {
                  "internalType": "uint256",
                  "name": "coverEndDay",
                  "type": "uint256"
                },
                {
                  "internalType": "uint256",
                  "name": "coverValue",
                  "type": "uint256"
                },
                {
                  "internalType": "string",
                  "name": "description",
                  "type": "string"
                },
                {
                  "internalType": "string",
                  "name": "txHash",
                  "type": "string"
                },
                {
                  "internalType": "uint256",
                  "name": "poolId",
                  "type": "uint256"
                },
                {
                  "internalType": "uint256",
                  "name": "claimAmount",
                  "type": "uint256"
                }
              ],
              "internalType": "struct Governance.ProposalParams",
              "name": "proposalParam",
              "type": "tuple"
            }
          ],
          "internalType": "struct Governance.Proposal",
          "name": "",
          "type": "tuple"
        }
      ],
      "stateMutability": "view",
      "type": "function"
    },
    {
      "inputs": [],
      "name": "governanceToken",
      "outputs": [
        {
          "internalType": "contract IERC20",
          "name": "",
          "type": "address"
        }
      ],
      "stateMutability": "view",
      "type": "function"
    },
    {
      "inputs": [],
      "name": "lpContract",
      "outputs": [
        {
          "internalType": "contract ILP",
          "name": "",
          "type": "address"
        }
      ],
      "stateMutability": "view",
      "type": "function"
    },
    {
      "inputs": [],
      "name": "owner",
      "outputs": [
        {
          "internalType": "address",
          "name": "",
          "type": "address"
        }
      ],
      "stateMutability": "view",
      "type": "function"
    },
    {
      "inputs": [],
      "name": "proposalCounter",
      "outputs": [
        {
          "internalType": "uint256",
          "name": "",
          "type": "uint256"
        }
      ],
      "stateMutability": "view",
      "type": "function"
    },
    {
      "inputs": [
        {
          "internalType": "uint256",
          "name": "",
          "type": "uint256"
        }
      ],
      "name": "proposals",
      "outputs": [
        {
          "internalType": "uint256",
          "name": "id",
          "type": "uint256"
        },
        {
          "internalType": "uint256",
          "name": "votesFor",
          "type": "uint256"
        },
        {
          "internalType": "uint256",
          "name": "votesAgainst",
          "type": "uint256"
        },
        {
          "internalType": "uint256",
          "name": "createdAt",
          "type": "uint256"
        },
        {
          "internalType": "uint256",
          "name": "deadline",
          "type": "uint256"
        },
        {
          "internalType": "bool",
          "name": "executed",
          "type": "bool"
        },
        {
          "components": [
            {
              "internalType": "address",
              "name": "user",
              "type": "address"
            },
            {
              "internalType": "string",
              "name": "validatorAddress",
              "type": "string"
            },
            {
              "internalType": "uint256",
              "name": "validator_score",
              "type": "uint256"
            },
            {
              "internalType": "string",
              "name": "riskType",
              "type": "string"
            },
            {
              "internalType": "uint256",
              "name": "coverEndDay",
              "type": "uint256"
            },
            {
              "internalType": "uint256",
              "name": "coverValue",
              "type": "uint256"
            },
            {
              "internalType": "string",
              "name": "description",
              "type": "string"
            },
            {
              "internalType": "string",
              "name": "txHash",
              "type": "string"
            },
            {
              "internalType": "uint256",
              "name": "poolId",
              "type": "uint256"
            },
            {
              "internalType": "uint256",
              "name": "claimAmount",
              "type": "uint256"
            }
          ],
          "internalType": "struct Governance.ProposalParams",
          "name": "proposalParam",
          "type": "tuple"
        }
      ],
      "stateMutability": "view",
      "type": "function"
    },
    {
      "inputs": [],
      "name": "renounceOwnership",
      "outputs": [],
      "stateMutability": "nonpayable",
      "type": "function"
    },
    {
      "inputs": [
        {
          "internalType": "uint256",
          "name": "_newDuration",
          "type": "uint256"
        }
      ],
      "name": "setVotingDuration",
      "outputs": [],
      "stateMutability": "nonpayable",
      "type": "function"
    },
    {
      "inputs": [
        {
          "internalType": "address",
          "name": "newOwner",
          "type": "address"
        }
      ],
      "name": "transferOwnership",
      "outputs": [],
      "stateMutability": "nonpayable",
      "type": "function"
    },
    {
      "inputs": [
        {
          "internalType": "uint256",
          "name": "_proposalId",
          "type": "uint256"
        },
        {
          "internalType": "bool",
          "name": "_vote",
          "type": "bool"
        }
      ],
      "name": "vote",
      "outputs": [],
      "stateMutability": "nonpayable",
      "type": "function"
    },
    {
      "inputs": [
        {
          "internalType": "uint256",
          "name": "",
          "type": "uint256"
        },
        {
          "internalType": "address",
          "name": "",
          "type": "address"
        }
      ],
      "name": "voters",
      "outputs": [
        {
          "internalType": "bool",
          "name": "voted",
          "type": "bool"
        },
        {
          "internalType": "bool",
          "name": "vote",
          "type": "bool"
        },
        {
          "internalType": "uint256",
          "name": "weight",
          "type": "uint256"
        }
      ],
      "stateMutability": "view",
      "type": "function"
    },
    {
      "inputs": [],
      "name": "votingDuration",
      "outputs": [
        {
          "internalType": "uint256",
          "name": "",
          "type": "uint256"
        }
      ],
      "stateMutability": "view",
      "type": "function"
    }
  ]
}