{
  "_format": "hh-sol-artifact-1",
  "contractName": "MockERC20",
  "sourceName": "contracts/MockERC20.sol",
  "abi": [
    {
      "inputs": [
        {
          "internalType": "string",
          "name": "name",
          "type": "string"
        },
        {
          "internalType": "string",
          "name": "symbol",
          "type": "string"
        },
        {
          "internalType": "uint8",
          "name": "decimals_",
          "type": "uint8"
        },
        {
          "internalType": "uint256",
          "name": "initialSupply",
          "type": "uint256"
        }
      ],
      "stateMutability": "nonpayable",
      "type": "constructor"
    },
    {
      "inputs": [
        {
          "internalType": "address",
          "name": "spender",
          "type": "address"
        },
        {
          "internalType": "uint256",
          "name": "allowance",
          "type": "uint256"
        },
        {
          "internalType": "uint256",
          "name": "needed",
          "type": "uint256"
        }
      ],
      "name": "ERC20InsufficientAllowance",
      "type": "error"
    },
    {
      "inputs": [
        {
          "internalType": "address",
          "name": "sender",
          "type": "address"
        },
        {
          "internalType": "uint256",
          "name": "balance",
          "type": "uint256"
        },
        {
          "internalType": "uint256",
          "name": "needed",
          "type": "uint256"
        }
      ],
      "name": "ERC20InsufficientBalance",
      "type": "error"
    },
    {
      "inputs": [
        {
          "internalType": "address",
          "name": "approver",
          "type": "address"
        }
      ],
      "name": "ERC20InvalidApprover",
      "type": "error"
    },
    {
      "inputs": [
        {
          "internalType": "address",
          "name": "receiver",
          "type": "address"
        }
      ],
      "name": "ERC20InvalidReceiver",
      "type": "error"
    },
    {
      "inputs": [
        {
          "internalType": "address",
          "name": "sender",
          "type": "address"
        }
      ],
      "name": "ERC20InvalidSender",
      "type": "error"
    },
    {
      "inputs": [
        {
          "internalType": "address",
          "name": "spender",
          "type": "address"
        }
      ],
      "name": "ERC20InvalidSpender",
      "type": "error"
    },
    {
      "anonymous": false,
      "inputs": [
        {
          "indexed": true,
          "internalType": "address",
          "name": "owner",
          "type": "address"
        },
        {
          "indexed": true,
          "internalType": "address",
          "name": "spender",
          "type": "address"
        },
        {
          "indexed": false,
          "internalType": "uint256",
          "name": "value",
          "type": "uint256"
        }
      ],
      "name": "Approval",
      "type": "event"
    },
    {
      "anonymous": false,
      "inputs": [
        {
          "indexed": true,
          "internalType": "address",
          "name": "from",
          "type": "address"
        },
        {
          "indexed": true,
          "internalType": "address",
          "name": "to",
          "type": "address"
        },
        {
          "indexed": false,
          "internalType": "uint256",
          "name": "value",
          "type": "uint256"
        }
      ],
      "name": "Transfer",
      "type": "event"
    },
    {
      "inputs": [
        {
          "internalType": "address",
          "name": "owner",
          "type": "address"
        },
        {
          "internalType": "address",
          "name": "spender",
          "type": "address"
        }
      ],
      "name": "allowance",
      "outputs": [
        {
          "internalType": "uint256",
          "name": "",
          "type": "uint256"
        }
      ],
      "stateMutability": "view",
      "type": "function"
    },
    {
      "inputs": [
        {
          "internalType": "address",
          "name": "spender",
          "type": "address"
        },
        {
          "internalType": "uint256",
          "name": "value",
          "type": "uint256"
        }
      ],
      "name": "approve",
      "outputs": [
        {
          "internalType": "bool",
          "name": "",
          "type": "bool"
        }
      ],
      "stateMutability": "nonpayable",
      "type": "function"
    },
    {
      "inputs": [
        {
          "internalType": "address",
          "name": "account",
          "type": "address"
        }
      ],
      "name": "balanceOf",
      "outputs": [
        {
          "internalType": "uint256",
          "name": "",
          "type": "uint256"
        }
      ],
      "stateMutability": "view",
      "type": "function"
    },
    {
      "inputs": [],
      "name": "decimals",
      "outputs": [
        {
          "internalType": "uint8",
          "name": "",
          "type": "uint8"
        }
      ],
      "stateMutability": "view",
      "type": "function"
    },
    {
      "inputs": [
        {
          "internalType": "address",
          "name": "account",
          "type": "address"
        },
        {
          "internalType": "uint256",
          "name": "amount",
          "type": "uint256"
        }
      ],
      "name": "mint",
      "outputs": [],
      "stateMutability": "nonpayable",
      "type": "function"
    },
    {
      "inputs": [],
      "name": "name",
      "outputs": [
        {
          "internalType": "string",
          "name": "",
          "type": "string"
        }
      ],
      "stateMutability": "view",
      "type": "function"
    },
    {
      "inputs": [],
      "name": "symbol",
      "outputs": [
        {
          "internalType": "string",
          "name": "",
          "type": "string"
        }
      ],
      "stateMutability": "view",
      "type": "function"
    },
    {
      "inputs": [],
      "name": "totalSupply",
      "outputs": [
        {
          "internalType": "uint256",
          "name": "",
          "type": "uint256"
        }
      ],
      "stateMutability": "view",
      "type": "function"
    },
    {
      "inputs": [
        {
          "internalType": "address",
          "name": "to",
          "type": "address"
        },
        {
          "internalType": "uint256",
          "name": "value",
          "type": "uint256"
        }
      ],
      "name": "transfer",
      "outputs": [
        {
          "internalType": "bool",
          "name": "",
          "type": "bool"
        }
      ],
      "stateMutability": "nonpayable",
      "type": "function"
    },
    {
      "inputs": [
        {
          "internalType": "address",
          "name": "from",
          "type": "address"
        },
        {
          "internalType": "address",
          "name": "to",
          "type": "address"
        },
        {
          "internalType": "uint256",
          "name": "value",
          "type": "uint256"
        }
      ],
      "name": "transferFrom",
      "outputs": [
        {
          "internalType": "bool",
          "name": "",
          "type": "bool"
        }
      ],
      "stateMutability": "nonpayable",
      "type": "function"
    }
  ],
  "bytecode": "0x60806040523480156200001157600080fd5b50604051620019983803806200199883398181016040528101906200003791906200055f565b838381600390816200004a919062000850565b5080600490816200005c919062000850565b50505081600560006101000a81548160ff021916908360ff1602179055506200008c33826200009660201b60201c565b5050505062000a6e565b600073ffffffffffffffffffffffffffffffffffffffff168273ffffffffffffffffffffffffffffffffffffffff16036200010b5760006040517fec442f050000000000000000000000000000000000000000000000000000000081526004016200010291906200097c565b60405180910390fd5b6200011f600083836200012360201b60201c565b5050565b600073ffffffffffffffffffffffffffffffffffffffff168373ffffffffffffffffffffffffffffffffffffffff1603620001795780600260008282546200016c9190620009c8565b925050819055506200024f565b60008060008573ffffffffffffffffffffffffffffffffffffffff1673ffffffffffffffffffffffffffffffffffffffff1681526020019081526020016000205490508181101562000208578381836040517fe450d38c000000000000000000000000000000000000000000000000000000008152600401620001ff9392919062000a14565b60405180910390fd5b8181036000808673ffffffffffffffffffffffffffffffffffffffff1673ffffffffffffffffffffffffffffffffffffffff16815260200190815260200160002081905550505b600073ffffffffffffffffffffffffffffffffffffffff168273ffffffffffffffffffffffffffffffffffffffff16036200029a5780600260008282540392505081905550620002e7565b806000808473ffffffffffffffffffffffffffffffffffffffff1673ffffffffffffffffffffffffffffffffffffffff168152602001908152602001600020600082825401925050819055505b8173ffffffffffffffffffffffffffffffffffffffff168373ffffffffffffffffffffffffffffffffffffffff167fddf252ad1be2c89b69c2b068fc378daa952ba7f163c4a11628f55a4df523b3ef8360405162000346919062000a51565b60405180910390a3505050565b6000604051905090565b600080fd5b600080fd5b600080fd5b600080fd5b6000601f19601f8301169050919050565b7f4e487b7100000000000000000000000000000000000000000000000000000000600052604160045260246000fd5b620003bc8262000371565b810181811067ffffffffffffffff82111715620003de57620003dd62000382565b5b80604052505050565b6000620003f362000353565b9050620004018282620003b1565b919050565b600067ffffffffffffffff82111562000424576200042362000382565b5b6200042f8262000371565b9050602081019050919050565b60005b838110156200045c5780820151818401526020810190506200043f565b60008484015250505050565b60006200047f620004798462000406565b620003e7565b9050828152602081018484840111156200049e576200049d6200036c565b5b620004ab8482856200043c565b509392505050565b600082601f830112620004cb57620004ca62000367565b5b8151620004dd84826020860162000468565b91505092915050565b600060ff82169050919050565b620004fe81620004e6565b81146200050a57600080fd5b50565b6000815190506200051e81620004f3565b92915050565b6000819050919050565b620005398162000524565b81146200054557600080fd5b50565b60008151905062000559816200052e565b92915050565b600080600080608085870312156200057c576200057b6200035d565b5b600085015167ffffffffffffffff8111156200059d576200059c62000362565b5b620005ab87828801620004b3565b945050602085015167ffffffffffffffff811115620005cf57620005ce62000362565b5b620005dd87828801620004b3565b9350506040620005f0878288016200050d565b9250506060620006038782880162000548565b91505092959194509250565b600081519050919050565b7f4e487b7100000000000000000000000000000000000000000000000000000000600052602260045260246000fd5b600060028204905060018216806200066257607f821691505b6020821081036200067857620006776200061a565b5b50919050565b60008190508160005260206000209050919050565b60006020601f8301049050919050565b600082821b905092915050565b600060088302620006e27fffffffffffffffffffffffffffffffffffffffffffffffffffffffffffffffff82620006a3565b620006ee8683620006a3565b95508019841693508086168417925050509392505050565b6000819050919050565b6000620007316200072b620007258462000524565b62000706565b62000524565b9050919050565b6000819050919050565b6200074d8362000710565b620007656200075c8262000738565b848454620006b0565b825550505050565b600090565b6200077c6200076d565b6200078981848462000742565b505050565b5b81811015620007b157620007a560008262000772565b6001810190506200078f565b5050565b601f8211156200080057620007ca816200067e565b620007d58462000693565b81016020851015620007e5578190505b620007fd620007f48562000693565b8301826200078e565b50505b505050565b600082821c905092915050565b6000620008256000198460080262000805565b1980831691505092915050565b600062000840838362000812565b9150826002028217905092915050565b6200085b826200060f565b67ffffffffffffffff81111562000877576200087662000382565b5b62000883825462000649565b62000890828285620007b5565b600060209050601f831160018114620008c85760008415620008b3578287015190505b620008bf858262000832565b8655506200092f565b601f198416620008d8866200067e565b60005b828110156200090257848901518255600182019150602085019450602081019050620008db565b868310156200092257848901516200091e601f89168262000812565b8355505b6001600288020188555050505b505050505050565b600073ffffffffffffffffffffffffffffffffffffffff82169050919050565b6000620009648262000937565b9050919050565b620009768162000957565b82525050565b60006020820190506200099360008301846200096b565b92915050565b7f4e487b7100000000000000000000000000000000000000000000000000000000600052601160045260246000fd5b6000620009d58262000524565b9150620009e28362000524565b9250828201905080821115620009fd57620009fc62000999565b5b92915050565b62000a0e8162000524565b82525050565b600060608201905062000a2b60008301866200096b565b62000a3a602083018562000a03565b62000a49604083018462000a03565b949350505050565b600060208201905062000a68600083018462000a03565b92915050565b610f1a8062000a7e6000396000f3fe608060405234801561001057600080fd5b506004361061009e5760003560e01c806340c10f191161006657806340c10f191461015d57806370a082311461017957806395d89b41146101a9578063a9059cbb146101c7578063dd62ed3e146101f75761009e565b806306fdde03146100a3578063095ea7b3146100c157806318160ddd146100f157806323b872dd1461010f578063313ce5671461013f575b600080fd5b6100ab610227565b6040516100b89190610b6e565b60405180910390f35b6100db60048036038101906100d69190610c29565b6102b9565b6040516100e89190610c84565b60405180910390f35b6100f96102dc565b6040516101069190610cae565b60405180910390f35b61012960048036038101906101249190610cc9565b6102e6565b6040516101369190610c84565b60405180910390f35b610147610315565b6040516101549190610d38565b60405180910390f35b61017760048036038101906101729190610c29565b61032c565b005b610193600480360381019061018e9190610d53565b61033a565b6040516101a09190610cae565b60405180910390f35b6101b1610382565b6040516101be9190610b6e565b60405180910390f35b6101e160048036038101906101dc9190610c29565b610414565b6040516101ee9190610c84565b60405180910390f35b610211600480360381019061020c9190610d80565b610437565b60405161021e9190610cae565b60405180910390f35b60606003805461023690610def565b80601f016020809104026020016040519081016040528092919081815260200182805461026290610def565b80156102af5780601f10610284576101008083540402835291602001916102af565b820191906000526020600020905b81548152906001019060200180831161029257829003601f168201915b5050505050905090565b6000806102c46104be565b90506102d18185856104c6565b600191505092915050565b6000600254905090565b6000806102f16104be565b90506102fe8582856104d8565b61030985858561056c565b60019150509392505050565b6000600560009054906101000a900460ff16905090565b6103368282610660565b5050565b60008060008373ffffffffffffffffffffffffffffffffffffffff1673ffffffffffffffffffffffffffffffffffffffff168152602001908152602001600020549050919050565b60606004805461039190610def565b80601f01602080910402602001604051908101604052809291908181526020018280546103bd90610def565b801561040a5780601f106103df5761010080835404028352916020019161040a565b820191906000526020600020905b8154815290600101906020018083116103ed57829003601f168201915b5050505050905090565b60008061041f6104be565b905061042c81858561056c565b600191505092915050565b6000600160008473ffffffffffffffffffffffffffffffffffffffff1673ffffffffffffffffffffffffffffffffffffffff16815260200190815260200160002060008373ffffffffffffffffffffffffffffffffffffffff1673ffffffffffffffffffffffffffffffffffffffff16815260200190815260200160002054905092915050565b600033905090565b6104d383838360016106e2565b505050565b60006104e48484610437565b90507fffffffffffffffffffffffffffffffffffffffffffffffffffffffffffffffff81146105665781811015610556578281836040517ffb8f41b200000000000000000000000000000000000000000000000000000000815260040161054d93929190610e2f565b60405180910390fd5b610565848484840360006106e2565b5b50505050565b600073ffffffffffffffffffffffffffffffffffffffff168373ffffffffffffffffffffffffffffffffffffffff16036105de5760006040517f96c6fd1e0000000000000000000000000000000000000000000000000000000081526004016105d59190610e66565b60405180910390fd5b600073ffffffffffffffffffffffffffffffffffffffff168273ffffffffffffffffffffffffffffffffffffffff16036106505760006040517fec442f050000000000000000000000000000000000000000000000000000000081526004016106479190610e66565b60405180910390fd5b61065b8383836108b9565b505050565b600073ffffffffffffffffffffffffffffffffffffffff168273ffffffffffffffffffffffffffffffffffffffff16036106d25760006040517fec442f050000000000000000000000000000000000000000000000000000000081526004016106c99190610e66565b60405180910390fd5b6106de600083836108b9565b5050565b600073ffffffffffffffffffffffffffffffffffffffff168473ffffffffffffffffffffffffffffffffffffffff16036107545760006040517fe602df0500000000000000000000000000000000000000000000000000000000815260040161074b9190610e66565b60405180910390fd5b600073ffffffffffffffffffffffffffffffffffffffff168373ffffffffffffffffffffffffffffffffffffffff16036107c65760006040517f94280d620000000000000000000000000000000000000000000000000000000081526004016107bd9190610e66565b60405180910390fd5b81600160008673ffffffffffffffffffffffffffffffffffffffff1673ffffffffffffffffffffffffffffffffffffffff16815260200190815260200160002060008573ffffffffffffffffffffffffffffffffffffffff1673ffffffffffffffffffffffffffffffffffffffff1681526020019081526020016000208190555080156108b3578273ffffffffffffffffffffffffffffffffffffffff168473ffffffffffffffffffffffffffffffffffffffff167f8c5be1e5ebec7d5bd14f71427d1e84f3dd0314c0f7b2291e5b200ac8c7c3b925846040516108aa9190610cae565b60405180910390a35b50505050565b600073ffffffffffffffffffffffffffffffffffffffff168373ffffffffffffffffffffffffffffffffffffffff160361090b5780600260008282546108ff9190610eb0565b925050819055506109de565b60008060008573ffffffffffffffffffffffffffffffffffffffff1673ffffffffffffffffffffffffffffffffffffffff16815260200190815260200160002054905081811015610997578381836040517fe450d38c00000000000000000000000000000000000000000000000000000000815260040161098e93929190610e2f565b60405180910390fd5b8181036000808673ffffffffffffffffffffffffffffffffffffffff1673ffffffffffffffffffffffffffffffffffffffff16815260200190815260200160002081905550505b600073ffffffffffffffffffffffffffffffffffffffff168273ffffffffffffffffffffffffffffffffffffffff1603610a275780600260008282540392505081905550610a74565b806000808473ffffffffffffffffffffffffffffffffffffffff1673ffffffffffffffffffffffffffffffffffffffff168152602001908152602001600020600082825401925050819055505b8173ffffffffffffffffffffffffffffffffffffffff168373ffffffffffffffffffffffffffffffffffffffff167fddf252ad1be2c89b69c2b068fc378daa952ba7f163c4a11628f55a4df523b3ef83604051610ad19190610cae565b60405180910390a3505050565b600081519050919050565b600082825260208201905092915050565b60005b83811015610b18578082015181840152602081019050610afd565b60008484015250505050565b6000601f19601f8301169050919050565b6000610b4082610ade565b610b4a8185610ae9565b9350610b5a818560208601610afa565b610b6381610b24565b840191505092915050565b60006020820190508181036000830152610b888184610b35565b905092915050565b600080fd5b600073ffffffffffffffffffffffffffffffffffffffff82169050919050565b6000610bc082610b95565b9050919050565b610bd081610bb5565b8114610bdb57600080fd5b50565b600081359050610bed81610bc7565b92915050565b6000819050919050565b610c0681610bf3565b8114610c1157600080fd5b50565b600081359050610c2381610bfd565b92915050565b60008060408385031215610c4057610c3f610b90565b5b6000610c4e85828601610bde565b9250506020610c5f85828601610c14565b9150509250929050565b60008115159050919050565b610c7e81610c69565b82525050565b6000602082019050610c996000830184610c75565b92915050565b610ca881610bf3565b82525050565b6000602082019050610cc36000830184610c9f565b92915050565b600080600060608486031215610ce257610ce1610b90565b5b6000610cf086828701610bde565b9350506020610d0186828701610bde565b9250506040610d1286828701610c14565b9150509250925092565b600060ff82169050919050565b610d3281610d1c565b82525050565b6000602082019050610d4d6000830184610d29565b92915050565b600060208284031215610d6957610d68610b90565b5b6000610d7784828501610bde565b91505092915050565b60008060408385031215610d9757610d96610b90565b5b6000610da585828601610bde565b9250506020610db685828601610bde565b9150509250929050565b7f4e487b7100000000000000000000000000000000000000000000000000000000600052602260045260246000fd5b60006002820490506001821680610e0757607f821691505b602082108103610e1a57610e19610dc0565b5b50919050565b610e2981610bb5565b82525050565b6000606082019050610e446000830186610e20565b610e516020830185610c9f565b610e5e6040830184610c9f565b949350505050565b6000602082019050610e7b6000830184610e20565b92915050565b7f4e487b7100000000000000000000000000000000000000000000000000000000600052601160045260246000fd5b6000610ebb82610bf3565b9150610ec683610bf3565b9250828201905080821115610ede57610edd610e81565b5b9291505056fea2646970667358221220d4c289342a4e2384c68f601fcf557affc18ee0fa12c7b4865710e5418167c24364736f6c63430008180033",
  "linkReferences": {},
  "deployedLinkReferences": {}
}