{
  "_format": "hh-sol-artifact-1",
  "contractName": "Governance",
  "sourceName": "contracts/Gov.sol",
  "abi": [
    {
      "inputs": [
        {
          "internalType": "address",
          "name": "_governanceToken",
          "type": "address"
        },
        {
          "internalType": "address",
          "name": "_insurancePool",
          "type": "address"
        },
        {
          "internalType": "uint256",
          "name": "_votingDuration",
          "type": "uint256"
        },
        {
          "internalType": "address",
          "name": "_initialOwner",
          "type": "address"
        }
      ],
      "stateMutability": "nonpayable",
      "type": "constructor"
    },
    {
      "inputs": [
        {
          "internalType": "address",
          "name": "owner",
          "type": "address"
        }
      ],
      "name": "OwnableInvalidOwner",
      "type": "error"
    },
    {
      "inputs": [
        {
          "internalType": "address",
          "name": "account",
          "type": "address"
        }
      ],
      "name": "OwnableUnauthorizedAccount",
      "type": "error"
    },
    {
      "inputs": [],
      "name": "ReentrancyGuardReentrantCall",
      "type": "error"
    },
    {
      "anonymous": false,
      "inputs": [
        {
          "indexed": true,
          "internalType": "address",
          "name": "previousOwner",
          "type": "address"
        },
        {
          "indexed": true,
          "internalType": "address",
          "name": "newOwner",
          "type": "address"
        }
      ],
      "name": "OwnershipTransferred",
      "type": "event"
    },
    {
      "anonymous": false,
      "inputs": [
        {
          "indexed": true,
          "internalType": "uint256",
          "name": "proposalId",
          "type": "uint256"
        },
        {
          "indexed": true,
          "internalType": "address",
          "name": "creator",
          "type": "address"
        },
        {
          "indexed": false,
          "internalType": "string",
          "name": "description",
          "type": "string"
        },
        {
          "indexed": false,
          "internalType": "enum CoverLib.RiskType",
          "name": "riskType",
          "type": "uint8"
        },
        {
          "indexed": false,
          "internalType": "uint256",
          "name": "claimAmount",
          "type": "uint256"
        }
      ],
      "name": "ProposalCreated",
      "type": "event"
    },
    {
      "anonymous": false,
      "inputs": [
        {
          "indexed": true,
          "internalType": "uint256",
          "name": "proposalId",
          "type": "uint256"
        },
        {
          "indexed": false,
          "internalType": "bool",
          "name": "approved",
          "type": "bool"
        }
      ],
      "name": "ProposalExecuted",
      "type": "event"
    },
    {
      "anonymous": false,
      "inputs": [
        {
          "indexed": true,
          "internalType": "address",
          "name": "voter",
          "type": "address"
        },
        {
          "indexed": true,
          "internalType": "uint256",
          "name": "proposalId",
          "type": "uint256"
        },
        {
          "indexed": false,
          "internalType": "bool",
          "name": "vote",
          "type": "bool"
        },
        {
          "indexed": false,
          "internalType": "uint256",
          "name": "weight",
          "type": "uint256"
        }
      ],
      "name": "VoteCast",
      "type": "event"
    },
    {
      "inputs": [],
      "name": "coverContract",
      "outputs": [
        {
          "internalType": "contract ICover",
          "name": "",
          "type": "address"
        }
      ],
      "stateMutability": "view",
      "type": "function"
    },
    {
      "inputs": [
        {
          "components": [
            {
              "internalType": "address",
              "name": "user",
              "type": "address"
            },
            {
              "internalType": "enum CoverLib.RiskType",
              "name": "riskType",
              "type": "uint8"
            },
            {
              "internalType": "uint256",
              "name": "coverId",
              "type": "uint256"
            },
            {
              "internalType": "string",
              "name": "description",
              "type": "string"
            },
            {
              "internalType": "uint256",
              "name": "poolId",
              "type": "uint256"
            },
            {
              "internalType": "uint256",
              "name": "claimAmount",
              "type": "uint256"
            }
          ],
          "internalType": "struct Governance.ProposalParams",
          "name": "params",
          "type": "tuple"
        }
      ],
      "name": "createProposal",
      "outputs": [],
      "stateMutability": "nonpayable",
      "type": "function"
    },
    {
      "inputs": [
        {
          "internalType": "uint256",
          "name": "_proposalId",
          "type": "uint256"
        }
      ],
      "name": "executeProposal",
      "outputs": [],
      "stateMutability": "nonpayable",
      "type": "function"
    },
    {
      "inputs": [],
      "name": "getAllProposals",
      "outputs": [
        {
          "components": [
            {
              "internalType": "uint256",
              "name": "id",
              "type": "uint256"
            },
            {
              "internalType": "uint256",
              "name": "votesFor",
              "type": "uint256"
            },
            {
              "internalType": "uint256",
              "name": "votesAgainst",
              "type": "uint256"
            },
            {
              "internalType": "uint256",
              "name": "createdAt",
              "type": "uint256"
            },
            {
              "internalType": "uint256",
              "name": "deadline",
              "type": "uint256"
            },
            {
              "internalType": "bool",
              "name": "executed",
              "type": "bool"
            },
            {
              "components": [
                {
                  "internalType": "address",
                  "name": "user",
                  "type": "address"
                },
                {
                  "internalType": "enum CoverLib.RiskType",
                  "name": "riskType",
                  "type": "uint8"
                },
                {
                  "internalType": "uint256",
                  "name": "coverId",
                  "type": "uint256"
                },
                {
                  "internalType": "string",
                  "name": "description",
                  "type": "string"
                },
                {
                  "internalType": "uint256",
                  "name": "poolId",
                  "type": "uint256"
                },
                {
                  "internalType": "uint256",
                  "name": "claimAmount",
                  "type": "uint256"
                }
              ],
              "internalType": "struct Governance.ProposalParams",
              "name": "proposalParam",
              "type": "tuple"
            }
          ],
          "internalType": "struct Governance.Proposal[]",
          "name": "",
          "type": "tuple[]"
        }
      ],
      "stateMutability": "view",
      "type": "function"
    },
    {
      "inputs": [
        {
          "internalType": "uint256",
          "name": "_proposalId",
          "type": "uint256"
        }
      ],
      "name": "getProposalDetails",
      "outputs": [
        {
          "components": [
            {
              "internalType": "uint256",
              "name": "id",
              "type": "uint256"
            },
            {
              "internalType": "uint256",
              "name": "votesFor",
              "type": "uint256"
            },
            {
              "internalType": "uint256",
              "name": "votesAgainst",
              "type": "uint256"
            },
            {
              "internalType": "uint256",
              "name": "createdAt",
              "type": "uint256"
            },
            {
              "internalType": "uint256",
              "name": "deadline",
              "type": "uint256"
            },
            {
              "internalType": "bool",
              "name": "executed",
              "type": "bool"
            },
            {
              "components": [
                {
                  "internalType": "address",
                  "name": "user",
                  "type": "address"
                },
                {
                  "internalType": "enum CoverLib.RiskType",
                  "name": "riskType",
                  "type": "uint8"
                },
                {
                  "internalType": "uint256",
                  "name": "coverId",
                  "type": "uint256"
                },
                {
                  "internalType": "string",
                  "name": "description",
                  "type": "string"
                },
                {
                  "internalType": "uint256",
                  "name": "poolId",
                  "type": "uint256"
                },
                {
                  "internalType": "uint256",
                  "name": "claimAmount",
                  "type": "uint256"
                }
              ],
              "internalType": "struct Governance.ProposalParams",
              "name": "proposalParam",
              "type": "tuple"
            }
          ],
          "internalType": "struct Governance.Proposal",
          "name": "",
          "type": "tuple"
        }
      ],
      "stateMutability": "view",
      "type": "function"
    },
    {
      "inputs": [],
      "name": "governanceToken",
      "outputs": [
        {
          "internalType": "contract IERC20",
          "name": "",
          "type": "address"
        }
      ],
      "stateMutability": "view",
      "type": "function"
    },
    {
      "inputs": [],
      "name": "lpContract",
      "outputs": [
        {
          "internalType": "contract ILP",
          "name": "",
          "type": "address"
        }
      ],
      "stateMutability": "view",
      "type": "function"
    },
    {
      "inputs": [],
      "name": "owner",
      "outputs": [
        {
          "internalType": "address",
          "name": "",
          "type": "address"
        }
      ],
      "stateMutability": "view",
      "type": "function"
    },
    {
      "inputs": [],
      "name": "proposalCounter",
      "outputs": [
        {
          "internalType": "uint256",
          "name": "",
          "type": "uint256"
        }
      ],
      "stateMutability": "view",
      "type": "function"
    },
    {
      "inputs": [
        {
          "internalType": "uint256",
          "name": "",
          "type": "uint256"
        }
      ],
      "name": "proposalIds",
      "outputs": [
        {
          "internalType": "uint256",
          "name": "",
          "type": "uint256"
        }
      ],
      "stateMutability": "view",
      "type": "function"
    },
    {
      "inputs": [
        {
          "internalType": "uint256",
          "name": "",
          "type": "uint256"
        }
      ],
      "name": "proposals",
      "outputs": [
        {
          "internalType": "uint256",
          "name": "id",
          "type": "uint256"
        },
        {
          "internalType": "uint256",
          "name": "votesFor",
          "type": "uint256"
        },
        {
          "internalType": "uint256",
          "name": "votesAgainst",
          "type": "uint256"
        },
        {
          "internalType": "uint256",
          "name": "createdAt",
          "type": "uint256"
        },
        {
          "internalType": "uint256",
          "name": "deadline",
          "type": "uint256"
        },
        {
          "internalType": "bool",
          "name": "executed",
          "type": "bool"
        },
        {
          "components": [
            {
              "internalType": "address",
              "name": "user",
              "type": "address"
            },
            {
              "internalType": "enum CoverLib.RiskType",
              "name": "riskType",
              "type": "uint8"
            },
            {
              "internalType": "uint256",
              "name": "coverId",
              "type": "uint256"
            },
            {
              "internalType": "string",
              "name": "description",
              "type": "string"
            },
            {
              "internalType": "uint256",
              "name": "poolId",
              "type": "uint256"
            },
            {
              "internalType": "uint256",
              "name": "claimAmount",
              "type": "uint256"
            }
          ],
          "internalType": "struct Governance.ProposalParams",
          "name": "proposalParam",
          "type": "tuple"
        }
      ],
      "stateMutability": "view",
      "type": "function"
    },
    {
      "inputs": [],
      "name": "renounceOwnership",
      "outputs": [],
      "stateMutability": "nonpayable",
      "type": "function"
    },
    {
      "inputs": [
        {
          "internalType": "address",
          "name": "_coverContract",
          "type": "address"
        }
      ],
      "name": "setCoverContract",
      "outputs": [],
      "stateMutability": "nonpayable",
      "type": "function"
    },
    {
      "inputs": [
        {
          "internalType": "uint256",
          "name": "_newDuration",
          "type": "uint256"
        }
      ],
      "name": "setVotingDuration",
      "outputs": [],
      "stateMutability": "nonpayable",
      "type": "function"
    },
    {
      "inputs": [
        {
          "internalType": "address",
          "name": "newOwner",
          "type": "address"
        }
      ],
      "name": "transferOwnership",
      "outputs": [],
      "stateMutability": "nonpayable",
      "type": "function"
    },
    {
      "inputs": [
        {
          "internalType": "uint256",
          "name": "_proposalId",
          "type": "uint256"
        },
        {
          "internalType": "bool",
          "name": "_vote",
          "type": "bool"
        }
      ],
      "name": "vote",
      "outputs": [],
      "stateMutability": "nonpayable",
      "type": "function"
    },
    {
      "inputs": [
        {
          "internalType": "uint256",
          "name": "",
          "type": "uint256"
        },
        {
          "internalType": "address",
          "name": "",
          "type": "address"
        }
      ],
      "name": "voters",
      "outputs": [
        {
          "internalType": "bool",
          "name": "voted",
          "type": "bool"
        },
        {
          "internalType": "bool",
          "name": "vote",
          "type": "bool"
        },
        {
          "internalType": "uint256",
          "name": "weight",
          "type": "uint256"
        }
      ],
      "stateMutability": "view",
      "type": "function"
    },
    {
      "inputs": [],
      "name": "votingDuration",
      "outputs": [
        {
          "internalType": "uint256",
          "name": "",
          "type": "uint256"
        }
      ],
      "stateMutability": "view",
      "type": "function"
    }
  ],
  "bytecode": "0x60806040523480156200001157600080fd5b506040516200321b3803806200321b8339818101604052810190620000379190620002d5565b806001600081905550600073ffffffffffffffffffffffffffffffffffffffff168173ffffffffffffffffffffffffffffffffffffffff1603620000b55760006040517f1e4fbdf7000000000000000000000000000000000000000000000000000000008152600401620000ac919062000358565b60405180910390fd5b620000c6816200016a60201b60201c565b5083600760006101000a81548173ffffffffffffffffffffffffffffffffffffffff021916908373ffffffffffffffffffffffffffffffffffffffff16021790555082600860006101000a81548173ffffffffffffffffffffffffffffffffffffffff021916908373ffffffffffffffffffffffffffffffffffffffff16021790555062015180826200015a9190620003a4565b60038190555050505050620003ef565b6000600160009054906101000a900473ffffffffffffffffffffffffffffffffffffffff16905081600160006101000a81548173ffffffffffffffffffffffffffffffffffffffff021916908373ffffffffffffffffffffffffffffffffffffffff1602179055508173ffffffffffffffffffffffffffffffffffffffff168173ffffffffffffffffffffffffffffffffffffffff167f8be0079c531659141344cd1fd0a4f28419497f9722a3daafe3b4186f6b6457e060405160405180910390a35050565b600080fd5b600073ffffffffffffffffffffffffffffffffffffffff82169050919050565b6000620002628262000235565b9050919050565b620002748162000255565b81146200028057600080fd5b50565b600081519050620002948162000269565b92915050565b6000819050919050565b620002af816200029a565b8114620002bb57600080fd5b50565b600081519050620002cf81620002a4565b92915050565b60008060008060808587031215620002f257620002f162000230565b5b6000620003028782880162000283565b9450506020620003158782880162000283565b93505060406200032887828801620002be565b92505060606200033b8782880162000283565b91505092959194509250565b620003528162000255565b82525050565b60006020820190506200036f600083018462000347565b92915050565b7f4e487b7100000000000000000000000000000000000000000000000000000000600052601160045260246000fd5b6000620003b1826200029a565b9150620003be836200029a565b9250828202620003ce816200029a565b91508282048414831517620003e857620003e762000375565b5b5092915050565b612e1c80620003ff6000396000f3fe608060405234801561001057600080fd5b50600436106101165760003560e01c80638acee3cf116100a2578063c9d27afe11610071578063c9d27afe146102d7578063cceb68f5146102f3578063ee5424ab14610311578063f2fde38b1461032d578063f96dae0a1461034957610116565b80638acee3cf146102395780638da5cb5b146102575780639b644a23146102755780639e319063146102a557610116565b8063248a75b7116100e9578063248a75b7146101a95780633b4d01a7146101c7578063593a41c9146101f75780635bcfadb514610213578063715018a61461022f57610116565b8063013cf08b1461011b5780630c0512e9146101515780630d61b5191461016f578063132002fc1461018b575b600080fd5b610135600480360381019061013091906118e8565b610367565b6040516101489796959493929190611b1f565b60405180910390f35b610159610501565b6040516101669190611b95565b60405180910390f35b610189600480360381019061018491906118e8565b610507565b005b610193610867565b6040516101a09190611b95565b60405180910390f35b6101b161086d565b6040516101be9190611c0f565b60405180910390f35b6101e160048036038101906101dc91906118e8565b610893565b6040516101ee9190611d5e565b60405180910390f35b610211600480360381019061020c9190611fcc565b610a62565b005b61022d600480360381019061022891906118e8565b610d9a565b005b610237610def565b005b610241610e03565b60405161024e9190612036565b60405180910390f35b61025f610e29565b60405161026c9190612060565b60405180910390f35b61028f600480360381019061028a91906118e8565b610e53565b60405161029c9190611b95565b60405180910390f35b6102bf60048036038101906102ba919061207b565b610e77565b6040516102ce939291906120bb565b60405180910390f35b6102f160048036038101906102ec919061211e565b610ec8565b005b6102fb611200565b60405161030891906122bc565b60405180910390f35b61032b600480360381019061032691906122de565b611480565b005b610347600480360381019061034291906122de565b6115aa565b005b610351611630565b60405161035e919061232c565b60405180910390f35b60046020528060005260406000206000915090508060000154908060010154908060020154908060030154908060040154908060050160009054906101000a900460ff1690806006016040518060c00160405290816000820160009054906101000a900473ffffffffffffffffffffffffffffffffffffffff1673ffffffffffffffffffffffffffffffffffffffff1673ffffffffffffffffffffffffffffffffffffffff1681526020016000820160149054906101000a900460ff16600381111561043657610435611980565b5b600381111561044857610447611980565b5b81526020016001820154815260200160028201805461046690612376565b80601f016020809104026020016040519081016040528092919081815260200182805461049290612376565b80156104df5780601f106104b4576101008083540402835291602001916104df565b820191906000526020600020905b8154815290600101906020018083116104c257829003601f168201915b5050505050815260200160038201548152602001600482015481525050905087565b60025481565b61050f611656565b6105176116dd565b600060046000838152602001908152602001600020905080600401544211610574576040517f08c379a000000000000000000000000000000000000000000000000000000000815260040161056b90612404565b60405180910390fd5b8060050160009054906101000a900460ff16156105c6576040517f08c379a00000000000000000000000000000000000000000000000000000000081526004016105bd90612470565b60405180910390fd5b60018160050160006101000a81548160ff02191690831515021790555080600201548160010154111561082157600860009054906101000a900473ffffffffffffffffffffffffffffffffffffffff1673ffffffffffffffffffffffffffffffffffffffff166347fea81e826006016003015483600601600401548460060160000160009054906101000a900473ffffffffffffffffffffffffffffffffffffffff166040518463ffffffff1660e01b815260040161068793929190612490565b602060405180830381865afa1580156106a4573d6000803e3d6000fd5b505050506040513d601f19601f820116820180604052508101906106c891906124dc565b610707576040517f08c379a00000000000000000000000000000000000000000000000000000000081526004016106fe90612555565b60405180910390fd5b600960009054906101000a900473ffffffffffffffffffffffffffffffffffffffff1673ffffffffffffffffffffffffffffffffffffffff1663dcb2c7e38260060160000160009054906101000a900473ffffffffffffffffffffffffffffffffffffffff1683600601600101548460060160000160149054906101000a900460ff1685600601600401546040518563ffffffff1660e01b81526004016107b19493929190612584565b600060405180830381600087803b1580156107cb57600080fd5b505af11580156107df573d6000803e3d6000fd5b50505050817f948f4a9cd986f1118c3fbd459f7a22b23c0693e1ca3ef06a6a8be5aa7d39cc03600160405161081491906125c9565b60405180910390a261085b565b817f948f4a9cd986f1118c3fbd459f7a22b23c0693e1ca3ef06a6a8be5aa7d39cc03600060405161085291906125c9565b60405180910390a25b50610864611723565b50565b60035481565b600960009054906101000a900473ffffffffffffffffffffffffffffffffffffffff1681565b61089b6117fb565b600460008381526020019081526020016000206040518060e001604052908160008201548152602001600182015481526020016002820154815260200160038201548152602001600482015481526020016005820160009054906101000a900460ff16151515158152602001600682016040518060c00160405290816000820160009054906101000a900473ffffffffffffffffffffffffffffffffffffffff1673ffffffffffffffffffffffffffffffffffffffff1673ffffffffffffffffffffffffffffffffffffffff1681526020016000820160149054906101000a900460ff16600381111561099157610990611980565b5b60038111156109a3576109a2611980565b5b8152602001600182015481526020016002820180546109c190612376565b80601f01602080910402602001604051908101604052809291908181526020018280546109ed90612376565b8015610a3a5780601f10610a0f57610100808354040283529160200191610a3a565b820191906000526020600020905b815481529060010190602001808311610a1d57829003601f168201915b5050505050815260200160038201548152602001600482015481525050815250509050919050565b600860009054906101000a900473ffffffffffffffffffffffffffffffffffffffff1673ffffffffffffffffffffffffffffffffffffffff166325f11e8d82608001516040518263ffffffff1660e01b8152600401610ac19190611b95565b602060405180830381865afa158015610ade573d6000803e3d6000fd5b505050506040513d601f19601f82011682018060405250810190610b0291906124dc565b610b41576040517f08c379a0000000000000000000000000000000000000000000000000000000008152600401610b3890612630565b60405180910390fd5b60008160a0015111610b88576040517f08c379a0000000000000000000000000000000000000000000000000000000008152600401610b7f906126c2565b60405180910390fd5b60026000815480929190610b9b90612711565b91905055506040518060e001604052806002548152602001600081526020016000815260200142815260200160035442610bd59190612759565b815260200160001515815260200182815250600460006002548152602001908152602001600020600082015181600001556020820151816001015560408201518160020155606082015181600301556080820151816004015560a08201518160050160006101000a81548160ff02191690831515021790555060c08201518160060160008201518160000160006101000a81548173ffffffffffffffffffffffffffffffffffffffff021916908373ffffffffffffffffffffffffffffffffffffffff16021790555060208201518160000160146101000a81548160ff02191690836003811115610cc957610cc8611980565b5b0217905550604082015181600101556060820151816002019081610ced919061292f565b506080820151816003015560a08201518160040155505090505060066002549080600181540180825580915050600190039060005260206000200160009091909190915055806000015173ffffffffffffffffffffffffffffffffffffffff166002547fd8244157bfcd2b10051db9a0c53e954e429355cb86128797a0468e0892b92bf9836060015184602001518560a00151604051610d8f93929190612a3a565b60405180910390a350565b610da2611656565b60008111610de5576040517f08c379a0000000000000000000000000000000000000000000000000000000008152600401610ddc90612aea565b60405180910390fd5b8060038190555050565b610df7611656565b610e01600061172d565b565b600860009054906101000a900473ffffffffffffffffffffffffffffffffffffffff1681565b6000600160009054906101000a900473ffffffffffffffffffffffffffffffffffffffff16905090565b60068181548110610e6357600080fd5b906000526020600020016000915090505481565b6005602052816000526040600020602052806000526040600020600091509150508060000160009054906101000a900460ff16908060000160019054906101000a900460ff16908060010154905083565b60006004600084815260200190815260200160002090508060040154421115610f26576040517f08c379a0000000000000000000000000000000000000000000000000000000008152600401610f1d90612b56565b60405180910390fd5b6005600084815260200190815260200160002060003373ffffffffffffffffffffffffffffffffffffffff1673ffffffffffffffffffffffffffffffffffffffff16815260200190815260200160002060000160009054906101000a900460ff1615610fc7576040517f08c379a0000000000000000000000000000000000000000000000000000000008152600401610fbe90612bc2565b60405180910390fd5b6000600760009054906101000a900473ffffffffffffffffffffffffffffffffffffffff1673ffffffffffffffffffffffffffffffffffffffff166370a08231336040518263ffffffff1660e01b81526004016110249190612060565b602060405180830381865afa158015611041573d6000803e3d6000fd5b505050506040513d601f19601f820116820180604052508101906110659190612bf7565b9050600081116110aa576040517f08c379a00000000000000000000000000000000000000000000000000000000081526004016110a190612c70565b60405180910390fd5b60405180606001604052806001151581526020018415158152602001828152506005600086815260200190815260200160002060003373ffffffffffffffffffffffffffffffffffffffff1673ffffffffffffffffffffffffffffffffffffffff16815260200190815260200160002060008201518160000160006101000a81548160ff02191690831515021790555060208201518160000160016101000a81548160ff02191690831515021790555060408201518160010155905050821561118d57808260010160008282546111819190612759565b925050819055506111a9565b808260020160008282546111a19190612759565b925050819055505b833373ffffffffffffffffffffffffffffffffffffffff167f877856338e13f63d0c36822ff0ef736b80934cd90574a3a5bc9262c39d217c4685846040516111f2929190612c90565b60405180910390a350505050565b6060600060068054905067ffffffffffffffff81111561122357611222611d85565b5b60405190808252806020026020018201604052801561125c57816020015b6112496117fb565b8152602001906001900390816112415790505b50905060005b60068054905081101561147857600460006006838154811061128757611286612cb9565b5b906000526020600020015481526020019081526020016000206040518060e001604052908160008201548152602001600182015481526020016002820154815260200160038201548152602001600482015481526020016005820160009054906101000a900460ff16151515158152602001600682016040518060c00160405290816000820160009054906101000a900473ffffffffffffffffffffffffffffffffffffffff1673ffffffffffffffffffffffffffffffffffffffff1673ffffffffffffffffffffffffffffffffffffffff1681526020016000820160149054906101000a900460ff16600381111561138357611382611980565b5b600381111561139557611394611980565b5b8152602001600182015481526020016002820180546113b390612376565b80601f01602080910402602001604051908101604052809291908181526020018280546113df90612376565b801561142c5780601f106114015761010080835404028352916020019161142c565b820191906000526020600020905b81548152906001019060200180831161140f57829003601f168201915b5050505050815260200160038201548152602001600482015481525050815250508282815181106114605761145f612cb9565b5b60200260200101819052508080600101915050611262565b508091505090565b611488611656565b600073ffffffffffffffffffffffffffffffffffffffff168173ffffffffffffffffffffffffffffffffffffffff16146114f7576040517f08c379a00000000000000000000000000000000000000000000000000000000081526004016114ee90612d34565b60405180910390fd5b600073ffffffffffffffffffffffffffffffffffffffff168173ffffffffffffffffffffffffffffffffffffffff1603611566576040517f08c379a000000000000000000000000000000000000000000000000000000000815260040161155d90612dc6565b60405180910390fd5b80600960006101000a81548173ffffffffffffffffffffffffffffffffffffffff021916908373ffffffffffffffffffffffffffffffffffffffff16021790555050565b6115b2611656565b600073ffffffffffffffffffffffffffffffffffffffff168173ffffffffffffffffffffffffffffffffffffffff16036116245760006040517f1e4fbdf700000000000000000000000000000000000000000000000000000000815260040161161b9190612060565b60405180910390fd5b61162d8161172d565b50565b600760009054906101000a900473ffffffffffffffffffffffffffffffffffffffff1681565b61165e6117f3565b73ffffffffffffffffffffffffffffffffffffffff1661167c610e29565b73ffffffffffffffffffffffffffffffffffffffff16146116db5761169f6117f3565b6040517f118cdaa70000000000000000000000000000000000000000000000000000000081526004016116d29190612060565b60405180910390fd5b565b600260005403611719576040517f3ee5aeb500000000000000000000000000000000000000000000000000000000815260040160405180910390fd5b6002600081905550565b6001600081905550565b6000600160009054906101000a900473ffffffffffffffffffffffffffffffffffffffff16905081600160006101000a81548173ffffffffffffffffffffffffffffffffffffffff021916908373ffffffffffffffffffffffffffffffffffffffff1602179055508173ffffffffffffffffffffffffffffffffffffffff168173ffffffffffffffffffffffffffffffffffffffff167f8be0079c531659141344cd1fd0a4f28419497f9722a3daafe3b4186f6b6457e060405160405180910390a35050565b600033905090565b6040518060e00160405280600081526020016000815260200160008152602001600081526020016000815260200160001515815260200161183a611840565b81525090565b6040518060c00160405280600073ffffffffffffffffffffffffffffffffffffffff1681526020016000600381111561187c5761187b611980565b5b8152602001600081526020016060815260200160008152602001600081525090565b6000604051905090565b600080fd5b600080fd5b6000819050919050565b6118c5816118b2565b81146118d057600080fd5b50565b6000813590506118e2816118bc565b92915050565b6000602082840312156118fe576118fd6118a8565b5b600061190c848285016118d3565b91505092915050565b61191e816118b2565b82525050565b60008115159050919050565b61193981611924565b82525050565b600073ffffffffffffffffffffffffffffffffffffffff82169050919050565b600061196a8261193f565b9050919050565b61197a8161195f565b82525050565b7f4e487b7100000000000000000000000000000000000000000000000000000000600052602160045260246000fd5b600481106119c0576119bf611980565b5b50565b60008190506119d1826119af565b919050565b60006119e1826119c3565b9050919050565b6119f1816119d6565b82525050565b611a00816118b2565b82525050565b600081519050919050565b600082825260208201905092915050565b60005b83811015611a40578082015181840152602081019050611a25565b60008484015250505050565b6000601f19601f8301169050919050565b6000611a6882611a06565b611a728185611a11565b9350611a82818560208601611a22565b611a8b81611a4c565b840191505092915050565b600060c083016000830151611aae6000860182611971565b506020830151611ac160208601826119e8565b506040830151611ad460408601826119f7565b5060608301518482036060860152611aec8282611a5d565b9150506080830151611b0160808601826119f7565b5060a0830151611b1460a08601826119f7565b508091505092915050565b600060e082019050611b34600083018a611915565b611b416020830189611915565b611b4e6040830188611915565b611b5b6060830187611915565b611b686080830186611915565b611b7560a0830185611930565b81810360c0830152611b878184611a96565b905098975050505050505050565b6000602082019050611baa6000830184611915565b92915050565b6000819050919050565b6000611bd5611bd0611bcb8461193f565b611bb0565b61193f565b9050919050565b6000611be782611bba565b9050919050565b6000611bf982611bdc565b9050919050565b611c0981611bee565b82525050565b6000602082019050611c246000830184611c00565b92915050565b611c3381611924565b82525050565b600060c083016000830151611c516000860182611971565b506020830151611c6460208601826119e8565b506040830151611c7760408601826119f7565b5060608301518482036060860152611c8f8282611a5d565b9150506080830151611ca460808601826119f7565b5060a0830151611cb760a08601826119f7565b508091505092915050565b600060e083016000830151611cda60008601826119f7565b506020830151611ced60208601826119f7565b506040830151611d0060408601826119f7565b506060830151611d1360608601826119f7565b506080830151611d2660808601826119f7565b5060a0830151611d3960a0860182611c2a565b5060c083015184820360c0860152611d518282611c39565b9150508091505092915050565b60006020820190508181036000830152611d788184611cc2565b905092915050565b600080fd5b7f4e487b7100000000000000000000000000000000000000000000000000000000600052604160045260246000fd5b611dbd82611a4c565b810181811067ffffffffffffffff82111715611ddc57611ddb611d85565b5b80604052505050565b6000611def61189e565b9050611dfb8282611db4565b919050565b600080fd5b611e0e8161195f565b8114611e1957600080fd5b50565b600081359050611e2b81611e05565b92915050565b60048110611e3e57600080fd5b50565b600081359050611e5081611e31565b92915050565b600080fd5b600080fd5b600067ffffffffffffffff821115611e7b57611e7a611d85565b5b611e8482611a4c565b9050602081019050919050565b82818337600083830152505050565b6000611eb3611eae84611e60565b611de5565b905082815260208101848484011115611ecf57611ece611e5b565b5b611eda848285611e91565b509392505050565b600082601f830112611ef757611ef6611e56565b5b8135611f07848260208601611ea0565b91505092915050565b600060c08284031215611f2657611f25611d80565b5b611f3060c0611de5565b90506000611f4084828501611e1c565b6000830152506020611f5484828501611e41565b6020830152506040611f68848285016118d3565b604083015250606082013567ffffffffffffffff811115611f8c57611f8b611e00565b5b611f9884828501611ee2565b6060830152506080611fac848285016118d3565b60808301525060a0611fc0848285016118d3565b60a08301525092915050565b600060208284031215611fe257611fe16118a8565b5b600082013567ffffffffffffffff81111561200057611fff6118ad565b5b61200c84828501611f10565b91505092915050565b600061202082611bdc565b9050919050565b61203081612015565b82525050565b600060208201905061204b6000830184612027565b92915050565b61205a8161195f565b82525050565b60006020820190506120756000830184612051565b92915050565b60008060408385031215612092576120916118a8565b5b60006120a0858286016118d3565b92505060206120b185828601611e1c565b9150509250929050565b60006060820190506120d06000830186611930565b6120dd6020830185611930565b6120ea6040830184611915565b949350505050565b6120fb81611924565b811461210657600080fd5b50565b600081359050612118816120f2565b92915050565b60008060408385031215612135576121346118a8565b5b6000612143858286016118d3565b925050602061215485828601612109565b9150509250929050565b600081519050919050565b600082825260208201905092915050565b6000819050602082019050919050565b600060e0830160008301516121a260008601826119f7565b5060208301516121b560208601826119f7565b5060408301516121c860408601826119f7565b5060608301516121db60608601826119f7565b5060808301516121ee60808601826119f7565b5060a083015161220160a0860182611c2a565b5060c083015184820360c08601526122198282611c39565b9150508091505092915050565b6000612232838361218a565b905092915050565b6000602082019050919050565b60006122528261215e565b61225c8185612169565b93508360208202850161226e8561217a565b8060005b858110156122aa578484038952815161228b8582612226565b94506122968361223a565b925060208a01995050600181019050612272565b50829750879550505050505092915050565b600060208201905081810360008301526122d68184612247565b905092915050565b6000602082840312156122f4576122f36118a8565b5b600061230284828501611e1c565b91505092915050565b600061231682611bdc565b9050919050565b6123268161230b565b82525050565b6000602082019050612341600083018461231d565b92915050565b7f4e487b7100000000000000000000000000000000000000000000000000000000600052602260045260246000fd5b6000600282049050600182168061238e57607f821691505b6020821081036123a1576123a0612347565b5b50919050565b600082825260208201905092915050565b7f566f74696e6720706572696f64206973207374696c6c20616374697665000000600082015250565b60006123ee601d836123a7565b91506123f9826123b8565b602082019050919050565b6000602082019050818103600083015261241d816123e1565b9050919050565b7f50726f706f73616c20616c726561647920657865637574656400000000000000600082015250565b600061245a6019836123a7565b915061246582612424565b602082019050919050565b600060208201905081810360008301526124898161244d565b9050919050565b60006060820190506124a56000830186611915565b6124b26020830185611915565b6124bf6040830184612051565b949350505050565b6000815190506124d6816120f2565b92915050565b6000602082840312156124f2576124f16118a8565b5b6000612500848285016124c7565b91505092915050565b7f4572726f7220436c61696d696e67207061790000000000000000000000000000600082015250565b600061253f6012836123a7565b915061254a82612509565b602082019050919050565b6000602082019050818103600083015261256e81612532565b9050919050565b61257e816119d6565b82525050565b60006080820190506125996000830187612051565b6125a66020830186611915565b6125b36040830185612575565b6125c06060830184611915565b95945050505050565b60006020820190506125de6000830184611930565b92915050565b7f506f6f6c20646f6573206e6f7420657869737400000000000000000000000000600082015250565b600061261a6013836123a7565b9150612625826125e4565b602082019050919050565b600060208201905081810360008301526126498161260d565b9050919050565b7f436c61696d20616d6f756e74206d75737420626520677265617465722074686160008201527f6e20300000000000000000000000000000000000000000000000000000000000602082015250565b60006126ac6023836123a7565b91506126b782612650565b604082019050919050565b600060208201905081810360008301526126db8161269f565b9050919050565b7f4e487b7100000000000000000000000000000000000000000000000000000000600052601160045260246000fd5b600061271c826118b2565b91507fffffffffffffffffffffffffffffffffffffffffffffffffffffffffffffffff820361274e5761274d6126e2565b5b600182019050919050565b6000612764826118b2565b915061276f836118b2565b9250828201905080821115612787576127866126e2565b5b92915050565b60008190508160005260206000209050919050565b60006020601f8301049050919050565b600082821b905092915050565b6000600883026127ef7fffffffffffffffffffffffffffffffffffffffffffffffffffffffffffffffff826127b2565b6127f986836127b2565b95508019841693508086168417925050509392505050565b600061282c612827612822846118b2565b611bb0565b6118b2565b9050919050565b6000819050919050565b61284683612811565b61285a61285282612833565b8484546127bf565b825550505050565b600090565b61286f612862565b61287a81848461283d565b505050565b5b8181101561289e57612893600082612867565b600181019050612880565b5050565b601f8211156128e3576128b48161278d565b6128bd846127a2565b810160208510156128cc578190505b6128e06128d8856127a2565b83018261287f565b50505b505050565b600082821c905092915050565b6000612906600019846008026128e8565b1980831691505092915050565b600061291f83836128f5565b9150826002028217905092915050565b61293882611a06565b67ffffffffffffffff81111561295157612950611d85565b5b61295b8254612376565b6129668282856128a2565b600060209050601f8311600181146129995760008415612987578287015190505b6129918582612913565b8655506129f9565b601f1984166129a78661278d565b60005b828110156129cf578489015182556001820191506020850194506020810190506129aa565b868310156129ec57848901516129e8601f8916826128f5565b8355505b6001600288020188555050505b505050505050565b6000612a0c82611a06565b612a1681856123a7565b9350612a26818560208601611a22565b612a2f81611a4c565b840191505092915050565b60006060820190508181036000830152612a548186612a01565b9050612a636020830185612575565b612a706040830184611915565b949350505050565b7f566f74696e67206475726174696f6e206d75737420626520677265617465722060008201527f7468616e20300000000000000000000000000000000000000000000000000000602082015250565b6000612ad46026836123a7565b9150612adf82612a78565b604082019050919050565b60006020820190508181036000830152612b0381612ac7565b9050919050565b7f566f74696e6720706572696f642068617320656e646564000000000000000000600082015250565b6000612b406017836123a7565b9150612b4b82612b0a565b602082019050919050565b60006020820190508181036000830152612b6f81612b33565b9050919050565b7f416c726561647920766f74656400000000000000000000000000000000000000600082015250565b6000612bac600d836123a7565b9150612bb782612b76565b602082019050919050565b60006020820190508181036000830152612bdb81612b9f565b9050919050565b600081519050612bf1816118bc565b92915050565b600060208284031215612c0d57612c0c6118a8565b5b6000612c1b84828501612be2565b91505092915050565b7f4e6f20766f74696e672077656967687400000000000000000000000000000000600082015250565b6000612c5a6010836123a7565b9150612c6582612c24565b602082019050919050565b60006020820190508181036000830152612c8981612c4d565b9050919050565b6000604082019050612ca56000830185611930565b612cb26020830184611915565b9392505050565b7f4e487b7100000000000000000000000000000000000000000000000000000000600052603260045260246000fd5b7f476f7665726e616e636520616c72656164792073657400000000000000000000600082015250565b6000612d1e6016836123a7565b9150612d2982612ce8565b602082019050919050565b60006020820190508181036000830152612d4d81612d11565b9050919050565b7f476f7665726e616e636520616464726573732063616e6e6f74206265207a657260008201527f6f00000000000000000000000000000000000000000000000000000000000000602082015250565b6000612db06021836123a7565b9150612dbb82612d54565b604082019050919050565b60006020820190508181036000830152612ddf81612da3565b905091905056fea264697066735822122076f622acec2313e488d2d0c041ed1b91876abb76e9fabd88b9451bf98c267bff64736f6c63430008180033",
  "linkReferences": {},
  "deployedLinkReferences": {}
}