{
  "_format": "hh-sol-artifact-1",
  "contractName": "Governance",
  "sourceName": "contracts/Gov.sol",
  "abi": [
    {
      "inputs": [
        {
          "internalType": "address",
          "name": "_governanceToken",
          "type": "address"
        },
        {
          "internalType": "address",
          "name": "_insurancePool",
          "type": "address"
        },
        {
          "internalType": "uint256",
          "name": "_votingDuration",
          "type": "uint256"
        },
        {
          "internalType": "address",
          "name": "_initialOwner",
          "type": "address"
        }
      ],
      "stateMutability": "nonpayable",
      "type": "constructor"
    },
    {
      "inputs": [
        {
          "internalType": "address",
          "name": "owner",
          "type": "address"
        }
      ],
      "name": "OwnableInvalidOwner",
      "type": "error"
    },
    {
      "inputs": [
        {
          "internalType": "address",
          "name": "account",
          "type": "address"
        }
      ],
      "name": "OwnableUnauthorizedAccount",
      "type": "error"
    },
    {
      "inputs": [],
      "name": "ReentrancyGuardReentrantCall",
      "type": "error"
    },
    {
      "anonymous": false,
      "inputs": [
        {
          "indexed": true,
          "internalType": "address",
          "name": "previousOwner",
          "type": "address"
        },
        {
          "indexed": true,
          "internalType": "address",
          "name": "newOwner",
          "type": "address"
        }
      ],
      "name": "OwnershipTransferred",
      "type": "event"
    },
    {
      "anonymous": false,
      "inputs": [
        {
          "indexed": true,
          "internalType": "uint256",
          "name": "proposalId",
          "type": "uint256"
        },
        {
          "indexed": true,
          "internalType": "address",
          "name": "creator",
          "type": "address"
        },
        {
          "indexed": false,
          "internalType": "string",
          "name": "description",
          "type": "string"
        },
        {
          "indexed": false,
          "internalType": "enum CoverLib.RiskType",
          "name": "riskType",
          "type": "uint8"
        },
        {
          "indexed": false,
          "internalType": "uint256",
          "name": "claimAmount",
          "type": "uint256"
        }
      ],
      "name": "ProposalCreated",
      "type": "event"
    },
    {
      "anonymous": false,
      "inputs": [
        {
          "indexed": true,
          "internalType": "uint256",
          "name": "proposalId",
          "type": "uint256"
        },
        {
          "indexed": false,
          "internalType": "bool",
          "name": "approved",
          "type": "bool"
        }
      ],
      "name": "ProposalExecuted",
      "type": "event"
    },
    {
      "anonymous": false,
      "inputs": [
        {
          "indexed": true,
          "internalType": "address",
          "name": "voter",
          "type": "address"
        },
        {
          "indexed": true,
          "internalType": "uint256",
          "name": "proposalId",
          "type": "uint256"
        },
        {
          "indexed": false,
          "internalType": "bool",
          "name": "vote",
          "type": "bool"
        },
        {
          "indexed": false,
          "internalType": "uint256",
          "name": "weight",
          "type": "uint256"
        }
      ],
      "name": "VoteCast",
      "type": "event"
    },
    {
      "inputs": [],
      "name": "coverContract",
      "outputs": [
        {
          "internalType": "contract ICover",
          "name": "",
          "type": "address"
        }
      ],
      "stateMutability": "view",
      "type": "function"
    },
    {
      "inputs": [
        {
          "components": [
            {
              "internalType": "address",
              "name": "user",
              "type": "address"
            },
            {
              "internalType": "enum CoverLib.RiskType",
              "name": "riskType",
              "type": "uint8"
            },
            {
              "internalType": "uint256",
              "name": "coverId",
              "type": "uint256"
            },
            {
              "internalType": "string",
              "name": "description",
              "type": "string"
            },
            {
              "internalType": "uint256",
              "name": "poolId",
              "type": "uint256"
            },
            {
              "internalType": "uint256",
              "name": "claimAmount",
              "type": "uint256"
            }
          ],
          "internalType": "struct Governance.ProposalParams",
          "name": "params",
          "type": "tuple"
        }
      ],
      "name": "createProposal",
      "outputs": [],
      "stateMutability": "nonpayable",
      "type": "function"
    },
    {
      "inputs": [
        {
          "internalType": "uint256",
          "name": "_proposalId",
          "type": "uint256"
        }
      ],
      "name": "executeProposal",
      "outputs": [],
      "stateMutability": "nonpayable",
      "type": "function"
    },
    {
      "inputs": [],
      "name": "getAllProposals",
      "outputs": [
        {
          "components": [
            {
              "internalType": "uint256",
              "name": "id",
              "type": "uint256"
            },
            {
              "internalType": "uint256",
              "name": "votesFor",
              "type": "uint256"
            },
            {
              "internalType": "uint256",
              "name": "votesAgainst",
              "type": "uint256"
            },
            {
              "internalType": "uint256",
              "name": "createdAt",
              "type": "uint256"
            },
            {
              "internalType": "uint256",
              "name": "deadline",
              "type": "uint256"
            },
            {
              "internalType": "bool",
              "name": "executed",
              "type": "bool"
            },
            {
              "components": [
                {
                  "internalType": "address",
                  "name": "user",
                  "type": "address"
                },
                {
                  "internalType": "enum CoverLib.RiskType",
                  "name": "riskType",
                  "type": "uint8"
                },
                {
                  "internalType": "uint256",
                  "name": "coverId",
                  "type": "uint256"
                },
                {
                  "internalType": "string",
                  "name": "description",
                  "type": "string"
                },
                {
                  "internalType": "uint256",
                  "name": "poolId",
                  "type": "uint256"
                },
                {
                  "internalType": "uint256",
                  "name": "claimAmount",
                  "type": "uint256"
                }
              ],
              "internalType": "struct Governance.ProposalParams",
              "name": "proposalParam",
              "type": "tuple"
            }
          ],
          "internalType": "struct Governance.Proposal[]",
          "name": "",
          "type": "tuple[]"
        }
      ],
      "stateMutability": "view",
      "type": "function"
    },
    {
      "inputs": [
        {
          "internalType": "uint256",
          "name": "_proposalId",
          "type": "uint256"
        }
      ],
      "name": "getProposalDetails",
      "outputs": [
        {
          "components": [
            {
              "internalType": "uint256",
              "name": "id",
              "type": "uint256"
            },
            {
              "internalType": "uint256",
              "name": "votesFor",
              "type": "uint256"
            },
            {
              "internalType": "uint256",
              "name": "votesAgainst",
              "type": "uint256"
            },
            {
              "internalType": "uint256",
              "name": "createdAt",
              "type": "uint256"
            },
            {
              "internalType": "uint256",
              "name": "deadline",
              "type": "uint256"
            },
            {
              "internalType": "bool",
              "name": "executed",
              "type": "bool"
            },
            {
              "components": [
                {
                  "internalType": "address",
                  "name": "user",
                  "type": "address"
                },
                {
                  "internalType": "enum CoverLib.RiskType",
                  "name": "riskType",
                  "type": "uint8"
                },
                {
                  "internalType": "uint256",
                  "name": "coverId",
                  "type": "uint256"
                },
                {
                  "internalType": "string",
                  "name": "description",
                  "type": "string"
                },
                {
                  "internalType": "uint256",
                  "name": "poolId",
                  "type": "uint256"
                },
                {
                  "internalType": "uint256",
                  "name": "claimAmount",
                  "type": "uint256"
                }
              ],
              "internalType": "struct Governance.ProposalParams",
              "name": "proposalParam",
              "type": "tuple"
            }
          ],
          "internalType": "struct Governance.Proposal",
          "name": "",
          "type": "tuple"
        }
      ],
      "stateMutability": "view",
      "type": "function"
    },
    {
      "inputs": [],
      "name": "governanceToken",
      "outputs": [
        {
          "internalType": "contract IERC20",
          "name": "",
          "type": "address"
        }
      ],
      "stateMutability": "view",
      "type": "function"
    },
    {
      "inputs": [],
      "name": "lpContract",
      "outputs": [
        {
          "internalType": "contract ILP",
          "name": "",
          "type": "address"
        }
      ],
      "stateMutability": "view",
      "type": "function"
    },
    {
      "inputs": [],
      "name": "owner",
      "outputs": [
        {
          "internalType": "address",
          "name": "",
          "type": "address"
        }
      ],
      "stateMutability": "view",
      "type": "function"
    },
    {
      "inputs": [],
      "name": "proposalCounter",
      "outputs": [
        {
          "internalType": "uint256",
          "name": "",
          "type": "uint256"
        }
      ],
      "stateMutability": "view",
      "type": "function"
    },
    {
      "inputs": [
        {
          "internalType": "uint256",
          "name": "",
          "type": "uint256"
        }
      ],
      "name": "proposalIds",
      "outputs": [
        {
          "internalType": "uint256",
          "name": "",
          "type": "uint256"
        }
      ],
      "stateMutability": "view",
      "type": "function"
    },
    {
      "inputs": [
        {
          "internalType": "uint256",
          "name": "",
          "type": "uint256"
        }
      ],
      "name": "proposals",
      "outputs": [
        {
          "internalType": "uint256",
          "name": "id",
          "type": "uint256"
        },
        {
          "internalType": "uint256",
          "name": "votesFor",
          "type": "uint256"
        },
        {
          "internalType": "uint256",
          "name": "votesAgainst",
          "type": "uint256"
        },
        {
          "internalType": "uint256",
          "name": "createdAt",
          "type": "uint256"
        },
        {
          "internalType": "uint256",
          "name": "deadline",
          "type": "uint256"
        },
        {
          "internalType": "bool",
          "name": "executed",
          "type": "bool"
        },
        {
          "components": [
            {
              "internalType": "address",
              "name": "user",
              "type": "address"
            },
            {
              "internalType": "enum CoverLib.RiskType",
              "name": "riskType",
              "type": "uint8"
            },
            {
              "internalType": "uint256",
              "name": "coverId",
              "type": "uint256"
            },
            {
              "internalType": "string",
              "name": "description",
              "type": "string"
            },
            {
              "internalType": "uint256",
              "name": "poolId",
              "type": "uint256"
            },
            {
              "internalType": "uint256",
              "name": "claimAmount",
              "type": "uint256"
            }
          ],
          "internalType": "struct Governance.ProposalParams",
          "name": "proposalParam",
          "type": "tuple"
        }
      ],
      "stateMutability": "view",
      "type": "function"
    },
    {
      "inputs": [],
      "name": "renounceOwnership",
      "outputs": [],
      "stateMutability": "nonpayable",
      "type": "function"
    },
    {
      "inputs": [
        {
          "internalType": "address",
          "name": "_coverContract",
          "type": "address"
        }
      ],
      "name": "setCoverContract",
      "outputs": [],
      "stateMutability": "nonpayable",
      "type": "function"
    },
    {
      "inputs": [
        {
          "internalType": "uint256",
          "name": "_newDuration",
          "type": "uint256"
        }
      ],
      "name": "setVotingDuration",
      "outputs": [],
      "stateMutability": "nonpayable",
      "type": "function"
    },
    {
      "inputs": [
        {
          "internalType": "address",
          "name": "newOwner",
          "type": "address"
        }
      ],
      "name": "transferOwnership",
      "outputs": [],
      "stateMutability": "nonpayable",
      "type": "function"
    },
    {
      "inputs": [
        {
          "internalType": "uint256",
          "name": "_proposalId",
          "type": "uint256"
        },
        {
          "internalType": "bool",
          "name": "_vote",
          "type": "bool"
        }
      ],
      "name": "vote",
      "outputs": [],
      "stateMutability": "nonpayable",
      "type": "function"
    },
    {
      "inputs": [
        {
          "internalType": "uint256",
          "name": "",
          "type": "uint256"
        },
        {
          "internalType": "address",
          "name": "",
          "type": "address"
        }
      ],
      "name": "voters",
      "outputs": [
        {
          "internalType": "bool",
          "name": "voted",
          "type": "bool"
        },
        {
          "internalType": "bool",
          "name": "vote",
          "type": "bool"
        },
        {
          "internalType": "uint256",
          "name": "weight",
          "type": "uint256"
        }
      ],
      "stateMutability": "view",
      "type": "function"
    },
    {
      "inputs": [],
      "name": "votingDuration",
      "outputs": [
        {
          "internalType": "uint256",
          "name": "",
          "type": "uint256"
        }
      ],
      "stateMutability": "view",
      "type": "function"
    }
  ],
  "bytecode": "0x60806040523480156200001157600080fd5b50604051620031f7380380620031f78339818101604052810190620000379190620002d5565b806001600081905550600073ffffffffffffffffffffffffffffffffffffffff168173ffffffffffffffffffffffffffffffffffffffff1603620000b55760006040517f1e4fbdf7000000000000000000000000000000000000000000000000000000008152600401620000ac919062000358565b60405180910390fd5b620000c6816200016a60201b60201c565b5083600760006101000a81548173ffffffffffffffffffffffffffffffffffffffff021916908373ffffffffffffffffffffffffffffffffffffffff16021790555082600860006101000a81548173ffffffffffffffffffffffffffffffffffffffff021916908373ffffffffffffffffffffffffffffffffffffffff16021790555062015180826200015a9190620003a4565b60038190555050505050620003ef565b6000600160009054906101000a900473ffffffffffffffffffffffffffffffffffffffff16905081600160006101000a81548173ffffffffffffffffffffffffffffffffffffffff021916908373ffffffffffffffffffffffffffffffffffffffff1602179055508173ffffffffffffffffffffffffffffffffffffffff168173ffffffffffffffffffffffffffffffffffffffff167f8be0079c531659141344cd1fd0a4f28419497f9722a3daafe3b4186f6b6457e060405160405180910390a35050565b600080fd5b600073ffffffffffffffffffffffffffffffffffffffff82169050919050565b6000620002628262000235565b9050919050565b620002748162000255565b81146200028057600080fd5b50565b600081519050620002948162000269565b92915050565b6000819050919050565b620002af816200029a565b8114620002bb57600080fd5b50565b600081519050620002cf81620002a4565b92915050565b60008060008060808587031215620002f257620002f162000230565b5b6000620003028782880162000283565b9450506020620003158782880162000283565b93505060406200032887828801620002be565b92505060606200033b8782880162000283565b91505092959194509250565b620003528162000255565b82525050565b60006020820190506200036f600083018462000347565b92915050565b7f4e487b7100000000000000000000000000000000000000000000000000000000600052601160045260246000fd5b6000620003b1826200029a565b9150620003be836200029a565b9250828202620003ce816200029a565b91508282048414831517620003e857620003e762000375565b5b5092915050565b612df880620003ff6000396000f3fe608060405234801561001057600080fd5b50600436106101165760003560e01c80638acee3cf116100a2578063c9d27afe11610071578063c9d27afe146102d7578063cceb68f5146102f3578063ee5424ab14610311578063f2fde38b1461032d578063f96dae0a1461034957610116565b80638acee3cf146102395780638da5cb5b146102575780639b644a23146102755780639e319063146102a557610116565b8063248a75b7116100e9578063248a75b7146101a95780633b4d01a7146101c7578063593a41c9146101f75780635bcfadb514610213578063715018a61461022f57610116565b8063013cf08b1461011b5780630c0512e9146101515780630d61b5191461016f578063132002fc1461018b575b600080fd5b610135600480360381019061013091906118d2565b610367565b6040516101489796959493929190611b09565b60405180910390f35b610159610501565b6040516101669190611b7f565b60405180910390f35b610189600480360381019061018491906118d2565b610507565b005b610193610851565b6040516101a09190611b7f565b60405180910390f35b6101b1610857565b6040516101be9190611bf9565b60405180910390f35b6101e160048036038101906101dc91906118d2565b61087d565b6040516101ee9190611d48565b60405180910390f35b610211600480360381019061020c9190611fb6565b610a4c565b005b61022d600480360381019061022891906118d2565b610d84565b005b610237610dd9565b005b610241610ded565b60405161024e9190612020565b60405180910390f35b61025f610e13565b60405161026c919061204a565b60405180910390f35b61028f600480360381019061028a91906118d2565b610e3d565b60405161029c9190611b7f565b60405180910390f35b6102bf60048036038101906102ba9190612065565b610e61565b6040516102ce939291906120a5565b60405180910390f35b6102f160048036038101906102ec9190612108565b610eb2565b005b6102fb6111ea565b60405161030891906122a6565b60405180910390f35b61032b600480360381019061032691906122c8565b61146a565b005b610347600480360381019061034291906122c8565b611594565b005b61035161161a565b60405161035e9190612316565b60405180910390f35b60046020528060005260406000206000915090508060000154908060010154908060020154908060030154908060040154908060050160009054906101000a900460ff1690806006016040518060c00160405290816000820160009054906101000a900473ffffffffffffffffffffffffffffffffffffffff1673ffffffffffffffffffffffffffffffffffffffff1673ffffffffffffffffffffffffffffffffffffffff1681526020016000820160149054906101000a900460ff1660038111156104365761043561196a565b5b60038111156104485761044761196a565b5b81526020016001820154815260200160028201805461046690612360565b80601f016020809104026020016040519081016040528092919081815260200182805461049290612360565b80156104df5780601f106104b4576101008083540402835291602001916104df565b820191906000526020600020905b8154815290600101906020018083116104c257829003601f168201915b5050505050815260200160038201548152602001600482015481525050905087565b60025481565b61050f611640565b6105176116c7565b600060046000838152602001908152602001600020905080600401544211610574576040517f08c379a000000000000000000000000000000000000000000000000000000000815260040161056b906123ee565b60405180910390fd5b8060050160009054906101000a900460ff16156105c6576040517f08c379a00000000000000000000000000000000000000000000000000000000081526004016105bd9061245a565b60405180910390fd5b60018160050160006101000a81548160ff02191690831515021790555080600201548160010154111561080b57600860009054906101000a900473ffffffffffffffffffffffffffffffffffffffff1673ffffffffffffffffffffffffffffffffffffffff166347fea81e826006016003015483600601600401548460060160000160009054906101000a900473ffffffffffffffffffffffffffffffffffffffff166040518463ffffffff1660e01b81526004016106879392919061247a565b602060405180830381865afa1580156106a4573d6000803e3d6000fd5b505050506040513d601f19601f820116820180604052508101906106c891906124c6565b610707576040517f08c379a00000000000000000000000000000000000000000000000000000000081526004016106fe9061253f565b60405180910390fd5b600960009054906101000a900473ffffffffffffffffffffffffffffffffffffffff1673ffffffffffffffffffffffffffffffffffffffff16637ceb4a698260060160000160009054906101000a900473ffffffffffffffffffffffffffffffffffffffff16836006016001015484600601600401546040518463ffffffff1660e01b815260040161079b9392919061255f565b600060405180830381600087803b1580156107b557600080fd5b505af11580156107c9573d6000803e3d6000fd5b50505050817f948f4a9cd986f1118c3fbd459f7a22b23c0693e1ca3ef06a6a8be5aa7d39cc0360016040516107fe9190612596565b60405180910390a2610845565b817f948f4a9cd986f1118c3fbd459f7a22b23c0693e1ca3ef06a6a8be5aa7d39cc03600060405161083c9190612596565b60405180910390a25b5061084e61170d565b50565b60035481565b600960009054906101000a900473ffffffffffffffffffffffffffffffffffffffff1681565b6108856117e5565b600460008381526020019081526020016000206040518060e001604052908160008201548152602001600182015481526020016002820154815260200160038201548152602001600482015481526020016005820160009054906101000a900460ff16151515158152602001600682016040518060c00160405290816000820160009054906101000a900473ffffffffffffffffffffffffffffffffffffffff1673ffffffffffffffffffffffffffffffffffffffff1673ffffffffffffffffffffffffffffffffffffffff1681526020016000820160149054906101000a900460ff16600381111561097b5761097a61196a565b5b600381111561098d5761098c61196a565b5b8152602001600182015481526020016002820180546109ab90612360565b80601f01602080910402602001604051908101604052809291908181526020018280546109d790612360565b8015610a245780601f106109f957610100808354040283529160200191610a24565b820191906000526020600020905b815481529060010190602001808311610a0757829003601f168201915b5050505050815260200160038201548152602001600482015481525050815250509050919050565b600860009054906101000a900473ffffffffffffffffffffffffffffffffffffffff1673ffffffffffffffffffffffffffffffffffffffff166325f11e8d82608001516040518263ffffffff1660e01b8152600401610aab9190611b7f565b602060405180830381865afa158015610ac8573d6000803e3d6000fd5b505050506040513d601f19601f82011682018060405250810190610aec91906124c6565b610b2b576040517f08c379a0000000000000000000000000000000000000000000000000000000008152600401610b22906125fd565b60405180910390fd5b60008160a0015111610b72576040517f08c379a0000000000000000000000000000000000000000000000000000000008152600401610b699061268f565b60405180910390fd5b60026000815480929190610b85906126de565b91905055506040518060e001604052806002548152602001600081526020016000815260200142815260200160035442610bbf9190612726565b815260200160001515815260200182815250600460006002548152602001908152602001600020600082015181600001556020820151816001015560408201518160020155606082015181600301556080820151816004015560a08201518160050160006101000a81548160ff02191690831515021790555060c08201518160060160008201518160000160006101000a81548173ffffffffffffffffffffffffffffffffffffffff021916908373ffffffffffffffffffffffffffffffffffffffff16021790555060208201518160000160146101000a81548160ff02191690836003811115610cb357610cb261196a565b5b0217905550604082015181600101556060820151816002019081610cd791906128fc565b506080820151816003015560a08201518160040155505090505060066002549080600181540180825580915050600190039060005260206000200160009091909190915055806000015173ffffffffffffffffffffffffffffffffffffffff166002547fd8244157bfcd2b10051db9a0c53e954e429355cb86128797a0468e0892b92bf9836060015184602001518560a00151604051610d7993929190612a16565b60405180910390a350565b610d8c611640565b60008111610dcf576040517f08c379a0000000000000000000000000000000000000000000000000000000008152600401610dc690612ac6565b60405180910390fd5b8060038190555050565b610de1611640565b610deb6000611717565b565b600860009054906101000a900473ffffffffffffffffffffffffffffffffffffffff1681565b6000600160009054906101000a900473ffffffffffffffffffffffffffffffffffffffff16905090565b60068181548110610e4d57600080fd5b906000526020600020016000915090505481565b6005602052816000526040600020602052806000526040600020600091509150508060000160009054906101000a900460ff16908060000160019054906101000a900460ff16908060010154905083565b60006004600084815260200190815260200160002090508060040154421115610f10576040517f08c379a0000000000000000000000000000000000000000000000000000000008152600401610f0790612b32565b60405180910390fd5b6005600084815260200190815260200160002060003373ffffffffffffffffffffffffffffffffffffffff1673ffffffffffffffffffffffffffffffffffffffff16815260200190815260200160002060000160009054906101000a900460ff1615610fb1576040517f08c379a0000000000000000000000000000000000000000000000000000000008152600401610fa890612b9e565b60405180910390fd5b6000600760009054906101000a900473ffffffffffffffffffffffffffffffffffffffff1673ffffffffffffffffffffffffffffffffffffffff166370a08231336040518263ffffffff1660e01b815260040161100e919061204a565b602060405180830381865afa15801561102b573d6000803e3d6000fd5b505050506040513d601f19601f8201168201806040525081019061104f9190612bd3565b905060008111611094576040517f08c379a000000000000000000000000000000000000000000000000000000000815260040161108b90612c4c565b60405180910390fd5b60405180606001604052806001151581526020018415158152602001828152506005600086815260200190815260200160002060003373ffffffffffffffffffffffffffffffffffffffff1673ffffffffffffffffffffffffffffffffffffffff16815260200190815260200160002060008201518160000160006101000a81548160ff02191690831515021790555060208201518160000160016101000a81548160ff021916908315150217905550604082015181600101559050508215611177578082600101600082825461116b9190612726565b92505081905550611193565b8082600201600082825461118b9190612726565b925050819055505b833373ffffffffffffffffffffffffffffffffffffffff167f877856338e13f63d0c36822ff0ef736b80934cd90574a3a5bc9262c39d217c4685846040516111dc929190612c6c565b60405180910390a350505050565b6060600060068054905067ffffffffffffffff81111561120d5761120c611d6f565b5b60405190808252806020026020018201604052801561124657816020015b6112336117e5565b81526020019060019003908161122b5790505b50905060005b60068054905081101561146257600460006006838154811061127157611270612c95565b5b906000526020600020015481526020019081526020016000206040518060e001604052908160008201548152602001600182015481526020016002820154815260200160038201548152602001600482015481526020016005820160009054906101000a900460ff16151515158152602001600682016040518060c00160405290816000820160009054906101000a900473ffffffffffffffffffffffffffffffffffffffff1673ffffffffffffffffffffffffffffffffffffffff1673ffffffffffffffffffffffffffffffffffffffff1681526020016000820160149054906101000a900460ff16600381111561136d5761136c61196a565b5b600381111561137f5761137e61196a565b5b81526020016001820154815260200160028201805461139d90612360565b80601f01602080910402602001604051908101604052809291908181526020018280546113c990612360565b80156114165780601f106113eb57610100808354040283529160200191611416565b820191906000526020600020905b8154815290600101906020018083116113f957829003601f168201915b50505050508152602001600382015481526020016004820154815250508152505082828151811061144a57611449612c95565b5b6020026020010181905250808060010191505061124c565b508091505090565b611472611640565b600073ffffffffffffffffffffffffffffffffffffffff168173ffffffffffffffffffffffffffffffffffffffff16146114e1576040517f08c379a00000000000000000000000000000000000000000000000000000000081526004016114d890612d10565b60405180910390fd5b600073ffffffffffffffffffffffffffffffffffffffff168173ffffffffffffffffffffffffffffffffffffffff1603611550576040517f08c379a000000000000000000000000000000000000000000000000000000000815260040161154790612da2565b60405180910390fd5b80600960006101000a81548173ffffffffffffffffffffffffffffffffffffffff021916908373ffffffffffffffffffffffffffffffffffffffff16021790555050565b61159c611640565b600073ffffffffffffffffffffffffffffffffffffffff168173ffffffffffffffffffffffffffffffffffffffff160361160e5760006040517f1e4fbdf7000000000000000000000000000000000000000000000000000000008152600401611605919061204a565b60405180910390fd5b61161781611717565b50565b600760009054906101000a900473ffffffffffffffffffffffffffffffffffffffff1681565b6116486117dd565b73ffffffffffffffffffffffffffffffffffffffff16611666610e13565b73ffffffffffffffffffffffffffffffffffffffff16146116c5576116896117dd565b6040517f118cdaa70000000000000000000000000000000000000000000000000000000081526004016116bc919061204a565b60405180910390fd5b565b600260005403611703576040517f3ee5aeb500000000000000000000000000000000000000000000000000000000815260040160405180910390fd5b6002600081905550565b6001600081905550565b6000600160009054906101000a900473ffffffffffffffffffffffffffffffffffffffff16905081600160006101000a81548173ffffffffffffffffffffffffffffffffffffffff021916908373ffffffffffffffffffffffffffffffffffffffff1602179055508173ffffffffffffffffffffffffffffffffffffffff168173ffffffffffffffffffffffffffffffffffffffff167f8be0079c531659141344cd1fd0a4f28419497f9722a3daafe3b4186f6b6457e060405160405180910390a35050565b600033905090565b6040518060e00160405280600081526020016000815260200160008152602001600081526020016000815260200160001515815260200161182461182a565b81525090565b6040518060c00160405280600073ffffffffffffffffffffffffffffffffffffffff168152602001600060038111156118665761186561196a565b5b8152602001600081526020016060815260200160008152602001600081525090565b6000604051905090565b600080fd5b600080fd5b6000819050919050565b6118af8161189c565b81146118ba57600080fd5b50565b6000813590506118cc816118a6565b92915050565b6000602082840312156118e8576118e7611892565b5b60006118f6848285016118bd565b91505092915050565b6119088161189c565b82525050565b60008115159050919050565b6119238161190e565b82525050565b600073ffffffffffffffffffffffffffffffffffffffff82169050919050565b600061195482611929565b9050919050565b61196481611949565b82525050565b7f4e487b7100000000000000000000000000000000000000000000000000000000600052602160045260246000fd5b600481106119aa576119a961196a565b5b50565b60008190506119bb82611999565b919050565b60006119cb826119ad565b9050919050565b6119db816119c0565b82525050565b6119ea8161189c565b82525050565b600081519050919050565b600082825260208201905092915050565b60005b83811015611a2a578082015181840152602081019050611a0f565b60008484015250505050565b6000601f19601f8301169050919050565b6000611a52826119f0565b611a5c81856119fb565b9350611a6c818560208601611a0c565b611a7581611a36565b840191505092915050565b600060c083016000830151611a98600086018261195b565b506020830151611aab60208601826119d2565b506040830151611abe60408601826119e1565b5060608301518482036060860152611ad68282611a47565b9150506080830151611aeb60808601826119e1565b5060a0830151611afe60a08601826119e1565b508091505092915050565b600060e082019050611b1e600083018a6118ff565b611b2b60208301896118ff565b611b3860408301886118ff565b611b4560608301876118ff565b611b5260808301866118ff565b611b5f60a083018561191a565b81810360c0830152611b718184611a80565b905098975050505050505050565b6000602082019050611b9460008301846118ff565b92915050565b6000819050919050565b6000611bbf611bba611bb584611929565b611b9a565b611929565b9050919050565b6000611bd182611ba4565b9050919050565b6000611be382611bc6565b9050919050565b611bf381611bd8565b82525050565b6000602082019050611c0e6000830184611bea565b92915050565b611c1d8161190e565b82525050565b600060c083016000830151611c3b600086018261195b565b506020830151611c4e60208601826119d2565b506040830151611c6160408601826119e1565b5060608301518482036060860152611c798282611a47565b9150506080830151611c8e60808601826119e1565b5060a0830151611ca160a08601826119e1565b508091505092915050565b600060e083016000830151611cc460008601826119e1565b506020830151611cd760208601826119e1565b506040830151611cea60408601826119e1565b506060830151611cfd60608601826119e1565b506080830151611d1060808601826119e1565b5060a0830151611d2360a0860182611c14565b5060c083015184820360c0860152611d3b8282611c23565b9150508091505092915050565b60006020820190508181036000830152611d628184611cac565b905092915050565b600080fd5b7f4e487b7100000000000000000000000000000000000000000000000000000000600052604160045260246000fd5b611da782611a36565b810181811067ffffffffffffffff82111715611dc657611dc5611d6f565b5b80604052505050565b6000611dd9611888565b9050611de58282611d9e565b919050565b600080fd5b611df881611949565b8114611e0357600080fd5b50565b600081359050611e1581611def565b92915050565b60048110611e2857600080fd5b50565b600081359050611e3a81611e1b565b92915050565b600080fd5b600080fd5b600067ffffffffffffffff821115611e6557611e64611d6f565b5b611e6e82611a36565b9050602081019050919050565b82818337600083830152505050565b6000611e9d611e9884611e4a565b611dcf565b905082815260208101848484011115611eb957611eb8611e45565b5b611ec4848285611e7b565b509392505050565b600082601f830112611ee157611ee0611e40565b5b8135611ef1848260208601611e8a565b91505092915050565b600060c08284031215611f1057611f0f611d6a565b5b611f1a60c0611dcf565b90506000611f2a84828501611e06565b6000830152506020611f3e84828501611e2b565b6020830152506040611f52848285016118bd565b604083015250606082013567ffffffffffffffff811115611f7657611f75611dea565b5b611f8284828501611ecc565b6060830152506080611f96848285016118bd565b60808301525060a0611faa848285016118bd565b60a08301525092915050565b600060208284031215611fcc57611fcb611892565b5b600082013567ffffffffffffffff811115611fea57611fe9611897565b5b611ff684828501611efa565b91505092915050565b600061200a82611bc6565b9050919050565b61201a81611fff565b82525050565b60006020820190506120356000830184612011565b92915050565b61204481611949565b82525050565b600060208201905061205f600083018461203b565b92915050565b6000806040838503121561207c5761207b611892565b5b600061208a858286016118bd565b925050602061209b85828601611e06565b9150509250929050565b60006060820190506120ba600083018661191a565b6120c7602083018561191a565b6120d460408301846118ff565b949350505050565b6120e58161190e565b81146120f057600080fd5b50565b600081359050612102816120dc565b92915050565b6000806040838503121561211f5761211e611892565b5b600061212d858286016118bd565b925050602061213e858286016120f3565b9150509250929050565b600081519050919050565b600082825260208201905092915050565b6000819050602082019050919050565b600060e08301600083015161218c60008601826119e1565b50602083015161219f60208601826119e1565b5060408301516121b260408601826119e1565b5060608301516121c560608601826119e1565b5060808301516121d860808601826119e1565b5060a08301516121eb60a0860182611c14565b5060c083015184820360c08601526122038282611c23565b9150508091505092915050565b600061221c8383612174565b905092915050565b6000602082019050919050565b600061223c82612148565b6122468185612153565b93508360208202850161225885612164565b8060005b8581101561229457848403895281516122758582612210565b945061228083612224565b925060208a0199505060018101905061225c565b50829750879550505050505092915050565b600060208201905081810360008301526122c08184612231565b905092915050565b6000602082840312156122de576122dd611892565b5b60006122ec84828501611e06565b91505092915050565b600061230082611bc6565b9050919050565b612310816122f5565b82525050565b600060208201905061232b6000830184612307565b92915050565b7f4e487b7100000000000000000000000000000000000000000000000000000000600052602260045260246000fd5b6000600282049050600182168061237857607f821691505b60208210810361238b5761238a612331565b5b50919050565b600082825260208201905092915050565b7f566f74696e6720706572696f64206973207374696c6c20616374697665000000600082015250565b60006123d8601d83612391565b91506123e3826123a2565b602082019050919050565b60006020820190508181036000830152612407816123cb565b9050919050565b7f50726f706f73616c20616c726561647920657865637574656400000000000000600082015250565b6000612444601983612391565b915061244f8261240e565b602082019050919050565b6000602082019050818103600083015261247381612437565b9050919050565b600060608201905061248f60008301866118ff565b61249c60208301856118ff565b6124a9604083018461203b565b949350505050565b6000815190506124c0816120dc565b92915050565b6000602082840312156124dc576124db611892565b5b60006124ea848285016124b1565b91505092915050565b7f4572726f7220436c61696d696e67207061790000000000000000000000000000600082015250565b6000612529601283612391565b9150612534826124f3565b602082019050919050565b600060208201905081810360008301526125588161251c565b9050919050565b6000606082019050612574600083018661203b565b61258160208301856118ff565b61258e60408301846118ff565b949350505050565b60006020820190506125ab600083018461191a565b92915050565b7f506f6f6c20646f6573206e6f7420657869737400000000000000000000000000600082015250565b60006125e7601383612391565b91506125f2826125b1565b602082019050919050565b60006020820190508181036000830152612616816125da565b9050919050565b7f436c61696d20616d6f756e74206d75737420626520677265617465722074686160008201527f6e20300000000000000000000000000000000000000000000000000000000000602082015250565b6000612679602383612391565b91506126848261261d565b604082019050919050565b600060208201905081810360008301526126a88161266c565b9050919050565b7f4e487b7100000000000000000000000000000000000000000000000000000000600052601160045260246000fd5b60006126e98261189c565b91507fffffffffffffffffffffffffffffffffffffffffffffffffffffffffffffffff820361271b5761271a6126af565b5b600182019050919050565b60006127318261189c565b915061273c8361189c565b9250828201905080821115612754576127536126af565b5b92915050565b60008190508160005260206000209050919050565b60006020601f8301049050919050565b600082821b905092915050565b6000600883026127bc7fffffffffffffffffffffffffffffffffffffffffffffffffffffffffffffffff8261277f565b6127c6868361277f565b95508019841693508086168417925050509392505050565b60006127f96127f46127ef8461189c565b611b9a565b61189c565b9050919050565b6000819050919050565b612813836127de565b61282761281f82612800565b84845461278c565b825550505050565b600090565b61283c61282f565b61284781848461280a565b505050565b5b8181101561286b57612860600082612834565b60018101905061284d565b5050565b601f8211156128b0576128818161275a565b61288a8461276f565b81016020851015612899578190505b6128ad6128a58561276f565b83018261284c565b50505b505050565b600082821c905092915050565b60006128d3600019846008026128b5565b1980831691505092915050565b60006128ec83836128c2565b9150826002028217905092915050565b612905826119f0565b67ffffffffffffffff81111561291e5761291d611d6f565b5b6129288254612360565b61293382828561286f565b600060209050601f8311600181146129665760008415612954578287015190505b61295e85826128e0565b8655506129c6565b601f1984166129748661275a565b60005b8281101561299c57848901518255600182019150602085019450602081019050612977565b868310156129b957848901516129b5601f8916826128c2565b8355505b6001600288020188555050505b505050505050565b60006129d9826119f0565b6129e38185612391565b93506129f3818560208601611a0c565b6129fc81611a36565b840191505092915050565b612a10816119c0565b82525050565b60006060820190508181036000830152612a3081866129ce565b9050612a3f6020830185612a07565b612a4c60408301846118ff565b949350505050565b7f566f74696e67206475726174696f6e206d75737420626520677265617465722060008201527f7468616e20300000000000000000000000000000000000000000000000000000602082015250565b6000612ab0602683612391565b9150612abb82612a54565b604082019050919050565b60006020820190508181036000830152612adf81612aa3565b9050919050565b7f566f74696e6720706572696f642068617320656e646564000000000000000000600082015250565b6000612b1c601783612391565b9150612b2782612ae6565b602082019050919050565b60006020820190508181036000830152612b4b81612b0f565b9050919050565b7f416c726561647920766f74656400000000000000000000000000000000000000600082015250565b6000612b88600d83612391565b9150612b9382612b52565b602082019050919050565b60006020820190508181036000830152612bb781612b7b565b9050919050565b600081519050612bcd816118a6565b92915050565b600060208284031215612be957612be8611892565b5b6000612bf784828501612bbe565b91505092915050565b7f4e6f20766f74696e672077656967687400000000000000000000000000000000600082015250565b6000612c36601083612391565b9150612c4182612c00565b602082019050919050565b60006020820190508181036000830152612c6581612c29565b9050919050565b6000604082019050612c81600083018561191a565b612c8e60208301846118ff565b9392505050565b7f4e487b7100000000000000000000000000000000000000000000000000000000600052603260045260246000fd5b7f476f7665726e616e636520616c72656164792073657400000000000000000000600082015250565b6000612cfa601683612391565b9150612d0582612cc4565b602082019050919050565b60006020820190508181036000830152612d2981612ced565b9050919050565b7f476f7665726e616e636520616464726573732063616e6e6f74206265207a657260008201527f6f00000000000000000000000000000000000000000000000000000000000000602082015250565b6000612d8c602183612391565b9150612d9782612d30565b604082019050919050565b60006020820190508181036000830152612dbb81612d7f565b905091905056fea26469706673582212204d4ec687a1de6e91ddc4b6200c701c19eb0479909850600f388f16af4176100464736f6c63430008180033",
  "linkReferences": {},
  "deployedLinkReferences": {}
}