{
  "_format": "hh-sol-artifact-1",
  "contractName": "InsuranceCover",
  "sourceName": "contracts/InsuranceCover.sol",
  "abi": [
    {
      "inputs": [
        {
          "internalType": "address",
          "name": "_lpContract",
          "type": "address"
        },
        {
          "internalType": "address",
          "name": "_initialOwner",
          "type": "address"
        },
        {
          "internalType": "address",
          "name": "_governace",
          "type": "address"
        }
      ],
      "stateMutability": "nonpayable",
      "type": "constructor"
    },
    {
      "inputs": [],
      "name": "CoverNotAvailable",
      "type": "error"
    },
    {
      "inputs": [],
      "name": "InsufficientPoolBalance",
      "type": "error"
    },
    {
      "inputs": [],
      "name": "InvalidAmount",
      "type": "error"
    },
    {
      "inputs": [],
      "name": "InvalidCoverDuration",
      "type": "error"
    },
    {
      "inputs": [],
      "name": "LpNotActive",
      "type": "error"
    },
    {
      "inputs": [],
      "name": "NoClaimableReward",
      "type": "error"
    },
    {
      "inputs": [
        {
          "internalType": "address",
          "name": "owner",
          "type": "address"
        }
      ],
      "name": "OwnableInvalidOwner",
      "type": "error"
    },
    {
      "inputs": [
        {
          "internalType": "address",
          "name": "account",
          "type": "address"
        }
      ],
      "name": "OwnableUnauthorizedAccount",
      "type": "error"
    },
    {
      "inputs": [],
      "name": "ReentrancyGuardReentrantCall",
      "type": "error"
    },
    {
      "inputs": [],
      "name": "UnsupportedCoverType",
      "type": "error"
    },
    {
      "inputs": [],
      "name": "WrongPool",
      "type": "error"
    },
    {
      "anonymous": false,
      "inputs": [
        {
          "indexed": false,
          "internalType": "string",
          "name": "name",
          "type": "string"
        },
        {
          "indexed": false,
          "internalType": "enum CoverLib.RiskType",
          "name": "riskType",
          "type": "uint8"
        }
      ],
      "name": "CoverCreated",
      "type": "event"
    },
    {
      "anonymous": false,
      "inputs": [
        {
          "indexed": true,
          "internalType": "address",
          "name": "user",
          "type": "address"
        },
        {
          "indexed": false,
          "internalType": "uint256",
          "name": "coverValue",
          "type": "uint256"
        },
        {
          "indexed": false,
          "internalType": "uint256",
          "name": "coverFee",
          "type": "uint256"
        },
        {
          "indexed": false,
          "internalType": "enum CoverLib.RiskType",
          "name": "riskType",
          "type": "uint8"
        }
      ],
      "name": "CoverPurchased",
      "type": "event"
    },
    {
      "anonymous": false,
      "inputs": [
        {
          "indexed": true,
          "internalType": "address",
          "name": "previousOwner",
          "type": "address"
        },
        {
          "indexed": true,
          "internalType": "address",
          "name": "newOwner",
          "type": "address"
        }
      ],
      "name": "OwnershipTransferred",
      "type": "event"
    },
    {
      "anonymous": false,
      "inputs": [
        {
          "indexed": true,
          "internalType": "address",
          "name": "user",
          "type": "address"
        },
        {
          "indexed": true,
          "internalType": "uint256",
          "name": "poolId",
          "type": "uint256"
        },
        {
          "indexed": false,
          "internalType": "uint256",
          "name": "amount",
          "type": "uint256"
        }
      ],
      "name": "PayoutClaimed",
      "type": "event"
    },
    {
      "inputs": [
        {
          "internalType": "address",
          "name": "",
          "type": "address"
        }
      ],
      "name": "NextLpClaimTime",
      "outputs": [
        {
          "internalType": "uint256",
          "name": "",
          "type": "uint256"
        }
      ],
      "stateMutability": "view",
      "type": "function"
    },
    {
      "inputs": [
        {
          "internalType": "uint256",
          "name": "",
          "type": "uint256"
        }
      ],
      "name": "allCovers",
      "outputs": [
        {
          "internalType": "uint256",
          "name": "id",
          "type": "uint256"
        },
        {
          "internalType": "string",
          "name": "coverName",
          "type": "string"
        },
        {
          "internalType": "enum CoverLib.RiskType",
          "name": "riskType",
          "type": "uint8"
        },
        {
          "internalType": "string",
          "name": "chains",
          "type": "string"
        },
        {
          "internalType": "uint256",
          "name": "capacity",
          "type": "uint256"
        },
        {
          "internalType": "uint256",
          "name": "maxAmount",
          "type": "uint256"
        },
        {
          "internalType": "uint256",
          "name": "poolId",
          "type": "uint256"
        }
      ],
      "stateMutability": "view",
      "type": "function"
    },
    {
      "inputs": [
        {
          "internalType": "uint256",
          "name": "_poolId",
          "type": "uint256"
        }
      ],
      "name": "claimPayoutForLP",
      "outputs": [],
      "stateMutability": "nonpayable",
      "type": "function"
    },
    {
      "inputs": [],
      "name": "coverFeeBalance",
      "outputs": [
        {
          "internalType": "uint256",
          "name": "",
          "type": "uint256"
        }
      ],
      "stateMutability": "view",
      "type": "function"
    },
    {
      "inputs": [
        {
          "internalType": "enum CoverLib.RiskType",
          "name": "_riskType",
          "type": "uint8"
        },
        {
          "internalType": "string",
          "name": "_coverName",
          "type": "string"
        },
        {
          "internalType": "string",
          "name": "_chains",
          "type": "string"
        },
        {
          "internalType": "uint256",
          "name": "_capacity",
          "type": "uint256"
        },
        {
          "internalType": "uint256",
          "name": "_poolId",
          "type": "uint256"
        }
      ],
      "name": "createCover",
      "outputs": [],
      "stateMutability": "nonpayable",
      "type": "function"
    },
    {
      "inputs": [],
      "name": "getAllAvailableCovers",
      "outputs": [
        {
          "components": [
            {
              "internalType": "uint256",
              "name": "id",
              "type": "uint256"
            },
            {
              "internalType": "string",
              "name": "coverName",
              "type": "string"
            },
            {
              "internalType": "enum CoverLib.RiskType",
              "name": "riskType",
              "type": "uint8"
            },
            {
              "internalType": "string",
              "name": "chains",
              "type": "string"
            },
            {
              "internalType": "uint256",
              "name": "capacity",
              "type": "uint256"
            },
            {
              "internalType": "uint256",
              "name": "maxAmount",
              "type": "uint256"
            },
            {
              "internalType": "uint256",
              "name": "poolId",
              "type": "uint256"
            }
          ],
          "internalType": "struct CoverLib.Cover[]",
          "name": "",
          "type": "tuple[]"
        }
      ],
      "stateMutability": "view",
      "type": "function"
    },
    {
      "inputs": [
        {
          "internalType": "address",
          "name": "user",
          "type": "address"
        }
      ],
      "name": "getAllUserCovers",
      "outputs": [
        {
          "components": [
            {
              "internalType": "address",
              "name": "user",
              "type": "address"
            },
            {
              "internalType": "uint256",
              "name": "coverId",
              "type": "uint256"
            },
            {
              "internalType": "enum CoverLib.RiskType",
              "name": "riskType",
              "type": "uint8"
            },
            {
              "internalType": "string",
              "name": "coverName",
              "type": "string"
            },
            {
              "internalType": "uint256",
              "name": "coverValue",
              "type": "uint256"
            },
            {
              "internalType": "uint256",
              "name": "claimPaid",
              "type": "uint256"
            },
            {
              "internalType": "uint256",
              "name": "coverPeriod",
              "type": "uint256"
            },
            {
              "internalType": "uint256",
              "name": "endDay",
              "type": "uint256"
            },
            {
              "internalType": "bool",
              "name": "isActive",
              "type": "bool"
            }
          ],
          "internalType": "struct CoverLib.GenericCoverInfo[]",
          "name": "",
          "type": "tuple[]"
        }
      ],
      "stateMutability": "view",
      "type": "function"
    },
    {
      "inputs": [
        {
          "internalType": "address",
          "name": "user",
          "type": "address"
        },
        {
          "internalType": "enum CoverLib.RiskType",
          "name": "riskType",
          "type": "uint8"
        },
        {
          "internalType": "uint256",
          "name": "_coverId",
          "type": "uint256"
        }
      ],
      "name": "getUserCoverInfo",
      "outputs": [
        {
          "components": [
            {
              "internalType": "enum CoverLib.RiskType",
              "name": "riskType",
              "type": "uint8"
            },
            {
              "internalType": "bytes",
              "name": "coverData",
              "type": "bytes"
            }
          ],
          "internalType": "struct CoverLib.GenericCover",
          "name": "",
          "type": "tuple"
        }
      ],
      "stateMutability": "view",
      "type": "function"
    },
    {
      "inputs": [],
      "name": "governance",
      "outputs": [
        {
          "internalType": "address",
          "name": "",
          "type": "address"
        }
      ],
      "stateMutability": "view",
      "type": "function"
    },
    {
      "inputs": [],
      "name": "initialOwner",
      "outputs": [
        {
          "internalType": "address",
          "name": "",
          "type": "address"
        }
      ],
      "stateMutability": "view",
      "type": "function"
    },
    {
      "inputs": [],
      "name": "lpContract",
      "outputs": [
        {
          "internalType": "contract ILP",
          "name": "",
          "type": "address"
        }
      ],
      "stateMutability": "view",
      "type": "function"
    },
    {
      "inputs": [],
      "name": "owner",
      "outputs": [
        {
          "internalType": "address",
          "name": "",
          "type": "address"
        }
      ],
      "stateMutability": "view",
      "type": "function"
    },
    {
      "inputs": [
        {
          "internalType": "uint256",
          "name": "",
          "type": "uint256"
        }
      ],
      "name": "protocolCoverExist",
      "outputs": [
        {
          "internalType": "bool",
          "name": "",
          "type": "bool"
        }
      ],
      "stateMutability": "view",
      "type": "function"
    },
    {
      "inputs": [
        {
          "internalType": "uint256",
          "name": "",
          "type": "uint256"
        }
      ],
      "name": "protocolCovers",
      "outputs": [
        {
          "internalType": "uint256",
          "name": "id",
          "type": "uint256"
        },
        {
          "internalType": "string",
          "name": "coverName",
          "type": "string"
        },
        {
          "internalType": "enum CoverLib.RiskType",
          "name": "riskType",
          "type": "uint8"
        },
        {
          "internalType": "string",
          "name": "chains",
          "type": "string"
        },
        {
          "internalType": "uint256",
          "name": "capacity",
          "type": "uint256"
        },
        {
          "internalType": "uint256",
          "name": "maxAmount",
          "type": "uint256"
        },
        {
          "internalType": "uint256",
          "name": "poolId",
          "type": "uint256"
        }
      ],
      "stateMutability": "view",
      "type": "function"
    },
    {
      "inputs": [
        {
          "internalType": "enum CoverLib.RiskType",
          "name": "_riskType",
          "type": "uint8"
        },
        {
          "internalType": "uint256",
          "name": "_coverId",
          "type": "uint256"
        },
        {
          "internalType": "string",
          "name": "_coverName",
          "type": "string"
        },
        {
          "internalType": "uint256",
          "name": "_coverValue",
          "type": "uint256"
        },
        {
          "internalType": "uint256",
          "name": "_coverPeriod",
          "type": "uint256"
        }
      ],
      "name": "purchaseCover",
      "outputs": [],
      "stateMutability": "payable",
      "type": "function"
    },
    {
      "inputs": [],
      "name": "renounceOwnership",
      "outputs": [],
      "stateMutability": "nonpayable",
      "type": "function"
    },
    {
      "inputs": [
        {
          "internalType": "uint256",
          "name": "",
          "type": "uint256"
        }
      ],
      "name": "slashingCoverExist",
      "outputs": [
        {
          "internalType": "bool",
          "name": "",
          "type": "bool"
        }
      ],
      "stateMutability": "view",
      "type": "function"
    },
    {
      "inputs": [
        {
          "internalType": "uint256",
          "name": "",
          "type": "uint256"
        }
      ],
      "name": "slashingCovers",
      "outputs": [
        {
          "internalType": "uint256",
          "name": "id",
          "type": "uint256"
        },
        {
          "internalType": "string",
          "name": "coverName",
          "type": "string"
        },
        {
          "internalType": "enum CoverLib.RiskType",
          "name": "riskType",
          "type": "uint8"
        },
        {
          "internalType": "string",
          "name": "chains",
          "type": "string"
        },
        {
          "internalType": "uint256",
          "name": "capacity",
          "type": "uint256"
        },
        {
          "internalType": "uint256",
          "name": "maxAmount",
          "type": "uint256"
        },
        {
          "internalType": "uint256",
          "name": "poolId",
          "type": "uint256"
        }
      ],
      "stateMutability": "view",
      "type": "function"
    },
    {
      "inputs": [
        {
          "internalType": "uint256",
          "name": "",
          "type": "uint256"
        }
      ],
      "name": "smartContractCoverExist",
      "outputs": [
        {
          "internalType": "bool",
          "name": "",
          "type": "bool"
        }
      ],
      "stateMutability": "view",
      "type": "function"
    },
    {
      "inputs": [
        {
          "internalType": "uint256",
          "name": "",
          "type": "uint256"
        }
      ],
      "name": "smartContractCovers",
      "outputs": [
        {
          "internalType": "uint256",
          "name": "id",
          "type": "uint256"
        },
        {
          "internalType": "string",
          "name": "coverName",
          "type": "string"
        },
        {
          "internalType": "enum CoverLib.RiskType",
          "name": "riskType",
          "type": "uint8"
        },
        {
          "internalType": "string",
          "name": "chains",
          "type": "string"
        },
        {
          "internalType": "uint256",
          "name": "capacity",
          "type": "uint256"
        },
        {
          "internalType": "uint256",
          "name": "maxAmount",
          "type": "uint256"
        },
        {
          "internalType": "uint256",
          "name": "poolId",
          "type": "uint256"
        }
      ],
      "stateMutability": "view",
      "type": "function"
    },
    {
      "inputs": [
        {
          "internalType": "uint256",
          "name": "",
          "type": "uint256"
        }
      ],
      "name": "stablecoinCoverExist",
      "outputs": [
        {
          "internalType": "bool",
          "name": "",
          "type": "bool"
        }
      ],
      "stateMutability": "view",
      "type": "function"
    },
    {
      "inputs": [
        {
          "internalType": "uint256",
          "name": "",
          "type": "uint256"
        }
      ],
      "name": "stablecoinCovers",
      "outputs": [
        {
          "internalType": "uint256",
          "name": "id",
          "type": "uint256"
        },
        {
          "internalType": "string",
          "name": "coverName",
          "type": "string"
        },
        {
          "internalType": "enum CoverLib.RiskType",
          "name": "riskType",
          "type": "uint8"
        },
        {
          "internalType": "string",
          "name": "chains",
          "type": "string"
        },
        {
          "internalType": "uint256",
          "name": "capacity",
          "type": "uint256"
        },
        {
          "internalType": "uint256",
          "name": "maxAmount",
          "type": "uint256"
        },
        {
          "internalType": "uint256",
          "name": "poolId",
          "type": "uint256"
        }
      ],
      "stateMutability": "view",
      "type": "function"
    },
    {
      "inputs": [
        {
          "internalType": "address",
          "name": "newOwner",
          "type": "address"
        }
      ],
      "name": "transferOwnership",
      "outputs": [],
      "stateMutability": "nonpayable",
      "type": "function"
    },
    {
      "inputs": [
        {
          "internalType": "address",
          "name": "_newLpContract",
          "type": "address"
        }
      ],
      "name": "updateLPContract",
      "outputs": [],
      "stateMutability": "nonpayable",
      "type": "function"
    },
    {
      "inputs": [
        {
          "internalType": "address",
          "name": "user",
          "type": "address"
        },
        {
          "internalType": "uint256",
          "name": "_coverId",
          "type": "uint256"
        },
        {
          "internalType": "enum CoverLib.RiskType",
          "name": "riskType",
          "type": "uint8"
        },
        {
          "internalType": "uint256",
          "name": "_claimPaid",
          "type": "uint256"
        }
      ],
      "name": "updateUserCoverValue",
      "outputs": [],
      "stateMutability": "nonpayable",
      "type": "function"
    },
    {
      "inputs": [
        {
          "internalType": "address",
          "name": "",
          "type": "address"
        },
        {
          "internalType": "uint256",
          "name": "",
          "type": "uint256"
        }
      ],
      "name": "userCovers",
      "outputs": [
        {
          "internalType": "address",
          "name": "user",
          "type": "address"
        },
        {
          "internalType": "uint256",
          "name": "coverId",
          "type": "uint256"
        },
        {
          "internalType": "enum CoverLib.RiskType",
          "name": "riskType",
          "type": "uint8"
        },
        {
          "internalType": "string",
          "name": "coverName",
          "type": "string"
        },
        {
          "internalType": "uint256",
          "name": "coverValue",
          "type": "uint256"
        },
        {
          "internalType": "uint256",
          "name": "claimPaid",
          "type": "uint256"
        },
        {
          "internalType": "uint256",
          "name": "coverPeriod",
          "type": "uint256"
        },
        {
          "internalType": "uint256",
          "name": "endDay",
          "type": "uint256"
        },
        {
          "internalType": "bool",
          "name": "isActive",
          "type": "bool"
        }
      ],
      "stateMutability": "view",
      "type": "function"
    },
    {
      "inputs": [
        {
          "internalType": "address",
          "name": "",
          "type": "address"
        },
        {
          "internalType": "uint256",
          "name": "",
          "type": "uint256"
        }
      ],
      "name": "userToProtocolCover",
      "outputs": [
        {
          "internalType": "address",
          "name": "user",
          "type": "address"
        },
        {
          "internalType": "uint256",
          "name": "coverId",
          "type": "uint256"
        },
        {
          "internalType": "enum CoverLib.RiskType",
          "name": "riskType",
          "type": "uint8"
        },
        {
          "internalType": "string",
          "name": "coverName",
          "type": "string"
        },
        {
          "internalType": "uint256",
          "name": "coverValue",
          "type": "uint256"
        },
        {
          "internalType": "uint256",
          "name": "claimPaid",
          "type": "uint256"
        },
        {
          "internalType": "uint256",
          "name": "coverPeriod",
          "type": "uint256"
        },
        {
          "internalType": "uint256",
          "name": "endDay",
          "type": "uint256"
        },
        {
          "internalType": "bool",
          "name": "isActive",
          "type": "bool"
        }
      ],
      "stateMutability": "view",
      "type": "function"
    },
    {
      "inputs": [
        {
          "internalType": "address",
          "name": "",
          "type": "address"
        },
        {
          "internalType": "uint256",
          "name": "",
          "type": "uint256"
        }
      ],
      "name": "userToSlashingCover",
      "outputs": [
        {
          "internalType": "address",
          "name": "user",
          "type": "address"
        },
        {
          "internalType": "uint256",
          "name": "coverId",
          "type": "uint256"
        },
        {
          "internalType": "enum CoverLib.RiskType",
          "name": "riskType",
          "type": "uint8"
        },
        {
          "internalType": "string",
          "name": "coverName",
          "type": "string"
        },
        {
          "internalType": "uint256",
          "name": "coverValue",
          "type": "uint256"
        },
        {
          "internalType": "uint256",
          "name": "claimPaid",
          "type": "uint256"
        },
        {
          "internalType": "uint256",
          "name": "coverPeriod",
          "type": "uint256"
        },
        {
          "internalType": "uint256",
          "name": "endDay",
          "type": "uint256"
        },
        {
          "internalType": "bool",
          "name": "isActive",
          "type": "bool"
        }
      ],
      "stateMutability": "view",
      "type": "function"
    },
    {
      "inputs": [
        {
          "internalType": "address",
          "name": "",
          "type": "address"
        },
        {
          "internalType": "uint256",
          "name": "",
          "type": "uint256"
        }
      ],
      "name": "userToSmartContractCover",
      "outputs": [
        {
          "internalType": "address",
          "name": "user",
          "type": "address"
        },
        {
          "internalType": "uint256",
          "name": "coverId",
          "type": "uint256"
        },
        {
          "internalType": "enum CoverLib.RiskType",
          "name": "riskType",
          "type": "uint8"
        },
        {
          "internalType": "string",
          "name": "coverName",
          "type": "string"
        },
        {
          "internalType": "uint256",
          "name": "coverValue",
          "type": "uint256"
        },
        {
          "internalType": "uint256",
          "name": "claimPaid",
          "type": "uint256"
        },
        {
          "internalType": "uint256",
          "name": "coverPeriod",
          "type": "uint256"
        },
        {
          "internalType": "uint256",
          "name": "endDay",
          "type": "uint256"
        },
        {
          "internalType": "bool",
          "name": "isActive",
          "type": "bool"
        }
      ],
      "stateMutability": "view",
      "type": "function"
    },
    {
      "inputs": [
        {
          "internalType": "address",
          "name": "",
          "type": "address"
        },
        {
          "internalType": "uint256",
          "name": "",
          "type": "uint256"
        }
      ],
      "name": "userToStablecoinCover",
      "outputs": [
        {
          "internalType": "address",
          "name": "user",
          "type": "address"
        },
        {
          "internalType": "uint256",
          "name": "coverId",
          "type": "uint256"
        },
        {
          "internalType": "enum CoverLib.RiskType",
          "name": "riskType",
          "type": "uint8"
        },
        {
          "internalType": "string",
          "name": "coverName",
          "type": "string"
        },
        {
          "internalType": "uint256",
          "name": "coverValue",
          "type": "uint256"
        },
        {
          "internalType": "uint256",
          "name": "claimPaid",
          "type": "uint256"
        },
        {
          "internalType": "uint256",
          "name": "coverPeriod",
          "type": "uint256"
        },
        {
          "internalType": "uint256",
          "name": "endDay",
          "type": "uint256"
        },
        {
          "internalType": "bool",
          "name": "isActive",
          "type": "bool"
        }
      ],
      "stateMutability": "view",
      "type": "function"
    }
  ],
  "bytecode": "0x60806040523480156200001157600080fd5b5060405162006153380380620061538339818101604052810190620000379190620002c3565b816001600081905550600073ffffffffffffffffffffffffffffffffffffffff168173ffffffffffffffffffffffffffffffffffffffff1603620000b55760006040517f1e4fbdf7000000000000000000000000000000000000000000000000000000008152600401620000ac919062000330565b60405180910390fd5b620000c6816200019360201b60201c565b5082600360006101000a81548173ffffffffffffffffffffffffffffffffffffffff021916908373ffffffffffffffffffffffffffffffffffffffff16021790555080600460006101000a81548173ffffffffffffffffffffffffffffffffffffffff021916908373ffffffffffffffffffffffffffffffffffffffff16021790555081600560006101000a81548173ffffffffffffffffffffffffffffffffffffffff021916908373ffffffffffffffffffffffffffffffffffffffff1602179055505050506200034d565b6000600160009054906101000a900473ffffffffffffffffffffffffffffffffffffffff16905081600160006101000a81548173ffffffffffffffffffffffffffffffffffffffff021916908373ffffffffffffffffffffffffffffffffffffffff1602179055508173ffffffffffffffffffffffffffffffffffffffff168173ffffffffffffffffffffffffffffffffffffffff167f8be0079c531659141344cd1fd0a4f28419497f9722a3daafe3b4186f6b6457e060405160405180910390a35050565b600080fd5b600073ffffffffffffffffffffffffffffffffffffffff82169050919050565b60006200028b826200025e565b9050919050565b6200029d816200027e565b8114620002a957600080fd5b50565b600081519050620002bd8162000292565b92915050565b600080600060608486031215620002df57620002de62000259565b5b6000620002ef86828701620002ac565b93505060206200030286828701620002ac565b92505060406200031586828701620002ac565b9150509250925092565b6200032a816200027e565b82525050565b60006020820190506200034760008301846200031f565b92915050565b615df6806200035d6000396000f3fe6080604052600436106101cd5760003560e01c80639190c050116100f7578063bfa76a6c11610095578063dcb2c7e311610064578063dcb2c7e314610755578063e6a44e1e1461077e578063ed42c14b146107c1578063f2fde38b146107fe576101cd565b8063bfa76a6c1461064b578063c26a46e71461068e578063c39f2138146106d3578063d4be89a314610718576101cd565b80639e7b399e116100d15780639e7b399e14610549578063a15fef6d1461058e578063a5c485ef146105d1578063be7070571461060e576101cd565b80639190c0501461049e57806391c9b99a146104e157806393b1ad381461051e576101cd565b80633ed6425b1161016f578063715018a61161013e578063715018a614610408578063746471631461041f5780638acee3cf146104485780638da5cb5b14610473576101cd565b80633ed6425b1461031e5780635aa6e6751461035b5780635c98698414610386578063649718b2146103cb576101cd565b806329ba7bb2116101ab57806329ba7bb2146102765780632d8a340c146102a157806330d90078146102ca578063357917b7146102f3576101cd565b80630aaf5e7f146101d2578063160ae58d14610217578063192344a314610233575b600080fd5b3480156101de57600080fd5b506101f960048036038101906101f491906146d0565b610827565b60405161020e99989796959493929190614850565b60405180910390f35b610231600480360381019061022c9190614a3e565b610944565b005b34801561023f57600080fd5b5061025a60048036038101906102559190614ad5565b611fca565b60405161026d9796959493929190614b02565b60405180910390f35b34801561028257600080fd5b5061028b612129565b6040516102989190614b7f565b60405180910390f35b3480156102ad57600080fd5b506102c860048036038101906102c39190614ad5565b61214f565b005b3480156102d657600080fd5b506102f160048036038101906102ec9190614b9a565b6124af565b005b3480156102ff57600080fd5b50610308612c68565b6040516103159190614c4d565b60405180910390f35b34801561032a57600080fd5b5061034560048036038101906103409190614c68565b612c6e565b6040516103529190614d5c565b60405180910390f35b34801561036757600080fd5b50610370612f70565b60405161037d9190614b7f565b60405180910390f35b34801561039257600080fd5b506103ad60048036038101906103a891906146d0565b612f96565b6040516103c299989796959493929190614850565b60405180910390f35b3480156103d757600080fd5b506103f260048036038101906103ed9190614d7e565b6130b3565b6040516103ff9190614fa9565b60405180910390f35b34801561041457600080fd5b5061041d6132c2565b005b34801561042b57600080fd5b5061044660048036038101906104419190614d7e565b6132d6565b005b34801561045457600080fd5b5061045d613322565b60405161046a919061502a565b60405180910390f35b34801561047f57600080fd5b50610488613348565b6040516104959190614b7f565b60405180910390f35b3480156104aa57600080fd5b506104c560048036038101906104c09190614ad5565b613372565b6040516104d89796959493929190614b02565b60405180910390f35b3480156104ed57600080fd5b5061050860048036038101906105039190614d7e565b6134d1565b6040516105159190614c4d565b60405180910390f35b34801561052a57600080fd5b506105336134e9565b60405161054091906151aa565b60405180910390f35b34801561055557600080fd5b50610570600480360381019061056b91906146d0565b6136cf565b60405161058599989796959493929190614850565b60405180910390f35b34801561059a57600080fd5b506105b560048036038101906105b09190614ad5565b6137fc565b6040516105c89796959493929190614b02565b60405180910390f35b3480156105dd57600080fd5b506105f860048036038101906105f39190614ad5565b61395b565b60405161060591906151cc565b60405180910390f35b34801561061a57600080fd5b5061063560048036038101906106309190614ad5565b61397b565b60405161064291906151cc565b60405180910390f35b34801561065757600080fd5b50610672600480360381019061066d9190614ad5565b61399b565b6040516106859796959493929190614b02565b60405180910390f35b34801561069a57600080fd5b506106b560048036038101906106b091906146d0565b613afa565b6040516106ca99989796959493929190614850565b60405180910390f35b3480156106df57600080fd5b506106fa60048036038101906106f591906146d0565b613c17565b60405161070f99989796959493929190614850565b60405180910390f35b34801561072457600080fd5b5061073f600480360381019061073a9190614ad5565b613d34565b60405161074c91906151cc565b60405180910390f35b34801561076157600080fd5b5061077c600480360381019061077791906151e7565b613d54565b005b34801561078a57600080fd5b506107a560048036038101906107a09190614ad5565b614242565b6040516107b89796959493929190614b02565b60405180910390f35b3480156107cd57600080fd5b506107e860048036038101906107e39190614ad5565b6143b1565b6040516107f591906151cc565b60405180910390f35b34801561080a57600080fd5b5061082560048036038101906108209190614d7e565b6143d1565b005b600d602052816000526040600020602052806000526040600020600091509150508060000160009054906101000a900473ffffffffffffffffffffffffffffffffffffffff16908060010154908060020160009054906101000a900460ff16908060030180546108969061527d565b80601f01602080910402602001604051908101604052809291908181526020018280546108c29061527d565b801561090f5780601f106108e45761010080835404028352916020019161090f565b820191906000526020600020905b8154815290600101906020018083116108f257829003601f168201915b5050505050908060040154908060050154908060060154908060070154908060080160009054906101000a900460ff16905089565b61094c614457565b60003411610986576040517f2c5211c600000000000000000000000000000000000000000000000000000000815260040160405180910390fd5b601b81111580610998575061016e8110155b156109cf576040517f3f132b1200000000000000000000000000000000000000000000000000000000815260040160405180910390fd5b60006040518061012001604052803373ffffffffffffffffffffffffffffffffffffffff168152602001868152602001876003811115610a1257610a1161472e565b5b8152602001858152602001848152602001600081526020018381526020016201518084610a3f91906152dd565b42610a4a919061531f565b815260200160011515815250905060006003811115610a6c57610a6b61472e565b5b866003811115610a7f57610a7e61472e565b5b03610f8f576006600086815260200190815260200160002060009054906101000a900460ff16610adb576040517fbccd404300000000000000000000000000000000000000000000000000000000815260040160405180910390fd5b60006011600087815260200190815260200160002060050154905080841115610b30576040517fbc6072f100000000000000000000000000000000000000000000000000000000815260040160405180910390fd5b83601160008881526020019081526020016000206005016000828254610b569190615353565b925050819055506000600b60003373ffffffffffffffffffffffffffffffffffffffff1673ffffffffffffffffffffffffffffffffffffffff16815260200190815260200160002060008881526020019081526020016000206004015403610e3c5781600b60003373ffffffffffffffffffffffffffffffffffffffff1673ffffffffffffffffffffffffffffffffffffffff168152602001908152602001600020600088815260200190815260200160002060008201518160000160006101000a81548173ffffffffffffffffffffffffffffffffffffffff021916908373ffffffffffffffffffffffffffffffffffffffff1602179055506020820151816001015560408201518160020160006101000a81548160ff02191690836003811115610c8557610c8461472e565b5b02179055506060820151816003019081610c9f9190615529565b506080820151816004015560a0820151816005015560c0820151816006015560e082015181600701556101008201518160080160006101000a81548160ff021916908315150217905550905050600f60003373ffffffffffffffffffffffffffffffffffffffff1673ffffffffffffffffffffffffffffffffffffffff16815260200190815260200160002082908060018154018082558091505060019003906000526020600020906009020160009091909190915060008201518160000160006101000a81548173ffffffffffffffffffffffffffffffffffffffff021916908373ffffffffffffffffffffffffffffffffffffffff1602179055506020820151816001015560408201518160020160006101000a81548160ff02191690836003811115610dd157610dd061472e565b5b02179055506060820151816003019081610deb9190615529565b506080820151816004015560a0820151816005015560c0820151816006015560e082015181600701556101008201518160080160006101000a81548160ff0219169083151502179055505050610f89565b83600b60003373ffffffffffffffffffffffffffffffffffffffff1673ffffffffffffffffffffffffffffffffffffffff16815260200190815260200160002060008881526020019081526020016000206004016000828254610e9f919061531f565b9250508190555082600b60003373ffffffffffffffffffffffffffffffffffffffff1673ffffffffffffffffffffffffffffffffffffffff16815260200190815260200160002060008881526020019081526020016000206006016000828254610f09919061531f565b925050819055506201518083610f1f91906152dd565b600b60003373ffffffffffffffffffffffffffffffffffffffff1673ffffffffffffffffffffffffffffffffffffffff16815260200190815260200160002060008881526020019081526020016000206007016000828254610f81919061531f565b925050819055505b50611f68565b60016003811115610fa357610fa261472e565b5b866003811115610fb657610fb561472e565b5b036114c6576007600086815260200190815260200160002060009054906101000a900460ff16611012576040517fbccd404300000000000000000000000000000000000000000000000000000000815260040160405180910390fd5b60006012600087815260200190815260200160002060050154905080841115611067576040517fbc6072f100000000000000000000000000000000000000000000000000000000815260040160405180910390fd5b8360126000888152602001908152602001600020600501600082825461108d9190615353565b925050819055506000600c60003373ffffffffffffffffffffffffffffffffffffffff1673ffffffffffffffffffffffffffffffffffffffff168152602001908152602001600020600088815260200190815260200160002060040154036113735781600c60003373ffffffffffffffffffffffffffffffffffffffff1673ffffffffffffffffffffffffffffffffffffffff168152602001908152602001600020600088815260200190815260200160002060008201518160000160006101000a81548173ffffffffffffffffffffffffffffffffffffffff021916908373ffffffffffffffffffffffffffffffffffffffff1602179055506020820151816001015560408201518160020160006101000a81548160ff021916908360038111156111bc576111bb61472e565b5b021790555060608201518160030190816111d69190615529565b506080820151816004015560a0820151816005015560c0820151816006015560e082015181600701556101008201518160080160006101000a81548160ff021916908315150217905550905050600f60003373ffffffffffffffffffffffffffffffffffffffff1673ffffffffffffffffffffffffffffffffffffffff16815260200190815260200160002082908060018154018082558091505060019003906000526020600020906009020160009091909190915060008201518160000160006101000a81548173ffffffffffffffffffffffffffffffffffffffff021916908373ffffffffffffffffffffffffffffffffffffffff1602179055506020820151816001015560408201518160020160006101000a81548160ff021916908360038111156113085761130761472e565b5b021790555060608201518160030190816113229190615529565b506080820151816004015560a0820151816005015560c0820151816006015560e082015181600701556101008201518160080160006101000a81548160ff02191690831515021790555050506114c0565b83600c60003373ffffffffffffffffffffffffffffffffffffffff1673ffffffffffffffffffffffffffffffffffffffff168152602001908152602001600020600088815260200190815260200160002060040160008282546113d6919061531f565b9250508190555082600c60003373ffffffffffffffffffffffffffffffffffffffff1673ffffffffffffffffffffffffffffffffffffffff16815260200190815260200160002060008881526020019081526020016000206006016000828254611440919061531f565b92505081905550620151808361145691906152dd565b600c60003373ffffffffffffffffffffffffffffffffffffffff1673ffffffffffffffffffffffffffffffffffffffff168152602001908152602001600020600088815260200190815260200160002060070160008282546114b8919061531f565b925050819055505b50611f67565b600260038111156114da576114d961472e565b5b8660038111156114ed576114ec61472e565b5b036119fd576008600086815260200190815260200160002060009054906101000a900460ff16611549576040517fbccd404300000000000000000000000000000000000000000000000000000000815260040160405180910390fd5b6000601360008781526020019081526020016000206005015490508084111561159e576040517fbc6072f100000000000000000000000000000000000000000000000000000000815260040160405180910390fd5b836013600088815260200190815260200160002060050160008282546115c49190615353565b925050819055506000600d60003373ffffffffffffffffffffffffffffffffffffffff1673ffffffffffffffffffffffffffffffffffffffff168152602001908152602001600020600088815260200190815260200160002060040154036118aa5781600d60003373ffffffffffffffffffffffffffffffffffffffff1673ffffffffffffffffffffffffffffffffffffffff168152602001908152602001600020600088815260200190815260200160002060008201518160000160006101000a81548173ffffffffffffffffffffffffffffffffffffffff021916908373ffffffffffffffffffffffffffffffffffffffff1602179055506020820151816001015560408201518160020160006101000a81548160ff021916908360038111156116f3576116f261472e565b5b0217905550606082015181600301908161170d9190615529565b506080820151816004015560a0820151816005015560c0820151816006015560e082015181600701556101008201518160080160006101000a81548160ff021916908315150217905550905050600f60003373ffffffffffffffffffffffffffffffffffffffff1673ffffffffffffffffffffffffffffffffffffffff16815260200190815260200160002082908060018154018082558091505060019003906000526020600020906009020160009091909190915060008201518160000160006101000a81548173ffffffffffffffffffffffffffffffffffffffff021916908373ffffffffffffffffffffffffffffffffffffffff1602179055506020820151816001015560408201518160020160006101000a81548160ff0219169083600381111561183f5761183e61472e565b5b021790555060608201518160030190816118599190615529565b506080820151816004015560a0820151816005015560c0820151816006015560e082015181600701556101008201518160080160006101000a81548160ff02191690831515021790555050506119f7565b83600d60003373ffffffffffffffffffffffffffffffffffffffff1673ffffffffffffffffffffffffffffffffffffffff1681526020019081526020016000206000888152602001908152602001600020600401600082825461190d919061531f565b9250508190555082600d60003373ffffffffffffffffffffffffffffffffffffffff1673ffffffffffffffffffffffffffffffffffffffff16815260200190815260200160002060008881526020019081526020016000206006016000828254611977919061531f565b92505081905550620151808361198d91906152dd565b600d60003373ffffffffffffffffffffffffffffffffffffffff1673ffffffffffffffffffffffffffffffffffffffff168152602001908152602001600020600088815260200190815260200160002060070160008282546119ef919061531f565b925050819055505b50611f66565b600380811115611a1057611a0f61472e565b5b866003811115611a2357611a2261472e565b5b03611f33576009600086815260200190815260200160002060009054906101000a900460ff16611a7f576040517fbccd404300000000000000000000000000000000000000000000000000000000815260040160405180910390fd5b60006014600087815260200190815260200160002060050154905080841115611ad4576040517fbc6072f100000000000000000000000000000000000000000000000000000000815260040160405180910390fd5b83601460008881526020019081526020016000206005016000828254611afa9190615353565b925050819055506000600e60003373ffffffffffffffffffffffffffffffffffffffff1673ffffffffffffffffffffffffffffffffffffffff16815260200190815260200160002060008881526020019081526020016000206004015403611de05781600e60003373ffffffffffffffffffffffffffffffffffffffff1673ffffffffffffffffffffffffffffffffffffffff168152602001908152602001600020600088815260200190815260200160002060008201518160000160006101000a81548173ffffffffffffffffffffffffffffffffffffffff021916908373ffffffffffffffffffffffffffffffffffffffff1602179055506020820151816001015560408201518160020160006101000a81548160ff02191690836003811115611c2957611c2861472e565b5b02179055506060820151816003019081611c439190615529565b506080820151816004015560a0820151816005015560c0820151816006015560e082015181600701556101008201518160080160006101000a81548160ff021916908315150217905550905050600f60003373ffffffffffffffffffffffffffffffffffffffff1673ffffffffffffffffffffffffffffffffffffffff16815260200190815260200160002082908060018154018082558091505060019003906000526020600020906009020160009091909190915060008201518160000160006101000a81548173ffffffffffffffffffffffffffffffffffffffff021916908373ffffffffffffffffffffffffffffffffffffffff1602179055506020820151816001015560408201518160020160006101000a81548160ff02191690836003811115611d7557611d7461472e565b5b02179055506060820151816003019081611d8f9190615529565b506080820151816004015560a0820151816005015560c0820151816006015560e082015181600701556101008201518160080160006101000a81548160ff0219169083151502179055505050611f2d565b83600e60003373ffffffffffffffffffffffffffffffffffffffff1673ffffffffffffffffffffffffffffffffffffffff16815260200190815260200160002060008881526020019081526020016000206004016000828254611e43919061531f565b9250508190555082600e60003373ffffffffffffffffffffffffffffffffffffffff1673ffffffffffffffffffffffffffffffffffffffff16815260200190815260200160002060008881526020019081526020016000206006016000828254611ead919061531f565b925050819055506201518083611ec391906152dd565b600e60003373ffffffffffffffffffffffffffffffffffffffff1673ffffffffffffffffffffffffffffffffffffffff16815260200190815260200160002060008881526020019081526020016000206007016000828254611f25919061531f565b925050819055505b50611f65565b6040517f1ba7dd4700000000000000000000000000000000000000000000000000000000815260040160405180910390fd5b5b5b5b3373ffffffffffffffffffffffffffffffffffffffff167f23b0f39e0762759ffb18632a1a2b79c9eb58571454e5f7c36e0a2f81759e0a34843489604051611fb2939291906155fb565b60405180910390a250611fc361449d565b5050505050565b6013602052806000526040600020600091509050806000015490806001018054611ff39061527d565b80601f016020809104026020016040519081016040528092919081815260200182805461201f9061527d565b801561206c5780601f106120415761010080835404028352916020019161206c565b820191906000526020600020905b81548152906001019060200180831161204f57829003601f168201915b5050505050908060020160009054906101000a900460ff16908060030180546120949061527d565b80601f01602080910402602001604051908101604052809291908181526020018280546120c09061527d565b801561210d5780601f106120e25761010080835404028352916020019161210d565b820191906000526020600020905b8154815290600101906020018083116120f057829003601f168201915b5050505050908060040154908060050154908060060154905087565b600560009054906101000a900473ffffffffffffffffffffffffffffffffffffffff1681565b612157614457565b6000600360009054906101000a900473ffffffffffffffffffffffffffffffffffffffff1673ffffffffffffffffffffffffffffffffffffffff16634e05524483336040518363ffffffff1660e01b81526004016121b6929190615632565b60e060405180830381865afa1580156121d3573d6000803e3d6000fd5b505050506040513d601f19601f820116820180604052508101906121f79190615763565b90506000600181111561220d5761220c61472e565b5b8160a0015160018111156122245761222361472e565b5b1461225b576040517fe067835f00000000000000000000000000000000000000000000000000000000815260040160405180910390fd5b6000600a60003373ffffffffffffffffffffffffffffffffffffffff1673ffffffffffffffffffffffffffffffffffffffff16815260200190815260200160002054905060006201518082426122b19190615353565b6122bb91906157bf565b9050600081116122f7576040517fed700a6700000000000000000000000000000000000000000000000000000000815260040160405180910390fd5b600081846080015161230991906152dd565b9050600254811115612347576040517fbc6072f100000000000000000000000000000000000000000000000000000000815260040160405180910390fd5b42600a60003373ffffffffffffffffffffffffffffffffffffffff1673ffffffffffffffffffffffffffffffffffffffff1681526020019081526020016000208190555060003373ffffffffffffffffffffffffffffffffffffffff16826040516123b190615821565b60006040518083038185875af1925050503d80600081146123ee576040519150601f19603f3d011682016040523d82523d6000602084013e6123f3565b606091505b5050905080612437576040517f08c379a000000000000000000000000000000000000000000000000000000000815260040161242e90615882565b60405180910390fd5b81600260008282546124499190615353565b92505081905550853373ffffffffffffffffffffffffffffffffffffffff167f0408e6e0b73daf4c873106e95fd067260fbff8bf9d1b499cad563d4480d45bac846040516124979190614c4d565b60405180910390a350505050506124ac61449d565b50565b6124b76144a7565b6000806000600360009054906101000a900473ffffffffffffffffffffffffffffffffffffffff1673ffffffffffffffffffffffffffffffffffffffff1663068bcd8d856040518263ffffffff1660e01b81526004016125179190614c4d565b600060405180830381865afa158015612534573d6000803e3d6000fd5b505050506040513d6000823e3d601f19601f8201168201806040525081019061255d9190615953565b9650509550505093505087600381111561257a5761257961472e565b5b83600381111561258d5761258c61472e565b5b14158061259957508085115b156125d0576040517fd3c913ea00000000000000000000000000000000000000000000000000000000815260040160405180910390fd5b60006064866125df91906157bf565b836125ea91906152dd565b9050600360009054906101000a900473ffffffffffffffffffffffffffffffffffffffff1673ffffffffffffffffffffffffffffffffffffffff166330a2e7be86886040518363ffffffff1660e01b8152600401612649929190615a11565b600060405180830381600087803b15801561266357600080fd5b505af1158015612677573d6000803e3d6000fd5b5050505060006040518060e00160405280600081526020018a81526020018b60038111156126a8576126a761472e565b5b8152602001898152602001888152602001838152602001878152509050600060038111156126d9576126d861472e565b5b8a60038111156126ec576126eb61472e565b5b036127e35760156000815461270090615a3a565b9190508190558160000181815250508060116000836000015181526020019081526020016000206000820151816000015560208201518160010190816127469190615529565b5060408201518160020160006101000a81548160ff021916908360038111156127725761277161472e565b5b0217905550606082015181600301908161278c9190615529565b506080820151816004015560a0820151816005015560c082015181600601559050506001600660008360000151815260200190815260200160002060006101000a81548160ff021916908315150217905550612b71565b600260038111156127f7576127f661472e565b5b8a600381111561280a5761280961472e565b5b036129015760176000815461281e90615a3a565b9190508190558160000181815250508060136000836000015181526020019081526020016000206000820151816000015560208201518160010190816128649190615529565b5060408201518160020160006101000a81548160ff021916908360038111156128905761288f61472e565b5b021790555060608201518160030190816128aa9190615529565b506080820151816004015560a0820151816005015560c082015181600601559050506001600860008360000151815260200190815260200160002060006101000a81548160ff021916908315150217905550612b70565b600160038111156129155761291461472e565b5b8a60038111156129285761292761472e565b5b03612a1f5760166000815461293c90615a3a565b9190508190558160000181815250508060126000836000015181526020019081526020016000206000820151816000015560208201518160010190816129829190615529565b5060408201518160020160006101000a81548160ff021916908360038111156129ae576129ad61472e565b5b021790555060608201518160030190816129c89190615529565b506080820151816004015560a0820151816005015560c082015181600601559050506001600760008360000151815260200190815260200160002060006101000a81548160ff021916908315150217905550612b6f565b600380811115612a3257612a3161472e565b5b8a6003811115612a4557612a4461472e565b5b03612b3c57601860008154612a5990615a3a565b919050819055816000018181525050806014600083600001518152602001908152602001600020600082015181600001556020820151816001019081612a9f9190615529565b5060408201518160020160006101000a81548160ff02191690836003811115612acb57612aca61472e565b5b02179055506060820151816003019081612ae59190615529565b506080820151816004015560a0820151816005015560c082015181600601559050506001600960008360000151815260200190815260200160002060006101000a81548160ff021916908315150217905550612b6e565b6040517f1ba7dd4700000000000000000000000000000000000000000000000000000000815260040160405180910390fd5b5b5b5b6010819080600181540180825580915050600190039060005260206000209060070201600090919091909150600082015181600001556020820151816001019081612bbc9190615529565b5060408201518160020160006101000a81548160ff02191690836003811115612be857612be761472e565b5b02179055506060820151816003019081612c029190615529565b506080820151816004015560a0820151816005015560c0820151816006015550507f036ea185d659d311308d48f377a57d1954df7161b963d5d0c9054f87c438b029898b604051612c54929190615a82565b60405180910390a150505050505050505050565b60025481565b612c766145fc565b60006003811115612c8a57612c8961472e565b5b836003811115612c9d57612c9c61472e565b5b03612d3f57604051806040016040528060006003811115612cc157612cc061472e565b5b8152602001600b60008773ffffffffffffffffffffffffffffffffffffffff1673ffffffffffffffffffffffffffffffffffffffff1681526020019081526020016000206000858152602001908152602001600020604051602001612d269190615d0c565b6040516020818303038152906040528152509050612f69565b60016003811115612d5357612d5261472e565b5b836003811115612d6657612d6561472e565b5b03612e0857604051806040016040528060016003811115612d8a57612d8961472e565b5b8152602001600c60008773ffffffffffffffffffffffffffffffffffffffff1673ffffffffffffffffffffffffffffffffffffffff1681526020019081526020016000206000858152602001908152602001600020604051602001612def9190615d0c565b6040516020818303038152906040528152509050612f69565b60026003811115612e1c57612e1b61472e565b5b836003811115612e2f57612e2e61472e565b5b03612ed157604051806040016040528060026003811115612e5357612e5261472e565b5b8152602001600d60008773ffffffffffffffffffffffffffffffffffffffff1673ffffffffffffffffffffffffffffffffffffffff1681526020019081526020016000206000858152602001908152602001600020604051602001612eb89190615d0c565b6040516020818303038152906040528152509050612f69565b6040518060400160405280600380811115612eef57612eee61472e565b5b8152602001600e60008773ffffffffffffffffffffffffffffffffffffffff1673ffffffffffffffffffffffffffffffffffffffff1681526020019081526020016000206000858152602001908152602001600020604051602001612f549190615d0c565b60405160208183030381529060405281525090505b9392505050565b600460009054906101000a900473ffffffffffffffffffffffffffffffffffffffff1681565b600c602052816000526040600020602052806000526040600020600091509150508060000160009054906101000a900473ffffffffffffffffffffffffffffffffffffffff16908060010154908060020160009054906101000a900460ff16908060030180546130059061527d565b80601f01602080910402602001604051908101604052809291908181526020018280546130319061527d565b801561307e5780601f106130535761010080835404028352916020019161307e565b820191906000526020600020905b81548152906001019060200180831161306157829003601f168201915b5050505050908060040154908060050154908060060154908060070154908060080160009054906101000a900460ff16905089565b6060600f60008373ffffffffffffffffffffffffffffffffffffffff1673ffffffffffffffffffffffffffffffffffffffff168152602001908152602001600020805480602002602001604051908101604052809291908181526020016000905b828210156132b75783829060005260206000209060090201604051806101200160405290816000820160009054906101000a900473ffffffffffffffffffffffffffffffffffffffff1673ffffffffffffffffffffffffffffffffffffffff1673ffffffffffffffffffffffffffffffffffffffff168152602001600182015481526020016002820160009054906101000a900460ff1660038111156131bd576131bc61472e565b5b60038111156131cf576131ce61472e565b5b81526020016003820180546131e39061527d565b80601f016020809104026020016040519081016040528092919081815260200182805461320f9061527d565b801561325c5780601f106132315761010080835404028352916020019161325c565b820191906000526020600020905b81548152906001019060200180831161323f57829003601f168201915b50505050508152602001600482015481526020016005820154815260200160068201548152602001600782015481526020016008820160009054906101000a900460ff16151515158152505081526020019060010190613114565b505050509050919050565b6132ca6144a7565b6132d4600061452e565b565b6132de6144a7565b80600360006101000a81548173ffffffffffffffffffffffffffffffffffffffff021916908373ffffffffffffffffffffffffffffffffffffffff16021790555050565b600360009054906101000a900473ffffffffffffffffffffffffffffffffffffffff1681565b6000600160009054906101000a900473ffffffffffffffffffffffffffffffffffffffff16905090565b601160205280600052604060002060009150905080600001549080600101805461339b9061527d565b80601f01602080910402602001604051908101604052809291908181526020018280546133c79061527d565b80156134145780601f106133e957610100808354040283529160200191613414565b820191906000526020600020905b8154815290600101906020018083116133f757829003601f168201915b5050505050908060020160009054906101000a900460ff169080600301805461343c9061527d565b80601f01602080910402602001604051908101604052809291908181526020018280546134689061527d565b80156134b55780601f1061348a576101008083540402835291602001916134b5565b820191906000526020600020905b81548152906001019060200180831161349857829003601f168201915b5050505050908060040154908060050154908060060154905087565b600a6020528060005260406000206000915090505481565b60606010805480602002602001604051908101604052809291908181526020016000905b828210156136c657838290600052602060002090600702016040518060e00160405290816000820154815260200160018201805461354a9061527d565b80601f01602080910402602001604051908101604052809291908181526020018280546135769061527d565b80156135c35780601f10613598576101008083540402835291602001916135c3565b820191906000526020600020905b8154815290600101906020018083116135a657829003601f168201915b505050505081526020016002820160009054906101000a900460ff1660038111156135f1576135f061472e565b5b60038111156136035761360261472e565b5b81526020016003820180546136179061527d565b80601f01602080910402602001604051908101604052809291908181526020018280546136439061527d565b80156136905780601f1061366557610100808354040283529160200191613690565b820191906000526020600020905b81548152906001019060200180831161367357829003601f168201915b5050505050815260200160048201548152602001600582015481526020016006820154815250508152602001906001019061350d565b50505050905090565b600f60205281600052604060002081815481106136eb57600080fd5b9060005260206000209060090201600091509150508060000160009054906101000a900473ffffffffffffffffffffffffffffffffffffffff16908060010154908060020160009054906101000a900460ff169080600301805461374e9061527d565b80601f016020809104026020016040519081016040528092919081815260200182805461377a9061527d565b80156137c75780601f1061379c576101008083540402835291602001916137c7565b820191906000526020600020905b8154815290600101906020018083116137aa57829003601f168201915b5050505050908060040154908060050154908060060154908060070154908060080160009054906101000a900460ff16905089565b60146020528060005260406000206000915090508060000154908060010180546138259061527d565b80601f01602080910402602001604051908101604052809291908181526020018280546138519061527d565b801561389e5780601f106138735761010080835404028352916020019161389e565b820191906000526020600020905b81548152906001019060200180831161388157829003601f168201915b5050505050908060020160009054906101000a900460ff16908060030180546138c69061527d565b80601f01602080910402602001604051908101604052809291908181526020018280546138f29061527d565b801561393f5780601f106139145761010080835404028352916020019161393f565b820191906000526020600020905b81548152906001019060200180831161392257829003601f168201915b5050505050908060040154908060050154908060060154905087565b60096020528060005260406000206000915054906101000a900460ff1681565b60076020528060005260406000206000915054906101000a900460ff1681565b60126020528060005260406000206000915090508060000154908060010180546139c49061527d565b80601f01602080910402602001604051908101604052809291908181526020018280546139f09061527d565b8015613a3d5780601f10613a1257610100808354040283529160200191613a3d565b820191906000526020600020905b815481529060010190602001808311613a2057829003601f168201915b5050505050908060020160009054906101000a900460ff1690806003018054613a659061527d565b80601f0160208091040260200160405190810160405280929190818152602001828054613a919061527d565b8015613ade5780601f10613ab357610100808354040283529160200191613ade565b820191906000526020600020905b815481529060010190602001808311613ac157829003601f168201915b5050505050908060040154908060050154908060060154905087565b600b602052816000526040600020602052806000526040600020600091509150508060000160009054906101000a900473ffffffffffffffffffffffffffffffffffffffff16908060010154908060020160009054906101000a900460ff1690806003018054613b699061527d565b80601f0160208091040260200160405190810160405280929190818152602001828054613b959061527d565b8015613be25780601f10613bb757610100808354040283529160200191613be2565b820191906000526020600020905b815481529060010190602001808311613bc557829003601f168201915b5050505050908060040154908060050154908060060154908060070154908060080160009054906101000a900460ff16905089565b600e602052816000526040600020602052806000526040600020600091509150508060000160009054906101000a900473ffffffffffffffffffffffffffffffffffffffff16908060010154908060020160009054906101000a900460ff1690806003018054613c869061527d565b80601f0160208091040260200160405190810160405280929190818152602001828054613cb29061527d565b8015613cff5780601f10613cd457610100808354040283529160200191613cff565b820191906000526020600020905b815481529060010190602001808311613ce257829003601f168201915b5050505050908060040154908060050154908060060154908060070154908060080160009054906101000a900460ff16905089565b60066020528060005260406000206000915054906101000a900460ff1681565b600460009054906101000a900473ffffffffffffffffffffffffffffffffffffffff1673ffffffffffffffffffffffffffffffffffffffff163373ffffffffffffffffffffffffffffffffffffffff1614613de4576040517f08c379a0000000000000000000000000000000000000000000000000000000008152600401613ddb90615da0565b60405180910390fd5b613dec614457565b60006003811115613e0057613dff61472e565b5b826003811115613e1357613e1261472e565b5b03613ef15780600b60008673ffffffffffffffffffffffffffffffffffffffff1673ffffffffffffffffffffffffffffffffffffffff16815260200190815260200160002060008581526020019081526020016000206004016000828254613e7b9190615353565b9250508190555080600b60008673ffffffffffffffffffffffffffffffffffffffff1673ffffffffffffffffffffffffffffffffffffffff16815260200190815260200160002060008581526020019081526020016000206005016000828254613ee5919061531f565b92505081905550614234565b60016003811115613f0557613f0461472e565b5b826003811115613f1857613f1761472e565b5b03613ff65780600c60008673ffffffffffffffffffffffffffffffffffffffff1673ffffffffffffffffffffffffffffffffffffffff16815260200190815260200160002060008581526020019081526020016000206004016000828254613f809190615353565b9250508190555080600c60008673ffffffffffffffffffffffffffffffffffffffff1673ffffffffffffffffffffffffffffffffffffffff16815260200190815260200160002060008581526020019081526020016000206005016000828254613fea919061531f565b92505081905550614233565b6002600381111561400a5761400961472e565b5b82600381111561401d5761401c61472e565b5b036140fb5780600d60008673ffffffffffffffffffffffffffffffffffffffff1673ffffffffffffffffffffffffffffffffffffffff168152602001908152602001600020600085815260200190815260200160002060040160008282546140859190615353565b9250508190555080600d60008673ffffffffffffffffffffffffffffffffffffffff1673ffffffffffffffffffffffffffffffffffffffff168152602001908152602001600020600085815260200190815260200160002060050160008282546140ef919061531f565b92505081905550614232565b60038081111561410e5761410d61472e565b5b8260038111156141215761412061472e565b5b036141ff5780600e60008673ffffffffffffffffffffffffffffffffffffffff1673ffffffffffffffffffffffffffffffffffffffff168152602001908152602001600020600085815260200190815260200160002060040160008282546141899190615353565b9250508190555080600e60008673ffffffffffffffffffffffffffffffffffffffff1673ffffffffffffffffffffffffffffffffffffffff168152602001908152602001600020600085815260200190815260200160002060050160008282546141f3919061531f565b92505081905550614231565b6040517fbccd404300000000000000000000000000000000000000000000000000000000815260040160405180910390fd5b5b5b5b61423c61449d565b50505050565b6010818154811061425257600080fd5b906000526020600020906007020160009150905080600001549080600101805461427b9061527d565b80601f01602080910402602001604051908101604052809291908181526020018280546142a79061527d565b80156142f45780601f106142c9576101008083540402835291602001916142f4565b820191906000526020600020905b8154815290600101906020018083116142d757829003601f168201915b5050505050908060020160009054906101000a900460ff169080600301805461431c9061527d565b80601f01602080910402602001604051908101604052809291908181526020018280546143489061527d565b80156143955780601f1061436a57610100808354040283529160200191614395565b820191906000526020600020905b81548152906001019060200180831161437857829003601f168201915b5050505050908060040154908060050154908060060154905087565b60086020528060005260406000206000915054906101000a900460ff1681565b6143d96144a7565b600073ffffffffffffffffffffffffffffffffffffffff168173ffffffffffffffffffffffffffffffffffffffff160361444b5760006040517f1e4fbdf70000000000000000000000000000000000000000000000000000000081526004016144429190614b7f565b60405180910390fd5b6144548161452e565b50565b600260005403614493576040517f3ee5aeb500000000000000000000000000000000000000000000000000000000815260040160405180910390fd5b6002600081905550565b6001600081905550565b6144af6145f4565b73ffffffffffffffffffffffffffffffffffffffff166144cd613348565b73ffffffffffffffffffffffffffffffffffffffff161461452c576144f06145f4565b6040517f118cdaa70000000000000000000000000000000000000000000000000000000081526004016145239190614b7f565b60405180910390fd5b565b6000600160009054906101000a900473ffffffffffffffffffffffffffffffffffffffff16905081600160006101000a81548173ffffffffffffffffffffffffffffffffffffffff021916908373ffffffffffffffffffffffffffffffffffffffff1602179055508173ffffffffffffffffffffffffffffffffffffffff168173ffffffffffffffffffffffffffffffffffffffff167f8be0079c531659141344cd1fd0a4f28419497f9722a3daafe3b4186f6b6457e060405160405180910390a35050565b600033905090565b60405180604001604052806000600381111561461b5761461a61472e565b5b8152602001606081525090565b6000604051905090565b600080fd5b600080fd5b600073ffffffffffffffffffffffffffffffffffffffff82169050919050565b60006146678261463c565b9050919050565b6146778161465c565b811461468257600080fd5b50565b6000813590506146948161466e565b92915050565b6000819050919050565b6146ad8161469a565b81146146b857600080fd5b50565b6000813590506146ca816146a4565b92915050565b600080604083850312156146e7576146e6614632565b5b60006146f585828601614685565b9250506020614706858286016146bb565b9150509250929050565b6147198161465c565b82525050565b6147288161469a565b82525050565b7f4e487b7100000000000000000000000000000000000000000000000000000000600052602160045260246000fd5b6004811061476e5761476d61472e565b5b50565b600081905061477f8261475d565b919050565b600061478f82614771565b9050919050565b61479f81614784565b82525050565b600081519050919050565b600082825260208201905092915050565b60005b838110156147df5780820151818401526020810190506147c4565b60008484015250505050565b6000601f19601f8301169050919050565b6000614807826147a5565b61481181856147b0565b93506148218185602086016147c1565b61482a816147eb565b840191505092915050565b60008115159050919050565b61484a81614835565b82525050565b600061012082019050614866600083018c614710565b614873602083018b61471f565b614880604083018a614796565b818103606083015261489281896147fc565b90506148a1608083018861471f565b6148ae60a083018761471f565b6148bb60c083018661471f565b6148c860e083018561471f565b6148d6610100830184614841565b9a9950505050505050505050565b600481106148f157600080fd5b50565b600081359050614903816148e4565b92915050565b600080fd5b600080fd5b7f4e487b7100000000000000000000000000000000000000000000000000000000600052604160045260246000fd5b61494b826147eb565b810181811067ffffffffffffffff8211171561496a57614969614913565b5b80604052505050565b600061497d614628565b90506149898282614942565b919050565b600067ffffffffffffffff8211156149a9576149a8614913565b5b6149b2826147eb565b9050602081019050919050565b82818337600083830152505050565b60006149e16149dc8461498e565b614973565b9050828152602081018484840111156149fd576149fc61490e565b5b614a088482856149bf565b509392505050565b600082601f830112614a2557614a24614909565b5b8135614a358482602086016149ce565b91505092915050565b600080600080600060a08688031215614a5a57614a59614632565b5b6000614a68888289016148f4565b9550506020614a79888289016146bb565b945050604086013567ffffffffffffffff811115614a9a57614a99614637565b5b614aa688828901614a10565b9350506060614ab7888289016146bb565b9250506080614ac8888289016146bb565b9150509295509295909350565b600060208284031215614aeb57614aea614632565b5b6000614af9848285016146bb565b91505092915050565b600060e082019050614b17600083018a61471f565b8181036020830152614b2981896147fc565b9050614b386040830188614796565b8181036060830152614b4a81876147fc565b9050614b59608083018661471f565b614b6660a083018561471f565b614b7360c083018461471f565b98975050505050505050565b6000602082019050614b946000830184614710565b92915050565b600080600080600060a08688031215614bb657614bb5614632565b5b6000614bc4888289016148f4565b955050602086013567ffffffffffffffff811115614be557614be4614637565b5b614bf188828901614a10565b945050604086013567ffffffffffffffff811115614c1257614c11614637565b5b614c1e88828901614a10565b9350506060614c2f888289016146bb565b9250506080614c40888289016146bb565b9150509295509295909350565b6000602082019050614c62600083018461471f565b92915050565b600080600060608486031215614c8157614c80614632565b5b6000614c8f86828701614685565b9350506020614ca0868287016148f4565b9250506040614cb1868287016146bb565b9150509250925092565b614cc481614784565b82525050565b600081519050919050565b600082825260208201905092915050565b6000614cf182614cca565b614cfb8185614cd5565b9350614d0b8185602086016147c1565b614d14816147eb565b840191505092915050565b6000604083016000830151614d376000860182614cbb565b5060208301518482036020860152614d4f8282614ce6565b9150508091505092915050565b60006020820190508181036000830152614d768184614d1f565b905092915050565b600060208284031215614d9457614d93614632565b5b6000614da284828501614685565b91505092915050565b600081519050919050565b600082825260208201905092915050565b6000819050602082019050919050565b614de08161465c565b82525050565b614def8161469a565b82525050565b600082825260208201905092915050565b6000614e11826147a5565b614e1b8185614df5565b9350614e2b8185602086016147c1565b614e34816147eb565b840191505092915050565b614e4881614835565b82525050565b600061012083016000830151614e676000860182614dd7565b506020830151614e7a6020860182614de6565b506040830151614e8d6040860182614cbb565b5060608301518482036060860152614ea58282614e06565b9150506080830151614eba6080860182614de6565b5060a0830151614ecd60a0860182614de6565b5060c0830151614ee060c0860182614de6565b5060e0830151614ef360e0860182614de6565b50610100830151614f08610100860182614e3f565b508091505092915050565b6000614f1f8383614e4e565b905092915050565b6000602082019050919050565b6000614f3f82614dab565b614f498185614db6565b935083602082028501614f5b85614dc7565b8060005b85811015614f975784840389528151614f788582614f13565b9450614f8383614f27565b925060208a01995050600181019050614f5f565b50829750879550505050505092915050565b60006020820190508181036000830152614fc38184614f34565b905092915050565b6000819050919050565b6000614ff0614feb614fe68461463c565b614fcb565b61463c565b9050919050565b600061500282614fd5565b9050919050565b600061501482614ff7565b9050919050565b61502481615009565b82525050565b600060208201905061503f600083018461501b565b92915050565b600081519050919050565b600082825260208201905092915050565b6000819050602082019050919050565b600060e0830160008301516150896000860182614de6565b50602083015184820360208601526150a18282614e06565b91505060408301516150b66040860182614cbb565b50606083015184820360608601526150ce8282614e06565b91505060808301516150e36080860182614de6565b5060a08301516150f660a0860182614de6565b5060c083015161510960c0860182614de6565b508091505092915050565b60006151208383615071565b905092915050565b6000602082019050919050565b600061514082615045565b61514a8185615050565b93508360208202850161515c85615061565b8060005b8581101561519857848403895281516151798582615114565b945061518483615128565b925060208a01995050600181019050615160565b50829750879550505050505092915050565b600060208201905081810360008301526151c48184615135565b905092915050565b60006020820190506151e16000830184614841565b92915050565b6000806000806080858703121561520157615200614632565b5b600061520f87828801614685565b9450506020615220878288016146bb565b9350506040615231878288016148f4565b9250506060615242878288016146bb565b91505092959194509250565b7f4e487b7100000000000000000000000000000000000000000000000000000000600052602260045260246000fd5b6000600282049050600182168061529557607f821691505b6020821081036152a8576152a761524e565b5b50919050565b7f4e487b7100000000000000000000000000000000000000000000000000000000600052601160045260246000fd5b60006152e88261469a565b91506152f38361469a565b92508282026153018161469a565b91508282048414831517615318576153176152ae565b5b5092915050565b600061532a8261469a565b91506153358361469a565b925082820190508082111561534d5761534c6152ae565b5b92915050565b600061535e8261469a565b91506153698361469a565b9250828203905081811115615381576153806152ae565b5b92915050565b60008190508160005260206000209050919050565b60006020601f8301049050919050565b600082821b905092915050565b6000600883026153e97fffffffffffffffffffffffffffffffffffffffffffffffffffffffffffffffff826153ac565b6153f386836153ac565b95508019841693508086168417925050509392505050565b600061542661542161541c8461469a565b614fcb565b61469a565b9050919050565b6000819050919050565b6154408361540b565b61545461544c8261542d565b8484546153b9565b825550505050565b600090565b61546961545c565b615474818484615437565b505050565b5b818110156154985761548d600082615461565b60018101905061547a565b5050565b601f8211156154dd576154ae81615387565b6154b78461539c565b810160208510156154c6578190505b6154da6154d28561539c565b830182615479565b50505b505050565b600082821c905092915050565b6000615500600019846008026154e2565b1980831691505092915050565b600061551983836154ef565b9150826002028217905092915050565b615532826147a5565b67ffffffffffffffff81111561554b5761554a614913565b5b615555825461527d565b61556082828561549c565b600060209050601f8311600181146155935760008415615581578287015190505b61558b858261550d565b8655506155f3565b601f1984166155a186615387565b60005b828110156155c9578489015182556001820191506020850194506020810190506155a4565b868310156155e657848901516155e2601f8916826154ef565b8355505b6001600288020188555050505b505050505050565b6000606082019050615610600083018661471f565b61561d602083018561471f565b61562a6040830184614796565b949350505050565b6000604082019050615647600083018561471f565b6156546020830184614710565b9392505050565b600080fd5b60008151905061566f8161466e565b92915050565b600081519050615684816146a4565b92915050565b6002811061569757600080fd5b50565b6000815190506156a98161568a565b92915050565b600060e082840312156156c5576156c461565b565b5b6156cf60e0614973565b905060006156df84828501615660565b60008301525060206156f384828501615675565b602083015250604061570784828501615675565b604083015250606061571b84828501615675565b606083015250608061572f84828501615675565b60808301525060a06157438482850161569a565b60a08301525060c061575784828501615675565b60c08301525092915050565b600060e0828403121561577957615778614632565b5b6000615787848285016156af565b91505092915050565b7f4e487b7100000000000000000000000000000000000000000000000000000000600052601260045260246000fd5b60006157ca8261469a565b91506157d58361469a565b9250826157e5576157e4615790565b5b828204905092915050565b600081905092915050565b50565b600061580b6000836157f0565b9150615816826157fb565b600082019050919050565b600061582c826157fe565b9150819050919050565b7f5472616e73666572206661696c65640000000000000000000000000000000000600082015250565b600061586c600f836147b0565b915061587782615836565b602082019050919050565b6000602082019050818103600083015261589b8161585f565b9050919050565b60006158b56158b08461498e565b614973565b9050828152602081018484840111156158d1576158d061490e565b5b6158dc8482856147c1565b509392505050565b600082601f8301126158f9576158f8614909565b5b81516159098482602086016158a2565b91505092915050565b600081519050615921816148e4565b92915050565b61593081614835565b811461593b57600080fd5b50565b60008151905061594d81615927565b92915050565b600080600080600080600060e0888a03121561597257615971614632565b5b600088015167ffffffffffffffff8111156159905761598f614637565b5b61599c8a828b016158e4565b97505060206159ad8a828b01615912565b96505060406159be8a828b01615675565b95505060606159cf8a828b01615675565b94505060806159e08a828b01615675565b93505060a06159f18a828b0161593e565b92505060c0615a028a828b01615675565b91505092959891949750929550565b6000604082019050615a26600083018561471f565b615a33602083018461471f565b9392505050565b6000615a458261469a565b91507fffffffffffffffffffffffffffffffffffffffffffffffffffffffffffffffff8203615a7757615a766152ae565b5b600182019050919050565b60006040820190508181036000830152615a9c81856147fc565b9050615aab6020830184614796565b9392505050565b60008160001c9050919050565b600073ffffffffffffffffffffffffffffffffffffffff82169050919050565b6000615af2615aed83615ab2565b615abf565b9050919050565b6000819050919050565b6000615b16615b1183615ab2565b615af9565b9050919050565b600060ff82169050919050565b6000615b3d615b3883615ab2565b615b1d565b9050919050565b60008154615b518161527d565b615b5b8186614df5565b94506001821660008114615b765760018114615b8c57615bbf565b60ff198316865281151560200286019350615bbf565b615b9585615387565b60005b83811015615bb757815481890152600182019150602081019050615b98565b808801955050505b50505092915050565b600060ff82169050919050565b6000615be8615be383615ab2565b615bc8565b9050919050565b600061012083016000808401549050615c0781615adf565b615c146000870182614dd7565b5060018401549050615c2581615b03565b615c326020870182614de6565b5060028401549050615c4381615b2a565b615c506040870182614cbb565b50600384018583036060870152615c678382615b44565b92505060048401549050615c7a81615b03565b615c876080870182614de6565b5060058401549050615c9881615b03565b615ca560a0870182614de6565b5060068401549050615cb681615b03565b615cc360c0870182614de6565b5060078401549050615cd481615b03565b615ce160e0870182614de6565b5060088401549050615cf281615bd5565b615d00610100870182614e3f565b50819250505092915050565b60006020820190508181036000830152615d268184615bef565b905092915050565b7f43616c6c6572206973206e6f742074686520676f7665726e616e636520636f6e60008201527f7472616374000000000000000000000000000000000000000000000000000000602082015250565b6000615d8a6025836147b0565b9150615d9582615d2e565b604082019050919050565b60006020820190508181036000830152615db981615d7d565b905091905056fea2646970667358221220047b0f8b44a2bb9783c36358cef4ce37b5109dbdcc6ffbc301eb3f518026047f64736f6c63430008180033",
  "linkReferences": {},
  "deployedLinkReferences": {}
}