{
  "_format": "hh-sol-artifact-1",
  "contractName": "InsurancePool",
  "sourceName": "contracts/InsurancePool.sol",
  "abi": [
    {
      "inputs": [
        {
          "internalType": "address",
          "name": "_initialOwner",
          "type": "address"
        }
      ],
      "stateMutability": "nonpayable",
      "type": "constructor"
    },
    {
      "inputs": [],
      "name": "LpNotActive",
      "type": "error"
    },
    {
      "inputs": [
        {
          "internalType": "address",
          "name": "owner",
          "type": "address"
        }
      ],
      "name": "OwnableInvalidOwner",
      "type": "error"
    },
    {
      "inputs": [
        {
          "internalType": "address",
          "name": "account",
          "type": "address"
        }
      ],
      "name": "OwnableUnauthorizedAccount",
      "type": "error"
    },
    {
      "inputs": [],
      "name": "ReentrancyGuardReentrantCall",
      "type": "error"
    },
    {
      "anonymous": false,
      "inputs": [
        {
          "indexed": false,
          "internalType": "uint256",
          "name": "",
          "type": "uint256"
        },
        {
          "indexed": false,
          "internalType": "uint256",
          "name": "",
          "type": "uint256"
        },
        {
          "indexed": false,
          "internalType": "address",
          "name": "",
          "type": "address"
        }
      ],
      "name": "ClaimAttempt",
      "type": "event"
    },
    {
      "anonymous": false,
      "inputs": [
        {
          "indexed": true,
          "internalType": "address",
          "name": "recipient",
          "type": "address"
        },
        {
          "indexed": false,
          "internalType": "string",
          "name": "pool",
          "type": "string"
        },
        {
          "indexed": false,
          "internalType": "uint256",
          "name": "amount",
          "type": "uint256"
        }
      ],
      "name": "ClaimPaid",
      "type": "event"
    },
    {
      "anonymous": false,
      "inputs": [
        {
          "indexed": true,
          "internalType": "address",
          "name": "user",
          "type": "address"
        },
        {
          "indexed": false,
          "internalType": "uint256",
          "name": "amount",
          "type": "uint256"
        },
        {
          "indexed": false,
          "internalType": "string",
          "name": "pool",
          "type": "string"
        }
      ],
      "name": "Deposited",
      "type": "event"
    },
    {
      "anonymous": false,
      "inputs": [
        {
          "indexed": true,
          "internalType": "address",
          "name": "previousOwner",
          "type": "address"
        },
        {
          "indexed": true,
          "internalType": "address",
          "name": "newOwner",
          "type": "address"
        }
      ],
      "name": "OwnershipTransferred",
      "type": "event"
    },
    {
      "anonymous": false,
      "inputs": [
        {
          "indexed": true,
          "internalType": "uint256",
          "name": "id",
          "type": "uint256"
        },
        {
          "indexed": false,
          "internalType": "string",
          "name": "poolName",
          "type": "string"
        }
      ],
      "name": "PoolCreated",
      "type": "event"
    },
    {
      "anonymous": false,
      "inputs": [
        {
          "indexed": true,
          "internalType": "uint256",
          "name": "poolId",
          "type": "uint256"
        },
        {
          "indexed": false,
          "internalType": "uint256",
          "name": "apy",
          "type": "uint256"
        },
        {
          "indexed": false,
          "internalType": "uint256",
          "name": "_minPeriod",
          "type": "uint256"
        }
      ],
      "name": "PoolUpdated",
      "type": "event"
    },
    {
      "anonymous": false,
      "inputs": [
        {
          "indexed": true,
          "internalType": "address",
          "name": "user",
          "type": "address"
        },
        {
          "indexed": false,
          "internalType": "uint256",
          "name": "amount",
          "type": "uint256"
        },
        {
          "indexed": false,
          "internalType": "string",
          "name": "pool",
          "type": "string"
        }
      ],
      "name": "Withdraw",
      "type": "event"
    },
    {
      "inputs": [],
      "name": "coverContract",
      "outputs": [
        {
          "internalType": "address",
          "name": "",
          "type": "address"
        }
      ],
      "stateMutability": "view",
      "type": "function"
    },
    {
      "inputs": [
        {
          "internalType": "enum CoverLib.RiskType",
          "name": "_riskType",
          "type": "uint8"
        },
        {
          "internalType": "string",
          "name": "_poolName",
          "type": "string"
        },
        {
          "internalType": "uint256",
          "name": "_apy",
          "type": "uint256"
        },
        {
          "internalType": "uint256",
          "name": "_minPeriod",
          "type": "uint256"
        }
      ],
      "name": "createPool",
      "outputs": [],
      "stateMutability": "nonpayable",
      "type": "function"
    },
    {
      "inputs": [
        {
          "internalType": "uint256",
          "name": "_poolId",
          "type": "uint256"
        }
      ],
      "name": "deactivatePool",
      "outputs": [],
      "stateMutability": "nonpayable",
      "type": "function"
    },
    {
      "inputs": [
        {
          "internalType": "uint256",
          "name": "_poolId",
          "type": "uint256"
        },
        {
          "internalType": "uint256",
          "name": "_period",
          "type": "uint256"
        }
      ],
      "name": "deposit",
      "outputs": [],
      "stateMutability": "payable",
      "type": "function"
    },
    {
      "inputs": [],
      "name": "getAllPools",
      "outputs": [
        {
          "components": [
            {
              "internalType": "string",
              "name": "poolName",
              "type": "string"
            },
            {
              "internalType": "uint256",
              "name": "apy",
              "type": "uint256"
            },
            {
              "internalType": "uint256",
              "name": "minPeriod",
              "type": "uint256"
            },
            {
              "internalType": "uint256",
              "name": "tvl",
              "type": "uint256"
            },
            {
              "internalType": "uint256",
              "name": "tcp",
              "type": "uint256"
            },
            {
              "internalType": "bool",
              "name": "isActive",
              "type": "bool"
            }
          ],
          "internalType": "struct InsurancePool.PoolInfo[]",
          "name": "",
          "type": "tuple[]"
        }
      ],
      "stateMutability": "view",
      "type": "function"
    },
    {
      "inputs": [
        {
          "internalType": "uint256",
          "name": "_poolId",
          "type": "uint256"
        }
      ],
      "name": "getPool",
      "outputs": [
        {
          "internalType": "string",
          "name": "name",
          "type": "string"
        },
        {
          "internalType": "enum CoverLib.RiskType",
          "name": "riskType",
          "type": "uint8"
        },
        {
          "internalType": "uint256",
          "name": "apy",
          "type": "uint256"
        },
        {
          "internalType": "uint256",
          "name": "minPeriod",
          "type": "uint256"
        },
        {
          "internalType": "uint256",
          "name": "tvl",
          "type": "uint256"
        },
        {
          "internalType": "bool",
          "name": "isActive",
          "type": "bool"
        },
        {
          "internalType": "uint256",
          "name": "percentageSplitBalance",
          "type": "uint256"
        }
      ],
      "stateMutability": "view",
      "type": "function"
    },
    {
      "inputs": [
        {
          "internalType": "uint256",
          "name": "_poolId",
          "type": "uint256"
        }
      ],
      "name": "getPoolTVL",
      "outputs": [
        {
          "internalType": "uint256",
          "name": "",
          "type": "uint256"
        }
      ],
      "stateMutability": "view",
      "type": "function"
    },
    {
      "inputs": [
        {
          "internalType": "address",
          "name": "_userAddress",
          "type": "address"
        }
      ],
      "name": "getPoolsByAddress",
      "outputs": [
        {
          "components": [
            {
              "internalType": "string",
              "name": "poolName",
              "type": "string"
            },
            {
              "internalType": "uint256",
              "name": "apy",
              "type": "uint256"
            },
            {
              "internalType": "uint256",
              "name": "minPeriod",
              "type": "uint256"
            },
            {
              "internalType": "uint256",
              "name": "tvl",
              "type": "uint256"
            },
            {
              "internalType": "uint256",
              "name": "tcp",
              "type": "uint256"
            },
            {
              "internalType": "bool",
              "name": "isActive",
              "type": "bool"
            }
          ],
          "internalType": "struct InsurancePool.PoolInfo[]",
          "name": "",
          "type": "tuple[]"
        }
      ],
      "stateMutability": "view",
      "type": "function"
    },
    {
      "inputs": [
        {
          "internalType": "uint256",
          "name": "_poolId",
          "type": "uint256"
        },
        {
          "internalType": "address",
          "name": "_user",
          "type": "address"
        }
      ],
      "name": "getUserDeposit",
      "outputs": [
        {
          "components": [
            {
              "internalType": "address",
              "name": "lp",
              "type": "address"
            },
            {
              "internalType": "uint256",
              "name": "amount",
              "type": "uint256"
            },
            {
              "internalType": "uint256",
              "name": "poolId",
              "type": "uint256"
            },
            {
              "internalType": "uint256",
              "name": "period",
              "type": "uint256"
            },
            {
              "internalType": "uint256",
              "name": "dailyPayout",
              "type": "uint256"
            },
            {
              "internalType": "enum InsurancePool.Status",
              "name": "status",
              "type": "uint8"
            },
            {
              "internalType": "uint256",
              "name": "expiryDate",
              "type": "uint256"
            }
          ],
          "internalType": "struct InsurancePool.Deposits",
          "name": "",
          "type": "tuple"
        }
      ],
      "stateMutability": "view",
      "type": "function"
    },
    {
      "inputs": [],
      "name": "governance",
      "outputs": [
        {
          "internalType": "address",
          "name": "",
          "type": "address"
        }
      ],
      "stateMutability": "view",
      "type": "function"
    },
    {
      "inputs": [],
      "name": "initialOwner",
      "outputs": [
        {
          "internalType": "address",
          "name": "",
          "type": "address"
        }
      ],
      "stateMutability": "view",
      "type": "function"
    },
    {
      "inputs": [],
      "name": "owner",
      "outputs": [
        {
          "internalType": "address",
          "name": "",
          "type": "address"
        }
      ],
      "stateMutability": "view",
      "type": "function"
    },
    {
      "inputs": [
        {
          "internalType": "uint256",
          "name": "poolId",
          "type": "uint256"
        },
        {
          "internalType": "uint256",
          "name": "claimAmount",
          "type": "uint256"
        },
        {
          "internalType": "address payable",
          "name": "recipient",
          "type": "address"
        }
      ],
      "name": "payClaim",
      "outputs": [],
      "stateMutability": "nonpayable",
      "type": "function"
    },
    {
      "inputs": [
        {
          "internalType": "uint256",
          "name": "poolId",
          "type": "uint256"
        }
      ],
      "name": "poolActive",
      "outputs": [
        {
          "internalType": "bool",
          "name": "",
          "type": "bool"
        }
      ],
      "stateMutability": "view",
      "type": "function"
    },
    {
      "inputs": [],
      "name": "poolCount",
      "outputs": [
        {
          "internalType": "uint256",
          "name": "",
          "type": "uint256"
        }
      ],
      "stateMutability": "view",
      "type": "function"
    },
    {
      "inputs": [
        {
          "internalType": "uint256",
          "name": "",
          "type": "uint256"
        }
      ],
      "name": "pools",
      "outputs": [
        {
          "internalType": "string",
          "name": "poolName",
          "type": "string"
        },
        {
          "internalType": "enum CoverLib.RiskType",
          "name": "riskType",
          "type": "uint8"
        },
        {
          "internalType": "uint256",
          "name": "apy",
          "type": "uint256"
        },
        {
          "internalType": "uint256",
          "name": "minPeriod",
          "type": "uint256"
        },
        {
          "internalType": "uint256",
          "name": "tvl",
          "type": "uint256"
        },
        {
          "internalType": "uint256",
          "name": "tcp",
          "type": "uint256"
        },
        {
          "internalType": "bool",
          "name": "isActive",
          "type": "bool"
        },
        {
          "internalType": "uint256",
          "name": "percentageSplitBalance",
          "type": "uint256"
        }
      ],
      "stateMutability": "view",
      "type": "function"
    },
    {
      "inputs": [],
      "name": "renounceOwnership",
      "outputs": [],
      "stateMutability": "nonpayable",
      "type": "function"
    },
    {
      "inputs": [
        {
          "internalType": "address",
          "name": "_coverContract",
          "type": "address"
        }
      ],
      "name": "setCover",
      "outputs": [],
      "stateMutability": "nonpayable",
      "type": "function"
    },
    {
      "inputs": [
        {
          "internalType": "address",
          "name": "_governance",
          "type": "address"
        }
      ],
      "name": "setGovernance",
      "outputs": [],
      "stateMutability": "nonpayable",
      "type": "function"
    },
    {
      "inputs": [
        {
          "internalType": "address",
          "name": "newOwner",
          "type": "address"
        }
      ],
      "name": "transferOwnership",
      "outputs": [],
      "stateMutability": "nonpayable",
      "type": "function"
    },
    {
      "inputs": [
        {
          "internalType": "uint256",
          "name": "_poolId",
          "type": "uint256"
        },
        {
          "internalType": "uint256",
          "name": "__poolPercentageSplit",
          "type": "uint256"
        }
      ],
      "name": "updatePercentageSplit",
      "outputs": [],
      "stateMutability": "nonpayable",
      "type": "function"
    },
    {
      "inputs": [
        {
          "internalType": "uint256",
          "name": "_poolId",
          "type": "uint256"
        },
        {
          "internalType": "uint256",
          "name": "_apy",
          "type": "uint256"
        },
        {
          "internalType": "uint256",
          "name": "_minPeriod",
          "type": "uint256"
        }
      ],
      "name": "updatePool",
      "outputs": [],
      "stateMutability": "nonpayable",
      "type": "function"
    },
    {
      "inputs": [
        {
          "internalType": "uint256",
          "name": "_poolId",
          "type": "uint256"
        }
      ],
      "name": "withdraw",
      "outputs": [],
      "stateMutability": "nonpayable",
      "type": "function"
    }
  ],
  "bytecode": "0x60806040523480156200001157600080fd5b5060405162003a8838038062003a8883398181016040528101906200003791906200023f565b806001600081905550600073ffffffffffffffffffffffffffffffffffffffff168173ffffffffffffffffffffffffffffffffffffffff1603620000b55760006040517f1e4fbdf7000000000000000000000000000000000000000000000000000000008152600401620000ac919062000282565b60405180910390fd5b620000c6816200010f60201b60201c565b5080600660006101000a81548173ffffffffffffffffffffffffffffffffffffffff021916908373ffffffffffffffffffffffffffffffffffffffff160217905550506200029f565b6000600160009054906101000a900473ffffffffffffffffffffffffffffffffffffffff16905081600160006101000a81548173ffffffffffffffffffffffffffffffffffffffff021916908373ffffffffffffffffffffffffffffffffffffffff1602179055508173ffffffffffffffffffffffffffffffffffffffff168173ffffffffffffffffffffffffffffffffffffffff167f8be0079c531659141344cd1fd0a4f28419497f9722a3daafe3b4186f6b6457e060405160405180910390a35050565b600080fd5b600073ffffffffffffffffffffffffffffffffffffffff82169050919050565b60006200020782620001da565b9050919050565b6200021981620001fa565b81146200022557600080fd5b50565b60008151905062000239816200020e565b92915050565b600060208284031215620002585762000257620001d5565b5b6000620002688482850162000228565b91505092915050565b6200027c81620001fa565b82525050565b600060208201905062000299600083018462000271565b92915050565b6137d980620002af6000396000f3fe6080604052600436106101405760003560e01c80637c366cc6116100b6578063d86c04441161006f578063d86c044414610479578063d88ff1f4146104a2578063da533fd3146104cd578063e2bbb158146104f6578063f2fde38b14610512578063f525cb681461053b57610140565b80637c366cc6146103525780638da5cb5b1461037b5780638f244630146103a65780639abd9b05146103e3578063ab033ea91461040c578063ac4afa381461043557610140565b806330a2e7be1161010857806330a2e7be14610244578063318667631461026d57806347fea81e146102aa5780634e055244146102d35780635aa6e67514610310578063715018a61461033b57610140565b8063068bcd8d14610145578063248a75b71461018857806325f11e8d146101b357806329ba7bb2146101f05780632e1a7d4d1461021b575b600080fd5b34801561015157600080fd5b5061016c60048036038101906101679190611ff0565b610566565b60405161017f979695949392919061214e565b60405180910390f35b34801561019457600080fd5b5061019d61066a565b6040516101aa9190612205565b60405180910390f35b3480156101bf57600080fd5b506101da60048036038101906101d59190611ff0565b610690565b6040516101e79190612220565b60405180910390f35b3480156101fc57600080fd5b506102056106c2565b6040516102129190612205565b60405180910390f35b34801561022757600080fd5b50610242600480360381019061023d9190611ff0565b6106e8565b005b34801561025057600080fd5b5061026b6004803603810190610266919061223b565b6109b3565b005b34801561027957600080fd5b50610294600480360381019061028f91906122a7565b610acc565b6040516102a19190612487565b60405180910390f35b3480156102b657600080fd5b506102d160048036038101906102cc91906124e7565b610cc1565b005b3480156102df57600080fd5b506102fa60048036038101906102f5919061253a565b610f79565b604051610307919061265f565b60405180910390f35b34801561031c57600080fd5b506103256110aa565b6040516103329190612205565b60405180910390f35b34801561034757600080fd5b506103506110d0565b005b34801561035e57600080fd5b50610379600480360381019061037491906122a7565b6110e4565b005b34801561038757600080fd5b50610390611230565b60405161039d9190612205565b60405180910390f35b3480156103b257600080fd5b506103cd60048036038101906103c89190611ff0565b61125a565b6040516103da919061267a565b60405180910390f35b3480156103ef57600080fd5b5061040a60048036038101906104059190611ff0565b61127a565b005b34801561041857600080fd5b50610433600480360381019061042e91906122a7565b61130e565b005b34801561044157600080fd5b5061045c60048036038101906104579190611ff0565b61145a565b604051610470989796959493929190612695565b60405180910390f35b34801561048557600080fd5b506104a0600480360381019061049b919061271a565b611544565b005b3480156104ae57600080fd5b506104b76116aa565b6040516104c49190612487565b60405180910390f35b3480156104d957600080fd5b506104f460048036038101906104ef91906128c7565b61184f565b005b610510600480360381019061050b919061223b565b61194c565b005b34801561051e57600080fd5b50610539600480360381019061053491906122a7565b611cd8565b005b34801561054757600080fd5b50610550611d5e565b60405161055d919061267a565b60405180910390f35b60606000806000806000806000600260008a81526020019081526020016000209050806000018160010160009054906101000a900460ff168260020154836003015484600401548560060160009054906101000a900460ff1686600701548680546105d090612979565b80601f01602080910402602001604051908101604052809291908181526020018280546105fc90612979565b80156106495780601f1061061e57610100808354040283529160200191610649565b820191906000526020600020905b81548152906001019060200180831161062c57829003601f168201915b50505050509650975097509750975097509750975050919395979092949650565b600560009054906101000a900473ffffffffffffffffffffffffffffffffffffffff1681565b6000806002600084815260200190815260200160002090508060060160009054906101000a900460ff16915050919050565b600660009054906101000a900473ffffffffffffffffffffffffffffffffffffffff1681565b6106f0611d64565b600060026000838152602001908152602001600020905060008160080160003373ffffffffffffffffffffffffffffffffffffffff1673ffffffffffffffffffffffffffffffffffffffff16815260200190815260200160002090506000816001015411610793576040517f08c379a000000000000000000000000000000000000000000000000000000000815260040161078a90612a1c565b60405180910390fd5b600060018111156107a7576107a66120ad565b5b8160050160009054906101000a900460ff1660018111156107cb576107ca6120ad565b5b1461080b576040517f08c379a000000000000000000000000000000000000000000000000000000000815260040161080290612a88565b60405180910390fd5b8060060154421015610852576040517f08c379a000000000000000000000000000000000000000000000000000000000815260040161084990612af4565b60405180910390fd5b60018160050160006101000a81548160ff0219169083600181111561087a576108796120ad565b5b021790555080600101548260040160008282546108979190612b43565b9250508190555060003373ffffffffffffffffffffffffffffffffffffffff1682600101546040516108c890612ba8565b60006040518083038185875af1925050503d8060008114610905576040519150601f19603f3d011682016040523d82523d6000602084013e61090a565b606091505b505090508061094e576040517f08c379a000000000000000000000000000000000000000000000000000000000815260040161094590612c09565b60405180910390fd5b3373ffffffffffffffffffffffffffffffffffffffff167f485f1bb6524c663555797e00171a10f341656e59b02d6b557a0a38ba7d5d975183600101548560000160405161099d929190612cc2565b60405180910390a25050506109b0611daa565b50565b600560009054906101000a900473ffffffffffffffffffffffffffffffffffffffff1673ffffffffffffffffffffffffffffffffffffffff163373ffffffffffffffffffffffffffffffffffffffff161480610a5c5750600660009054906101000a900473ffffffffffffffffffffffffffffffffffffffff1673ffffffffffffffffffffffffffffffffffffffff163373ffffffffffffffffffffffffffffffffffffffff16145b610a9b576040517f08c379a0000000000000000000000000000000000000000000000000000000008152600401610a9290612d64565b60405180910390fd5b80600260008481526020019081526020016000206007016000828254610ac19190612b43565b925050819055505050565b6060600060035467ffffffffffffffff811115610aec57610aeb61279c565b5b604051908082528060200260200182016040528015610b2557816020015b610b12611f09565b815260200190600190039081610b0a5790505b5090506000600190505b6003548111610cb757600060026000838152602001908152602001600020905060008160080160008773ffffffffffffffffffffffffffffffffffffffff1673ffffffffffffffffffffffffffffffffffffffff168152602001908152602001600020600101541115610ca3576040518060c00160405280826000018054610bb690612979565b80601f0160208091040260200160405190810160405280929190818152602001828054610be290612979565b8015610c2f5780601f10610c0457610100808354040283529160200191610c2f565b820191906000526020600020905b815481529060010190602001808311610c1257829003601f168201915b50505050508152602001826002015481526020018260030154815260200182600401548152602001826005015481526020018260060160009054906101000a900460ff16151581525083600184610c869190612b43565b81518110610c9757610c96612d84565b5b60200260200101819052505b508080610caf90612db3565b915050610b2f565b5080915050919050565b600460009054906101000a900473ffffffffffffffffffffffffffffffffffffffff1673ffffffffffffffffffffffffffffffffffffffff163373ffffffffffffffffffffffffffffffffffffffff161480610d6a5750600660009054906101000a900473ffffffffffffffffffffffffffffffffffffffff1673ffffffffffffffffffffffffffffffffffffffff163373ffffffffffffffffffffffffffffffffffffffff16145b610da9576040517f08c379a0000000000000000000000000000000000000000000000000000000008152600401610da090612d64565b60405180910390fd5b610db1611d64565b60006002600085815260200190815260200160002090508060060160009054906101000a900460ff16610e19576040517f08c379a0000000000000000000000000000000000000000000000000000000008152600401610e1090612e47565b60405180910390fd5b8281600401541015610e60576040517f08c379a0000000000000000000000000000000000000000000000000000000008152600401610e5790612eb3565b60405180910390fd5b7feef4955e8b18dcb6d1c19905b7b86e5fe56138ad1ce2c5e540ce4e959312f511848484604051610e9393929190612f32565b60405180910390a18173ffffffffffffffffffffffffffffffffffffffff166108fc849081150290604051600060405180830381858888f19350505050158015610ee1573d6000803e3d6000fd5b5082816005016000828254610ef69190612f69565b9250508190555082816004016000828254610f119190612b43565b925050819055503373ffffffffffffffffffffffffffffffffffffffff167f415071086c9ea63f7f39884c21a8af430af53bfd511a362dff69cabcb1b8bcc18260000185604051610f63929190612f9d565b60405180910390a250610f74611daa565b505050565b610f81611f41565b6002600084815260200190815260200160002060080160008373ffffffffffffffffffffffffffffffffffffffff1673ffffffffffffffffffffffffffffffffffffffff1681526020019081526020016000206040518060e00160405290816000820160009054906101000a900473ffffffffffffffffffffffffffffffffffffffff1673ffffffffffffffffffffffffffffffffffffffff1673ffffffffffffffffffffffffffffffffffffffff168152602001600182015481526020016002820154815260200160038201548152602001600482015481526020016005820160009054906101000a900460ff166001811115611082576110816120ad565b5b6001811115611094576110936120ad565b5b8152602001600682015481525050905092915050565b600460009054906101000a900473ffffffffffffffffffffffffffffffffffffffff1681565b6110d8611db4565b6110e26000611e3b565b565b6110ec611db4565b600073ffffffffffffffffffffffffffffffffffffffff16600560009054906101000a900473ffffffffffffffffffffffffffffffffffffffff1673ffffffffffffffffffffffffffffffffffffffff161461117d576040517f08c379a000000000000000000000000000000000000000000000000000000000815260040161117490613019565b60405180910390fd5b600073ffffffffffffffffffffffffffffffffffffffff168173ffffffffffffffffffffffffffffffffffffffff16036111ec576040517f08c379a00000000000000000000000000000000000000000000000000000000081526004016111e3906130ab565b60405180910390fd5b80600560006101000a81548173ffffffffffffffffffffffffffffffffffffffff021916908373ffffffffffffffffffffffffffffffffffffffff16021790555050565b6000600160009054906101000a900473ffffffffffffffffffffffffffffffffffffffff16905090565b600060026000838152602001908152602001600020600401549050919050565b611282611db4565b6002600082815260200190815260200160002060060160009054906101000a900460ff166112dc576040517fe067835f00000000000000000000000000000000000000000000000000000000815260040160405180910390fd5b60006002600083815260200190815260200160002060060160006101000a81548160ff02191690831515021790555050565b611316611db4565b600073ffffffffffffffffffffffffffffffffffffffff16600460009054906101000a900473ffffffffffffffffffffffffffffffffffffffff1673ffffffffffffffffffffffffffffffffffffffff16146113a7576040517f08c379a000000000000000000000000000000000000000000000000000000000815260040161139e90613019565b60405180910390fd5b600073ffffffffffffffffffffffffffffffffffffffff168173ffffffffffffffffffffffffffffffffffffffff1603611416576040517f08c379a000000000000000000000000000000000000000000000000000000000815260040161140d906130ab565b60405180910390fd5b80600460006101000a81548173ffffffffffffffffffffffffffffffffffffffff021916908373ffffffffffffffffffffffffffffffffffffffff16021790555050565b600260205280600052604060002060009150905080600001805461147d90612979565b80601f01602080910402602001604051908101604052809291908181526020018280546114a990612979565b80156114f65780601f106114cb576101008083540402835291602001916114f6565b820191906000526020600020905b8154815290600101906020018083116114d957829003601f168201915b5050505050908060010160009054906101000a900460ff16908060020154908060030154908060040154908060050154908060060160009054906101000a900460ff16908060070154905088565b61154c611db4565b6002600084815260200190815260200160002060060160009054906101000a900460ff166115af576040517f08c379a00000000000000000000000000000000000000000000000000000000081526004016115a69061313d565b60405180910390fd5b600082116115f2576040517f08c379a00000000000000000000000000000000000000000000000000000000081526004016115e9906131a9565b60405180910390fd5b60008111611635576040517f08c379a000000000000000000000000000000000000000000000000000000000815260040161162c90613215565b60405180910390fd5b816002600085815260200190815260200160002060020181905550806002600085815260200190815260200160002060030181905550827f17b8644f386d1c7c7138ef98b3c8035622bbe94d7be9b26f71d2654a547c2943838360405161169d929190613235565b60405180910390a2505050565b6060600060035467ffffffffffffffff8111156116ca576116c961279c565b5b60405190808252806020026020018201604052801561170357816020015b6116f0611f09565b8152602001906001900390816116e85790505b5090506000600190505b60035481116118475760006002600083815260200190815260200160002090506040518060c0016040528082600001805461174790612979565b80601f016020809104026020016040519081016040528092919081815260200182805461177390612979565b80156117c05780601f10611795576101008083540402835291602001916117c0565b820191906000526020600020905b8154815290600101906020018083116117a357829003601f168201915b50505050508152602001826002015481526020018260030154815260200182600401548152602001826005015481526020018260060160009054906101000a900460ff161515815250836001846118179190612b43565b8151811061182857611827612d84565b5b602002602001018190525050808061183f90612db3565b91505061170d565b508091505090565b611857611db4565b60016003600082825461186a9190612f69565b92505081905550600060026000600354815260200190815260200160002090508381600001908161189b91906133eb565b508281600201819055508181600301819055506000816004018190555060018160060160006101000a81548160ff021916908315150217905550848160010160006101000a81548160ff021916908360038111156118fc576118fb6120ad565b5b0217905550606481600701819055506003547ff01906dc0ac306fa816e50166a7ed46af1f05721cb90cea30beebdd8dede3a6d8560405161193d91906134bd565b60405180910390a25050505050565b611954611d64565b6000600260008481526020019081526020016000209050600034116119ae576040517f08c379a00000000000000000000000000000000000000000000000000000000081526004016119a59061352b565b60405180910390fd5b8060060160009054906101000a900460ff166119ff576040517f08c379a00000000000000000000000000000000000000000000000000000000081526004016119f6906135bd565b60405180910390fd5b8060030154821015611a46576040517f08c379a0000000000000000000000000000000000000000000000000000000008152600401611a3d9061364f565b60405180910390fd5b600061016d6064836002015434611a5d919061366f565b611a6791906136e0565b611a7191906136e0565b905060008260080160003373ffffffffffffffffffffffffffffffffffffffff1673ffffffffffffffffffffffffffffffffffffffff1681526020019081526020016000206001015414611afa576040517f08c379a0000000000000000000000000000000000000000000000000000000008152600401611af190613783565b60405180910390fd5b6040518060e001604052803373ffffffffffffffffffffffffffffffffffffffff16815260200134815260200185815260200184815260200182815260200160006001811115611b4d57611b4c6120ad565b5b81526020016201518085611b61919061366f565b42611b6c9190612f69565b8152508260080160003373ffffffffffffffffffffffffffffffffffffffff1673ffffffffffffffffffffffffffffffffffffffff16815260200190815260200160002060008201518160000160006101000a81548173ffffffffffffffffffffffffffffffffffffffff021916908373ffffffffffffffffffffffffffffffffffffffff1602179055506020820151816001015560408201518160020155606082015181600301556080820151816004015560a08201518160050160006101000a81548160ff02191690836001811115611c4a57611c496120ad565b5b021790555060c0820151816006015590505034826004016000828254611c709190612f69565b925050819055503373ffffffffffffffffffffffffffffffffffffffff167f6f85d9948d6ca3dd6ce6ce7d175da22b4e865827ae6fcd530ec7edac1240f9283484600001604051611cc2929190612cc2565b60405180910390a25050611cd4611daa565b5050565b611ce0611db4565b600073ffffffffffffffffffffffffffffffffffffffff168173ffffffffffffffffffffffffffffffffffffffff1603611d525760006040517f1e4fbdf7000000000000000000000000000000000000000000000000000000008152600401611d499190612205565b60405180910390fd5b611d5b81611e3b565b50565b60035481565b600260005403611da0576040517f3ee5aeb500000000000000000000000000000000000000000000000000000000815260040160405180910390fd5b6002600081905550565b6001600081905550565b611dbc611f01565b73ffffffffffffffffffffffffffffffffffffffff16611dda611230565b73ffffffffffffffffffffffffffffffffffffffff1614611e3957611dfd611f01565b6040517f118cdaa7000000000000000000000000000000000000000000000000000000008152600401611e309190612205565b60405180910390fd5b565b6000600160009054906101000a900473ffffffffffffffffffffffffffffffffffffffff16905081600160006101000a81548173ffffffffffffffffffffffffffffffffffffffff021916908373ffffffffffffffffffffffffffffffffffffffff1602179055508173ffffffffffffffffffffffffffffffffffffffff168173ffffffffffffffffffffffffffffffffffffffff167f8be0079c531659141344cd1fd0a4f28419497f9722a3daafe3b4186f6b6457e060405160405180910390a35050565b600033905090565b6040518060c0016040528060608152602001600081526020016000815260200160008152602001600081526020016000151581525090565b6040518060e00160405280600073ffffffffffffffffffffffffffffffffffffffff1681526020016000815260200160008152602001600081526020016000815260200160006001811115611f9957611f986120ad565b5b8152602001600081525090565b6000604051905090565b600080fd5b600080fd5b6000819050919050565b611fcd81611fba565b8114611fd857600080fd5b50565b600081359050611fea81611fc4565b92915050565b60006020828403121561200657612005611fb0565b5b600061201484828501611fdb565b91505092915050565b600081519050919050565b600082825260208201905092915050565b60005b8381101561205757808201518184015260208101905061203c565b60008484015250505050565b6000601f19601f8301169050919050565b600061207f8261201d565b6120898185612028565b9350612099818560208601612039565b6120a281612063565b840191505092915050565b7f4e487b7100000000000000000000000000000000000000000000000000000000600052602160045260246000fd5b600481106120ed576120ec6120ad565b5b50565b60008190506120fe826120dc565b919050565b600061210e826120f0565b9050919050565b61211e81612103565b82525050565b61212d81611fba565b82525050565b60008115159050919050565b61214881612133565b82525050565b600060e0820190508181036000830152612168818a612074565b90506121776020830189612115565b6121846040830188612124565b6121916060830187612124565b61219e6080830186612124565b6121ab60a083018561213f565b6121b860c0830184612124565b98975050505050505050565b600073ffffffffffffffffffffffffffffffffffffffff82169050919050565b60006121ef826121c4565b9050919050565b6121ff816121e4565b82525050565b600060208201905061221a60008301846121f6565b92915050565b6000602082019050612235600083018461213f565b92915050565b6000806040838503121561225257612251611fb0565b5b600061226085828601611fdb565b925050602061227185828601611fdb565b9150509250929050565b612284816121e4565b811461228f57600080fd5b50565b6000813590506122a18161227b565b92915050565b6000602082840312156122bd576122bc611fb0565b5b60006122cb84828501612292565b91505092915050565b600081519050919050565b600082825260208201905092915050565b6000819050602082019050919050565b600082825260208201905092915050565b600061231c8261201d565b6123268185612300565b9350612336818560208601612039565b61233f81612063565b840191505092915050565b61235381611fba565b82525050565b61236281612133565b82525050565b600060c08301600083015184820360008601526123858282612311565b915050602083015161239a602086018261234a565b5060408301516123ad604086018261234a565b5060608301516123c0606086018261234a565b5060808301516123d3608086018261234a565b5060a08301516123e660a0860182612359565b508091505092915050565b60006123fd8383612368565b905092915050565b6000602082019050919050565b600061241d826122d4565b61242781856122df565b935083602082028501612439856122f0565b8060005b85811015612475578484038952815161245685826123f1565b945061246183612405565b925060208a0199505060018101905061243d565b50829750879550505050505092915050565b600060208201905081810360008301526124a18184612412565b905092915050565b60006124b4826121c4565b9050919050565b6124c4816124a9565b81146124cf57600080fd5b50565b6000813590506124e1816124bb565b92915050565b600080600060608486031215612500576124ff611fb0565b5b600061250e86828701611fdb565b935050602061251f86828701611fdb565b9250506040612530868287016124d2565b9150509250925092565b6000806040838503121561255157612550611fb0565b5b600061255f85828601611fdb565b925050602061257085828601612292565b9150509250929050565b612583816121e4565b82525050565b6002811061259a576125996120ad565b5b50565b60008190506125ab82612589565b919050565b60006125bb8261259d565b9050919050565b6125cb816125b0565b82525050565b60e0820160008201516125e7600085018261257a565b5060208201516125fa602085018261234a565b50604082015161260d604085018261234a565b506060820151612620606085018261234a565b506080820151612633608085018261234a565b5060a082015161264660a08501826125c2565b5060c082015161265960c085018261234a565b50505050565b600060e08201905061267460008301846125d1565b92915050565b600060208201905061268f6000830184612124565b92915050565b60006101008201905081810360008301526126b0818b612074565b90506126bf602083018a612115565b6126cc6040830189612124565b6126d96060830188612124565b6126e66080830187612124565b6126f360a0830186612124565b61270060c083018561213f565b61270d60e0830184612124565b9998505050505050505050565b60008060006060848603121561273357612732611fb0565b5b600061274186828701611fdb565b935050602061275286828701611fdb565b925050604061276386828701611fdb565b9150509250925092565b6004811061277a57600080fd5b50565b60008135905061278c8161276d565b92915050565b600080fd5b600080fd5b7f4e487b7100000000000000000000000000000000000000000000000000000000600052604160045260246000fd5b6127d482612063565b810181811067ffffffffffffffff821117156127f3576127f261279c565b5b80604052505050565b6000612806611fa6565b905061281282826127cb565b919050565b600067ffffffffffffffff8211156128325761283161279c565b5b61283b82612063565b9050602081019050919050565b82818337600083830152505050565b600061286a61286584612817565b6127fc565b90508281526020810184848401111561288657612885612797565b5b612891848285612848565b509392505050565b600082601f8301126128ae576128ad612792565b5b81356128be848260208601612857565b91505092915050565b600080600080608085870312156128e1576128e0611fb0565b5b60006128ef8782880161277d565b945050602085013567ffffffffffffffff8111156129105761290f611fb5565b5b61291c87828801612899565b935050604061292d87828801611fdb565b925050606061293e87828801611fdb565b91505092959194509250565b7f4e487b7100000000000000000000000000000000000000000000000000000000600052602260045260246000fd5b6000600282049050600182168061299157607f821691505b6020821081036129a4576129a361294a565b5b50919050565b7f4e6f206465706f73697420666f756e6420666f7220746869732061646472657360008201527f7300000000000000000000000000000000000000000000000000000000000000602082015250565b6000612a06602183612028565b9150612a11826129aa565b604082019050919050565b60006020820190508181036000830152612a35816129f9565b9050919050565b7f4465706f736974206973206e6f74206163746976650000000000000000000000600082015250565b6000612a72601583612028565b9150612a7d82612a3c565b602082019050919050565b60006020820190508181036000830152612aa181612a65565b9050919050565b7f4465706f73697420706572696f6420686173206e6f7420656e64656400000000600082015250565b6000612ade601c83612028565b9150612ae982612aa8565b602082019050919050565b60006020820190508181036000830152612b0d81612ad1565b9050919050565b7f4e487b7100000000000000000000000000000000000000000000000000000000600052601160045260246000fd5b6000612b4e82611fba565b9150612b5983611fba565b9250828203905081811115612b7157612b70612b14565b5b92915050565b600081905092915050565b50565b6000612b92600083612b77565b9150612b9d82612b82565b600082019050919050565b6000612bb382612b85565b9150819050919050565b7f5769746864726177616c206661696c6564000000000000000000000000000000600082015250565b6000612bf3601183612028565b9150612bfe82612bbd565b602082019050919050565b60006020820190508181036000830152612c2281612be6565b9050919050565b60008190508160005260206000209050919050565b60008154612c4b81612979565b612c558186612028565b94506001821660008114612c705760018114612c8657612cb9565b60ff198316865281151560200286019350612cb9565b612c8f85612c29565b60005b83811015612cb157815481890152600182019150602081019050612c92565b808801955050505b50505092915050565b6000604082019050612cd76000830185612124565b8181036020830152612ce98184612c3e565b90509392505050565b7f43616c6c6572206973206e6f742074686520676f7665726e616e636520636f6e60008201527f7472616374000000000000000000000000000000000000000000000000000000602082015250565b6000612d4e602583612028565b9150612d5982612cf2565b604082019050919050565b60006020820190508181036000830152612d7d81612d41565b9050919050565b7f4e487b7100000000000000000000000000000000000000000000000000000000600052603260045260246000fd5b6000612dbe82611fba565b91507fffffffffffffffffffffffffffffffffffffffffffffffffffffffffffffffff8203612df057612def612b14565b5b600182019050919050565b7f506f6f6c206973206e6f74206163746976650000000000000000000000000000600082015250565b6000612e31601283612028565b9150612e3c82612dfb565b602082019050919050565b60006020820190508181036000830152612e6081612e24565b9050919050565b7f4e6f7420656e6f7567682066756e647320696e2074686520706f6f6c00000000600082015250565b6000612e9d601c83612028565b9150612ea882612e67565b602082019050919050565b60006020820190508181036000830152612ecc81612e90565b9050919050565b6000819050919050565b6000612ef8612ef3612eee846121c4565b612ed3565b6121c4565b9050919050565b6000612f0a82612edd565b9050919050565b6000612f1c82612eff565b9050919050565b612f2c81612f11565b82525050565b6000606082019050612f476000830186612124565b612f546020830185612124565b612f616040830184612f23565b949350505050565b6000612f7482611fba565b9150612f7f83611fba565b9250828201905080821115612f9757612f96612b14565b5b92915050565b60006040820190508181036000830152612fb78185612c3e565b9050612fc66020830184612124565b9392505050565b7f476f7665726e616e636520616c72656164792073657400000000000000000000600082015250565b6000613003601683612028565b915061300e82612fcd565b602082019050919050565b6000602082019050818103600083015261303281612ff6565b9050919050565b7f476f7665726e616e636520616464726573732063616e6e6f74206265207a657260008201527f6f00000000000000000000000000000000000000000000000000000000000000602082015250565b6000613095602183612028565b91506130a082613039565b604082019050919050565b600060208201905081810360008301526130c481613088565b9050919050565b7f506f6f6c20646f6573206e6f74206578697374206f7220697320696e6163746960008201527f7665000000000000000000000000000000000000000000000000000000000000602082015250565b6000613127602283612028565b9150613132826130cb565b604082019050919050565b600060208201905081810360008301526131568161311a565b9050919050565b7f496e76616c696420415059000000000000000000000000000000000000000000600082015250565b6000613193600b83612028565b915061319e8261315d565b602082019050919050565b600060208201905081810360008301526131c281613186565b9050919050565b7f496e76616c6964206d696e696d756d20706572696f6400000000000000000000600082015250565b60006131ff601683612028565b915061320a826131c9565b602082019050919050565b6000602082019050818103600083015261322e816131f2565b9050919050565b600060408201905061324a6000830185612124565b6132576020830184612124565b9392505050565b60006020601f8301049050919050565b600082821b905092915050565b6000600883026132ab7fffffffffffffffffffffffffffffffffffffffffffffffffffffffffffffffff8261326e565b6132b5868361326e565b95508019841693508086168417925050509392505050565b60006132e86132e36132de84611fba565b612ed3565b611fba565b9050919050565b6000819050919050565b613302836132cd565b61331661330e826132ef565b84845461327b565b825550505050565b600090565b61332b61331e565b6133368184846132f9565b505050565b5b8181101561335a5761334f600082613323565b60018101905061333c565b5050565b601f82111561339f5761337081612c29565b6133798461325e565b81016020851015613388578190505b61339c6133948561325e565b83018261333b565b50505b505050565b600082821c905092915050565b60006133c2600019846008026133a4565b1980831691505092915050565b60006133db83836133b1565b9150826002028217905092915050565b6133f48261201d565b67ffffffffffffffff81111561340d5761340c61279c565b5b6134178254612979565b61342282828561335e565b600060209050601f8311600181146134555760008415613443578287015190505b61344d85826133cf565b8655506134b5565b601f19841661346386612c29565b60005b8281101561348b57848901518255600182019150602085019450602081019050613466565b868310156134a857848901516134a4601f8916826133b1565b8355505b6001600288020188555050505b505050505050565b600060208201905081810360008301526134d78184612074565b905092915050565b7f416d6f756e74206d7573742062652067726561746572207468616e2030000000600082015250565b6000613515601d83612028565b9150613520826134df565b602082019050919050565b6000602082019050818103600083015261354481613508565b9050919050565b7f506f6f6c20697320696e616374697665206f7220646f6573206e6f742065786960008201527f7374000000000000000000000000000000000000000000000000000000000000602082015250565b60006135a7602283612028565b91506135b28261354b565b604082019050919050565b600060208201905081810360008301526135d68161359a565b9050919050565b7f4465706f73697420706572696f64206973206c657373207468616e207468652060008201527f6d696e696d756d20726571756972656400000000000000000000000000000000602082015250565b6000613639603083612028565b9150613644826135dd565b604082019050919050565b600060208201905081810360008301526136688161362c565b9050919050565b600061367a82611fba565b915061368583611fba565b925082820261369381611fba565b915082820484148315176136aa576136a9612b14565b5b5092915050565b7f4e487b7100000000000000000000000000000000000000000000000000000000600052601260045260246000fd5b60006136eb82611fba565b91506136f683611fba565b925082613706576137056136b1565b5b828204905092915050565b7f4578697374696e67206465706f73697420666f756e6420666f7220746869732060008201527f6164647265737300000000000000000000000000000000000000000000000000602082015250565b600061376d602783612028565b915061377882613711565b604082019050919050565b6000602082019050818103600083015261379c81613760565b905091905056fea2646970667358221220b8fba6d85aff7e9cde88f68712958b7d13768f8f03c5d34f2c8687fb2b8cb47764736f6c63430008180033",
  "linkReferences": {},
  "deployedLinkReferences": {}
}