{
  "_format": "hh-sol-artifact-1",
  "contractName": "InsuranceCover",
  "sourceName": "contracts/InsuranceCover.sol",
  "abi": [
    {
      "inputs": [
        {
          "internalType": "address",
          "name": "_lpContract",
          "type": "address"
        },
        {
          "internalType": "address",
          "name": "_initialOwner",
          "type": "address"
        },
        {
          "internalType": "address",
          "name": "_governace",
          "type": "address"
        }
      ],
      "stateMutability": "nonpayable",
      "type": "constructor"
    },
    {
      "inputs": [],
      "name": "CoverNotAvailable",
      "type": "error"
    },
    {
      "inputs": [],
      "name": "InsufficientPoolBalance",
      "type": "error"
    },
    {
      "inputs": [],
      "name": "InvalidAmount",
      "type": "error"
    },
    {
      "inputs": [],
      "name": "InvalidCoverDuration",
      "type": "error"
    },
    {
      "inputs": [],
      "name": "LpNotActive",
      "type": "error"
    },
    {
      "inputs": [],
      "name": "NoClaimableReward",
      "type": "error"
    },
    {
      "inputs": [
        {
          "internalType": "address",
          "name": "owner",
          "type": "address"
        }
      ],
      "name": "OwnableInvalidOwner",
      "type": "error"
    },
    {
      "inputs": [
        {
          "internalType": "address",
          "name": "account",
          "type": "address"
        }
      ],
      "name": "OwnableUnauthorizedAccount",
      "type": "error"
    },
    {
      "inputs": [],
      "name": "ReentrancyGuardReentrantCall",
      "type": "error"
    },
    {
      "inputs": [],
      "name": "UnsupportedCoverType",
      "type": "error"
    },
    {
      "inputs": [],
      "name": "WrongPool",
      "type": "error"
    },
    {
      "anonymous": false,
      "inputs": [
        {
          "indexed": false,
          "internalType": "string",
          "name": "name",
          "type": "string"
        },
        {
          "indexed": false,
          "internalType": "enum CoverLib.RiskType",
          "name": "riskType",
          "type": "uint8"
        }
      ],
      "name": "CoverCreated",
      "type": "event"
    },
    {
      "anonymous": false,
      "inputs": [
        {
          "indexed": true,
          "internalType": "address",
          "name": "user",
          "type": "address"
        },
        {
          "indexed": false,
          "internalType": "uint256",
          "name": "coverValue",
          "type": "uint256"
        },
        {
          "indexed": false,
          "internalType": "uint256",
          "name": "coverFee",
          "type": "uint256"
        },
        {
          "indexed": false,
          "internalType": "enum CoverLib.RiskType",
          "name": "riskType",
          "type": "uint8"
        }
      ],
      "name": "CoverPurchased",
      "type": "event"
    },
    {
      "anonymous": false,
      "inputs": [
        {
          "indexed": true,
          "internalType": "address",
          "name": "previousOwner",
          "type": "address"
        },
        {
          "indexed": true,
          "internalType": "address",
          "name": "newOwner",
          "type": "address"
        }
      ],
      "name": "OwnershipTransferred",
      "type": "event"
    },
    {
      "anonymous": false,
      "inputs": [
        {
          "indexed": true,
          "internalType": "address",
          "name": "user",
          "type": "address"
        },
        {
          "indexed": true,
          "internalType": "uint256",
          "name": "poolId",
          "type": "uint256"
        },
        {
          "indexed": false,
          "internalType": "uint256",
          "name": "amount",
          "type": "uint256"
        }
      ],
      "name": "PayoutClaimed",
      "type": "event"
    },
    {
      "inputs": [
        {
          "internalType": "address",
          "name": "",
          "type": "address"
        }
      ],
      "name": "NextLpClaimTime",
      "outputs": [
        {
          "internalType": "uint256",
          "name": "",
          "type": "uint256"
        }
      ],
      "stateMutability": "view",
      "type": "function"
    },
    {
      "inputs": [
        {
          "internalType": "uint256",
          "name": "",
          "type": "uint256"
        }
      ],
      "name": "allCovers",
      "outputs": [
        {
          "internalType": "uint256",
          "name": "id",
          "type": "uint256"
        },
        {
          "internalType": "string",
          "name": "coverName",
          "type": "string"
        },
        {
          "internalType": "enum CoverLib.RiskType",
          "name": "riskType",
          "type": "uint8"
        },
        {
          "internalType": "string",
          "name": "chains",
          "type": "string"
        },
        {
          "internalType": "uint256",
          "name": "capacity",
          "type": "uint256"
        },
        {
          "internalType": "uint256",
          "name": "maxAmount",
          "type": "uint256"
        },
        {
          "internalType": "uint256",
          "name": "poolId",
          "type": "uint256"
        }
      ],
      "stateMutability": "view",
      "type": "function"
    },
    {
      "inputs": [
        {
          "internalType": "uint256",
          "name": "_poolId",
          "type": "uint256"
        }
      ],
      "name": "claimPayoutForLP",
      "outputs": [],
      "stateMutability": "nonpayable",
      "type": "function"
    },
    {
      "inputs": [],
      "name": "coverFeeBalance",
      "outputs": [
        {
          "internalType": "uint256",
          "name": "",
          "type": "uint256"
        }
      ],
      "stateMutability": "view",
      "type": "function"
    },
    {
      "inputs": [
        {
          "internalType": "enum CoverLib.RiskType",
          "name": "_riskType",
          "type": "uint8"
        },
        {
          "internalType": "string",
          "name": "_coverName",
          "type": "string"
        },
        {
          "internalType": "string",
          "name": "_chains",
          "type": "string"
        },
        {
          "internalType": "uint256",
          "name": "_capacity",
          "type": "uint256"
        },
        {
          "internalType": "uint256",
          "name": "_poolId",
          "type": "uint256"
        }
      ],
      "name": "createCover",
      "outputs": [],
      "stateMutability": "nonpayable",
      "type": "function"
    },
    {
      "inputs": [],
      "name": "getAllAvailableCovers",
      "outputs": [
        {
          "components": [
            {
              "internalType": "uint256",
              "name": "id",
              "type": "uint256"
            },
            {
              "internalType": "string",
              "name": "coverName",
              "type": "string"
            },
            {
              "internalType": "enum CoverLib.RiskType",
              "name": "riskType",
              "type": "uint8"
            },
            {
              "internalType": "string",
              "name": "chains",
              "type": "string"
            },
            {
              "internalType": "uint256",
              "name": "capacity",
              "type": "uint256"
            },
            {
              "internalType": "uint256",
              "name": "maxAmount",
              "type": "uint256"
            },
            {
              "internalType": "uint256",
              "name": "poolId",
              "type": "uint256"
            }
          ],
          "internalType": "struct CoverLib.Cover[]",
          "name": "",
          "type": "tuple[]"
        }
      ],
      "stateMutability": "view",
      "type": "function"
    },
    {
      "inputs": [
        {
          "internalType": "address",
          "name": "user",
          "type": "address"
        }
      ],
      "name": "getAllUserCovers",
      "outputs": [
        {
          "components": [
            {
              "internalType": "address",
              "name": "user",
              "type": "address"
            },
            {
              "internalType": "uint256",
              "name": "coverId",
              "type": "uint256"
            },
            {
              "internalType": "enum CoverLib.RiskType",
              "name": "riskType",
              "type": "uint8"
            },
            {
              "internalType": "string",
              "name": "coverName",
              "type": "string"
            },
            {
              "internalType": "uint256",
              "name": "coverValue",
              "type": "uint256"
            },
            {
              "internalType": "uint256",
              "name": "claimPaid",
              "type": "uint256"
            },
            {
              "internalType": "uint256",
              "name": "coverPeriod",
              "type": "uint256"
            },
            {
              "internalType": "uint256",
              "name": "endDay",
              "type": "uint256"
            },
            {
              "internalType": "bool",
              "name": "isActive",
              "type": "bool"
            }
          ],
          "internalType": "struct CoverLib.GenericCoverInfo[]",
          "name": "",
          "type": "tuple[]"
        }
      ],
      "stateMutability": "view",
      "type": "function"
    },
    {
      "inputs": [
        {
          "internalType": "address",
          "name": "user",
          "type": "address"
        },
        {
          "internalType": "enum CoverLib.RiskType",
          "name": "riskType",
          "type": "uint8"
        },
        {
          "internalType": "uint256",
          "name": "_coverId",
          "type": "uint256"
        }
      ],
      "name": "getUserCoverInfo",
      "outputs": [
        {
          "components": [
            {
              "internalType": "enum CoverLib.RiskType",
              "name": "riskType",
              "type": "uint8"
            },
            {
              "internalType": "bytes",
              "name": "coverData",
              "type": "bytes"
            }
          ],
          "internalType": "struct CoverLib.GenericCover",
          "name": "",
          "type": "tuple"
        }
      ],
      "stateMutability": "view",
      "type": "function"
    },
    {
      "inputs": [],
      "name": "governance",
      "outputs": [
        {
          "internalType": "address",
          "name": "",
          "type": "address"
        }
      ],
      "stateMutability": "view",
      "type": "function"
    },
    {
      "inputs": [],
      "name": "initialOwner",
      "outputs": [
        {
          "internalType": "address",
          "name": "",
          "type": "address"
        }
      ],
      "stateMutability": "view",
      "type": "function"
    },
    {
      "inputs": [],
      "name": "lpContract",
      "outputs": [
        {
          "internalType": "contract ILP",
          "name": "",
          "type": "address"
        }
      ],
      "stateMutability": "view",
      "type": "function"
    },
    {
      "inputs": [],
      "name": "owner",
      "outputs": [
        {
          "internalType": "address",
          "name": "",
          "type": "address"
        }
      ],
      "stateMutability": "view",
      "type": "function"
    },
    {
      "inputs": [
        {
          "internalType": "uint256",
          "name": "",
          "type": "uint256"
        }
      ],
      "name": "protocolCoverExist",
      "outputs": [
        {
          "internalType": "bool",
          "name": "",
          "type": "bool"
        }
      ],
      "stateMutability": "view",
      "type": "function"
    },
    {
      "inputs": [
        {
          "internalType": "uint256",
          "name": "",
          "type": "uint256"
        }
      ],
      "name": "protocolCovers",
      "outputs": [
        {
          "internalType": "uint256",
          "name": "id",
          "type": "uint256"
        },
        {
          "internalType": "string",
          "name": "coverName",
          "type": "string"
        },
        {
          "internalType": "enum CoverLib.RiskType",
          "name": "riskType",
          "type": "uint8"
        },
        {
          "internalType": "string",
          "name": "chains",
          "type": "string"
        },
        {
          "internalType": "uint256",
          "name": "capacity",
          "type": "uint256"
        },
        {
          "internalType": "uint256",
          "name": "maxAmount",
          "type": "uint256"
        },
        {
          "internalType": "uint256",
          "name": "poolId",
          "type": "uint256"
        }
      ],
      "stateMutability": "view",
      "type": "function"
    },
    {
      "inputs": [
        {
          "internalType": "enum CoverLib.RiskType",
          "name": "_riskType",
          "type": "uint8"
        },
        {
          "internalType": "uint256",
          "name": "_coverId",
          "type": "uint256"
        },
        {
          "internalType": "string",
          "name": "_coverName",
          "type": "string"
        },
        {
          "internalType": "uint256",
          "name": "_coverValue",
          "type": "uint256"
        },
        {
          "internalType": "uint256",
          "name": "_coverPeriod",
          "type": "uint256"
        }
      ],
      "name": "purchaseCover",
      "outputs": [],
      "stateMutability": "payable",
      "type": "function"
    },
    {
      "inputs": [],
      "name": "renounceOwnership",
      "outputs": [],
      "stateMutability": "nonpayable",
      "type": "function"
    },
    {
      "inputs": [
        {
          "internalType": "uint256",
          "name": "",
          "type": "uint256"
        }
      ],
      "name": "slashingCoverExist",
      "outputs": [
        {
          "internalType": "bool",
          "name": "",
          "type": "bool"
        }
      ],
      "stateMutability": "view",
      "type": "function"
    },
    {
      "inputs": [
        {
          "internalType": "uint256",
          "name": "",
          "type": "uint256"
        }
      ],
      "name": "slashingCovers",
      "outputs": [
        {
          "internalType": "uint256",
          "name": "id",
          "type": "uint256"
        },
        {
          "internalType": "string",
          "name": "coverName",
          "type": "string"
        },
        {
          "internalType": "enum CoverLib.RiskType",
          "name": "riskType",
          "type": "uint8"
        },
        {
          "internalType": "string",
          "name": "chains",
          "type": "string"
        },
        {
          "internalType": "uint256",
          "name": "capacity",
          "type": "uint256"
        },
        {
          "internalType": "uint256",
          "name": "maxAmount",
          "type": "uint256"
        },
        {
          "internalType": "uint256",
          "name": "poolId",
          "type": "uint256"
        }
      ],
      "stateMutability": "view",
      "type": "function"
    },
    {
      "inputs": [
        {
          "internalType": "uint256",
          "name": "",
          "type": "uint256"
        }
      ],
      "name": "smartContractCoverExist",
      "outputs": [
        {
          "internalType": "bool",
          "name": "",
          "type": "bool"
        }
      ],
      "stateMutability": "view",
      "type": "function"
    },
    {
      "inputs": [
        {
          "internalType": "uint256",
          "name": "",
          "type": "uint256"
        }
      ],
      "name": "smartContractCovers",
      "outputs": [
        {
          "internalType": "uint256",
          "name": "id",
          "type": "uint256"
        },
        {
          "internalType": "string",
          "name": "coverName",
          "type": "string"
        },
        {
          "internalType": "enum CoverLib.RiskType",
          "name": "riskType",
          "type": "uint8"
        },
        {
          "internalType": "string",
          "name": "chains",
          "type": "string"
        },
        {
          "internalType": "uint256",
          "name": "capacity",
          "type": "uint256"
        },
        {
          "internalType": "uint256",
          "name": "maxAmount",
          "type": "uint256"
        },
        {
          "internalType": "uint256",
          "name": "poolId",
          "type": "uint256"
        }
      ],
      "stateMutability": "view",
      "type": "function"
    },
    {
      "inputs": [
        {
          "internalType": "uint256",
          "name": "",
          "type": "uint256"
        }
      ],
      "name": "stablecoinCoverExist",
      "outputs": [
        {
          "internalType": "bool",
          "name": "",
          "type": "bool"
        }
      ],
      "stateMutability": "view",
      "type": "function"
    },
    {
      "inputs": [
        {
          "internalType": "uint256",
          "name": "",
          "type": "uint256"
        }
      ],
      "name": "stablecoinCovers",
      "outputs": [
        {
          "internalType": "uint256",
          "name": "id",
          "type": "uint256"
        },
        {
          "internalType": "string",
          "name": "coverName",
          "type": "string"
        },
        {
          "internalType": "enum CoverLib.RiskType",
          "name": "riskType",
          "type": "uint8"
        },
        {
          "internalType": "string",
          "name": "chains",
          "type": "string"
        },
        {
          "internalType": "uint256",
          "name": "capacity",
          "type": "uint256"
        },
        {
          "internalType": "uint256",
          "name": "maxAmount",
          "type": "uint256"
        },
        {
          "internalType": "uint256",
          "name": "poolId",
          "type": "uint256"
        }
      ],
      "stateMutability": "view",
      "type": "function"
    },
    {
      "inputs": [
        {
          "internalType": "address",
          "name": "newOwner",
          "type": "address"
        }
      ],
      "name": "transferOwnership",
      "outputs": [],
      "stateMutability": "nonpayable",
      "type": "function"
    },
    {
      "inputs": [
        {
          "internalType": "address",
          "name": "_newLpContract",
          "type": "address"
        }
      ],
      "name": "updateLPContract",
      "outputs": [],
      "stateMutability": "nonpayable",
      "type": "function"
    },
    {
      "inputs": [
        {
          "internalType": "address",
          "name": "user",
          "type": "address"
        },
        {
          "internalType": "uint256",
          "name": "_coverId",
          "type": "uint256"
        },
        {
          "internalType": "enum CoverLib.RiskType",
          "name": "riskType",
          "type": "uint8"
        },
        {
          "internalType": "uint256",
          "name": "_claimPaid",
          "type": "uint256"
        }
      ],
      "name": "updateUserCoverValue",
      "outputs": [],
      "stateMutability": "nonpayable",
      "type": "function"
    },
    {
      "inputs": [
        {
          "internalType": "address",
          "name": "",
          "type": "address"
        },
        {
          "internalType": "uint256",
          "name": "",
          "type": "uint256"
        }
      ],
      "name": "userCovers",
      "outputs": [
        {
          "internalType": "address",
          "name": "user",
          "type": "address"
        },
        {
          "internalType": "uint256",
          "name": "coverId",
          "type": "uint256"
        },
        {
          "internalType": "enum CoverLib.RiskType",
          "name": "riskType",
          "type": "uint8"
        },
        {
          "internalType": "string",
          "name": "coverName",
          "type": "string"
        },
        {
          "internalType": "uint256",
          "name": "coverValue",
          "type": "uint256"
        },
        {
          "internalType": "uint256",
          "name": "claimPaid",
          "type": "uint256"
        },
        {
          "internalType": "uint256",
          "name": "coverPeriod",
          "type": "uint256"
        },
        {
          "internalType": "uint256",
          "name": "endDay",
          "type": "uint256"
        },
        {
          "internalType": "bool",
          "name": "isActive",
          "type": "bool"
        }
      ],
      "stateMutability": "view",
      "type": "function"
    },
    {
      "inputs": [
        {
          "internalType": "address",
          "name": "",
          "type": "address"
        },
        {
          "internalType": "uint256",
          "name": "",
          "type": "uint256"
        }
      ],
      "name": "userToProtocolCover",
      "outputs": [
        {
          "internalType": "address",
          "name": "user",
          "type": "address"
        },
        {
          "internalType": "uint256",
          "name": "coverId",
          "type": "uint256"
        },
        {
          "internalType": "enum CoverLib.RiskType",
          "name": "riskType",
          "type": "uint8"
        },
        {
          "internalType": "string",
          "name": "coverName",
          "type": "string"
        },
        {
          "internalType": "uint256",
          "name": "coverValue",
          "type": "uint256"
        },
        {
          "internalType": "uint256",
          "name": "claimPaid",
          "type": "uint256"
        },
        {
          "internalType": "uint256",
          "name": "coverPeriod",
          "type": "uint256"
        },
        {
          "internalType": "uint256",
          "name": "endDay",
          "type": "uint256"
        },
        {
          "internalType": "bool",
          "name": "isActive",
          "type": "bool"
        }
      ],
      "stateMutability": "view",
      "type": "function"
    },
    {
      "inputs": [
        {
          "internalType": "address",
          "name": "",
          "type": "address"
        },
        {
          "internalType": "uint256",
          "name": "",
          "type": "uint256"
        }
      ],
      "name": "userToSlashingCover",
      "outputs": [
        {
          "internalType": "address",
          "name": "user",
          "type": "address"
        },
        {
          "internalType": "uint256",
          "name": "coverId",
          "type": "uint256"
        },
        {
          "internalType": "enum CoverLib.RiskType",
          "name": "riskType",
          "type": "uint8"
        },
        {
          "internalType": "string",
          "name": "coverName",
          "type": "string"
        },
        {
          "internalType": "uint256",
          "name": "coverValue",
          "type": "uint256"
        },
        {
          "internalType": "uint256",
          "name": "claimPaid",
          "type": "uint256"
        },
        {
          "internalType": "uint256",
          "name": "coverPeriod",
          "type": "uint256"
        },
        {
          "internalType": "uint256",
          "name": "endDay",
          "type": "uint256"
        },
        {
          "internalType": "bool",
          "name": "isActive",
          "type": "bool"
        }
      ],
      "stateMutability": "view",
      "type": "function"
    },
    {
      "inputs": [
        {
          "internalType": "address",
          "name": "",
          "type": "address"
        },
        {
          "internalType": "uint256",
          "name": "",
          "type": "uint256"
        }
      ],
      "name": "userToSmartContractCover",
      "outputs": [
        {
          "internalType": "address",
          "name": "user",
          "type": "address"
        },
        {
          "internalType": "uint256",
          "name": "coverId",
          "type": "uint256"
        },
        {
          "internalType": "enum CoverLib.RiskType",
          "name": "riskType",
          "type": "uint8"
        },
        {
          "internalType": "string",
          "name": "coverName",
          "type": "string"
        },
        {
          "internalType": "uint256",
          "name": "coverValue",
          "type": "uint256"
        },
        {
          "internalType": "uint256",
          "name": "claimPaid",
          "type": "uint256"
        },
        {
          "internalType": "uint256",
          "name": "coverPeriod",
          "type": "uint256"
        },
        {
          "internalType": "uint256",
          "name": "endDay",
          "type": "uint256"
        },
        {
          "internalType": "bool",
          "name": "isActive",
          "type": "bool"
        }
      ],
      "stateMutability": "view",
      "type": "function"
    },
    {
      "inputs": [
        {
          "internalType": "address",
          "name": "",
          "type": "address"
        },
        {
          "internalType": "uint256",
          "name": "",
          "type": "uint256"
        }
      ],
      "name": "userToStablecoinCover",
      "outputs": [
        {
          "internalType": "address",
          "name": "user",
          "type": "address"
        },
        {
          "internalType": "uint256",
          "name": "coverId",
          "type": "uint256"
        },
        {
          "internalType": "enum CoverLib.RiskType",
          "name": "riskType",
          "type": "uint8"
        },
        {
          "internalType": "string",
          "name": "coverName",
          "type": "string"
        },
        {
          "internalType": "uint256",
          "name": "coverValue",
          "type": "uint256"
        },
        {
          "internalType": "uint256",
          "name": "claimPaid",
          "type": "uint256"
        },
        {
          "internalType": "uint256",
          "name": "coverPeriod",
          "type": "uint256"
        },
        {
          "internalType": "uint256",
          "name": "endDay",
          "type": "uint256"
        },
        {
          "internalType": "bool",
          "name": "isActive",
          "type": "bool"
        }
      ],
      "stateMutability": "view",
      "type": "function"
    }
  ],
  "bytecode": "0x60806040523480156200001157600080fd5b5060405162006179380380620061798339818101604052810190620000379190620002c3565b816001600081905550600073ffffffffffffffffffffffffffffffffffffffff168173ffffffffffffffffffffffffffffffffffffffff1603620000b55760006040517f1e4fbdf7000000000000000000000000000000000000000000000000000000008152600401620000ac919062000330565b60405180910390fd5b620000c6816200019360201b60201c565b5082600360006101000a81548173ffffffffffffffffffffffffffffffffffffffff021916908373ffffffffffffffffffffffffffffffffffffffff16021790555080600460006101000a81548173ffffffffffffffffffffffffffffffffffffffff021916908373ffffffffffffffffffffffffffffffffffffffff16021790555081600560006101000a81548173ffffffffffffffffffffffffffffffffffffffff021916908373ffffffffffffffffffffffffffffffffffffffff1602179055505050506200034d565b6000600160009054906101000a900473ffffffffffffffffffffffffffffffffffffffff16905081600160006101000a81548173ffffffffffffffffffffffffffffffffffffffff021916908373ffffffffffffffffffffffffffffffffffffffff1602179055508173ffffffffffffffffffffffffffffffffffffffff168173ffffffffffffffffffffffffffffffffffffffff167f8be0079c531659141344cd1fd0a4f28419497f9722a3daafe3b4186f6b6457e060405160405180910390a35050565b600080fd5b600073ffffffffffffffffffffffffffffffffffffffff82169050919050565b60006200028b826200025e565b9050919050565b6200029d816200027e565b8114620002a957600080fd5b50565b600081519050620002bd8162000292565b92915050565b600080600060608486031215620002df57620002de62000259565b5b6000620002ef86828701620002ac565b93505060206200030286828701620002ac565b92505060406200031586828701620002ac565b9150509250925092565b6200032a816200027e565b82525050565b60006020820190506200034760008301846200031f565b92915050565b615e1c806200035d6000396000f3fe6080604052600436106101cd5760003560e01c80639190c050116100f7578063bfa76a6c11610095578063dcb2c7e311610064578063dcb2c7e314610755578063e6a44e1e1461077e578063ed42c14b146107c1578063f2fde38b146107fe576101cd565b8063bfa76a6c1461064b578063c26a46e71461068e578063c39f2138146106d3578063d4be89a314610718576101cd565b80639e7b399e116100d15780639e7b399e14610549578063a15fef6d1461058e578063a5c485ef146105d1578063be7070571461060e576101cd565b80639190c0501461049e57806391c9b99a146104e157806393b1ad381461051e576101cd565b80633ed6425b1161016f578063715018a61161013e578063715018a614610408578063746471631461041f5780638acee3cf146104485780638da5cb5b14610473576101cd565b80633ed6425b1461031e5780635aa6e6751461035b5780635c98698414610386578063649718b2146103cb576101cd565b806329ba7bb2116101ab57806329ba7bb2146102765780632d8a340c146102a157806330d90078146102ca578063357917b7146102f3576101cd565b80630aaf5e7f146101d2578063160ae58d14610217578063192344a314610233575b600080fd5b3480156101de57600080fd5b506101f960048036038101906101f491906146f6565b610827565b60405161020e99989796959493929190614876565b60405180910390f35b610231600480360381019061022c9190614a64565b610944565b005b34801561023f57600080fd5b5061025a60048036038101906102559190614afb565b611fca565b60405161026d9796959493929190614b28565b60405180910390f35b34801561028257600080fd5b5061028b612129565b6040516102989190614ba5565b60405180910390f35b3480156102ad57600080fd5b506102c860048036038101906102c39190614afb565b61214f565b005b3480156102d657600080fd5b506102f160048036038101906102ec9190614bc0565b6124af565b005b3480156102ff57600080fd5b50610308612c8e565b6040516103159190614c73565b60405180910390f35b34801561032a57600080fd5b5061034560048036038101906103409190614c8e565b612c94565b6040516103529190614d82565b60405180910390f35b34801561036757600080fd5b50610370612f96565b60405161037d9190614ba5565b60405180910390f35b34801561039257600080fd5b506103ad60048036038101906103a891906146f6565b612fbc565b6040516103c299989796959493929190614876565b60405180910390f35b3480156103d757600080fd5b506103f260048036038101906103ed9190614da4565b6130d9565b6040516103ff9190614fcf565b60405180910390f35b34801561041457600080fd5b5061041d6132e8565b005b34801561042b57600080fd5b5061044660048036038101906104419190614da4565b6132fc565b005b34801561045457600080fd5b5061045d613348565b60405161046a9190615050565b60405180910390f35b34801561047f57600080fd5b5061048861336e565b6040516104959190614ba5565b60405180910390f35b3480156104aa57600080fd5b506104c560048036038101906104c09190614afb565b613398565b6040516104d89796959493929190614b28565b60405180910390f35b3480156104ed57600080fd5b5061050860048036038101906105039190614da4565b6134f7565b6040516105159190614c73565b60405180910390f35b34801561052a57600080fd5b5061053361350f565b60405161054091906151d0565b60405180910390f35b34801561055557600080fd5b50610570600480360381019061056b91906146f6565b6136f5565b60405161058599989796959493929190614876565b60405180910390f35b34801561059a57600080fd5b506105b560048036038101906105b09190614afb565b613822565b6040516105c89796959493929190614b28565b60405180910390f35b3480156105dd57600080fd5b506105f860048036038101906105f39190614afb565b613981565b60405161060591906151f2565b60405180910390f35b34801561061a57600080fd5b5061063560048036038101906106309190614afb565b6139a1565b60405161064291906151f2565b60405180910390f35b34801561065757600080fd5b50610672600480360381019061066d9190614afb565b6139c1565b6040516106859796959493929190614b28565b60405180910390f35b34801561069a57600080fd5b506106b560048036038101906106b091906146f6565b613b20565b6040516106ca99989796959493929190614876565b60405180910390f35b3480156106df57600080fd5b506106fa60048036038101906106f591906146f6565b613c3d565b60405161070f99989796959493929190614876565b60405180910390f35b34801561072457600080fd5b5061073f600480360381019061073a9190614afb565b613d5a565b60405161074c91906151f2565b60405180910390f35b34801561076157600080fd5b5061077c6004803603810190610777919061520d565b613d7a565b005b34801561078a57600080fd5b506107a560048036038101906107a09190614afb565b614268565b6040516107b89796959493929190614b28565b60405180910390f35b3480156107cd57600080fd5b506107e860048036038101906107e39190614afb565b6143d7565b6040516107f591906151f2565b60405180910390f35b34801561080a57600080fd5b5061082560048036038101906108209190614da4565b6143f7565b005b600d602052816000526040600020602052806000526040600020600091509150508060000160009054906101000a900473ffffffffffffffffffffffffffffffffffffffff16908060010154908060020160009054906101000a900460ff1690806003018054610896906152a3565b80601f01602080910402602001604051908101604052809291908181526020018280546108c2906152a3565b801561090f5780601f106108e45761010080835404028352916020019161090f565b820191906000526020600020905b8154815290600101906020018083116108f257829003601f168201915b5050505050908060040154908060050154908060060154908060070154908060080160009054906101000a900460ff16905089565b61094c61447d565b60003411610986576040517f2c5211c600000000000000000000000000000000000000000000000000000000815260040160405180910390fd5b601b81111580610998575061016e8110155b156109cf576040517f3f132b1200000000000000000000000000000000000000000000000000000000815260040160405180910390fd5b60006040518061012001604052803373ffffffffffffffffffffffffffffffffffffffff168152602001868152602001876003811115610a1257610a11614754565b5b8152602001858152602001848152602001600081526020018381526020016201518084610a3f9190615303565b42610a4a9190615345565b815260200160011515815250905060006003811115610a6c57610a6b614754565b5b866003811115610a7f57610a7e614754565b5b03610f8f576006600086815260200190815260200160002060009054906101000a900460ff16610adb576040517fbccd404300000000000000000000000000000000000000000000000000000000815260040160405180910390fd5b60006011600087815260200190815260200160002060050154905080841115610b30576040517fbc6072f100000000000000000000000000000000000000000000000000000000815260040160405180910390fd5b83601160008881526020019081526020016000206005016000828254610b569190615379565b925050819055506000600b60003373ffffffffffffffffffffffffffffffffffffffff1673ffffffffffffffffffffffffffffffffffffffff16815260200190815260200160002060008881526020019081526020016000206004015403610e3c5781600b60003373ffffffffffffffffffffffffffffffffffffffff1673ffffffffffffffffffffffffffffffffffffffff168152602001908152602001600020600088815260200190815260200160002060008201518160000160006101000a81548173ffffffffffffffffffffffffffffffffffffffff021916908373ffffffffffffffffffffffffffffffffffffffff1602179055506020820151816001015560408201518160020160006101000a81548160ff02191690836003811115610c8557610c84614754565b5b02179055506060820151816003019081610c9f919061554f565b506080820151816004015560a0820151816005015560c0820151816006015560e082015181600701556101008201518160080160006101000a81548160ff021916908315150217905550905050600f60003373ffffffffffffffffffffffffffffffffffffffff1673ffffffffffffffffffffffffffffffffffffffff16815260200190815260200160002082908060018154018082558091505060019003906000526020600020906009020160009091909190915060008201518160000160006101000a81548173ffffffffffffffffffffffffffffffffffffffff021916908373ffffffffffffffffffffffffffffffffffffffff1602179055506020820151816001015560408201518160020160006101000a81548160ff02191690836003811115610dd157610dd0614754565b5b02179055506060820151816003019081610deb919061554f565b506080820151816004015560a0820151816005015560c0820151816006015560e082015181600701556101008201518160080160006101000a81548160ff0219169083151502179055505050610f89565b83600b60003373ffffffffffffffffffffffffffffffffffffffff1673ffffffffffffffffffffffffffffffffffffffff16815260200190815260200160002060008881526020019081526020016000206004016000828254610e9f9190615345565b9250508190555082600b60003373ffffffffffffffffffffffffffffffffffffffff1673ffffffffffffffffffffffffffffffffffffffff16815260200190815260200160002060008881526020019081526020016000206006016000828254610f099190615345565b925050819055506201518083610f1f9190615303565b600b60003373ffffffffffffffffffffffffffffffffffffffff1673ffffffffffffffffffffffffffffffffffffffff16815260200190815260200160002060008881526020019081526020016000206007016000828254610f819190615345565b925050819055505b50611f68565b60016003811115610fa357610fa2614754565b5b866003811115610fb657610fb5614754565b5b036114c6576007600086815260200190815260200160002060009054906101000a900460ff16611012576040517fbccd404300000000000000000000000000000000000000000000000000000000815260040160405180910390fd5b60006012600087815260200190815260200160002060050154905080841115611067576040517fbc6072f100000000000000000000000000000000000000000000000000000000815260040160405180910390fd5b8360126000888152602001908152602001600020600501600082825461108d9190615379565b925050819055506000600c60003373ffffffffffffffffffffffffffffffffffffffff1673ffffffffffffffffffffffffffffffffffffffff168152602001908152602001600020600088815260200190815260200160002060040154036113735781600c60003373ffffffffffffffffffffffffffffffffffffffff1673ffffffffffffffffffffffffffffffffffffffff168152602001908152602001600020600088815260200190815260200160002060008201518160000160006101000a81548173ffffffffffffffffffffffffffffffffffffffff021916908373ffffffffffffffffffffffffffffffffffffffff1602179055506020820151816001015560408201518160020160006101000a81548160ff021916908360038111156111bc576111bb614754565b5b021790555060608201518160030190816111d6919061554f565b506080820151816004015560a0820151816005015560c0820151816006015560e082015181600701556101008201518160080160006101000a81548160ff021916908315150217905550905050600f60003373ffffffffffffffffffffffffffffffffffffffff1673ffffffffffffffffffffffffffffffffffffffff16815260200190815260200160002082908060018154018082558091505060019003906000526020600020906009020160009091909190915060008201518160000160006101000a81548173ffffffffffffffffffffffffffffffffffffffff021916908373ffffffffffffffffffffffffffffffffffffffff1602179055506020820151816001015560408201518160020160006101000a81548160ff0219169083600381111561130857611307614754565b5b02179055506060820151816003019081611322919061554f565b506080820151816004015560a0820151816005015560c0820151816006015560e082015181600701556101008201518160080160006101000a81548160ff02191690831515021790555050506114c0565b83600c60003373ffffffffffffffffffffffffffffffffffffffff1673ffffffffffffffffffffffffffffffffffffffff168152602001908152602001600020600088815260200190815260200160002060040160008282546113d69190615345565b9250508190555082600c60003373ffffffffffffffffffffffffffffffffffffffff1673ffffffffffffffffffffffffffffffffffffffff168152602001908152602001600020600088815260200190815260200160002060060160008282546114409190615345565b9250508190555062015180836114569190615303565b600c60003373ffffffffffffffffffffffffffffffffffffffff1673ffffffffffffffffffffffffffffffffffffffff168152602001908152602001600020600088815260200190815260200160002060070160008282546114b89190615345565b925050819055505b50611f67565b600260038111156114da576114d9614754565b5b8660038111156114ed576114ec614754565b5b036119fd576008600086815260200190815260200160002060009054906101000a900460ff16611549576040517fbccd404300000000000000000000000000000000000000000000000000000000815260040160405180910390fd5b6000601360008781526020019081526020016000206005015490508084111561159e576040517fbc6072f100000000000000000000000000000000000000000000000000000000815260040160405180910390fd5b836013600088815260200190815260200160002060050160008282546115c49190615379565b925050819055506000600d60003373ffffffffffffffffffffffffffffffffffffffff1673ffffffffffffffffffffffffffffffffffffffff168152602001908152602001600020600088815260200190815260200160002060040154036118aa5781600d60003373ffffffffffffffffffffffffffffffffffffffff1673ffffffffffffffffffffffffffffffffffffffff168152602001908152602001600020600088815260200190815260200160002060008201518160000160006101000a81548173ffffffffffffffffffffffffffffffffffffffff021916908373ffffffffffffffffffffffffffffffffffffffff1602179055506020820151816001015560408201518160020160006101000a81548160ff021916908360038111156116f3576116f2614754565b5b0217905550606082015181600301908161170d919061554f565b506080820151816004015560a0820151816005015560c0820151816006015560e082015181600701556101008201518160080160006101000a81548160ff021916908315150217905550905050600f60003373ffffffffffffffffffffffffffffffffffffffff1673ffffffffffffffffffffffffffffffffffffffff16815260200190815260200160002082908060018154018082558091505060019003906000526020600020906009020160009091909190915060008201518160000160006101000a81548173ffffffffffffffffffffffffffffffffffffffff021916908373ffffffffffffffffffffffffffffffffffffffff1602179055506020820151816001015560408201518160020160006101000a81548160ff0219169083600381111561183f5761183e614754565b5b02179055506060820151816003019081611859919061554f565b506080820151816004015560a0820151816005015560c0820151816006015560e082015181600701556101008201518160080160006101000a81548160ff02191690831515021790555050506119f7565b83600d60003373ffffffffffffffffffffffffffffffffffffffff1673ffffffffffffffffffffffffffffffffffffffff1681526020019081526020016000206000888152602001908152602001600020600401600082825461190d9190615345565b9250508190555082600d60003373ffffffffffffffffffffffffffffffffffffffff1673ffffffffffffffffffffffffffffffffffffffff168152602001908152602001600020600088815260200190815260200160002060060160008282546119779190615345565b92505081905550620151808361198d9190615303565b600d60003373ffffffffffffffffffffffffffffffffffffffff1673ffffffffffffffffffffffffffffffffffffffff168152602001908152602001600020600088815260200190815260200160002060070160008282546119ef9190615345565b925050819055505b50611f66565b600380811115611a1057611a0f614754565b5b866003811115611a2357611a22614754565b5b03611f33576009600086815260200190815260200160002060009054906101000a900460ff16611a7f576040517fbccd404300000000000000000000000000000000000000000000000000000000815260040160405180910390fd5b60006014600087815260200190815260200160002060050154905080841115611ad4576040517fbc6072f100000000000000000000000000000000000000000000000000000000815260040160405180910390fd5b83601460008881526020019081526020016000206005016000828254611afa9190615379565b925050819055506000600e60003373ffffffffffffffffffffffffffffffffffffffff1673ffffffffffffffffffffffffffffffffffffffff16815260200190815260200160002060008881526020019081526020016000206004015403611de05781600e60003373ffffffffffffffffffffffffffffffffffffffff1673ffffffffffffffffffffffffffffffffffffffff168152602001908152602001600020600088815260200190815260200160002060008201518160000160006101000a81548173ffffffffffffffffffffffffffffffffffffffff021916908373ffffffffffffffffffffffffffffffffffffffff1602179055506020820151816001015560408201518160020160006101000a81548160ff02191690836003811115611c2957611c28614754565b5b02179055506060820151816003019081611c43919061554f565b506080820151816004015560a0820151816005015560c0820151816006015560e082015181600701556101008201518160080160006101000a81548160ff021916908315150217905550905050600f60003373ffffffffffffffffffffffffffffffffffffffff1673ffffffffffffffffffffffffffffffffffffffff16815260200190815260200160002082908060018154018082558091505060019003906000526020600020906009020160009091909190915060008201518160000160006101000a81548173ffffffffffffffffffffffffffffffffffffffff021916908373ffffffffffffffffffffffffffffffffffffffff1602179055506020820151816001015560408201518160020160006101000a81548160ff02191690836003811115611d7557611d74614754565b5b02179055506060820151816003019081611d8f919061554f565b506080820151816004015560a0820151816005015560c0820151816006015560e082015181600701556101008201518160080160006101000a81548160ff0219169083151502179055505050611f2d565b83600e60003373ffffffffffffffffffffffffffffffffffffffff1673ffffffffffffffffffffffffffffffffffffffff16815260200190815260200160002060008881526020019081526020016000206004016000828254611e439190615345565b9250508190555082600e60003373ffffffffffffffffffffffffffffffffffffffff1673ffffffffffffffffffffffffffffffffffffffff16815260200190815260200160002060008881526020019081526020016000206006016000828254611ead9190615345565b925050819055506201518083611ec39190615303565b600e60003373ffffffffffffffffffffffffffffffffffffffff1673ffffffffffffffffffffffffffffffffffffffff16815260200190815260200160002060008881526020019081526020016000206007016000828254611f259190615345565b925050819055505b50611f65565b6040517f1ba7dd4700000000000000000000000000000000000000000000000000000000815260040160405180910390fd5b5b5b5b3373ffffffffffffffffffffffffffffffffffffffff167f23b0f39e0762759ffb18632a1a2b79c9eb58571454e5f7c36e0a2f81759e0a34843489604051611fb293929190615621565b60405180910390a250611fc36144c3565b5050505050565b6013602052806000526040600020600091509050806000015490806001018054611ff3906152a3565b80601f016020809104026020016040519081016040528092919081815260200182805461201f906152a3565b801561206c5780601f106120415761010080835404028352916020019161206c565b820191906000526020600020905b81548152906001019060200180831161204f57829003601f168201915b5050505050908060020160009054906101000a900460ff1690806003018054612094906152a3565b80601f01602080910402602001604051908101604052809291908181526020018280546120c0906152a3565b801561210d5780601f106120e25761010080835404028352916020019161210d565b820191906000526020600020905b8154815290600101906020018083116120f057829003601f168201915b5050505050908060040154908060050154908060060154905087565b600560009054906101000a900473ffffffffffffffffffffffffffffffffffffffff1681565b61215761447d565b6000600360009054906101000a900473ffffffffffffffffffffffffffffffffffffffff1673ffffffffffffffffffffffffffffffffffffffff16634e05524483336040518363ffffffff1660e01b81526004016121b6929190615658565b60e060405180830381865afa1580156121d3573d6000803e3d6000fd5b505050506040513d601f19601f820116820180604052508101906121f79190615789565b90506000600181111561220d5761220c614754565b5b8160a00151600181111561222457612223614754565b5b1461225b576040517fe067835f00000000000000000000000000000000000000000000000000000000815260040160405180910390fd5b6000600a60003373ffffffffffffffffffffffffffffffffffffffff1673ffffffffffffffffffffffffffffffffffffffff16815260200190815260200160002054905060006201518082426122b19190615379565b6122bb91906157e5565b9050600081116122f7576040517fed700a6700000000000000000000000000000000000000000000000000000000815260040160405180910390fd5b60008184608001516123099190615303565b9050600254811115612347576040517fbc6072f100000000000000000000000000000000000000000000000000000000815260040160405180910390fd5b42600a60003373ffffffffffffffffffffffffffffffffffffffff1673ffffffffffffffffffffffffffffffffffffffff1681526020019081526020016000208190555060003373ffffffffffffffffffffffffffffffffffffffff16826040516123b190615847565b60006040518083038185875af1925050503d80600081146123ee576040519150601f19603f3d011682016040523d82523d6000602084013e6123f3565b606091505b5050905080612437576040517f08c379a000000000000000000000000000000000000000000000000000000000815260040161242e906158a8565b60405180910390fd5b81600260008282546124499190615379565b92505081905550853373ffffffffffffffffffffffffffffffffffffffff167f0408e6e0b73daf4c873106e95fd067260fbff8bf9d1b499cad563d4480d45bac846040516124979190614c73565b60405180910390a350505050506124ac6144c3565b50565b6124b76144cd565b6000806000600360009054906101000a900473ffffffffffffffffffffffffffffffffffffffff1673ffffffffffffffffffffffffffffffffffffffff1663068bcd8d856040518263ffffffff1660e01b81526004016125179190614c73565b600060405180830381865afa158015612534573d6000803e3d6000fd5b505050506040513d6000823e3d601f19601f8201168201806040525081019061255d9190615979565b9650509550505093505087600381111561257a57612579614754565b5b83600381111561258d5761258c614754565b5b14158061259957508085115b156125d0576040517fd3c913ea00000000000000000000000000000000000000000000000000000000815260040160405180910390fd5b6000670de0b6b3a76400006064670de0b6b3a7640000886125f19190615303565b6125fb91906157e5565b846126069190615303565b61261091906157e5565b9050600360009054906101000a900473ffffffffffffffffffffffffffffffffffffffff1673ffffffffffffffffffffffffffffffffffffffff166330a2e7be86886040518363ffffffff1660e01b815260040161266f929190615a37565b600060405180830381600087803b15801561268957600080fd5b505af115801561269d573d6000803e3d6000fd5b5050505060006040518060e00160405280600081526020018a81526020018b60038111156126ce576126cd614754565b5b8152602001898152602001888152602001838152602001878152509050600060038111156126ff576126fe614754565b5b8a600381111561271257612711614754565b5b036128095760156000815461272690615a60565b91905081905581600001818152505080601160008360000151815260200190815260200160002060008201518160000155602082015181600101908161276c919061554f565b5060408201518160020160006101000a81548160ff0219169083600381111561279857612797614754565b5b021790555060608201518160030190816127b2919061554f565b506080820151816004015560a0820151816005015560c082015181600601559050506001600660008360000151815260200190815260200160002060006101000a81548160ff021916908315150217905550612b97565b6002600381111561281d5761281c614754565b5b8a60038111156128305761282f614754565b5b036129275760176000815461284490615a60565b91905081905581600001818152505080601360008360000151815260200190815260200160002060008201518160000155602082015181600101908161288a919061554f565b5060408201518160020160006101000a81548160ff021916908360038111156128b6576128b5614754565b5b021790555060608201518160030190816128d0919061554f565b506080820151816004015560a0820151816005015560c082015181600601559050506001600860008360000151815260200190815260200160002060006101000a81548160ff021916908315150217905550612b96565b6001600381111561293b5761293a614754565b5b8a600381111561294e5761294d614754565b5b03612a455760166000815461296290615a60565b9190508190558160000181815250508060126000836000015181526020019081526020016000206000820151816000015560208201518160010190816129a8919061554f565b5060408201518160020160006101000a81548160ff021916908360038111156129d4576129d3614754565b5b021790555060608201518160030190816129ee919061554f565b506080820151816004015560a0820151816005015560c082015181600601559050506001600760008360000151815260200190815260200160002060006101000a81548160ff021916908315150217905550612b95565b600380811115612a5857612a57614754565b5b8a6003811115612a6b57612a6a614754565b5b03612b6257601860008154612a7f90615a60565b919050819055816000018181525050806014600083600001518152602001908152602001600020600082015181600001556020820151816001019081612ac5919061554f565b5060408201518160020160006101000a81548160ff02191690836003811115612af157612af0614754565b5b02179055506060820151816003019081612b0b919061554f565b506080820151816004015560a0820151816005015560c082015181600601559050506001600960008360000151815260200190815260200160002060006101000a81548160ff021916908315150217905550612b94565b6040517f1ba7dd4700000000000000000000000000000000000000000000000000000000815260040160405180910390fd5b5b5b5b6010819080600181540180825580915050600190039060005260206000209060070201600090919091909150600082015181600001556020820151816001019081612be2919061554f565b5060408201518160020160006101000a81548160ff02191690836003811115612c0e57612c0d614754565b5b02179055506060820151816003019081612c28919061554f565b506080820151816004015560a0820151816005015560c0820151816006015550507f036ea185d659d311308d48f377a57d1954df7161b963d5d0c9054f87c438b029898b604051612c7a929190615aa8565b60405180910390a150505050505050505050565b60025481565b612c9c614622565b60006003811115612cb057612caf614754565b5b836003811115612cc357612cc2614754565b5b03612d6557604051806040016040528060006003811115612ce757612ce6614754565b5b8152602001600b60008773ffffffffffffffffffffffffffffffffffffffff1673ffffffffffffffffffffffffffffffffffffffff1681526020019081526020016000206000858152602001908152602001600020604051602001612d4c9190615d32565b6040516020818303038152906040528152509050612f8f565b60016003811115612d7957612d78614754565b5b836003811115612d8c57612d8b614754565b5b03612e2e57604051806040016040528060016003811115612db057612daf614754565b5b8152602001600c60008773ffffffffffffffffffffffffffffffffffffffff1673ffffffffffffffffffffffffffffffffffffffff1681526020019081526020016000206000858152602001908152602001600020604051602001612e159190615d32565b6040516020818303038152906040528152509050612f8f565b60026003811115612e4257612e41614754565b5b836003811115612e5557612e54614754565b5b03612ef757604051806040016040528060026003811115612e7957612e78614754565b5b8152602001600d60008773ffffffffffffffffffffffffffffffffffffffff1673ffffffffffffffffffffffffffffffffffffffff1681526020019081526020016000206000858152602001908152602001600020604051602001612ede9190615d32565b6040516020818303038152906040528152509050612f8f565b6040518060400160405280600380811115612f1557612f14614754565b5b8152602001600e60008773ffffffffffffffffffffffffffffffffffffffff1673ffffffffffffffffffffffffffffffffffffffff1681526020019081526020016000206000858152602001908152602001600020604051602001612f7a9190615d32565b60405160208183030381529060405281525090505b9392505050565b600460009054906101000a900473ffffffffffffffffffffffffffffffffffffffff1681565b600c602052816000526040600020602052806000526040600020600091509150508060000160009054906101000a900473ffffffffffffffffffffffffffffffffffffffff16908060010154908060020160009054906101000a900460ff169080600301805461302b906152a3565b80601f0160208091040260200160405190810160405280929190818152602001828054613057906152a3565b80156130a45780601f10613079576101008083540402835291602001916130a4565b820191906000526020600020905b81548152906001019060200180831161308757829003601f168201915b5050505050908060040154908060050154908060060154908060070154908060080160009054906101000a900460ff16905089565b6060600f60008373ffffffffffffffffffffffffffffffffffffffff1673ffffffffffffffffffffffffffffffffffffffff168152602001908152602001600020805480602002602001604051908101604052809291908181526020016000905b828210156132dd5783829060005260206000209060090201604051806101200160405290816000820160009054906101000a900473ffffffffffffffffffffffffffffffffffffffff1673ffffffffffffffffffffffffffffffffffffffff1673ffffffffffffffffffffffffffffffffffffffff168152602001600182015481526020016002820160009054906101000a900460ff1660038111156131e3576131e2614754565b5b60038111156131f5576131f4614754565b5b8152602001600382018054613209906152a3565b80601f0160208091040260200160405190810160405280929190818152602001828054613235906152a3565b80156132825780601f1061325757610100808354040283529160200191613282565b820191906000526020600020905b81548152906001019060200180831161326557829003601f168201915b50505050508152602001600482015481526020016005820154815260200160068201548152602001600782015481526020016008820160009054906101000a900460ff1615151515815250508152602001906001019061313a565b505050509050919050565b6132f06144cd565b6132fa6000614554565b565b6133046144cd565b80600360006101000a81548173ffffffffffffffffffffffffffffffffffffffff021916908373ffffffffffffffffffffffffffffffffffffffff16021790555050565b600360009054906101000a900473ffffffffffffffffffffffffffffffffffffffff1681565b6000600160009054906101000a900473ffffffffffffffffffffffffffffffffffffffff16905090565b60116020528060005260406000206000915090508060000154908060010180546133c1906152a3565b80601f01602080910402602001604051908101604052809291908181526020018280546133ed906152a3565b801561343a5780601f1061340f5761010080835404028352916020019161343a565b820191906000526020600020905b81548152906001019060200180831161341d57829003601f168201915b5050505050908060020160009054906101000a900460ff1690806003018054613462906152a3565b80601f016020809104026020016040519081016040528092919081815260200182805461348e906152a3565b80156134db5780601f106134b0576101008083540402835291602001916134db565b820191906000526020600020905b8154815290600101906020018083116134be57829003601f168201915b5050505050908060040154908060050154908060060154905087565b600a6020528060005260406000206000915090505481565b60606010805480602002602001604051908101604052809291908181526020016000905b828210156136ec57838290600052602060002090600702016040518060e001604052908160008201548152602001600182018054613570906152a3565b80601f016020809104026020016040519081016040528092919081815260200182805461359c906152a3565b80156135e95780601f106135be576101008083540402835291602001916135e9565b820191906000526020600020905b8154815290600101906020018083116135cc57829003601f168201915b505050505081526020016002820160009054906101000a900460ff16600381111561361757613616614754565b5b600381111561362957613628614754565b5b815260200160038201805461363d906152a3565b80601f0160208091040260200160405190810160405280929190818152602001828054613669906152a3565b80156136b65780601f1061368b576101008083540402835291602001916136b6565b820191906000526020600020905b81548152906001019060200180831161369957829003601f168201915b50505050508152602001600482015481526020016005820154815260200160068201548152505081526020019060010190613533565b50505050905090565b600f602052816000526040600020818154811061371157600080fd5b9060005260206000209060090201600091509150508060000160009054906101000a900473ffffffffffffffffffffffffffffffffffffffff16908060010154908060020160009054906101000a900460ff1690806003018054613774906152a3565b80601f01602080910402602001604051908101604052809291908181526020018280546137a0906152a3565b80156137ed5780601f106137c2576101008083540402835291602001916137ed565b820191906000526020600020905b8154815290600101906020018083116137d057829003601f168201915b5050505050908060040154908060050154908060060154908060070154908060080160009054906101000a900460ff16905089565b601460205280600052604060002060009150905080600001549080600101805461384b906152a3565b80601f0160208091040260200160405190810160405280929190818152602001828054613877906152a3565b80156138c45780601f10613899576101008083540402835291602001916138c4565b820191906000526020600020905b8154815290600101906020018083116138a757829003601f168201915b5050505050908060020160009054906101000a900460ff16908060030180546138ec906152a3565b80601f0160208091040260200160405190810160405280929190818152602001828054613918906152a3565b80156139655780601f1061393a57610100808354040283529160200191613965565b820191906000526020600020905b81548152906001019060200180831161394857829003601f168201915b5050505050908060040154908060050154908060060154905087565b60096020528060005260406000206000915054906101000a900460ff1681565b60076020528060005260406000206000915054906101000a900460ff1681565b60126020528060005260406000206000915090508060000154908060010180546139ea906152a3565b80601f0160208091040260200160405190810160405280929190818152602001828054613a16906152a3565b8015613a635780601f10613a3857610100808354040283529160200191613a63565b820191906000526020600020905b815481529060010190602001808311613a4657829003601f168201915b5050505050908060020160009054906101000a900460ff1690806003018054613a8b906152a3565b80601f0160208091040260200160405190810160405280929190818152602001828054613ab7906152a3565b8015613b045780601f10613ad957610100808354040283529160200191613b04565b820191906000526020600020905b815481529060010190602001808311613ae757829003601f168201915b5050505050908060040154908060050154908060060154905087565b600b602052816000526040600020602052806000526040600020600091509150508060000160009054906101000a900473ffffffffffffffffffffffffffffffffffffffff16908060010154908060020160009054906101000a900460ff1690806003018054613b8f906152a3565b80601f0160208091040260200160405190810160405280929190818152602001828054613bbb906152a3565b8015613c085780601f10613bdd57610100808354040283529160200191613c08565b820191906000526020600020905b815481529060010190602001808311613beb57829003601f168201915b5050505050908060040154908060050154908060060154908060070154908060080160009054906101000a900460ff16905089565b600e602052816000526040600020602052806000526040600020600091509150508060000160009054906101000a900473ffffffffffffffffffffffffffffffffffffffff16908060010154908060020160009054906101000a900460ff1690806003018054613cac906152a3565b80601f0160208091040260200160405190810160405280929190818152602001828054613cd8906152a3565b8015613d255780601f10613cfa57610100808354040283529160200191613d25565b820191906000526020600020905b815481529060010190602001808311613d0857829003601f168201915b5050505050908060040154908060050154908060060154908060070154908060080160009054906101000a900460ff16905089565b60066020528060005260406000206000915054906101000a900460ff1681565b600460009054906101000a900473ffffffffffffffffffffffffffffffffffffffff1673ffffffffffffffffffffffffffffffffffffffff163373ffffffffffffffffffffffffffffffffffffffff1614613e0a576040517f08c379a0000000000000000000000000000000000000000000000000000000008152600401613e0190615dc6565b60405180910390fd5b613e1261447d565b60006003811115613e2657613e25614754565b5b826003811115613e3957613e38614754565b5b03613f175780600b60008673ffffffffffffffffffffffffffffffffffffffff1673ffffffffffffffffffffffffffffffffffffffff16815260200190815260200160002060008581526020019081526020016000206004016000828254613ea19190615379565b9250508190555080600b60008673ffffffffffffffffffffffffffffffffffffffff1673ffffffffffffffffffffffffffffffffffffffff16815260200190815260200160002060008581526020019081526020016000206005016000828254613f0b9190615345565b9250508190555061425a565b60016003811115613f2b57613f2a614754565b5b826003811115613f3e57613f3d614754565b5b0361401c5780600c60008673ffffffffffffffffffffffffffffffffffffffff1673ffffffffffffffffffffffffffffffffffffffff16815260200190815260200160002060008581526020019081526020016000206004016000828254613fa69190615379565b9250508190555080600c60008673ffffffffffffffffffffffffffffffffffffffff1673ffffffffffffffffffffffffffffffffffffffff168152602001908152602001600020600085815260200190815260200160002060050160008282546140109190615345565b92505081905550614259565b600260038111156140305761402f614754565b5b82600381111561404357614042614754565b5b036141215780600d60008673ffffffffffffffffffffffffffffffffffffffff1673ffffffffffffffffffffffffffffffffffffffff168152602001908152602001600020600085815260200190815260200160002060040160008282546140ab9190615379565b9250508190555080600d60008673ffffffffffffffffffffffffffffffffffffffff1673ffffffffffffffffffffffffffffffffffffffff168152602001908152602001600020600085815260200190815260200160002060050160008282546141159190615345565b92505081905550614258565b60038081111561413457614133614754565b5b82600381111561414757614146614754565b5b036142255780600e60008673ffffffffffffffffffffffffffffffffffffffff1673ffffffffffffffffffffffffffffffffffffffff168152602001908152602001600020600085815260200190815260200160002060040160008282546141af9190615379565b9250508190555080600e60008673ffffffffffffffffffffffffffffffffffffffff1673ffffffffffffffffffffffffffffffffffffffff168152602001908152602001600020600085815260200190815260200160002060050160008282546142199190615345565b92505081905550614257565b6040517fbccd404300000000000000000000000000000000000000000000000000000000815260040160405180910390fd5b5b5b5b6142626144c3565b50505050565b6010818154811061427857600080fd5b90600052602060002090600702016000915090508060000154908060010180546142a1906152a3565b80601f01602080910402602001604051908101604052809291908181526020018280546142cd906152a3565b801561431a5780601f106142ef5761010080835404028352916020019161431a565b820191906000526020600020905b8154815290600101906020018083116142fd57829003601f168201915b5050505050908060020160009054906101000a900460ff1690806003018054614342906152a3565b80601f016020809104026020016040519081016040528092919081815260200182805461436e906152a3565b80156143bb5780601f10614390576101008083540402835291602001916143bb565b820191906000526020600020905b81548152906001019060200180831161439e57829003601f168201915b5050505050908060040154908060050154908060060154905087565b60086020528060005260406000206000915054906101000a900460ff1681565b6143ff6144cd565b600073ffffffffffffffffffffffffffffffffffffffff168173ffffffffffffffffffffffffffffffffffffffff16036144715760006040517f1e4fbdf70000000000000000000000000000000000000000000000000000000081526004016144689190614ba5565b60405180910390fd5b61447a81614554565b50565b6002600054036144b9576040517f3ee5aeb500000000000000000000000000000000000000000000000000000000815260040160405180910390fd5b6002600081905550565b6001600081905550565b6144d561461a565b73ffffffffffffffffffffffffffffffffffffffff166144f361336e565b73ffffffffffffffffffffffffffffffffffffffff16146145525761451661461a565b6040517f118cdaa70000000000000000000000000000000000000000000000000000000081526004016145499190614ba5565b60405180910390fd5b565b6000600160009054906101000a900473ffffffffffffffffffffffffffffffffffffffff16905081600160006101000a81548173ffffffffffffffffffffffffffffffffffffffff021916908373ffffffffffffffffffffffffffffffffffffffff1602179055508173ffffffffffffffffffffffffffffffffffffffff168173ffffffffffffffffffffffffffffffffffffffff167f8be0079c531659141344cd1fd0a4f28419497f9722a3daafe3b4186f6b6457e060405160405180910390a35050565b600033905090565b60405180604001604052806000600381111561464157614640614754565b5b8152602001606081525090565b6000604051905090565b600080fd5b600080fd5b600073ffffffffffffffffffffffffffffffffffffffff82169050919050565b600061468d82614662565b9050919050565b61469d81614682565b81146146a857600080fd5b50565b6000813590506146ba81614694565b92915050565b6000819050919050565b6146d3816146c0565b81146146de57600080fd5b50565b6000813590506146f0816146ca565b92915050565b6000806040838503121561470d5761470c614658565b5b600061471b858286016146ab565b925050602061472c858286016146e1565b9150509250929050565b61473f81614682565b82525050565b61474e816146c0565b82525050565b7f4e487b7100000000000000000000000000000000000000000000000000000000600052602160045260246000fd5b6004811061479457614793614754565b5b50565b60008190506147a582614783565b919050565b60006147b582614797565b9050919050565b6147c5816147aa565b82525050565b600081519050919050565b600082825260208201905092915050565b60005b838110156148055780820151818401526020810190506147ea565b60008484015250505050565b6000601f19601f8301169050919050565b600061482d826147cb565b61483781856147d6565b93506148478185602086016147e7565b61485081614811565b840191505092915050565b60008115159050919050565b6148708161485b565b82525050565b60006101208201905061488c600083018c614736565b614899602083018b614745565b6148a6604083018a6147bc565b81810360608301526148b88189614822565b90506148c76080830188614745565b6148d460a0830187614745565b6148e160c0830186614745565b6148ee60e0830185614745565b6148fc610100830184614867565b9a9950505050505050505050565b6004811061491757600080fd5b50565b6000813590506149298161490a565b92915050565b600080fd5b600080fd5b7f4e487b7100000000000000000000000000000000000000000000000000000000600052604160045260246000fd5b61497182614811565b810181811067ffffffffffffffff821117156149905761498f614939565b5b80604052505050565b60006149a361464e565b90506149af8282614968565b919050565b600067ffffffffffffffff8211156149cf576149ce614939565b5b6149d882614811565b9050602081019050919050565b82818337600083830152505050565b6000614a07614a02846149b4565b614999565b905082815260208101848484011115614a2357614a22614934565b5b614a2e8482856149e5565b509392505050565b600082601f830112614a4b57614a4a61492f565b5b8135614a5b8482602086016149f4565b91505092915050565b600080600080600060a08688031215614a8057614a7f614658565b5b6000614a8e8882890161491a565b9550506020614a9f888289016146e1565b945050604086013567ffffffffffffffff811115614ac057614abf61465d565b5b614acc88828901614a36565b9350506060614add888289016146e1565b9250506080614aee888289016146e1565b9150509295509295909350565b600060208284031215614b1157614b10614658565b5b6000614b1f848285016146e1565b91505092915050565b600060e082019050614b3d600083018a614745565b8181036020830152614b4f8189614822565b9050614b5e60408301886147bc565b8181036060830152614b708187614822565b9050614b7f6080830186614745565b614b8c60a0830185614745565b614b9960c0830184614745565b98975050505050505050565b6000602082019050614bba6000830184614736565b92915050565b600080600080600060a08688031215614bdc57614bdb614658565b5b6000614bea8882890161491a565b955050602086013567ffffffffffffffff811115614c0b57614c0a61465d565b5b614c1788828901614a36565b945050604086013567ffffffffffffffff811115614c3857614c3761465d565b5b614c4488828901614a36565b9350506060614c55888289016146e1565b9250506080614c66888289016146e1565b9150509295509295909350565b6000602082019050614c886000830184614745565b92915050565b600080600060608486031215614ca757614ca6614658565b5b6000614cb5868287016146ab565b9350506020614cc68682870161491a565b9250506040614cd7868287016146e1565b9150509250925092565b614cea816147aa565b82525050565b600081519050919050565b600082825260208201905092915050565b6000614d1782614cf0565b614d218185614cfb565b9350614d318185602086016147e7565b614d3a81614811565b840191505092915050565b6000604083016000830151614d5d6000860182614ce1565b5060208301518482036020860152614d758282614d0c565b9150508091505092915050565b60006020820190508181036000830152614d9c8184614d45565b905092915050565b600060208284031215614dba57614db9614658565b5b6000614dc8848285016146ab565b91505092915050565b600081519050919050565b600082825260208201905092915050565b6000819050602082019050919050565b614e0681614682565b82525050565b614e15816146c0565b82525050565b600082825260208201905092915050565b6000614e37826147cb565b614e418185614e1b565b9350614e518185602086016147e7565b614e5a81614811565b840191505092915050565b614e6e8161485b565b82525050565b600061012083016000830151614e8d6000860182614dfd565b506020830151614ea06020860182614e0c565b506040830151614eb36040860182614ce1565b5060608301518482036060860152614ecb8282614e2c565b9150506080830151614ee06080860182614e0c565b5060a0830151614ef360a0860182614e0c565b5060c0830151614f0660c0860182614e0c565b5060e0830151614f1960e0860182614e0c565b50610100830151614f2e610100860182614e65565b508091505092915050565b6000614f458383614e74565b905092915050565b6000602082019050919050565b6000614f6582614dd1565b614f6f8185614ddc565b935083602082028501614f8185614ded565b8060005b85811015614fbd5784840389528151614f9e8582614f39565b9450614fa983614f4d565b925060208a01995050600181019050614f85565b50829750879550505050505092915050565b60006020820190508181036000830152614fe98184614f5a565b905092915050565b6000819050919050565b600061501661501161500c84614662565b614ff1565b614662565b9050919050565b600061502882614ffb565b9050919050565b600061503a8261501d565b9050919050565b61504a8161502f565b82525050565b60006020820190506150656000830184615041565b92915050565b600081519050919050565b600082825260208201905092915050565b6000819050602082019050919050565b600060e0830160008301516150af6000860182614e0c565b50602083015184820360208601526150c78282614e2c565b91505060408301516150dc6040860182614ce1565b50606083015184820360608601526150f48282614e2c565b91505060808301516151096080860182614e0c565b5060a083015161511c60a0860182614e0c565b5060c083015161512f60c0860182614e0c565b508091505092915050565b60006151468383615097565b905092915050565b6000602082019050919050565b60006151668261506b565b6151708185615076565b93508360208202850161518285615087565b8060005b858110156151be578484038952815161519f858261513a565b94506151aa8361514e565b925060208a01995050600181019050615186565b50829750879550505050505092915050565b600060208201905081810360008301526151ea818461515b565b905092915050565b60006020820190506152076000830184614867565b92915050565b6000806000806080858703121561522757615226614658565b5b6000615235878288016146ab565b9450506020615246878288016146e1565b93505060406152578782880161491a565b9250506060615268878288016146e1565b91505092959194509250565b7f4e487b7100000000000000000000000000000000000000000000000000000000600052602260045260246000fd5b600060028204905060018216806152bb57607f821691505b6020821081036152ce576152cd615274565b5b50919050565b7f4e487b7100000000000000000000000000000000000000000000000000000000600052601160045260246000fd5b600061530e826146c0565b9150615319836146c0565b9250828202615327816146c0565b9150828204841483151761533e5761533d6152d4565b5b5092915050565b6000615350826146c0565b915061535b836146c0565b9250828201905080821115615373576153726152d4565b5b92915050565b6000615384826146c0565b915061538f836146c0565b92508282039050818111156153a7576153a66152d4565b5b92915050565b60008190508160005260206000209050919050565b60006020601f8301049050919050565b600082821b905092915050565b60006008830261540f7fffffffffffffffffffffffffffffffffffffffffffffffffffffffffffffffff826153d2565b61541986836153d2565b95508019841693508086168417925050509392505050565b600061544c615447615442846146c0565b614ff1565b6146c0565b9050919050565b6000819050919050565b61546683615431565b61547a61547282615453565b8484546153df565b825550505050565b600090565b61548f615482565b61549a81848461545d565b505050565b5b818110156154be576154b3600082615487565b6001810190506154a0565b5050565b601f821115615503576154d4816153ad565b6154dd846153c2565b810160208510156154ec578190505b6155006154f8856153c2565b83018261549f565b50505b505050565b600082821c905092915050565b600061552660001984600802615508565b1980831691505092915050565b600061553f8383615515565b9150826002028217905092915050565b615558826147cb565b67ffffffffffffffff81111561557157615570614939565b5b61557b82546152a3565b6155868282856154c2565b600060209050601f8311600181146155b957600084156155a7578287015190505b6155b18582615533565b865550615619565b601f1984166155c7866153ad565b60005b828110156155ef578489015182556001820191506020850194506020810190506155ca565b8683101561560c5784890151615608601f891682615515565b8355505b6001600288020188555050505b505050505050565b60006060820190506156366000830186614745565b6156436020830185614745565b61565060408301846147bc565b949350505050565b600060408201905061566d6000830185614745565b61567a6020830184614736565b9392505050565b600080fd5b60008151905061569581614694565b92915050565b6000815190506156aa816146ca565b92915050565b600281106156bd57600080fd5b50565b6000815190506156cf816156b0565b92915050565b600060e082840312156156eb576156ea615681565b5b6156f560e0614999565b9050600061570584828501615686565b60008301525060206157198482850161569b565b602083015250604061572d8482850161569b565b60408301525060606157418482850161569b565b60608301525060806157558482850161569b565b60808301525060a0615769848285016156c0565b60a08301525060c061577d8482850161569b565b60c08301525092915050565b600060e0828403121561579f5761579e614658565b5b60006157ad848285016156d5565b91505092915050565b7f4e487b7100000000000000000000000000000000000000000000000000000000600052601260045260246000fd5b60006157f0826146c0565b91506157fb836146c0565b92508261580b5761580a6157b6565b5b828204905092915050565b600081905092915050565b50565b6000615831600083615816565b915061583c82615821565b600082019050919050565b600061585282615824565b9150819050919050565b7f5472616e73666572206661696c65640000000000000000000000000000000000600082015250565b6000615892600f836147d6565b915061589d8261585c565b602082019050919050565b600060208201905081810360008301526158c181615885565b9050919050565b60006158db6158d6846149b4565b614999565b9050828152602081018484840111156158f7576158f6614934565b5b6159028482856147e7565b509392505050565b600082601f83011261591f5761591e61492f565b5b815161592f8482602086016158c8565b91505092915050565b6000815190506159478161490a565b92915050565b6159568161485b565b811461596157600080fd5b50565b6000815190506159738161594d565b92915050565b600080600080600080600060e0888a03121561599857615997614658565b5b600088015167ffffffffffffffff8111156159b6576159b561465d565b5b6159c28a828b0161590a565b97505060206159d38a828b01615938565b96505060406159e48a828b0161569b565b95505060606159f58a828b0161569b565b9450506080615a068a828b0161569b565b93505060a0615a178a828b01615964565b92505060c0615a288a828b0161569b565b91505092959891949750929550565b6000604082019050615a4c6000830185614745565b615a596020830184614745565b9392505050565b6000615a6b826146c0565b91507fffffffffffffffffffffffffffffffffffffffffffffffffffffffffffffffff8203615a9d57615a9c6152d4565b5b600182019050919050565b60006040820190508181036000830152615ac28185614822565b9050615ad160208301846147bc565b9392505050565b60008160001c9050919050565b600073ffffffffffffffffffffffffffffffffffffffff82169050919050565b6000615b18615b1383615ad8565b615ae5565b9050919050565b6000819050919050565b6000615b3c615b3783615ad8565b615b1f565b9050919050565b600060ff82169050919050565b6000615b63615b5e83615ad8565b615b43565b9050919050565b60008154615b77816152a3565b615b818186614e1b565b94506001821660008114615b9c5760018114615bb257615be5565b60ff198316865281151560200286019350615be5565b615bbb856153ad565b60005b83811015615bdd57815481890152600182019150602081019050615bbe565b808801955050505b50505092915050565b600060ff82169050919050565b6000615c0e615c0983615ad8565b615bee565b9050919050565b600061012083016000808401549050615c2d81615b05565b615c3a6000870182614dfd565b5060018401549050615c4b81615b29565b615c586020870182614e0c565b5060028401549050615c6981615b50565b615c766040870182614ce1565b50600384018583036060870152615c8d8382615b6a565b92505060048401549050615ca081615b29565b615cad6080870182614e0c565b5060058401549050615cbe81615b29565b615ccb60a0870182614e0c565b5060068401549050615cdc81615b29565b615ce960c0870182614e0c565b5060078401549050615cfa81615b29565b615d0760e0870182614e0c565b5060088401549050615d1881615bfb565b615d26610100870182614e65565b50819250505092915050565b60006020820190508181036000830152615d4c8184615c15565b905092915050565b7f43616c6c6572206973206e6f742074686520676f7665726e616e636520636f6e60008201527f7472616374000000000000000000000000000000000000000000000000000000602082015250565b6000615db06025836147d6565b9150615dbb82615d54565b604082019050919050565b60006020820190508181036000830152615ddf81615da3565b905091905056fea2646970667358221220a3faed8068fa0a627e7bfbd9ccdc9a41fdbc93cf6fdf13a957865ee673f2562864736f6c63430008180033",
  "linkReferences": {},
  "deployedLinkReferences": {}
}