{
  "_format": "hh-sol-artifact-1",
  "contractName": "InsuranceCover",
  "sourceName": "contracts/InsuranceCover.sol",
  "abi": [
    {
      "inputs": [
        {
          "internalType": "address",
          "name": "_lpContract",
          "type": "address"
        },
        {
          "internalType": "address",
          "name": "_initialOwner",
          "type": "address"
        },
        {
          "internalType": "address",
          "name": "_governace",
          "type": "address"
        }
      ],
      "stateMutability": "nonpayable",
      "type": "constructor"
    },
    {
      "inputs": [],
      "name": "CoverNotAvailable",
      "type": "error"
    },
    {
      "inputs": [],
      "name": "InsufficientPoolBalance",
      "type": "error"
    },
    {
      "inputs": [],
      "name": "InvalidAmount",
      "type": "error"
    },
    {
      "inputs": [],
      "name": "InvalidCoverDuration",
      "type": "error"
    },
    {
      "inputs": [],
      "name": "LpNotActive",
      "type": "error"
    },
    {
      "inputs": [],
      "name": "NoClaimableReward",
      "type": "error"
    },
    {
      "inputs": [
        {
          "internalType": "address",
          "name": "owner",
          "type": "address"
        }
      ],
      "name": "OwnableInvalidOwner",
      "type": "error"
    },
    {
      "inputs": [
        {
          "internalType": "address",
          "name": "account",
          "type": "address"
        }
      ],
      "name": "OwnableUnauthorizedAccount",
      "type": "error"
    },
    {
      "inputs": [],
      "name": "ReentrancyGuardReentrantCall",
      "type": "error"
    },
    {
      "inputs": [],
      "name": "UnsupportedCoverType",
      "type": "error"
    },
    {
      "inputs": [],
      "name": "WrongPool",
      "type": "error"
    },
    {
      "anonymous": false,
      "inputs": [
        {
          "indexed": false,
          "internalType": "string",
          "name": "name",
          "type": "string"
        },
        {
          "indexed": false,
          "internalType": "enum CoverLib.RiskType",
          "name": "riskType",
          "type": "uint8"
        }
      ],
      "name": "CoverCreated",
      "type": "event"
    },
    {
      "anonymous": false,
      "inputs": [
        {
          "indexed": true,
          "internalType": "address",
          "name": "user",
          "type": "address"
        },
        {
          "indexed": false,
          "internalType": "uint256",
          "name": "coverValue",
          "type": "uint256"
        },
        {
          "indexed": false,
          "internalType": "uint256",
          "name": "coverFee",
          "type": "uint256"
        },
        {
          "indexed": false,
          "internalType": "enum CoverLib.RiskType",
          "name": "riskType",
          "type": "uint8"
        }
      ],
      "name": "CoverPurchased",
      "type": "event"
    },
    {
      "anonymous": false,
      "inputs": [
        {
          "indexed": true,
          "internalType": "address",
          "name": "previousOwner",
          "type": "address"
        },
        {
          "indexed": true,
          "internalType": "address",
          "name": "newOwner",
          "type": "address"
        }
      ],
      "name": "OwnershipTransferred",
      "type": "event"
    },
    {
      "anonymous": false,
      "inputs": [
        {
          "indexed": true,
          "internalType": "address",
          "name": "user",
          "type": "address"
        },
        {
          "indexed": true,
          "internalType": "uint256",
          "name": "poolId",
          "type": "uint256"
        },
        {
          "indexed": false,
          "internalType": "uint256",
          "name": "amount",
          "type": "uint256"
        }
      ],
      "name": "PayoutClaimed",
      "type": "event"
    },
    {
      "inputs": [
        {
          "internalType": "address",
          "name": "",
          "type": "address"
        }
      ],
      "name": "NextLpClaimTime",
      "outputs": [
        {
          "internalType": "uint256",
          "name": "",
          "type": "uint256"
        }
      ],
      "stateMutability": "view",
      "type": "function"
    },
    {
      "inputs": [
        {
          "internalType": "uint256",
          "name": "_poolId",
          "type": "uint256"
        }
      ],
      "name": "claimPayoutForLP",
      "outputs": [],
      "stateMutability": "nonpayable",
      "type": "function"
    },
    {
      "inputs": [],
      "name": "coverCount",
      "outputs": [
        {
          "internalType": "uint256",
          "name": "",
          "type": "uint256"
        }
      ],
      "stateMutability": "view",
      "type": "function"
    },
    {
      "inputs": [
        {
          "internalType": "uint256",
          "name": "",
          "type": "uint256"
        }
      ],
      "name": "coverExists",
      "outputs": [
        {
          "internalType": "bool",
          "name": "",
          "type": "bool"
        }
      ],
      "stateMutability": "view",
      "type": "function"
    },
    {
      "inputs": [],
      "name": "coverFeeBalance",
      "outputs": [
        {
          "internalType": "uint256",
          "name": "",
          "type": "uint256"
        }
      ],
      "stateMutability": "view",
      "type": "function"
    },
    {
      "inputs": [
        {
          "internalType": "uint256",
          "name": "",
          "type": "uint256"
        }
      ],
      "name": "covers",
      "outputs": [
        {
          "internalType": "uint256",
          "name": "id",
          "type": "uint256"
        },
        {
          "internalType": "string",
          "name": "coverName",
          "type": "string"
        },
        {
          "internalType": "enum CoverLib.RiskType",
          "name": "riskType",
          "type": "uint8"
        },
        {
          "internalType": "string",
          "name": "chains",
          "type": "string"
        },
        {
          "internalType": "uint256",
          "name": "capacity",
          "type": "uint256"
        },
        {
          "internalType": "uint256",
          "name": "cost",
          "type": "uint256"
        },
        {
          "internalType": "uint256",
          "name": "maxAmount",
          "type": "uint256"
        },
        {
          "internalType": "uint256",
          "name": "poolId",
          "type": "uint256"
        },
        {
          "internalType": "string",
          "name": "CID",
          "type": "string"
        }
      ],
      "stateMutability": "view",
      "type": "function"
    },
    {
      "inputs": [
        {
          "internalType": "string",
          "name": "_cid",
          "type": "string"
        },
        {
          "internalType": "enum CoverLib.RiskType",
          "name": "_riskType",
          "type": "uint8"
        },
        {
          "internalType": "string",
          "name": "_coverName",
          "type": "string"
        },
        {
          "internalType": "string",
          "name": "_chains",
          "type": "string"
        },
        {
          "internalType": "uint256",
          "name": "_capacity",
          "type": "uint256"
        },
        {
          "internalType": "uint256",
          "name": "_cost",
          "type": "uint256"
        },
        {
          "internalType": "uint256",
          "name": "_poolId",
          "type": "uint256"
        }
      ],
      "name": "createCover",
      "outputs": [],
      "stateMutability": "nonpayable",
      "type": "function"
    },
    {
      "inputs": [],
      "name": "getAllAvailableCovers",
      "outputs": [
        {
          "components": [
            {
              "internalType": "uint256",
              "name": "id",
              "type": "uint256"
            },
            {
              "internalType": "string",
              "name": "coverName",
              "type": "string"
            },
            {
              "internalType": "enum CoverLib.RiskType",
              "name": "riskType",
              "type": "uint8"
            },
            {
              "internalType": "string",
              "name": "chains",
              "type": "string"
            },
            {
              "internalType": "uint256",
              "name": "capacity",
              "type": "uint256"
            },
            {
              "internalType": "uint256",
              "name": "cost",
              "type": "uint256"
            },
            {
              "internalType": "uint256",
              "name": "maxAmount",
              "type": "uint256"
            },
            {
              "internalType": "uint256",
              "name": "poolId",
              "type": "uint256"
            },
            {
              "internalType": "string",
              "name": "CID",
              "type": "string"
            }
          ],
          "internalType": "struct CoverLib.Cover[]",
          "name": "",
          "type": "tuple[]"
        }
      ],
      "stateMutability": "view",
      "type": "function"
    },
    {
      "inputs": [
        {
          "internalType": "address",
          "name": "user",
          "type": "address"
        }
      ],
      "name": "getAllUserCovers",
      "outputs": [
        {
          "components": [
            {
              "internalType": "address",
              "name": "user",
              "type": "address"
            },
            {
              "internalType": "uint256",
              "name": "coverId",
              "type": "uint256"
            },
            {
              "internalType": "enum CoverLib.RiskType",
              "name": "riskType",
              "type": "uint8"
            },
            {
              "internalType": "string",
              "name": "coverName",
              "type": "string"
            },
            {
              "internalType": "uint256",
              "name": "coverValue",
              "type": "uint256"
            },
            {
              "internalType": "uint256",
              "name": "claimPaid",
              "type": "uint256"
            },
            {
              "internalType": "uint256",
              "name": "coverPeriod",
              "type": "uint256"
            },
            {
              "internalType": "uint256",
              "name": "endDay",
              "type": "uint256"
            },
            {
              "internalType": "bool",
              "name": "isActive",
              "type": "bool"
            }
          ],
          "internalType": "struct CoverLib.GenericCoverInfo[]",
          "name": "",
          "type": "tuple[]"
        }
      ],
      "stateMutability": "view",
      "type": "function"
    },
    {
      "inputs": [
        {
          "internalType": "address",
          "name": "user",
          "type": "address"
        },
        {
          "internalType": "uint256",
          "name": "_coverId",
          "type": "uint256"
        }
      ],
      "name": "getUserCoverInfo",
      "outputs": [
        {
          "components": [
            {
              "internalType": "address",
              "name": "user",
              "type": "address"
            },
            {
              "internalType": "uint256",
              "name": "coverId",
              "type": "uint256"
            },
            {
              "internalType": "enum CoverLib.RiskType",
              "name": "riskType",
              "type": "uint8"
            },
            {
              "internalType": "string",
              "name": "coverName",
              "type": "string"
            },
            {
              "internalType": "uint256",
              "name": "coverValue",
              "type": "uint256"
            },
            {
              "internalType": "uint256",
              "name": "claimPaid",
              "type": "uint256"
            },
            {
              "internalType": "uint256",
              "name": "coverPeriod",
              "type": "uint256"
            },
            {
              "internalType": "uint256",
              "name": "endDay",
              "type": "uint256"
            },
            {
              "internalType": "bool",
              "name": "isActive",
              "type": "bool"
            }
          ],
          "internalType": "struct CoverLib.GenericCoverInfo",
          "name": "",
          "type": "tuple"
        }
      ],
      "stateMutability": "view",
      "type": "function"
    },
    {
      "inputs": [],
      "name": "governance",
      "outputs": [
        {
          "internalType": "address",
          "name": "",
          "type": "address"
        }
      ],
      "stateMutability": "view",
      "type": "function"
    },
    {
      "inputs": [],
      "name": "lpContract",
      "outputs": [
        {
          "internalType": "contract ILP",
          "name": "",
          "type": "address"
        }
      ],
      "stateMutability": "view",
      "type": "function"
    },
    {
      "inputs": [],
      "name": "owner",
      "outputs": [
        {
          "internalType": "address",
          "name": "",
          "type": "address"
        }
      ],
      "stateMutability": "view",
      "type": "function"
    },
    {
      "inputs": [
        {
          "internalType": "uint256",
          "name": "_coverId",
          "type": "uint256"
        },
        {
          "internalType": "uint256",
          "name": "_coverValue",
          "type": "uint256"
        },
        {
          "internalType": "uint256",
          "name": "_coverPeriod",
          "type": "uint256"
        }
      ],
      "name": "purchaseCover",
      "outputs": [],
      "stateMutability": "payable",
      "type": "function"
    },
    {
      "inputs": [],
      "name": "renounceOwnership",
      "outputs": [],
      "stateMutability": "nonpayable",
      "type": "function"
    },
    {
      "inputs": [
        {
          "internalType": "address",
          "name": "newOwner",
          "type": "address"
        }
      ],
      "name": "transferOwnership",
      "outputs": [],
      "stateMutability": "nonpayable",
      "type": "function"
    },
    {
      "inputs": [
        {
          "internalType": "address",
          "name": "user",
          "type": "address"
        },
        {
          "internalType": "uint256",
          "name": "_coverId",
          "type": "uint256"
        },
        {
          "internalType": "uint256",
          "name": "_claimPaid",
          "type": "uint256"
        }
      ],
      "name": "updateUserCoverValue",
      "outputs": [],
      "stateMutability": "nonpayable",
      "type": "function"
    },
    {
      "inputs": [
        {
          "internalType": "address",
          "name": "",
          "type": "address"
        },
        {
          "internalType": "uint256",
          "name": "",
          "type": "uint256"
        }
      ],
      "name": "userCovers",
      "outputs": [
        {
          "internalType": "address",
          "name": "user",
          "type": "address"
        },
        {
          "internalType": "uint256",
          "name": "coverId",
          "type": "uint256"
        },
        {
          "internalType": "enum CoverLib.RiskType",
          "name": "riskType",
          "type": "uint8"
        },
        {
          "internalType": "string",
          "name": "coverName",
          "type": "string"
        },
        {
          "internalType": "uint256",
          "name": "coverValue",
          "type": "uint256"
        },
        {
          "internalType": "uint256",
          "name": "claimPaid",
          "type": "uint256"
        },
        {
          "internalType": "uint256",
          "name": "coverPeriod",
          "type": "uint256"
        },
        {
          "internalType": "uint256",
          "name": "endDay",
          "type": "uint256"
        },
        {
          "internalType": "bool",
          "name": "isActive",
          "type": "bool"
        }
      ],
      "stateMutability": "view",
      "type": "function"
    }
  ],
  "bytecode": "0x60806040523480156200001157600080fd5b50604051620038b6380380620038b6833981810160405281019062000037919062000282565b816001600081905550600073ffffffffffffffffffffffffffffffffffffffff168173ffffffffffffffffffffffffffffffffffffffff1603620000b55760006040517f1e4fbdf7000000000000000000000000000000000000000000000000000000008152600401620000ac9190620002ef565b60405180910390fd5b620000c6816200015260201b60201c565b5082600360006101000a81548173ffffffffffffffffffffffffffffffffffffffff021916908373ffffffffffffffffffffffffffffffffffffffff16021790555080600460006101000a81548173ffffffffffffffffffffffffffffffffffffffff021916908373ffffffffffffffffffffffffffffffffffffffff1602179055505050506200030c565b6000600160009054906101000a900473ffffffffffffffffffffffffffffffffffffffff16905081600160006101000a81548173ffffffffffffffffffffffffffffffffffffffff021916908373ffffffffffffffffffffffffffffffffffffffff1602179055508173ffffffffffffffffffffffffffffffffffffffff168173ffffffffffffffffffffffffffffffffffffffff167f8be0079c531659141344cd1fd0a4f28419497f9722a3daafe3b4186f6b6457e060405160405180910390a35050565b600080fd5b600073ffffffffffffffffffffffffffffffffffffffff82169050919050565b60006200024a826200021d565b9050919050565b6200025c816200023d565b81146200026857600080fd5b50565b6000815190506200027c8162000251565b92915050565b6000806000606084860312156200029e576200029d62000218565b5b6000620002ae868287016200026b565b9350506020620002c1868287016200026b565b9250506040620002d4868287016200026b565b9150509250925092565b620002e9816200023d565b82525050565b6000602082019050620003066000830184620002de565b92915050565b61359a806200031c6000396000f3fe6080604052600436106101095760003560e01c80638acee3cf116100955780639e7b399e116100645780639e7b399e14610366578063be45dbb6146103ab578063cadcb471146103d4578063f2fde38b14610411578063feb0b8f51461043a57610109565b80638acee3cf146102a85780638da5cb5b146102d357806391c9b99a146102fe57806393b1ad381461033b57610109565b80636299df6c116100dc5780636299df6c146101a9578063649718b2146101ee578063715018a61461022b578063782ea619146102425780637ceb4a691461027f57610109565b8063051b1b861461010e5780632d8a340c1461012a578063357917b7146101535780635aa6e6751461017e575b600080fd5b61012860048036038101906101239190612069565b610465565b005b34801561013657600080fd5b50610151600480360381019061014c91906120bc565b610943565b005b34801561015f57600080fd5b50610168610ca3565b60405161017591906120f8565b60405180910390f35b34801561018a57600080fd5b50610193610ca9565b6040516101a09190612154565b60405180910390f35b3480156101b557600080fd5b506101d060048036038101906101cb91906120bc565b610ccf565b6040516101e599989796959493929190612276565b60405180910390f35b3480156101fa57600080fd5b5061021560048036038101906102109190612344565b610ec2565b604051610222919061258a565b60405180910390f35b34801561023757600080fd5b506102406111a5565b005b34801561024e57600080fd5b50610269600480360381019061026491906120bc565b6111b9565b60405161027691906125bb565b60405180910390f35b34801561028b57600080fd5b506102a660048036038101906102a191906125d6565b6111d9565b005b3480156102b457600080fd5b506102bd611309565b6040516102ca9190612688565b60405180910390f35b3480156102df57600080fd5b506102e861132f565b6040516102f59190612154565b60405180910390f35b34801561030a57600080fd5b5061032560048036038101906103209190612344565b611359565b60405161033291906120f8565b60405180910390f35b34801561034757600080fd5b50610350611371565b60405161035d9190612838565b60405180910390f35b34801561037257600080fd5b5061038d6004803603810190610388919061285a565b611692565b6040516103a29998979695949392919061289a565b60405180910390f35b3480156103b757600080fd5b506103d260048036038101906103cd9190612a88565b6117af565b005b3480156103e057600080fd5b506103fb60048036038101906103f6919061285a565b611b3e565b6040516104089190612c43565b60405180910390f35b34801561041d57600080fd5b5061043860048036038101906104339190612344565b611d1a565b005b34801561044657600080fd5b5061044f611da0565b60405161045c91906120f8565b60405180910390f35b61046d611da6565b600034116104a7576040517f2c5211c600000000000000000000000000000000000000000000000000000000815260040160405180910390fd5b601b811115806104b9575061016e8110155b156104f0576040517f3f132b1200000000000000000000000000000000000000000000000000000000815260040160405180910390fd5b6005600084815260200190815260200160002060009054906101000a900460ff16610547576040517fbccd404300000000000000000000000000000000000000000000000000000000815260040160405180910390fd5b6000600860008581526020019081526020016000209050806006015483111561059c576040517fbc6072f100000000000000000000000000000000000000000000000000000000815260040160405180910390fd5b828160060160008282546105b09190612c94565b925050819055506000600760003373ffffffffffffffffffffffffffffffffffffffff1673ffffffffffffffffffffffffffffffffffffffff168152602001908152602001600020600086815260200190815260200160002090506000816004015403610871576040518061012001604052803373ffffffffffffffffffffffffffffffffffffffff1681526020018681526020018360020160009054906101000a900460ff166003811115610669576106686121ff565b5b815260200183600101805461067d90612cf7565b80601f01602080910402602001604051908101604052809291908181526020018280546106a990612cf7565b80156106f65780601f106106cb576101008083540402835291602001916106f6565b820191906000526020600020905b8154815290600101906020018083116106d957829003601f168201915b505050505081526020018581526020016000815260200184815260200162015180856107229190612d28565b4261072d9190612d6a565b815260200160011515815250600760003373ffffffffffffffffffffffffffffffffffffffff1673ffffffffffffffffffffffffffffffffffffffff168152602001908152602001600020600087815260200190815260200160002060008201518160000160006101000a81548173ffffffffffffffffffffffffffffffffffffffff021916908373ffffffffffffffffffffffffffffffffffffffff1602179055506020820151816001015560408201518160020160006101000a81548160ff02191690836003811115610805576108046121ff565b5b0217905550606082015181600301908161081f9190612f40565b506080820151816004015560a0820151816005015560c0820151816006015560e082015181600701556101008201518160080160006101000a81548160ff0219169083151502179055509050506108d1565b838160040160008282546108859190612d6a565b92505081905550828160060160008282546108a09190612d6a565b9250508190555062015180836108b69190612d28565b8160070160008282546108c99190612d6a565b925050819055505b3373ffffffffffffffffffffffffffffffffffffffff167f23b0f39e0762759ffb18632a1a2b79c9eb58571454e5f7c36e0a2f81759e0a3485348560020160009054906101000a900460ff1660405161092c93929190613012565b60405180910390a2505061093e611dec565b505050565b61094b611da6565b6000600360009054906101000a900473ffffffffffffffffffffffffffffffffffffffff1673ffffffffffffffffffffffffffffffffffffffff16634e05524483336040518363ffffffff1660e01b81526004016109aa929190613049565b60e060405180830381865afa1580156109c7573d6000803e3d6000fd5b505050506040513d601f19601f820116820180604052508101906109eb919061317a565b905060006001811115610a0157610a006121ff565b5b8160a001516001811115610a1857610a176121ff565b5b14610a4f576040517fe067835f00000000000000000000000000000000000000000000000000000000815260040160405180910390fd5b6000600660003373ffffffffffffffffffffffffffffffffffffffff1673ffffffffffffffffffffffffffffffffffffffff1681526020019081526020016000205490506000620151808242610aa59190612c94565b610aaf91906131d6565b905060008111610aeb576040517fed700a6700000000000000000000000000000000000000000000000000000000815260040160405180910390fd5b6000818460800151610afd9190612d28565b9050600254811115610b3b576040517fbc6072f100000000000000000000000000000000000000000000000000000000815260040160405180910390fd5b42600660003373ffffffffffffffffffffffffffffffffffffffff1673ffffffffffffffffffffffffffffffffffffffff1681526020019081526020016000208190555060003373ffffffffffffffffffffffffffffffffffffffff1682604051610ba590613238565b60006040518083038185875af1925050503d8060008114610be2576040519150601f19603f3d011682016040523d82523d6000602084013e610be7565b606091505b5050905080610c2b576040517f08c379a0000000000000000000000000000000000000000000000000000000008152600401610c2290613299565b60405180910390fd5b8160026000828254610c3d9190612c94565b92505081905550853373ffffffffffffffffffffffffffffffffffffffff167f0408e6e0b73daf4c873106e95fd067260fbff8bf9d1b499cad563d4480d45bac84604051610c8b91906120f8565b60405180910390a35050505050610ca0611dec565b50565b60025481565b600460009054906101000a900473ffffffffffffffffffffffffffffffffffffffff1681565b6008602052806000526040600020600091509050806000015490806001018054610cf890612cf7565b80601f0160208091040260200160405190810160405280929190818152602001828054610d2490612cf7565b8015610d715780601f10610d4657610100808354040283529160200191610d71565b820191906000526020600020905b815481529060010190602001808311610d5457829003601f168201915b5050505050908060020160009054906101000a900460ff1690806003018054610d9990612cf7565b80601f0160208091040260200160405190810160405280929190818152602001828054610dc590612cf7565b8015610e125780601f10610de757610100808354040283529160200191610e12565b820191906000526020600020905b815481529060010190602001808311610df557829003601f168201915b505050505090806004015490806005015490806006015490806007015490806008018054610e3f90612cf7565b80601f0160208091040260200160405190810160405280929190818152602001828054610e6b90612cf7565b8015610eb85780601f10610e8d57610100808354040283529160200191610eb8565b820191906000526020600020905b815481529060010190602001808311610e9b57829003601f168201915b5050505050905089565b6060600060095467ffffffffffffffff811115610ee257610ee1612938565b5b604051908082528060200260200182016040528015610f1b57816020015b610f08611f4b565b815260200190600190039081610f005790505b509050600080600190505b6009548111611197576000600760008773ffffffffffffffffffffffffffffffffffffffff1673ffffffffffffffffffffffffffffffffffffffff168152602001908152602001600020600083815260200190815260200160002060040154111561118457600760008673ffffffffffffffffffffffffffffffffffffffff1673ffffffffffffffffffffffffffffffffffffffff1681526020019081526020016000206000828152602001908152602001600020604051806101200160405290816000820160009054906101000a900473ffffffffffffffffffffffffffffffffffffffff1673ffffffffffffffffffffffffffffffffffffffff1673ffffffffffffffffffffffffffffffffffffffff168152602001600182015481526020016002820160009054906101000a900460ff16600381111561106c5761106b6121ff565b5b600381111561107e5761107d6121ff565b5b815260200160038201805461109290612cf7565b80601f01602080910402602001604051908101604052809291908181526020018280546110be90612cf7565b801561110b5780601f106110e05761010080835404028352916020019161110b565b820191906000526020600020905b8154815290600101906020018083116110ee57829003601f168201915b50505050508152602001600482015481526020016005820154815260200160068201548152602001600782015481526020016008820160009054906101000a900460ff16151515158152505083838151811061116a576111696132b9565b5b60200260200101819052508180611180906132e8565b9250505b808061118f906132e8565b915050610f26565b508082528192505050919050565b6111ad611df6565b6111b76000611e7d565b565b60056020528060005260406000206000915054906101000a900460ff1681565b600460009054906101000a900473ffffffffffffffffffffffffffffffffffffffff1673ffffffffffffffffffffffffffffffffffffffff163373ffffffffffffffffffffffffffffffffffffffff1614611269576040517f08c379a00000000000000000000000000000000000000000000000000000000081526004016112609061337c565b60405180910390fd5b611271611da6565b6000600760008573ffffffffffffffffffffffffffffffffffffffff1673ffffffffffffffffffffffffffffffffffffffff16815260200190815260200160002060008481526020019081526020016000209050818160040160008282546112d99190612c94565b92505081905550818160050160008282546112f49190612d6a565b9250508190555050611304611dec565b505050565b600360009054906101000a900473ffffffffffffffffffffffffffffffffffffffff1681565b6000600160009054906101000a900473ffffffffffffffffffffffffffffffffffffffff16905090565b60066020528060005260406000206000915090505481565b6060600060095467ffffffffffffffff81111561139157611390612938565b5b6040519080825280602002602001820160405280156113ca57816020015b6113b7611fc1565b8152602001906001900390816113af5790505b509050600080600190505b6009548111611686576005600082815260200190815260200160002060009054906101000a900460ff16156116735760086000828152602001908152602001600020604051806101200160405290816000820154815260200160018201805461143d90612cf7565b80601f016020809104026020016040519081016040528092919081815260200182805461146990612cf7565b80156114b65780601f1061148b576101008083540402835291602001916114b6565b820191906000526020600020905b81548152906001019060200180831161149957829003601f168201915b505050505081526020016002820160009054906101000a900460ff1660038111156114e4576114e36121ff565b5b60038111156114f6576114f56121ff565b5b815260200160038201805461150a90612cf7565b80601f016020809104026020016040519081016040528092919081815260200182805461153690612cf7565b80156115835780601f1061155857610100808354040283529160200191611583565b820191906000526020600020905b81548152906001019060200180831161156657829003601f168201915b50505050508152602001600482015481526020016005820154815260200160068201548152602001600782015481526020016008820180546115c490612cf7565b80601f01602080910402602001604051908101604052809291908181526020018280546115f090612cf7565b801561163d5780601f106116125761010080835404028352916020019161163d565b820191906000526020600020905b81548152906001019060200180831161162057829003601f168201915b505050505081525050838381518110611659576116586132b9565b5b6020026020010181905250818061166f906132e8565b9250505b808061167e906132e8565b9150506113d5565b50808252819250505090565b6007602052816000526040600020602052806000526040600020600091509150508060000160009054906101000a900473ffffffffffffffffffffffffffffffffffffffff16908060010154908060020160009054906101000a900460ff169080600301805461170190612cf7565b80601f016020809104026020016040519081016040528092919081815260200182805461172d90612cf7565b801561177a5780601f1061174f5761010080835404028352916020019161177a565b820191906000526020600020905b81548152906001019060200180831161175d57829003601f168201915b5050505050908060040154908060050154908060060154908060070154908060080160009054906101000a900460ff16905089565b6117b7611df6565b6000806000600360009054906101000a900473ffffffffffffffffffffffffffffffffffffffff1673ffffffffffffffffffffffffffffffffffffffff1663068bcd8d856040518263ffffffff1660e01b815260040161181791906120f8565b600060405180830381865afa158015611834573d6000803e3d6000fd5b505050506040513d6000823e3d601f19601f8201168201806040525081019061185d919061344d565b9650509550505093505088600381111561187a576118796121ff565b5b83600381111561188d5761188c6121ff565b5b14158061189957508086115b156118d0576040517fd3c913ea00000000000000000000000000000000000000000000000000000000815260040160405180910390fd5b6000670de0b6b3a76400006064670de0b6b3a7640000896118f19190612d28565b6118fb91906131d6565b846119069190612d28565b61191091906131d6565b9050600360009054906101000a900473ffffffffffffffffffffffffffffffffffffffff1673ffffffffffffffffffffffffffffffffffffffff166330a2e7be86896040518363ffffffff1660e01b815260040161196f92919061350b565b600060405180830381600087803b15801561198957600080fd5b505af115801561199d573d6000803e3d6000fd5b50505050600960008154809291906119b4906132e8565b919050555060405180610120016040528060095481526020018a81526020018b60038111156119e6576119e56121ff565b5b81526020018981526020018881526020018781526020018281526020018681526020018c815250600860006009548152602001908152602001600020600082015181600001556020820151816001019081611a419190612f40565b5060408201518160020160006101000a81548160ff02191690836003811115611a6d57611a6c6121ff565b5b02179055506060820151816003019081611a879190612f40565b506080820151816004015560a0820151816005015560c0820151816006015560e08201518160070155610100820151816008019081611ac69190612f40565b50905050600160056000600954815260200190815260200160002060006101000a81548160ff0219169083151502179055507f036ea185d659d311308d48f377a57d1954df7161b963d5d0c9054f87c438b029898b604051611b29929190613534565b60405180910390a15050505050505050505050565b611b46611f4b565b600760008473ffffffffffffffffffffffffffffffffffffffff1673ffffffffffffffffffffffffffffffffffffffff1681526020019081526020016000206000838152602001908152602001600020604051806101200160405290816000820160009054906101000a900473ffffffffffffffffffffffffffffffffffffffff1673ffffffffffffffffffffffffffffffffffffffff1673ffffffffffffffffffffffffffffffffffffffff168152602001600182015481526020016002820160009054906101000a900460ff166003811115611c2757611c266121ff565b5b6003811115611c3957611c386121ff565b5b8152602001600382018054611c4d90612cf7565b80601f0160208091040260200160405190810160405280929190818152602001828054611c7990612cf7565b8015611cc65780601f10611c9b57610100808354040283529160200191611cc6565b820191906000526020600020905b815481529060010190602001808311611ca957829003601f168201915b50505050508152602001600482015481526020016005820154815260200160068201548152602001600782015481526020016008820160009054906101000a900460ff161515151581525050905092915050565b611d22611df6565b600073ffffffffffffffffffffffffffffffffffffffff168173ffffffffffffffffffffffffffffffffffffffff1603611d945760006040517f1e4fbdf7000000000000000000000000000000000000000000000000000000008152600401611d8b9190612154565b60405180910390fd5b611d9d81611e7d565b50565b60095481565b600260005403611de2576040517f3ee5aeb500000000000000000000000000000000000000000000000000000000815260040160405180910390fd5b6002600081905550565b6001600081905550565b611dfe611f43565b73ffffffffffffffffffffffffffffffffffffffff16611e1c61132f565b73ffffffffffffffffffffffffffffffffffffffff1614611e7b57611e3f611f43565b6040517f118cdaa7000000000000000000000000000000000000000000000000000000008152600401611e729190612154565b60405180910390fd5b565b6000600160009054906101000a900473ffffffffffffffffffffffffffffffffffffffff16905081600160006101000a81548173ffffffffffffffffffffffffffffffffffffffff021916908373ffffffffffffffffffffffffffffffffffffffff1602179055508173ffffffffffffffffffffffffffffffffffffffff168173ffffffffffffffffffffffffffffffffffffffff167f8be0079c531659141344cd1fd0a4f28419497f9722a3daafe3b4186f6b6457e060405160405180910390a35050565b600033905090565b604051806101200160405280600073ffffffffffffffffffffffffffffffffffffffff1681526020016000815260200160006003811115611f8f57611f8e6121ff565b5b815260200160608152602001600081526020016000815260200160008152602001600081526020016000151581525090565b604051806101200160405280600081526020016060815260200160006003811115611fef57611fee6121ff565b5b81526020016060815260200160008152602001600081526020016000815260200160008152602001606081525090565b6000604051905090565b600080fd5b600080fd5b6000819050919050565b61204681612033565b811461205157600080fd5b50565b6000813590506120638161203d565b92915050565b60008060006060848603121561208257612081612029565b5b600061209086828701612054565b93505060206120a186828701612054565b92505060406120b286828701612054565b9150509250925092565b6000602082840312156120d2576120d1612029565b5b60006120e084828501612054565b91505092915050565b6120f281612033565b82525050565b600060208201905061210d60008301846120e9565b92915050565b600073ffffffffffffffffffffffffffffffffffffffff82169050919050565b600061213e82612113565b9050919050565b61214e81612133565b82525050565b60006020820190506121696000830184612145565b92915050565b600081519050919050565b600082825260208201905092915050565b60005b838110156121a957808201518184015260208101905061218e565b60008484015250505050565b6000601f19601f8301169050919050565b60006121d18261216f565b6121db818561217a565b93506121eb81856020860161218b565b6121f4816121b5565b840191505092915050565b7f4e487b7100000000000000000000000000000000000000000000000000000000600052602160045260246000fd5b6004811061223f5761223e6121ff565b5b50565b60008190506122508261222e565b919050565b600061226082612242565b9050919050565b61227081612255565b82525050565b60006101208201905061228c600083018c6120e9565b818103602083015261229e818b6121c6565b90506122ad604083018a612267565b81810360608301526122bf81896121c6565b90506122ce60808301886120e9565b6122db60a08301876120e9565b6122e860c08301866120e9565b6122f560e08301856120e9565b81810361010083015261230881846121c6565b90509a9950505050505050505050565b61232181612133565b811461232c57600080fd5b50565b60008135905061233e81612318565b92915050565b60006020828403121561235a57612359612029565b5b60006123688482850161232f565b91505092915050565b600081519050919050565b600082825260208201905092915050565b6000819050602082019050919050565b6123a681612133565b82525050565b6123b581612033565b82525050565b6123c481612255565b82525050565b600082825260208201905092915050565b60006123e68261216f565b6123f081856123ca565b935061240081856020860161218b565b612409816121b5565b840191505092915050565b60008115159050919050565b61242981612414565b82525050565b600061012083016000830151612448600086018261239d565b50602083015161245b60208601826123ac565b50604083015161246e60408601826123bb565b506060830151848203606086015261248682826123db565b915050608083015161249b60808601826123ac565b5060a08301516124ae60a08601826123ac565b5060c08301516124c160c08601826123ac565b5060e08301516124d460e08601826123ac565b506101008301516124e9610100860182612420565b508091505092915050565b6000612500838361242f565b905092915050565b6000602082019050919050565b600061252082612371565b61252a818561237c565b93508360208202850161253c8561238d565b8060005b85811015612578578484038952815161255985826124f4565b945061256483612508565b925060208a01995050600181019050612540565b50829750879550505050505092915050565b600060208201905081810360008301526125a48184612515565b905092915050565b6125b581612414565b82525050565b60006020820190506125d060008301846125ac565b92915050565b6000806000606084860312156125ef576125ee612029565b5b60006125fd8682870161232f565b935050602061260e86828701612054565b925050604061261f86828701612054565b9150509250925092565b6000819050919050565b600061264e61264961264484612113565b612629565b612113565b9050919050565b600061266082612633565b9050919050565b600061267282612655565b9050919050565b61268281612667565b82525050565b600060208201905061269d6000830184612679565b92915050565b600081519050919050565b600082825260208201905092915050565b6000819050602082019050919050565b6000610120830160008301516126e860008601826123ac565b506020830151848203602086015261270082826123db565b915050604083015161271560408601826123bb565b506060830151848203606086015261272d82826123db565b915050608083015161274260808601826123ac565b5060a083015161275560a08601826123ac565b5060c083015161276860c08601826123ac565b5060e083015161277b60e08601826123ac565b5061010083015184820361010086015261279582826123db565b9150508091505092915050565b60006127ae83836126cf565b905092915050565b6000602082019050919050565b60006127ce826126a3565b6127d881856126ae565b9350836020820285016127ea856126bf565b8060005b85811015612826578484038952815161280785826127a2565b9450612812836127b6565b925060208a019950506001810190506127ee565b50829750879550505050505092915050565b6000602082019050818103600083015261285281846127c3565b905092915050565b6000806040838503121561287157612870612029565b5b600061287f8582860161232f565b925050602061289085828601612054565b9150509250929050565b6000610120820190506128b0600083018c612145565b6128bd602083018b6120e9565b6128ca604083018a612267565b81810360608301526128dc81896121c6565b90506128eb60808301886120e9565b6128f860a08301876120e9565b61290560c08301866120e9565b61291260e08301856120e9565b6129206101008301846125ac565b9a9950505050505050505050565b600080fd5b600080fd5b7f4e487b7100000000000000000000000000000000000000000000000000000000600052604160045260246000fd5b612970826121b5565b810181811067ffffffffffffffff8211171561298f5761298e612938565b5b80604052505050565b60006129a261201f565b90506129ae8282612967565b919050565b600067ffffffffffffffff8211156129ce576129cd612938565b5b6129d7826121b5565b9050602081019050919050565b82818337600083830152505050565b6000612a06612a01846129b3565b612998565b905082815260208101848484011115612a2257612a21612933565b5b612a2d8482856129e4565b509392505050565b600082601f830112612a4a57612a4961292e565b5b8135612a5a8482602086016129f3565b91505092915050565b60048110612a7057600080fd5b50565b600081359050612a8281612a63565b92915050565b600080600080600080600060e0888a031215612aa757612aa6612029565b5b600088013567ffffffffffffffff811115612ac557612ac461202e565b5b612ad18a828b01612a35565b9750506020612ae28a828b01612a73565b965050604088013567ffffffffffffffff811115612b0357612b0261202e565b5b612b0f8a828b01612a35565b955050606088013567ffffffffffffffff811115612b3057612b2f61202e565b5b612b3c8a828b01612a35565b9450506080612b4d8a828b01612054565b93505060a0612b5e8a828b01612054565b92505060c0612b6f8a828b01612054565b91505092959891949750929550565b600061012083016000830151612b97600086018261239d565b506020830151612baa60208601826123ac565b506040830151612bbd60408601826123bb565b5060608301518482036060860152612bd582826123db565b9150506080830151612bea60808601826123ac565b5060a0830151612bfd60a08601826123ac565b5060c0830151612c1060c08601826123ac565b5060e0830151612c2360e08601826123ac565b50610100830151612c38610100860182612420565b508091505092915050565b60006020820190508181036000830152612c5d8184612b7e565b905092915050565b7f4e487b7100000000000000000000000000000000000000000000000000000000600052601160045260246000fd5b6000612c9f82612033565b9150612caa83612033565b9250828203905081811115612cc257612cc1612c65565b5b92915050565b7f4e487b7100000000000000000000000000000000000000000000000000000000600052602260045260246000fd5b60006002820490506001821680612d0f57607f821691505b602082108103612d2257612d21612cc8565b5b50919050565b6000612d3382612033565b9150612d3e83612033565b9250828202612d4c81612033565b91508282048414831517612d6357612d62612c65565b5b5092915050565b6000612d7582612033565b9150612d8083612033565b9250828201905080821115612d9857612d97612c65565b5b92915050565b60008190508160005260206000209050919050565b60006020601f8301049050919050565b600082821b905092915050565b600060088302612e007fffffffffffffffffffffffffffffffffffffffffffffffffffffffffffffffff82612dc3565b612e0a8683612dc3565b95508019841693508086168417925050509392505050565b6000612e3d612e38612e3384612033565b612629565b612033565b9050919050565b6000819050919050565b612e5783612e22565b612e6b612e6382612e44565b848454612dd0565b825550505050565b600090565b612e80612e73565b612e8b818484612e4e565b505050565b5b81811015612eaf57612ea4600082612e78565b600181019050612e91565b5050565b601f821115612ef457612ec581612d9e565b612ece84612db3565b81016020851015612edd578190505b612ef1612ee985612db3565b830182612e90565b50505b505050565b600082821c905092915050565b6000612f1760001984600802612ef9565b1980831691505092915050565b6000612f308383612f06565b9150826002028217905092915050565b612f498261216f565b67ffffffffffffffff811115612f6257612f61612938565b5b612f6c8254612cf7565b612f77828285612eb3565b600060209050601f831160018114612faa5760008415612f98578287015190505b612fa28582612f24565b86555061300a565b601f198416612fb886612d9e565b60005b82811015612fe057848901518255600182019150602085019450602081019050612fbb565b86831015612ffd5784890151612ff9601f891682612f06565b8355505b6001600288020188555050505b505050505050565b600060608201905061302760008301866120e9565b61303460208301856120e9565b6130416040830184612267565b949350505050565b600060408201905061305e60008301856120e9565b61306b6020830184612145565b9392505050565b600080fd5b60008151905061308681612318565b92915050565b60008151905061309b8161203d565b92915050565b600281106130ae57600080fd5b50565b6000815190506130c0816130a1565b92915050565b600060e082840312156130dc576130db613072565b5b6130e660e0612998565b905060006130f684828501613077565b600083015250602061310a8482850161308c565b602083015250604061311e8482850161308c565b60408301525060606131328482850161308c565b60608301525060806131468482850161308c565b60808301525060a061315a848285016130b1565b60a08301525060c061316e8482850161308c565b60c08301525092915050565b600060e082840312156131905761318f612029565b5b600061319e848285016130c6565b91505092915050565b7f4e487b7100000000000000000000000000000000000000000000000000000000600052601260045260246000fd5b60006131e182612033565b91506131ec83612033565b9250826131fc576131fb6131a7565b5b828204905092915050565b600081905092915050565b50565b6000613222600083613207565b915061322d82613212565b600082019050919050565b600061324382613215565b9150819050919050565b7f5472616e73666572206661696c65640000000000000000000000000000000000600082015250565b6000613283600f8361217a565b915061328e8261324d565b602082019050919050565b600060208201905081810360008301526132b281613276565b9050919050565b7f4e487b7100000000000000000000000000000000000000000000000000000000600052603260045260246000fd5b60006132f382612033565b91507fffffffffffffffffffffffffffffffffffffffffffffffffffffffffffffffff820361332557613324612c65565b5b600182019050919050565b7f4e6f7420617574686f72697a6564000000000000000000000000000000000000600082015250565b6000613366600e8361217a565b915061337182613330565b602082019050919050565b6000602082019050818103600083015261339581613359565b9050919050565b60006133af6133aa846129b3565b612998565b9050828152602081018484840111156133cb576133ca612933565b5b6133d684828561218b565b509392505050565b600082601f8301126133f3576133f261292e565b5b815161340384826020860161339c565b91505092915050565b60008151905061341b81612a63565b92915050565b61342a81612414565b811461343557600080fd5b50565b60008151905061344781613421565b92915050565b600080600080600080600060e0888a03121561346c5761346b612029565b5b600088015167ffffffffffffffff81111561348a5761348961202e565b5b6134968a828b016133de565b97505060206134a78a828b0161340c565b96505060406134b88a828b0161308c565b95505060606134c98a828b0161308c565b94505060806134da8a828b0161308c565b93505060a06134eb8a828b01613438565b92505060c06134fc8a828b0161308c565b91505092959891949750929550565b600060408201905061352060008301856120e9565b61352d60208301846120e9565b9392505050565b6000604082019050818103600083015261354e81856121c6565b905061355d6020830184612267565b939250505056fea2646970667358221220b6c6b73bdd886f32dc4b536e80d48c24e8128d0bf029b9cce4e8666bfd7062ac64736f6c63430008180033",
  "linkReferences": {},
  "deployedLinkReferences": {}
}